{
  "_format": "hh-sol-artifact-1",
  "contractName": "Collectible",
  "sourceName": "contracts/Collectible.sol",
  "abi": [
    {
      "inputs": [
        {
          "internalType": "string",
          "name": "_name",
          "type": "string"
        },
        {
          "internalType": "string",
          "name": "_symbol",
          "type": "string"
        },
        {
          "internalType": "string",
          "name": "_baseTokenURI",
          "type": "string"
        },
        {
          "internalType": "uint256",
          "name": "_maxSupply",
          "type": "uint256"
        }
      ],
      "stateMutability": "nonpayable",
      "type": "constructor"
    },
    {
      "anonymous": false,
      "inputs": [
        {
          "indexed": true,
          "internalType": "address",
          "name": "owner",
          "type": "address"
        },
        {
          "indexed": true,
          "internalType": "address",
          "name": "approved",
          "type": "address"
        },
        {
          "indexed": true,
          "internalType": "uint256",
          "name": "tokenId",
          "type": "uint256"
        }
      ],
      "name": "Approval",
      "type": "event"
    },
    {
      "anonymous": false,
      "inputs": [
        {
          "indexed": true,
          "internalType": "address",
          "name": "owner",
          "type": "address"
        },
        {
          "indexed": true,
          "internalType": "address",
          "name": "operator",
          "type": "address"
        },
        {
          "indexed": false,
          "internalType": "bool",
          "name": "approved",
          "type": "bool"
        }
      ],
      "name": "ApprovalForAll",
      "type": "event"
    },
    {
      "anonymous": false,
      "inputs": [
        {
          "indexed": true,
          "internalType": "address",
          "name": "previousOwner",
          "type": "address"
        },
        {
          "indexed": true,
          "internalType": "address",
          "name": "newOwner",
          "type": "address"
        }
      ],
      "name": "OwnershipTransferred",
      "type": "event"
    },
    {
      "anonymous": false,
      "inputs": [
        {
          "indexed": true,
          "internalType": "address",
          "name": "from",
          "type": "address"
        },
        {
          "indexed": true,
          "internalType": "address",
          "name": "to",
          "type": "address"
        },
        {
          "indexed": true,
          "internalType": "uint256",
          "name": "tokenId",
          "type": "uint256"
        }
      ],
      "name": "Transfer",
      "type": "event"
    },
    {
      "inputs": [
        {
          "internalType": "address",
          "name": "to",
          "type": "address"
        },
        {
          "internalType": "uint256",
          "name": "tokenId",
          "type": "uint256"
        }
      ],
      "name": "approve",
      "outputs": [],
      "stateMutability": "nonpayable",
      "type": "function"
    },
    {
      "inputs": [
        {
          "internalType": "address",
          "name": "owner",
          "type": "address"
        }
      ],
      "name": "balanceOf",
      "outputs": [
        {
          "internalType": "uint256",
          "name": "",
          "type": "uint256"
        }
      ],
      "stateMutability": "view",
      "type": "function"
    },
    {
      "inputs": [],
      "name": "baseTokenURI",
      "outputs": [
        {
          "internalType": "string",
          "name": "",
          "type": "string"
        }
      ],
      "stateMutability": "view",
      "type": "function"
    },
    {
      "inputs": [
        {
          "internalType": "uint256",
          "name": "tokenId",
          "type": "uint256"
        }
      ],
      "name": "getApproved",
      "outputs": [
        {
          "internalType": "address",
          "name": "",
          "type": "address"
        }
      ],
      "stateMutability": "view",
      "type": "function"
    },
    {
      "inputs": [
        {
          "internalType": "address",
          "name": "owner",
          "type": "address"
        },
        {
          "internalType": "address",
          "name": "operator",
          "type": "address"
        }
      ],
      "name": "isApprovedForAll",
      "outputs": [
        {
          "internalType": "bool",
          "name": "",
          "type": "bool"
        }
      ],
      "stateMutability": "view",
      "type": "function"
    },
    {
      "inputs": [],
      "name": "maxSupply",
      "outputs": [
        {
          "internalType": "uint256",
          "name": "",
          "type": "uint256"
        }
      ],
      "stateMutability": "view",
      "type": "function"
    },
    {
      "inputs": [
        {
          "internalType": "address",
          "name": "_to",
          "type": "address"
        }
      ],
      "name": "mint",
      "outputs": [],
      "stateMutability": "nonpayable",
      "type": "function"
    },
    {
      "inputs": [],
      "name": "name",
      "outputs": [
        {
          "internalType": "string",
          "name": "",
          "type": "string"
        }
      ],
      "stateMutability": "view",
      "type": "function"
    },
    {
      "inputs": [],
      "name": "owner",
      "outputs": [
        {
          "internalType": "address",
          "name": "",
          "type": "address"
        }
      ],
      "stateMutability": "view",
      "type": "function"
    },
    {
      "inputs": [
        {
          "internalType": "uint256",
          "name": "tokenId",
          "type": "uint256"
        }
      ],
      "name": "ownerOf",
      "outputs": [
        {
          "internalType": "address",
          "name": "",
          "type": "address"
        }
      ],
      "stateMutability": "view",
      "type": "function"
    },
    {
      "inputs": [],
      "name": "renounceOwnership",
      "outputs": [],
      "stateMutability": "nonpayable",
      "type": "function"
    },
    {
      "inputs": [
        {
          "internalType": "address",
          "name": "from",
          "type": "address"
        },
        {
          "internalType": "address",
          "name": "to",
          "type": "address"
        },
        {
          "internalType": "uint256",
          "name": "tokenId",
          "type": "uint256"
        }
      ],
      "name": "safeTransferFrom",
      "outputs": [],
      "stateMutability": "nonpayable",
      "type": "function"
    },
    {
      "inputs": [
        {
          "internalType": "address",
          "name": "from",
          "type": "address"
        },
        {
          "internalType": "address",
          "name": "to",
          "type": "address"
        },
        {
          "internalType": "uint256",
          "name": "tokenId",
          "type": "uint256"
        },
        {
          "internalType": "bytes",
          "name": "data",
          "type": "bytes"
        }
      ],
      "name": "safeTransferFrom",
      "outputs": [],
      "stateMutability": "nonpayable",
      "type": "function"
    },
    {
      "inputs": [
        {
          "internalType": "address",
          "name": "operator",
          "type": "address"
        },
        {
          "internalType": "bool",
          "name": "approved",
          "type": "bool"
        }
      ],
      "name": "setApprovalForAll",
      "outputs": [],
      "stateMutability": "nonpayable",
      "type": "function"
    },
    {
      "inputs": [
        {
          "internalType": "address",
          "name": "_traitContract",
          "type": "address"
        }
      ],
      "name": "setTraitCollectible",
      "outputs": [],
      "stateMutability": "nonpayable",
      "type": "function"
    },
    {
      "inputs": [
        {
          "internalType": "bytes4",
          "name": "interfaceId",
          "type": "bytes4"
        }
      ],
      "name": "supportsInterface",
      "outputs": [
        {
          "internalType": "bool",
          "name": "",
          "type": "bool"
        }
      ],
      "stateMutability": "view",
      "type": "function"
    },
    {
      "inputs": [],
      "name": "symbol",
      "outputs": [
        {
          "internalType": "string",
          "name": "",
          "type": "string"
        }
      ],
      "stateMutability": "view",
      "type": "function"
    },
    {
      "inputs": [],
      "name": "tokenIds",
      "outputs": [
        {
          "internalType": "uint256",
          "name": "_value",
          "type": "uint256"
        }
      ],
      "stateMutability": "view",
      "type": "function"
    },
    {
      "inputs": [
        {
          "internalType": "uint256",
          "name": "_tokenId",
          "type": "uint256"
        }
      ],
      "name": "tokenURI",
      "outputs": [
        {
          "internalType": "string",
          "name": "",
          "type": "string"
        }
      ],
      "stateMutability": "view",
      "type": "function"
    },
    {
      "inputs": [],
      "name": "traitContract",
      "outputs": [
        {
          "internalType": "contract ITraitCollectible",
          "name": "",
          "type": "address"
        }
      ],
      "stateMutability": "view",
      "type": "function"
    },
    {
      "inputs": [
        {
          "internalType": "address",
          "name": "from",
          "type": "address"
        },
        {
          "internalType": "address",
          "name": "to",
          "type": "address"
        },
        {
          "internalType": "uint256",
          "name": "tokenId",
          "type": "uint256"
        }
      ],
      "name": "transferFrom",
      "outputs": [],
      "stateMutability": "nonpayable",
      "type": "function"
    },
    {
      "inputs": [
        {
          "internalType": "address",
          "name": "newOwner",
          "type": "address"
        }
      ],
      "name": "transferOwnership",
      "outputs": [],
      "stateMutability": "nonpayable",
      "type": "function"
    }
  ],
  "bytecode": "0x60806040523480156200001157600080fd5b506040516200348d3803806200348d833981810160405281019062000037919062000346565b838381600090816200004a919062000656565b5080600190816200005c919062000656565b5050506200007f62000073620000aa60201b60201c565b620000b260201b60201c565b600160078190555080600a8190555081600b90816200009f919062000656565b50505050506200073d565b600033905090565b6000600660009054906101000a900473ffffffffffffffffffffffffffffffffffffffff16905081600660006101000a81548173ffffffffffffffffffffffffffffffffffffffff021916908373ffffffffffffffffffffffffffffffffffffffff1602179055508173ffffffffffffffffffffffffffffffffffffffff168173ffffffffffffffffffffffffffffffffffffffff167f8be0079c531659141344cd1fd0a4f28419497f9722a3daafe3b4186f6b6457e060405160405180910390a35050565b6000604051905090565b600080fd5b600080fd5b600080fd5b600080fd5b6000601f19601f8301169050919050565b7f4e487b7100000000000000000000000000000000000000000000000000000000600052604160045260246000fd5b620001e18262000196565b810181811067ffffffffffffffff82111715620002035762000202620001a7565b5b80604052505050565b60006200021862000178565b9050620002268282620001d6565b919050565b600067ffffffffffffffff821115620002495762000248620001a7565b5b620002548262000196565b9050602081019050919050565b60005b838110156200028157808201518184015260208101905062000264565b60008484015250505050565b6000620002a46200029e846200022b565b6200020c565b905082815260208101848484011115620002c357620002c262000191565b5b620002d084828562000261565b509392505050565b600082601f830112620002f057620002ef6200018c565b5b8151620003028482602086016200028d565b91505092915050565b6000819050919050565b62000320816200030b565b81146200032c57600080fd5b50565b600081519050620003408162000315565b92915050565b6000806000806080858703121562000363576200036262000182565b5b600085015167ffffffffffffffff81111562000384576200038362000187565b5b6200039287828801620002d8565b945050602085015167ffffffffffffffff811115620003b657620003b562000187565b5b620003c487828801620002d8565b935050604085015167ffffffffffffffff811115620003e857620003e762000187565b5b620003f687828801620002d8565b925050606062000409878288016200032f565b91505092959194509250565b600081519050919050565b7f4e487b7100000000000000000000000000000000000000000000000000000000600052602260045260246000fd5b600060028204905060018216806200046857607f821691505b6020821081036200047e576200047d62000420565b5b50919050565b60008190508160005260206000209050919050565b60006020601f8301049050919050565b600082821b905092915050565b600060088302620004e87fffffffffffffffffffffffffffffffffffffffffffffffffffffffffffffffff82620004a9565b620004f48683620004a9565b95508019841693508086168417925050509392505050565b6000819050919050565b600062000537620005316200052b846200030b565b6200050c565b6200030b565b9050919050565b6000819050919050565b620005538362000516565b6200056b62000562826200053e565b848454620004b6565b825550505050565b600090565b6200058262000573565b6200058f81848462000548565b505050565b5b81811015620005b757620005ab60008262000578565b60018101905062000595565b5050565b601f8211156200060657620005d08162000484565b620005db8462000499565b81016020851015620005eb578190505b62000603620005fa8562000499565b83018262000594565b50505b505050565b600082821c905092915050565b60006200062b600019846008026200060b565b1980831691505092915050565b600062000646838362000618565b9150826002028217905092915050565b620006618262000415565b67ffffffffffffffff8111156200067d576200067c620001a7565b5b6200068982546200044f565b62000696828285620005bb565b600060209050601f831160018114620006ce5760008415620006b9578287015190505b620006c5858262000638565b86555062000735565b601f198416620006de8662000484565b60005b828110156200070857848901518255600182019150602085019450602081019050620006e1565b8683101562000728578489015162000724601f89168262000618565b8355505b6001600288020188555050505b505050505050565b612d40806200074d6000396000f3fe608060405234801561001057600080fd5b50600436106101425760003560e01c8063715018a6116100b8578063c87b56dd1161007c578063c87b56dd1461034f578063d2adfd1c1461037f578063d547cfb71461039b578063d5abeb01146103b9578063e985e9c5146103d7578063f2fde38b1461040757610142565b8063715018a6146102d15780638da5cb5b146102db57806395d89b41146102f9578063a22cb46514610317578063b88d4fde1461033357610142565b806342842e0e1161010a57806342842e0e146101fd5780635601a1da146102195780636352211e146102375780636a6278421461026757806370a0823114610283578063714cff56146102b357610142565b806301ffc9a71461014757806306fdde0314610177578063081812fc14610195578063095ea7b3146101c557806323b872dd146101e1575b600080fd5b610161600480360381019061015c9190611cd1565b610423565b60405161016e9190611d19565b60405180910390f35b61017f610505565b60405161018c9190611dc4565b60405180910390f35b6101af60048036038101906101aa9190611e1c565b610597565b6040516101bc9190611e8a565b60405180910390f35b6101df60048036038101906101da9190611ed1565b6105dd565b005b6101fb60048036038101906101f69190611f11565b6106f4565b005b61021760048036038101906102129190611f11565b610754565b005b610221610774565b60405161022e9190611fc3565b60405180910390f35b610251600480360381019061024c9190611e1c565b61079a565b60405161025e9190611e8a565b60405180910390f35b610281600480360381019061027c9190611fde565b610820565b005b61029d60048036038101906102989190611fde565b610942565b6040516102aa919061201a565b60405180910390f35b6102bb6109f9565b6040516102c8919061201a565b60405180910390f35b6102d9610a05565b005b6102e3610a19565b6040516102f09190611e8a565b60405180910390f35b610301610a43565b60405161030e9190611dc4565b60405180910390f35b610331600480360381019061032c9190612061565b610ad5565b005b61034d600480360381019061034891906121d6565b610aeb565b005b61036960048036038101906103649190611e1c565b610b4d565b6040516103769190611dc4565b60405180910390f35b61039960048036038101906103949190611fde565b610bf7565b005b6103a3610c43565b6040516103b09190611dc4565b60405180910390f35b6103c1610cd1565b6040516103ce919061201a565b60405180910390f35b6103f160048036038101906103ec9190612259565b610cd7565b6040516103fe9190611d19565b60405180910390f35b610421600480360381019061041c9190611fde565b610d6b565b005b60007f80ac58cd000000000000000000000000000000000000000000000000000000007bffffffffffffffffffffffffffffffffffffffffffffffffffffffff1916827bffffffffffffffffffffffffffffffffffffffffffffffffffffffff191614806104ee57507f5b5e139f000000000000000000000000000000000000000000000000000000007bffffffffffffffffffffffffffffffffffffffffffffffffffffffff1916827bffffffffffffffffffffffffffffffffffffffffffffffffffffffff1916145b806104fe57506104fd82610dee565b5b9050919050565b606060008054610514906122c8565b80601f0160208091040260200160405190810160405280929190818152602001828054610540906122c8565b801561058d5780601f106105625761010080835404028352916020019161058d565b820191906000526020600020905b81548152906001019060200180831161057057829003601f168201915b5050505050905090565b60006105a282610e58565b6004600083815260200190815260200160002060009054906101000a900473ffffffffffffffffffffffffffffffffffffffff169050919050565b60006105e88261079a565b90508073ffffffffffffffffffffffffffffffffffffffff168373ffffffffffffffffffffffffffffffffffffffff1603610658576040517f08c379a000000000000000000000000000000000000000000000000000000000815260040161064f9061236b565b60405180910390fd5b8073ffffffffffffffffffffffffffffffffffffffff16610677610ea3565b73ffffffffffffffffffffffffffffffffffffffff1614806106a657506106a5816106a0610ea3565b610cd7565b5b6106e5576040517f08c379a00000000000000000000000000000000000000000000000000000000081526004016106dc906123fd565b60405180910390fd5b6106ef8383610eab565b505050565b6107056106ff610ea3565b82610f64565b610744576040517f08c379a000000000000000000000000000000000000000000000000000000000815260040161073b9061248f565b60405180910390fd5b61074f838383610ff9565b505050565b61076f83838360405180602001604052806000815250610aeb565b505050565b600960009054906101000a900473ffffffffffffffffffffffffffffffffffffffff1681565b6000806107a6836112f2565b9050600073ffffffffffffffffffffffffffffffffffffffff168173ffffffffffffffffffffffffffffffffffffffff1603610817576040517f08c379a000000000000000000000000000000000000000000000000000000000815260040161080e906124fb565b60405180910390fd5b80915050919050565b61082861132f565b600a54610835600861137e565b10610875576040517f08c379a000000000000000000000000000000000000000000000000000000000815260040161086c90612567565b60405180910390fd5b61087f600861138c565b600061088b600861137e565b905061089782826113a2565b600960009054906101000a900473ffffffffffffffffffffffffffffffffffffffff1673ffffffffffffffffffffffffffffffffffffffff1663c333f0456108df600861137e565b6108e7610ea3565b6040518363ffffffff1660e01b8152600401610904929190612587565b600060405180830381600087803b15801561091e57600080fd5b505af1158015610932573d6000803e3d6000fd5b505050505061093f6113c0565b50565b60008073ffffffffffffffffffffffffffffffffffffffff168273ffffffffffffffffffffffffffffffffffffffff16036109b2576040517f08c379a00000000000000000000000000000000000000000000000000000000081526004016109a990612622565b60405180910390fd5b600360008373ffffffffffffffffffffffffffffffffffffffff1673ffffffffffffffffffffffffffffffffffffffff168152602001908152602001600020549050919050565b60088060000154905081565b610a0d6113ca565b610a176000611448565b565b6000600660009054906101000a900473ffffffffffffffffffffffffffffffffffffffff16905090565b606060018054610a52906122c8565b80601f0160208091040260200160405190810160405280929190818152602001828054610a7e906122c8565b8015610acb5780601f10610aa057610100808354040283529160200191610acb565b820191906000526020600020905b815481529060010190602001808311610aae57829003601f168201915b5050505050905090565b610ae7610ae0610ea3565b838361150e565b5050565b610afc610af6610ea3565b83610f64565b610b3b576040517f08c379a0000000000000000000000000000000000000000000000000000000008152600401610b329061248f565b60405180910390fd5b610b478484848461167a565b50505050565b6060600960009054906101000a900473ffffffffffffffffffffffffffffffffffffffff1673ffffffffffffffffffffffffffffffffffffffff1663c87b56dd836040518263ffffffff1660e01b8152600401610baa919061201a565b600060405180830381865afa158015610bc7573d6000803e3d6000fd5b505050506040513d6000823e3d601f19601f82011682018060405250810190610bf091906126e3565b9050919050565b610bff6113ca565b80600960006101000a81548173ffffffffffffffffffffffffffffffffffffffff021916908373ffffffffffffffffffffffffffffffffffffffff16021790555050565b600b8054610c50906122c8565b80601f0160208091040260200160405190810160405280929190818152602001828054610c7c906122c8565b8015610cc95780601f10610c9e57610100808354040283529160200191610cc9565b820191906000526020600020905b815481529060010190602001808311610cac57829003601f168201915b505050505081565b600a5481565b6000600560008473ffffffffffffffffffffffffffffffffffffffff1673ffffffffffffffffffffffffffffffffffffffff16815260200190815260200160002060008373ffffffffffffffffffffffffffffffffffffffff1673ffffffffffffffffffffffffffffffffffffffff16815260200190815260200160002060009054906101000a900460ff16905092915050565b610d736113ca565b600073ffffffffffffffffffffffffffffffffffffffff168173ffffffffffffffffffffffffffffffffffffffff1603610de2576040517f08c379a0000000000000000000000000000000000000000000000000000000008152600401610dd99061279e565b60405180910390fd5b610deb81611448565b50565b60007f01ffc9a7000000000000000000000000000000000000000000000000000000007bffffffffffffffffffffffffffffffffffffffffffffffffffffffff1916827bffffffffffffffffffffffffffffffffffffffffffffffffffffffff1916149050919050565b610e61816116d6565b610ea0576040517f08c379a0000000000000000000000000000000000000000000000000000000008152600401610e97906124fb565b60405180910390fd5b50565b600033905090565b816004600083815260200190815260200160002060006101000a81548173ffffffffffffffffffffffffffffffffffffffff021916908373ffffffffffffffffffffffffffffffffffffffff160217905550808273ffffffffffffffffffffffffffffffffffffffff16610f1e8361079a565b73ffffffffffffffffffffffffffffffffffffffff167f8c5be1e5ebec7d5bd14f71427d1e84f3dd0314c0f7b2291e5b200ac8c7c3b92560405160405180910390a45050565b600080610f708361079a565b90508073ffffffffffffffffffffffffffffffffffffffff168473ffffffffffffffffffffffffffffffffffffffff161480610fb25750610fb18185610cd7565b5b80610ff057508373ffffffffffffffffffffffffffffffffffffffff16610fd884610597565b73ffffffffffffffffffffffffffffffffffffffff16145b91505092915050565b8273ffffffffffffffffffffffffffffffffffffffff166110198261079a565b73ffffffffffffffffffffffffffffffffffffffff161461106f576040517f08c379a000000000000000000000000000000000000000000000000000000000815260040161106690612830565b60405180910390fd5b600073ffffffffffffffffffffffffffffffffffffffff168273ffffffffffffffffffffffffffffffffffffffff16036110de576040517f08c379a00000000000000000000000000000000000000000000000000000000081526004016110d5906128c2565b60405180910390fd5b6110eb8383836001611717565b8273ffffffffffffffffffffffffffffffffffffffff1661110b8261079a565b73ffffffffffffffffffffffffffffffffffffffff1614611161576040517f08c379a000000000000000000000000000000000000000000000000000000000815260040161115890612830565b60405180910390fd5b6004600082815260200190815260200160002060006101000a81549073ffffffffffffffffffffffffffffffffffffffff02191690556001600360008573ffffffffffffffffffffffffffffffffffffffff1673ffffffffffffffffffffffffffffffffffffffff168152602001908152602001600020600082825403925050819055506001600360008473ffffffffffffffffffffffffffffffffffffffff1673ffffffffffffffffffffffffffffffffffffffff16815260200190815260200160002060008282540192505081905550816002600083815260200190815260200160002060006101000a81548173ffffffffffffffffffffffffffffffffffffffff021916908373ffffffffffffffffffffffffffffffffffffffff160217905550808273ffffffffffffffffffffffffffffffffffffffff168473ffffffffffffffffffffffffffffffffffffffff167fddf252ad1be2c89b69c2b068fc378daa952ba7f163c4a11628f55a4df523b3ef60405160405180910390a46112ed838383600161183d565b505050565b60006002600083815260200190815260200160002060009054906101000a900473ffffffffffffffffffffffffffffffffffffffff169050919050565b600260075403611374576040517f08c379a000000000000000000000000000000000000000000000000000000000815260040161136b9061292e565b60405180910390fd5b6002600781905550565b600081600001549050919050565b6001816000016000828254019250508190555050565b6113bc828260405180602001604052806000815250611843565b5050565b6001600781905550565b6113d2610ea3565b73ffffffffffffffffffffffffffffffffffffffff166113f0610a19565b73ffffffffffffffffffffffffffffffffffffffff1614611446576040517f08c379a000000000000000000000000000000000000000000000000000000000815260040161143d9061299a565b60405180910390fd5b565b6000600660009054906101000a900473ffffffffffffffffffffffffffffffffffffffff16905081600660006101000a81548173ffffffffffffffffffffffffffffffffffffffff021916908373ffffffffffffffffffffffffffffffffffffffff1602179055508173ffffffffffffffffffffffffffffffffffffffff168173ffffffffffffffffffffffffffffffffffffffff167f8be0079c531659141344cd1fd0a4f28419497f9722a3daafe3b4186f6b6457e060405160405180910390a35050565b8173ffffffffffffffffffffffffffffffffffffffff168373ffffffffffffffffffffffffffffffffffffffff160361157c576040517f08c379a000000000000000000000000000000000000000000000000000000000815260040161157390612a06565b60405180910390fd5b80600560008573ffffffffffffffffffffffffffffffffffffffff1673ffffffffffffffffffffffffffffffffffffffff16815260200190815260200160002060008473ffffffffffffffffffffffffffffffffffffffff1673ffffffffffffffffffffffffffffffffffffffff16815260200190815260200160002060006101000a81548160ff0219169083151502179055508173ffffffffffffffffffffffffffffffffffffffff168373ffffffffffffffffffffffffffffffffffffffff167f17307eab39ab6107e8899845ad3d59bd9653f200f220920489ca2b5937696c318360405161166d9190611d19565b60405180910390a3505050565b611685848484610ff9565b6116918484848461189e565b6116d0576040517f08c379a00000000000000000000000000000000000000000000000000000000081526004016116c790612a98565b60405180910390fd5b50505050565b60008073ffffffffffffffffffffffffffffffffffffffff166116f8836112f2565b73ffffffffffffffffffffffffffffffffffffffff1614159050919050565b600181111561183757600073ffffffffffffffffffffffffffffffffffffffff168473ffffffffffffffffffffffffffffffffffffffff16146117ab5780600360008673ffffffffffffffffffffffffffffffffffffffff1673ffffffffffffffffffffffffffffffffffffffff16815260200190815260200160002060008282546117a39190612ae7565b925050819055505b600073ffffffffffffffffffffffffffffffffffffffff168373ffffffffffffffffffffffffffffffffffffffff16146118365780600360008573ffffffffffffffffffffffffffffffffffffffff1673ffffffffffffffffffffffffffffffffffffffff168152602001908152602001600020600082825461182e9190612b1b565b925050819055505b5b50505050565b50505050565b61184d8383611a25565b61185a600084848461189e565b611899576040517f08c379a000000000000000000000000000000000000000000000000000000000815260040161189090612a98565b60405180910390fd5b505050565b60006118bf8473ffffffffffffffffffffffffffffffffffffffff16611c42565b15611a18578373ffffffffffffffffffffffffffffffffffffffff1663150b7a026118e8610ea3565b8786866040518563ffffffff1660e01b815260040161190a9493929190612ba4565b6020604051808303816000875af192505050801561194657506040513d601f19601f820116820180604052508101906119439190612c05565b60015b6119c8573d8060008114611976576040519150601f19603f3d011682016040523d82523d6000602084013e61197b565b606091505b5060008151036119c0576040517f08c379a00000000000000000000000000000000000000000000000000000000081526004016119b790612a98565b60405180910390fd5b805181602001fd5b63150b7a0260e01b7bffffffffffffffffffffffffffffffffffffffffffffffffffffffff1916817bffffffffffffffffffffffffffffffffffffffffffffffffffffffff191614915050611a1d565b600190505b949350505050565b600073ffffffffffffffffffffffffffffffffffffffff168273ffffffffffffffffffffffffffffffffffffffff1603611a94576040517f08c379a0000000000000000000000000000000000000000000000000000000008152600401611a8b90612c7e565b60405180910390fd5b611a9d816116d6565b15611add576040517f08c379a0000000000000000000000000000000000000000000000000000000008152600401611ad490612cea565b60405180910390fd5b611aeb600083836001611717565b611af4816116d6565b15611b34576040517f08c379a0000000000000000000000000000000000000000000000000000000008152600401611b2b90612cea565b60405180910390fd5b6001600360008473ffffffffffffffffffffffffffffffffffffffff1673ffffffffffffffffffffffffffffffffffffffff16815260200190815260200160002060008282540192505081905550816002600083815260200190815260200160002060006101000a81548173ffffffffffffffffffffffffffffffffffffffff021916908373ffffffffffffffffffffffffffffffffffffffff160217905550808273ffffffffffffffffffffffffffffffffffffffff16600073ffffffffffffffffffffffffffffffffffffffff167fddf252ad1be2c89b69c2b068fc378daa952ba7f163c4a11628f55a4df523b3ef60405160405180910390a4611c3e60008383600161183d565b5050565b6000808273ffffffffffffffffffffffffffffffffffffffff163b119050919050565b6000604051905090565b600080fd5b600080fd5b60007fffffffff0000000000000000000000000000000000000000000000000000000082169050919050565b611cae81611c79565b8114611cb957600080fd5b50565b600081359050611ccb81611ca5565b92915050565b600060208284031215611ce757611ce6611c6f565b5b6000611cf584828501611cbc565b91505092915050565b60008115159050919050565b611d1381611cfe565b82525050565b6000602082019050611d2e6000830184611d0a565b92915050565b600081519050919050565b600082825260208201905092915050565b60005b83811015611d6e578082015181840152602081019050611d53565b60008484015250505050565b6000601f19601f8301169050919050565b6000611d9682611d34565b611da08185611d3f565b9350611db0818560208601611d50565b611db981611d7a565b840191505092915050565b60006020820190508181036000830152611dde8184611d8b565b905092915050565b6000819050919050565b611df981611de6565b8114611e0457600080fd5b50565b600081359050611e1681611df0565b92915050565b600060208284031215611e3257611e31611c6f565b5b6000611e4084828501611e07565b91505092915050565b600073ffffffffffffffffffffffffffffffffffffffff82169050919050565b6000611e7482611e49565b9050919050565b611e8481611e69565b82525050565b6000602082019050611e9f6000830184611e7b565b92915050565b611eae81611e69565b8114611eb957600080fd5b50565b600081359050611ecb81611ea5565b92915050565b60008060408385031215611ee857611ee7611c6f565b5b6000611ef685828601611ebc565b9250506020611f0785828601611e07565b9150509250929050565b600080600060608486031215611f2a57611f29611c6f565b5b6000611f3886828701611ebc565b9350506020611f4986828701611ebc565b9250506040611f5a86828701611e07565b9150509250925092565b6000819050919050565b6000611f89611f84611f7f84611e49565b611f64565b611e49565b9050919050565b6000611f9b82611f6e565b9050919050565b6000611fad82611f90565b9050919050565b611fbd81611fa2565b82525050565b6000602082019050611fd86000830184611fb4565b92915050565b600060208284031215611ff457611ff3611c6f565b5b600061200284828501611ebc565b91505092915050565b61201481611de6565b82525050565b600060208201905061202f600083018461200b565b92915050565b61203e81611cfe565b811461204957600080fd5b50565b60008135905061205b81612035565b92915050565b6000806040838503121561207857612077611c6f565b5b600061208685828601611ebc565b92505060206120978582860161204c565b9150509250929050565b600080fd5b600080fd5b7f4e487b7100000000000000000000000000000000000000000000000000000000600052604160045260246000fd5b6120e382611d7a565b810181811067ffffffffffffffff82111715612102576121016120ab565b5b80604052505050565b6000612115611c65565b905061212182826120da565b919050565b600067ffffffffffffffff821115612141576121406120ab565b5b61214a82611d7a565b9050602081019050919050565b82818337600083830152505050565b600061217961217484612126565b61210b565b905082815260208101848484011115612195576121946120a6565b5b6121a0848285612157565b509392505050565b600082601f8301126121bd576121bc6120a1565b5b81356121cd848260208601612166565b91505092915050565b600080600080608085870312156121f0576121ef611c6f565b5b60006121fe87828801611ebc565b945050602061220f87828801611ebc565b935050604061222087828801611e07565b925050606085013567ffffffffffffffff81111561224157612240611c74565b5b61224d878288016121a8565b91505092959194509250565b600080604083850312156122705761226f611c6f565b5b600061227e85828601611ebc565b925050602061228f85828601611ebc565b9150509250929050565b7f4e487b7100000000000000000000000000000000000000000000000000000000600052602260045260246000fd5b600060028204905060018216806122e057607f821691505b6020821081036122f3576122f2612299565b5b50919050565b7f4552433732313a20617070726f76616c20746f2063757272656e74206f776e6560008201527f7200000000000000000000000000000000000000000000000000000000000000602082015250565b6000612355602183611d3f565b9150612360826122f9565b604082019050919050565b6000602082019050818103600083015261238481612348565b9050919050565b7f4552433732313a20617070726f76652063616c6c6572206973206e6f7420746f60008201527f6b656e206f776e6572206f7220617070726f76656420666f7220616c6c000000602082015250565b60006123e7603d83611d3f565b91506123f28261238b565b604082019050919050565b60006020820190508181036000830152612416816123da565b9050919050565b7f4552433732313a2063616c6c6572206973206e6f7420746f6b656e206f776e6560008201527f72206f7220617070726f76656400000000000000000000000000000000000000602082015250565b6000612479602d83611d3f565b91506124848261241d565b604082019050919050565b600060208201905081810360008301526124a88161246c565b9050919050565b7f4552433732313a20696e76616c696420746f6b656e2049440000000000000000600082015250565b60006124e5601883611d3f565b91506124f0826124af565b602082019050919050565b60006020820190508181036000830152612514816124d8565b9050919050565b7f4d6178696d756d20737570706c7920686173206265656e207265616368656400600082015250565b6000612551601f83611d3f565b915061255c8261251b565b602082019050919050565b6000602082019050818103600083015261258081612544565b9050919050565b600060408201905061259c600083018561200b565b6125a96020830184611e7b565b9392505050565b7f4552433732313a2061646472657373207a65726f206973206e6f74206120766160008201527f6c6964206f776e65720000000000000000000000000000000000000000000000602082015250565b600061260c602983611d3f565b9150612617826125b0565b604082019050919050565b6000602082019050818103600083015261263b816125ff565b9050919050565b600067ffffffffffffffff82111561265d5761265c6120ab565b5b61266682611d7a565b9050602081019050919050565b600061268661268184612642565b61210b565b9050828152602081018484840111156126a2576126a16120a6565b5b6126ad848285611d50565b509392505050565b600082601f8301126126ca576126c96120a1565b5b81516126da848260208601612673565b91505092915050565b6000602082840312156126f9576126f8611c6f565b5b600082015167ffffffffffffffff81111561271757612716611c74565b5b612723848285016126b5565b91505092915050565b7f4f776e61626c653a206e6577206f776e657220697320746865207a65726f206160008201527f6464726573730000000000000000000000000000000000000000000000000000602082015250565b6000612788602683611d3f565b91506127938261272c565b604082019050919050565b600060208201905081810360008301526127b78161277b565b9050919050565b7f4552433732313a207472616e736665722066726f6d20696e636f72726563742060008201527f6f776e6572000000000000000000000000000000000000000000000000000000602082015250565b600061281a602583611d3f565b9150612825826127be565b604082019050919050565b600060208201905081810360008301526128498161280d565b9050919050565b7f4552433732313a207472616e7366657220746f20746865207a65726f2061646460008201527f7265737300000000000000000000000000000000000000000000000000000000602082015250565b60006128ac602483611d3f565b91506128b782612850565b604082019050919050565b600060208201905081810360008301526128db8161289f565b9050919050565b7f5265656e7472616e637947756172643a207265656e7472616e742063616c6c00600082015250565b6000612918601f83611d3f565b9150612923826128e2565b602082019050919050565b600060208201905081810360008301526129478161290b565b9050919050565b7f4f776e61626c653a2063616c6c6572206973206e6f7420746865206f776e6572600082015250565b6000612984602083611d3f565b915061298f8261294e565b602082019050919050565b600060208201905081810360008301526129b381612977565b9050919050565b7f4552433732313a20617070726f766520746f2063616c6c657200000000000000600082015250565b60006129f0601983611d3f565b91506129fb826129ba565b602082019050919050565b60006020820190508181036000830152612a1f816129e3565b9050919050565b7f4552433732313a207472616e7366657220746f206e6f6e20455243373231526560008201527f63656976657220696d706c656d656e7465720000000000000000000000000000602082015250565b6000612a82603283611d3f565b9150612a8d82612a26565b604082019050919050565b60006020820190508181036000830152612ab181612a75565b9050919050565b7f4e487b7100000000000000000000000000000000000000000000000000000000600052601160045260246000fd5b6000612af282611de6565b9150612afd83611de6565b9250828203905081811115612b1557612b14612ab8565b5b92915050565b6000612b2682611de6565b9150612b3183611de6565b9250828201905080821115612b4957612b48612ab8565b5b92915050565b600081519050919050565b600082825260208201905092915050565b6000612b7682612b4f565b612b808185612b5a565b9350612b90818560208601611d50565b612b9981611d7a565b840191505092915050565b6000608082019050612bb96000830187611e7b565b612bc66020830186611e7b565b612bd3604083018561200b565b8181036060830152612be58184612b6b565b905095945050505050565b600081519050612bff81611ca5565b92915050565b600060208284031215612c1b57612c1a611c6f565b5b6000612c2984828501612bf0565b91505092915050565b7f4552433732313a206d696e7420746f20746865207a65726f2061646472657373600082015250565b6000612c68602083611d3f565b9150612c7382612c32565b602082019050919050565b60006020820190508181036000830152612c9781612c5b565b9050919050565b7f4552433732313a20746f6b656e20616c7265616479206d696e74656400000000600082015250565b6000612cd4601c83611d3f565b9150612cdf82612c9e565b602082019050919050565b60006020820190508181036000830152612d0381612cc7565b905091905056fea264697066735822122024675d1ed7ae773c416cb53d7680e15db6584917ac0418857f113bae4512715464736f6c63430008110033",
  "linkReferences": {},
  "deployedLinkReferences": {}
}