{
  "_format": "hh-sol-artifact-1",
  "contractName": "Shop",
  "sourceName": "contracts/Shop.sol",
  "abi": [
    {
      "inputs": [
        {
          "internalType": "address",
          "name": "_bank",
          "type": "address"
        }
      ],
      "stateMutability": "nonpayable",
      "type": "constructor"
    },
    {
      "anonymous": false,
      "inputs": [
        {
          "indexed": true,
          "internalType": "address",
          "name": "collection",
          "type": "address"
        },
        {
          "indexed": false,
          "internalType": "uint256",
          "name": "tokenId",
          "type": "uint256"
        },
        {
          "indexed": true,
          "internalType": "address",
          "name": "buyer",
          "type": "address"
        }
      ],
      "name": "NewPurchase",
      "type": "event"
    },
    {
      "inputs": [],
      "name": "bank",
      "outputs": [
        {
          "internalType": "address",
          "name": "",
          "type": "address"
        }
      ],
      "stateMutability": "view",
      "type": "function"
    },
    {
      "inputs": [
        {
          "internalType": "contract Collectible",
          "name": "_col",
          "type": "address"
        },
        {
          "internalType": "uint256[]",
          "name": "_tokenIds",
          "type": "uint256[]"
        }
      ],
      "name": "buy",
      "outputs": [],
      "stateMutability": "payable",
      "type": "function"
    },
    {
      "inputs": [
        {
          "internalType": "contract Collectible",
          "name": "_col",
          "type": "address"
        },
        {
          "internalType": "uint256[]",
          "name": "_tokenIds",
          "type": "uint256[]"
        }
      ],
      "name": "getPrice",
      "outputs": [
        {
          "internalType": "uint256",
          "name": "",
          "type": "uint256"
        }
      ],
      "stateMutability": "view",
      "type": "function"
    },
    {
      "inputs": [],
      "name": "treasury",
      "outputs": [
        {
          "internalType": "address",
          "name": "",
          "type": "address"
        }
      ],
      "stateMutability": "view",
      "type": "function"
    }
  ],
  "bytecode": "0x6080604052731e4eed1e29b284bacf87d7c75c5798280cb40ba7600260006101000a81548173ffffffffffffffffffffffffffffffffffffffff021916908373ffffffffffffffffffffffffffffffffffffffff16021790555034801561006557600080fd5b506040516200106b3803806200106b8339818101604052810190610089919061013b565b600160008190555080600160006101000a81548173ffffffffffffffffffffffffffffffffffffffff021916908373ffffffffffffffffffffffffffffffffffffffff16021790555050610168565b600080fd5b600073ffffffffffffffffffffffffffffffffffffffff82169050919050565b6000610108826100dd565b9050919050565b610118816100fd565b811461012357600080fd5b50565b6000815190506101358161010f565b92915050565b600060208284031215610151576101506100d8565b5b600061015f84828501610126565b91505092915050565b610ef380620001786000396000f3fe60806040526004361061003f5760003560e01c806348f267511461004457806361d027b31461008157806376cdb03b146100ac578063a5ec9c1b146100d7575b600080fd5b34801561005057600080fd5b5061006b6004803603810190610066919061091c565b6100f3565b6040516100789190610987565b60405180910390f35b34801561008d57600080fd5b50610096610233565b6040516100a391906109b1565b60405180910390f35b3480156100b857600080fd5b506100c1610259565b6040516100ce91906109b1565b60405180910390f35b6100f160048036038101906100ec919061091c565b61027f565b005b60008060005b8351811015610228578473ffffffffffffffffffffffffffffffffffffffff16635601a1da6040518163ffffffff1660e01b8152600401602060405180830381865afa15801561014d573d6000803e3d6000fd5b505050506040513d601f19601f820116820180604052508101906101719190610a0a565b73ffffffffffffffffffffffffffffffffffffffff1663a574cea485838151811061019f5761019e610a37565b5b60200260200101516040518263ffffffff1660e01b81526004016101c39190610987565b602060405180830381865afa1580156101e0573d6000803e3d6000fd5b505050506040513d601f19601f820116820180604052508101906102049190610abc565b60000151826102139190610b18565b9150808061022090610b4c565b9150506100f9565b508091505092915050565b600260009054906101000a900473ffffffffffffffffffffffffffffffffffffffff1681565b600160009054906101000a900473ffffffffffffffffffffffffffffffffffffffff1681565b6102876106b0565b600061029383836100f3565b90508034146102d7576040517f08c379a00000000000000000000000000000000000000000000000000000000081526004016102ce90610c17565b60405180910390fd5b6000600260009054906101000a900473ffffffffffffffffffffffffffffffffffffffff1673ffffffffffffffffffffffffffffffffffffffff168260405161031f90610c68565b60006040518083038185875af1925050503d806000811461035c576040519150601f19603f3d011682016040523d82523d6000602084013e610361565b606091505b50509050806103a5576040517f08c379a000000000000000000000000000000000000000000000000000000000815260040161039c90610cc9565b60405180910390fd5b60005b83518110156106a157600160009054906101000a900473ffffffffffffffffffffffffffffffffffffffff1673ffffffffffffffffffffffffffffffffffffffff163373ffffffffffffffffffffffffffffffffffffffff1603610441576040517f08c379a000000000000000000000000000000000000000000000000000000000815260040161043890610d35565b60405180910390fd5b600160009054906101000a900473ffffffffffffffffffffffffffffffffffffffff1673ffffffffffffffffffffffffffffffffffffffff168573ffffffffffffffffffffffffffffffffffffffff16636352211e8684815181106104a9576104a8610a37565b5b60200260200101516040518263ffffffff1660e01b81526004016104cd9190610987565b602060405180830381865afa1580156104ea573d6000803e3d6000fd5b505050506040513d601f19601f8201168201806040525081019061050e9190610d81565b73ffffffffffffffffffffffffffffffffffffffff1614610564576040517f08c379a000000000000000000000000000000000000000000000000000000000815260040161055b90610dfa565b60405180910390fd5b8473ffffffffffffffffffffffffffffffffffffffff166342842e0e600160009054906101000a900473ffffffffffffffffffffffffffffffffffffffff16338785815181106105b7576105b6610a37565b5b60200260200101516040518463ffffffff1660e01b81526004016105dd93929190610e1a565b600060405180830381600087803b1580156105f757600080fd5b505af115801561060b573d6000803e3d6000fd5b505050503373ffffffffffffffffffffffffffffffffffffffff168573ffffffffffffffffffffffffffffffffffffffff167f5a82e8430abfd7551a0ebc5038beb332e323e4e73cb94853954896534f9fdf1c86848151811061067157610670610a37565b5b60200260200101516040516106869190610987565b60405180910390a3808061069990610b4c565b9150506103a8565b5050506106ac6106ff565b5050565b6002600054036106f5576040517f08c379a00000000000000000000000000000000000000000000000000000000081526004016106ec90610e9d565b60405180910390fd5b6002600081905550565b6001600081905550565b6000604051905090565b600080fd5b600080fd5b600073ffffffffffffffffffffffffffffffffffffffff82169050919050565b60006107488261071d565b9050919050565b600061075a8261073d565b9050919050565b61076a8161074f565b811461077557600080fd5b50565b60008135905061078781610761565b92915050565b600080fd5b6000601f19601f8301169050919050565b7f4e487b7100000000000000000000000000000000000000000000000000000000600052604160045260246000fd5b6107db82610792565b810181811067ffffffffffffffff821117156107fa576107f96107a3565b5b80604052505050565b600061080d610709565b905061081982826107d2565b919050565b600067ffffffffffffffff821115610839576108386107a3565b5b602082029050602081019050919050565b600080fd5b6000819050919050565b6108628161084f565b811461086d57600080fd5b50565b60008135905061087f81610859565b92915050565b60006108986108938461081e565b610803565b905080838252602082019050602084028301858111156108bb576108ba61084a565b5b835b818110156108e457806108d08882610870565b8452602084019350506020810190506108bd565b5050509392505050565b600082601f8301126109035761090261078d565b5b8135610913848260208601610885565b91505092915050565b6000806040838503121561093357610932610713565b5b600061094185828601610778565b925050602083013567ffffffffffffffff81111561096257610961610718565b5b61096e858286016108ee565b9150509250929050565b6109818161084f565b82525050565b600060208201905061099c6000830184610978565b92915050565b6109ab8161073d565b82525050565b60006020820190506109c660008301846109a2565b92915050565b60006109d78261073d565b9050919050565b6109e7816109cc565b81146109f257600080fd5b50565b600081519050610a04816109de565b92915050565b600060208284031215610a2057610a1f610713565b5b6000610a2e848285016109f5565b91505092915050565b7f4e487b7100000000000000000000000000000000000000000000000000000000600052603260045260246000fd5b600080fd5b600081519050610a7a81610859565b92915050565b600060208284031215610a9657610a95610a66565b5b610aa06020610803565b90506000610ab084828501610a6b565b60008301525092915050565b600060208284031215610ad257610ad1610713565b5b6000610ae084828501610a80565b91505092915050565b7f4e487b7100000000000000000000000000000000000000000000000000000000600052601160045260246000fd5b6000610b238261084f565b9150610b2e8361084f565b9250828201905080821115610b4657610b45610ae9565b5b92915050565b6000610b578261084f565b91507fffffffffffffffffffffffffffffffffffffffffffffffffffffffffffffffff8203610b8957610b88610ae9565b5b600182019050919050565b600082825260208201905092915050565b7f54686520616d6f756e742070616964206d75737420636f72726573706f6e642060008201527f746f207468652070726963650000000000000000000000000000000000000000602082015250565b6000610c01602c83610b94565b9150610c0c82610ba5565b604082019050919050565b60006020820190508181036000830152610c3081610bf4565b9050919050565b600081905092915050565b50565b6000610c52600083610c37565b9150610c5d82610c42565b600082019050919050565b6000610c7382610c45565b9150819050919050565b7f4661696c656420746f2073656e64204574686572000000000000000000000000600082015250565b6000610cb3601483610b94565b9150610cbe82610c7d565b602082019050919050565b60006020820190508181036000830152610ce281610ca6565b9050919050565b7f42616e6b2063616e206e6f742062757920697473656c66000000000000000000600082015250565b6000610d1f601783610b94565b9150610d2a82610ce9565b602082019050919050565b60006020820190508181036000830152610d4e81610d12565b9050919050565b610d5e8161073d565b8114610d6957600080fd5b50565b600081519050610d7b81610d55565b92915050565b600060208284031215610d9757610d96610713565b5b6000610da584828501610d6c565b91505092915050565b7f546f6b656e204944206e6f7420617661696c61626c6500000000000000000000600082015250565b6000610de4601683610b94565b9150610def82610dae565b602082019050919050565b60006020820190508181036000830152610e1381610dd7565b9050919050565b6000606082019050610e2f60008301866109a2565b610e3c60208301856109a2565b610e496040830184610978565b949350505050565b7f5265656e7472616e637947756172643a207265656e7472616e742063616c6c00600082015250565b6000610e87601f83610b94565b9150610e9282610e51565b602082019050919050565b60006020820190508181036000830152610eb681610e7a565b905091905056fea2646970667358221220f5d5bc9334cd554de63315aa28adf1b757eeb8956d0a8496b188a434f8c3511564736f6c63430008110033",
  "linkReferences": {},
  "deployedLinkReferences": {}
}