{
	"contracts/Collectible.sol": {
		"Collectible": {
			"abi": [
				{
					"inputs": [
						{
							"internalType": "string",
							"name": "_name",
							"type": "string"
						},
						{
							"internalType": "string",
							"name": "_symbol",
							"type": "string"
						},
						{
							"internalType": "string",
							"name": "_baseTokenURI",
							"type": "string"
						},
						{
							"internalType": "uint256",
							"name": "_maxSupply",
							"type": "uint256"
						}
					],
					"stateMutability": "nonpayable",
					"type": "constructor"
				},
				{
					"anonymous": false,
					"inputs": [
						{
							"indexed": true,
							"internalType": "address",
							"name": "owner",
							"type": "address"
						},
						{
							"indexed": true,
							"internalType": "address",
							"name": "approved",
							"type": "address"
						},
						{
							"indexed": true,
							"internalType": "uint256",
							"name": "tokenId",
							"type": "uint256"
						}
					],
					"name": "Approval",
					"type": "event"
				},
				{
					"anonymous": false,
					"inputs": [
						{
							"indexed": true,
							"internalType": "address",
							"name": "owner",
							"type": "address"
						},
						{
							"indexed": true,
							"internalType": "address",
							"name": "operator",
							"type": "address"
						},
						{
							"indexed": false,
							"internalType": "bool",
							"name": "approved",
							"type": "bool"
						}
					],
					"name": "ApprovalForAll",
					"type": "event"
				},
				{
					"anonymous": false,
					"inputs": [
						{
							"indexed": true,
							"internalType": "address",
							"name": "previousOwner",
							"type": "address"
						},
						{
							"indexed": true,
							"internalType": "address",
							"name": "newOwner",
							"type": "address"
						}
					],
					"name": "OwnershipTransferred",
					"type": "event"
				},
				{
					"anonymous": false,
					"inputs": [
						{
							"indexed": true,
							"internalType": "address",
							"name": "from",
							"type": "address"
						},
						{
							"indexed": true,
							"internalType": "address",
							"name": "to",
							"type": "address"
						},
						{
							"indexed": true,
							"internalType": "uint256",
							"name": "tokenId",
							"type": "uint256"
						}
					],
					"name": "Transfer",
					"type": "event"
				},
				{
					"inputs": [
						{
							"internalType": "address",
							"name": "to",
							"type": "address"
						},
						{
							"internalType": "uint256",
							"name": "tokenId",
							"type": "uint256"
						}
					],
					"name": "approve",
					"outputs": [],
					"stateMutability": "nonpayable",
					"type": "function"
				},
				{
					"inputs": [
						{
							"internalType": "address",
							"name": "owner",
							"type": "address"
						}
					],
					"name": "balanceOf",
					"outputs": [
						{
							"internalType": "uint256",
							"name": "",
							"type": "uint256"
						}
					],
					"stateMutability": "view",
					"type": "function"
				},
				{
					"inputs": [],
					"name": "baseTokenURI",
					"outputs": [
						{
							"internalType": "string",
							"name": "",
							"type": "string"
						}
					],
					"stateMutability": "view",
					"type": "function"
				},
				{
					"inputs": [
						{
							"internalType": "uint256",
							"name": "tokenId",
							"type": "uint256"
						}
					],
					"name": "getApproved",
					"outputs": [
						{
							"internalType": "address",
							"name": "",
							"type": "address"
						}
					],
					"stateMutability": "view",
					"type": "function"
				},
				{
					"inputs": [
						{
							"internalType": "address",
							"name": "owner",
							"type": "address"
						},
						{
							"internalType": "address",
							"name": "operator",
							"type": "address"
						}
					],
					"name": "isApprovedForAll",
					"outputs": [
						{
							"internalType": "bool",
							"name": "",
							"type": "bool"
						}
					],
					"stateMutability": "view",
					"type": "function"
				},
				{
					"inputs": [],
					"name": "maxSupply",
					"outputs": [
						{
							"internalType": "uint256",
							"name": "",
							"type": "uint256"
						}
					],
					"stateMutability": "view",
					"type": "function"
				},
				{
					"inputs": [
						{
							"internalType": "address",
							"name": "_to",
							"type": "address"
						}
					],
					"name": "mint",
					"outputs": [],
					"stateMutability": "nonpayable",
					"type": "function"
				},
				{
					"inputs": [],
					"name": "name",
					"outputs": [
						{
							"internalType": "string",
							"name": "",
							"type": "string"
						}
					],
					"stateMutability": "view",
					"type": "function"
				},
				{
					"inputs": [],
					"name": "owner",
					"outputs": [
						{
							"internalType": "address",
							"name": "",
							"type": "address"
						}
					],
					"stateMutability": "view",
					"type": "function"
				},
				{
					"inputs": [
						{
							"internalType": "uint256",
							"name": "tokenId",
							"type": "uint256"
						}
					],
					"name": "ownerOf",
					"outputs": [
						{
							"internalType": "address",
							"name": "",
							"type": "address"
						}
					],
					"stateMutability": "view",
					"type": "function"
				},
				{
					"inputs": [],
					"name": "renounceOwnership",
					"outputs": [],
					"stateMutability": "nonpayable",
					"type": "function"
				},
				{
					"inputs": [
						{
							"internalType": "address",
							"name": "from",
							"type": "address"
						},
						{
							"internalType": "address",
							"name": "to",
							"type": "address"
						},
						{
							"internalType": "uint256",
							"name": "tokenId",
							"type": "uint256"
						}
					],
					"name": "safeTransferFrom",
					"outputs": [],
					"stateMutability": "nonpayable",
					"type": "function"
				},
				{
					"inputs": [
						{
							"internalType": "address",
							"name": "from",
							"type": "address"
						},
						{
							"internalType": "address",
							"name": "to",
							"type": "address"
						},
						{
							"internalType": "uint256",
							"name": "tokenId",
							"type": "uint256"
						},
						{
							"internalType": "bytes",
							"name": "data",
							"type": "bytes"
						}
					],
					"name": "safeTransferFrom",
					"outputs": [],
					"stateMutability": "nonpayable",
					"type": "function"
				},
				{
					"inputs": [
						{
							"internalType": "address",
							"name": "operator",
							"type": "address"
						},
						{
							"internalType": "bool",
							"name": "approved",
							"type": "bool"
						}
					],
					"name": "setApprovalForAll",
					"outputs": [],
					"stateMutability": "nonpayable",
					"type": "function"
				},
				{
					"inputs": [
						{
							"internalType": "address",
							"name": "_traitContract",
							"type": "address"
						}
					],
					"name": "setTraitCollectible",
					"outputs": [],
					"stateMutability": "nonpayable",
					"type": "function"
				},
				{
					"inputs": [
						{
							"internalType": "bytes4",
							"name": "interfaceId",
							"type": "bytes4"
						}
					],
					"name": "supportsInterface",
					"outputs": [
						{
							"internalType": "bool",
							"name": "",
							"type": "bool"
						}
					],
					"stateMutability": "view",
					"type": "function"
				},
				{
					"inputs": [],
					"name": "symbol",
					"outputs": [
						{
							"internalType": "string",
							"name": "",
							"type": "string"
						}
					],
					"stateMutability": "view",
					"type": "function"
				},
				{
					"inputs": [],
					"name": "tokenIds",
					"outputs": [
						{
							"internalType": "uint256",
							"name": "_value",
							"type": "uint256"
						}
					],
					"stateMutability": "view",
					"type": "function"
				},
				{
					"inputs": [
						{
							"internalType": "uint256",
							"name": "_tokenId",
							"type": "uint256"
						}
					],
					"name": "tokenURI",
					"outputs": [
						{
							"internalType": "string",
							"name": "",
							"type": "string"
						}
					],
					"stateMutability": "view",
					"type": "function"
				},
				{
					"inputs": [],
					"name": "traitContract",
					"outputs": [
						{
							"internalType": "contract ITraitCollectible",
							"name": "",
							"type": "address"
						}
					],
					"stateMutability": "view",
					"type": "function"
				},
				{
					"inputs": [
						{
							"internalType": "address",
							"name": "from",
							"type": "address"
						},
						{
							"internalType": "address",
							"name": "to",
							"type": "address"
						},
						{
							"internalType": "uint256",
							"name": "tokenId",
							"type": "uint256"
						}
					],
					"name": "transferFrom",
					"outputs": [],
					"stateMutability": "nonpayable",
					"type": "function"
				},
				{
					"inputs": [
						{
							"internalType": "address",
							"name": "newOwner",
							"type": "address"
						}
					],
					"name": "transferOwnership",
					"outputs": [],
					"stateMutability": "nonpayable",
					"type": "function"
				}
			],
			"devdoc": {
				"kind": "dev",
				"methods": {
					"approve(address,uint256)": {
						"details": "See {IERC721-approve}."
					},
					"balanceOf(address)": {
						"details": "See {IERC721-balanceOf}."
					},
					"getApproved(uint256)": {
						"details": "See {IERC721-getApproved}."
					},
					"isApprovedForAll(address,address)": {
						"details": "See {IERC721-isApprovedForAll}."
					},
					"mint(address)": {
						"details": "Mints a new NFT for free and sends it to the given `_to` address.",
						"params": {
							"_to": "Address to send the NFT to."
						}
					},
					"name()": {
						"details": "See {IERC721Metadata-name}."
					},
					"owner()": {
						"details": "Returns the address of the current owner."
					},
					"ownerOf(uint256)": {
						"details": "See {IERC721-ownerOf}."
					},
					"renounceOwnership()": {
						"details": "Leaves the contract without owner. It will not be possible to call `onlyOwner` functions anymore. Can only be called by the current owner. NOTE: Renouncing ownership will leave the contract without an owner, thereby removing any functionality that is only available to the owner."
					},
					"safeTransferFrom(address,address,uint256)": {
						"details": "See {IERC721-safeTransferFrom}."
					},
					"safeTransferFrom(address,address,uint256,bytes)": {
						"details": "See {IERC721-safeTransferFrom}."
					},
					"setApprovalForAll(address,bool)": {
						"details": "See {IERC721-setApprovalForAll}."
					},
					"supportsInterface(bytes4)": {
						"details": "See {IERC165-supportsInterface}."
					},
					"symbol()": {
						"details": "See {IERC721Metadata-symbol}."
					},
					"transferFrom(address,address,uint256)": {
						"details": "See {IERC721-transferFrom}."
					},
					"transferOwnership(address)": {
						"details": "Transfers ownership of the contract to a new account (`newOwner`). Can only be called by the current owner."
					}
				},
				"version": 1
			},
			"evm": {
				"assembly": "    /* \"contracts/Collectible.sol\":339:1840  contract Collectible is ERC721, Ownable, ReentrancyGuard {... */\n  mstore(0x40, 0x80)\n    /* \"contracts/Collectible.sol\":590:833  constructor(... */\n  callvalue\n  dup1\n  iszero\n  tag_1\n  jumpi\n  0x00\n  dup1\n  revert\ntag_1:\n  pop\n  mload(0x40)\n  sub(codesize, bytecodeSize)\n  dup1\n  bytecodeSize\n  dup4\n  codecopy\n  dup2\n  add\n  0x40\n  dup2\n  swap1\n  mstore\n  tag_2\n  swap2\n  tag_3\n  jump\t// in\ntag_2:\n    /* \"contracts/Collectible.sol\":740:745  _name */\n  dup4\n    /* \"contracts/Collectible.sol\":747:754  _symbol */\n  dup4\n    /* \"@openzeppelin/contracts/token/ERC721/ERC721.sol\":1456:1461  _name */\n  0x00\n    /* \"@openzeppelin/contracts/token/ERC721/ERC721.sol\":1456:1469  _name = name_ */\n  tag_9\n    /* \"contracts/Collectible.sol\":740:745  _name */\n  dup4\n    /* \"@openzeppelin/contracts/token/ERC721/ERC721.sol\":1456:1461  _name */\n  dup3\n    /* \"@openzeppelin/contracts/token/ERC721/ERC721.sol\":1456:1469  _name = name_ */\n  tag_10\n  jump\t// in\ntag_9:\n  pop\n    /* \"@openzeppelin/contracts/token/ERC721/ERC721.sol\":1479:1486  _symbol */\n  0x01\n    /* \"@openzeppelin/contracts/token/ERC721/ERC721.sol\":1479:1496  _symbol = symbol_ */\n  tag_11\n    /* \"@openzeppelin/contracts/token/ERC721/ERC721.sol\":1489:1496  symbol_ */\n  dup3\n    /* \"@openzeppelin/contracts/token/ERC721/ERC721.sol\":1479:1486  _symbol */\n  dup3\n    /* \"@openzeppelin/contracts/token/ERC721/ERC721.sol\":1479:1496  _symbol = symbol_ */\n  tag_10\n  jump\t// in\ntag_11:\n  pop\n    /* \"@openzeppelin/contracts/token/ERC721/ERC721.sol\":1390:1503  constructor(string memory name_, string memory symbol_) {... */\n  pop\n  pop\n    /* \"@openzeppelin/contracts/access/Ownable.sol\":936:968  _transferOwnership(_msgSender()) */\n  tag_13\n    /* \"@openzeppelin/contracts/access/Ownable.sol\":955:967  _msgSender() */\n  tag_14\n    /* \"@openzeppelin/contracts/access/Ownable.sol\":955:965  _msgSender */\n  shl(0x20, tag_15)\n    /* \"@openzeppelin/contracts/access/Ownable.sol\":955:967  _msgSender() */\n  0x20\n  shr\n  jump\t// in\ntag_14:\n    /* \"@openzeppelin/contracts/access/Ownable.sol\":936:954  _transferOwnership */\n  tag_16\n    /* \"@openzeppelin/contracts/access/Ownable.sol\":936:968  _transferOwnership(_msgSender()) */\n  jump\t// in\ntag_13:\n    /* \"@openzeppelin/contracts/security/ReentrancyGuard.sol\":1716:1717  1 */\n  0x01\n    /* \"@openzeppelin/contracts/security/ReentrancyGuard.sol\":1821:1828  _status */\n  0x07\n    /* \"@openzeppelin/contracts/security/ReentrancyGuard.sol\":1821:1843  _status = _NOT_ENTERED */\n  sstore\n    /* \"contracts/Collectible.sol\":766:775  maxSupply */\n  0x0a\n    /* \"contracts/Collectible.sol\":766:788  maxSupply = _maxSupply */\n  dup2\n  swap1\n  sstore\n    /* \"contracts/Collectible.sol\":798:810  baseTokenURI */\n  0x0b\n    /* \"contracts/Collectible.sol\":798:826  baseTokenURI = _baseTokenURI */\n  tag_19\n    /* \"contracts/Collectible.sol\":813:826  _baseTokenURI */\n  dup4\n    /* \"contracts/Collectible.sol\":798:810  baseTokenURI */\n  dup3\n    /* \"contracts/Collectible.sol\":798:826  baseTokenURI = _baseTokenURI */\n  tag_10\n  jump\t// in\ntag_19:\n  pop\n    /* \"contracts/Collectible.sol\":590:833  constructor(... */\n  pop\n  pop\n  pop\n  pop\n    /* \"contracts/Collectible.sol\":339:1840  contract Collectible is ERC721, Ownable, ReentrancyGuard {... */\n  jump(tag_29)\n    /* \"@openzeppelin/contracts/utils/Context.sol\":640:736  function _msgSender() internal view virtual returns (address) {... */\ntag_15:\n    /* \"@openzeppelin/contracts/utils/Context.sol\":719:729  msg.sender */\n  caller\n  swap1\n    /* \"@openzeppelin/contracts/utils/Context.sol\":640:736  function _msgSender() internal view virtual returns (address) {... */\n  jump\t// out\n    /* \"@openzeppelin/contracts/access/Ownable.sol\":2433:2620  function _transferOwnership(address newOwner) internal virtual {... */\ntag_16:\n    /* \"@openzeppelin/contracts/access/Ownable.sol\":2525:2531  _owner */\n  0x06\n  dup1\n  sload\n  sub(shl(0xa0, 0x01), 0x01)\n    /* \"@openzeppelin/contracts/access/Ownable.sol\":2541:2558  _owner = newOwner */\n  dup4\n  dup2\n  and\n  not(sub(shl(0xa0, 0x01), 0x01))\n  dup4\n  and\n  dup2\n  or\n  swap1\n  swap4\n  sstore\n    /* \"@openzeppelin/contracts/access/Ownable.sol\":2573:2613  OwnershipTransferred(oldOwner, newOwner) */\n  mload(0x40)\n    /* \"@openzeppelin/contracts/access/Ownable.sol\":2525:2531  _owner */\n  swap2\n  and\n  swap2\n    /* \"@openzeppelin/contracts/access/Ownable.sol\":2541:2558  _owner = newOwner */\n  swap1\n    /* \"@openzeppelin/contracts/access/Ownable.sol\":2525:2531  _owner */\n  dup3\n  swap1\n    /* \"@openzeppelin/contracts/access/Ownable.sol\":2573:2613  OwnershipTransferred(oldOwner, newOwner) */\n  0x8be0079c531659141344cd1fd0a4f28419497f9722a3daafe3b4186f6b6457e0\n  swap1\n    /* \"@openzeppelin/contracts/access/Ownable.sol\":2506:2522  address oldOwner */\n  0x00\n  swap1\n    /* \"@openzeppelin/contracts/access/Ownable.sol\":2573:2613  OwnershipTransferred(oldOwner, newOwner) */\n  log3\n    /* \"@openzeppelin/contracts/access/Ownable.sol\":2496:2620  {... */\n  pop\n    /* \"@openzeppelin/contracts/access/Ownable.sol\":2433:2620  function _transferOwnership(address newOwner) internal virtual {... */\n  pop\n  jump\t// out\n    /* \"#utility.yul\":14:141   */\ntag_23:\n    /* \"#utility.yul\":75:85   */\n  0x4e487b71\n    /* \"#utility.yul\":70:73   */\n  0xe0\n    /* \"#utility.yul\":66:86   */\n  shl\n    /* \"#utility.yul\":63:64   */\n  0x00\n    /* \"#utility.yul\":56:87   */\n  mstore\n    /* \"#utility.yul\":106:110   */\n  0x41\n    /* \"#utility.yul\":103:104   */\n  0x04\n    /* \"#utility.yul\":96:111   */\n  mstore\n    /* \"#utility.yul\":130:134   */\n  0x24\n    /* \"#utility.yul\":127:128   */\n  0x00\n    /* \"#utility.yul\":120:135   */\n  revert\n    /* \"#utility.yul\":146:986   */\ntag_24:\n    /* \"#utility.yul\":200:205   */\n  0x00\n    /* \"#utility.yul\":253:256   */\n  dup3\n    /* \"#utility.yul\":246:250   */\n  0x1f\n    /* \"#utility.yul\":238:244   */\n  dup4\n    /* \"#utility.yul\":234:251   */\n  add\n    /* \"#utility.yul\":230:257   */\n  slt\n    /* \"#utility.yul\":220:275   */\n  tag_32\n  jumpi\n    /* \"#utility.yul\":271:272   */\n  0x00\n    /* \"#utility.yul\":268:269   */\n  dup1\n    /* \"#utility.yul\":261:273   */\n  revert\n    /* \"#utility.yul\":220:275   */\ntag_32:\n    /* \"#utility.yul\":294:307   */\n  dup2\n  mload\n  sub(shl(0x40, 0x01), 0x01)\n    /* \"#utility.yul\":356:366   */\n  dup1\n  dup3\n  gt\n    /* \"#utility.yul\":353:389   */\n  iszero\n  tag_34\n  jumpi\n    /* \"#utility.yul\":369:387   */\n  tag_34\n  tag_23\n  jump\t// in\ntag_34:\n    /* \"#utility.yul\":444:446   */\n  0x40\n    /* \"#utility.yul\":438:447   */\n  mload\n    /* \"#utility.yul\":412:414   */\n  0x1f\n    /* \"#utility.yul\":498:511   */\n  dup4\n  add\n  not(0x1f)\n    /* \"#utility.yul\":494:516   */\n  swap1\n  dup2\n  and\n    /* \"#utility.yul\":518:520   */\n  0x3f\n    /* \"#utility.yul\":490:521   */\n  add\n    /* \"#utility.yul\":486:526   */\n  and\n    /* \"#utility.yul\":474:527   */\n  dup2\n  add\n  swap1\n    /* \"#utility.yul\":542:560   */\n  dup3\n  dup3\n  gt\n    /* \"#utility.yul\":562:584   */\n  dup2\n  dup4\n  lt\n    /* \"#utility.yul\":539:585   */\n  or\n    /* \"#utility.yul\":536:608   */\n  iszero\n  tag_36\n  jumpi\n    /* \"#utility.yul\":588:606   */\n  tag_36\n  tag_23\n  jump\t// in\ntag_36:\n    /* \"#utility.yul\":628:638   */\n  dup2\n    /* \"#utility.yul\":624:626   */\n  0x40\n    /* \"#utility.yul\":617:639   */\n  mstore\n    /* \"#utility.yul\":663:665   */\n  dup4\n    /* \"#utility.yul\":655:661   */\n  dup2\n    /* \"#utility.yul\":648:666   */\n  mstore\n    /* \"#utility.yul\":685:689   */\n  0x20\n    /* \"#utility.yul\":675:689   */\n  swap3\n  pop\n    /* \"#utility.yul\":730:733   */\n  dup7\n    /* \"#utility.yul\":725:727   */\n  dup4\n    /* \"#utility.yul\":720:722   */\n  dup6\n    /* \"#utility.yul\":712:718   */\n  dup9\n    /* \"#utility.yul\":708:723   */\n  add\n    /* \"#utility.yul\":704:728   */\n  add\n    /* \"#utility.yul\":701:734   */\n  gt\n    /* \"#utility.yul\":698:751   */\n  iszero\n  tag_37\n  jumpi\n    /* \"#utility.yul\":747:748   */\n  0x00\n    /* \"#utility.yul\":744:745   */\n  dup1\n    /* \"#utility.yul\":737:749   */\n  revert\n    /* \"#utility.yul\":698:751   */\ntag_37:\n    /* \"#utility.yul\":769:770   */\n  0x00\n    /* \"#utility.yul\":760:770   */\n  swap2\n  pop\n    /* \"#utility.yul\":779:912   */\ntag_38:\n    /* \"#utility.yul\":793:795   */\n  dup4\n    /* \"#utility.yul\":790:791   */\n  dup3\n    /* \"#utility.yul\":787:796   */\n  lt\n    /* \"#utility.yul\":779:912   */\n  iszero\n  tag_40\n  jumpi\n    /* \"#utility.yul\":881:895   */\n  dup6\n  dup3\n  add\n    /* \"#utility.yul\":877:900   */\n  dup4\n  add\n    /* \"#utility.yul\":871:901   */\n  mload\n    /* \"#utility.yul\":850:864   */\n  dup2\n  dup4\n  add\n    /* \"#utility.yul\":846:869   */\n  dup5\n  add\n    /* \"#utility.yul\":839:902   */\n  mstore\n    /* \"#utility.yul\":804:814   */\n  swap1\n  dup3\n  add\n  swap1\n    /* \"#utility.yul\":779:912   */\n  jump(tag_38)\ntag_40:\n    /* \"#utility.yul\":954:955   */\n  0x00\n    /* \"#utility.yul\":932:947   */\n  swap4\n  dup2\n  add\n    /* \"#utility.yul\":928:952   */\n  swap1\n  swap3\n  add\n    /* \"#utility.yul\":921:956   */\n  swap3\n  swap1\n  swap3\n  mstore\n    /* \"#utility.yul\":936:942   */\n  swap5\n    /* \"#utility.yul\":146:986   */\n  swap4\n  pop\n  pop\n  pop\n  pop\n  jump\t// out\n    /* \"#utility.yul\":991:1819   */\ntag_3:\n    /* \"#utility.yul\":1118:1124   */\n  0x00\n    /* \"#utility.yul\":1126:1132   */\n  dup1\n    /* \"#utility.yul\":1134:1140   */\n  0x00\n    /* \"#utility.yul\":1142:1148   */\n  dup1\n    /* \"#utility.yul\":1195:1198   */\n  0x80\n    /* \"#utility.yul\":1183:1192   */\n  dup6\n    /* \"#utility.yul\":1174:1181   */\n  dup8\n    /* \"#utility.yul\":1170:1193   */\n  sub\n    /* \"#utility.yul\":1166:1199   */\n  slt\n    /* \"#utility.yul\":1163:1216   */\n  iszero\n  tag_42\n  jumpi\n    /* \"#utility.yul\":1212:1213   */\n  0x00\n    /* \"#utility.yul\":1209:1210   */\n  dup1\n    /* \"#utility.yul\":1202:1214   */\n  revert\n    /* \"#utility.yul\":1163:1216   */\ntag_42:\n    /* \"#utility.yul\":1239:1255   */\n  dup5\n  mload\n  sub(shl(0x40, 0x01), 0x01)\n    /* \"#utility.yul\":1304:1318   */\n  dup1\n  dup3\n  gt\n    /* \"#utility.yul\":1301:1335   */\n  iszero\n  tag_43\n  jumpi\n    /* \"#utility.yul\":1331:1332   */\n  0x00\n    /* \"#utility.yul\":1328:1329   */\n  dup1\n    /* \"#utility.yul\":1321:1333   */\n  revert\n    /* \"#utility.yul\":1301:1335   */\ntag_43:\n    /* \"#utility.yul\":1354:1415   */\n  tag_44\n    /* \"#utility.yul\":1407:1414   */\n  dup9\n    /* \"#utility.yul\":1398:1404   */\n  dup4\n    /* \"#utility.yul\":1387:1396   */\n  dup10\n    /* \"#utility.yul\":1383:1405   */\n  add\n    /* \"#utility.yul\":1354:1415   */\n  tag_24\n  jump\t// in\ntag_44:\n    /* \"#utility.yul\":1344:1415   */\n  swap6\n  pop\n    /* \"#utility.yul\":1461:1463   */\n  0x20\n    /* \"#utility.yul\":1450:1459   */\n  dup8\n    /* \"#utility.yul\":1446:1464   */\n  add\n    /* \"#utility.yul\":1440:1465   */\n  mload\n    /* \"#utility.yul\":1424:1465   */\n  swap2\n  pop\n    /* \"#utility.yul\":1490:1492   */\n  dup1\n    /* \"#utility.yul\":1480:1488   */\n  dup3\n    /* \"#utility.yul\":1477:1493   */\n  gt\n    /* \"#utility.yul\":1474:1510   */\n  iszero\n  tag_45\n  jumpi\n    /* \"#utility.yul\":1506:1507   */\n  0x00\n    /* \"#utility.yul\":1503:1504   */\n  dup1\n    /* \"#utility.yul\":1496:1508   */\n  revert\n    /* \"#utility.yul\":1474:1510   */\ntag_45:\n    /* \"#utility.yul\":1529:1592   */\n  tag_46\n    /* \"#utility.yul\":1584:1591   */\n  dup9\n    /* \"#utility.yul\":1573:1581   */\n  dup4\n    /* \"#utility.yul\":1562:1571   */\n  dup10\n    /* \"#utility.yul\":1558:1582   */\n  add\n    /* \"#utility.yul\":1529:1592   */\n  tag_24\n  jump\t// in\ntag_46:\n    /* \"#utility.yul\":1519:1592   */\n  swap5\n  pop\n    /* \"#utility.yul\":1638:1640   */\n  0x40\n    /* \"#utility.yul\":1627:1636   */\n  dup8\n    /* \"#utility.yul\":1623:1641   */\n  add\n    /* \"#utility.yul\":1617:1642   */\n  mload\n    /* \"#utility.yul\":1601:1642   */\n  swap2\n  pop\n    /* \"#utility.yul\":1667:1669   */\n  dup1\n    /* \"#utility.yul\":1657:1665   */\n  dup3\n    /* \"#utility.yul\":1654:1670   */\n  gt\n    /* \"#utility.yul\":1651:1687   */\n  iszero\n  tag_47\n  jumpi\n    /* \"#utility.yul\":1683:1684   */\n  0x00\n    /* \"#utility.yul\":1680:1681   */\n  dup1\n    /* \"#utility.yul\":1673:1685   */\n  revert\n    /* \"#utility.yul\":1651:1687   */\ntag_47:\n  pop\n    /* \"#utility.yul\":1706:1769   */\n  tag_48\n    /* \"#utility.yul\":1761:1768   */\n  dup8\n    /* \"#utility.yul\":1750:1758   */\n  dup3\n    /* \"#utility.yul\":1739:1748   */\n  dup9\n    /* \"#utility.yul\":1735:1759   */\n  add\n    /* \"#utility.yul\":1706:1769   */\n  tag_24\n  jump\t// in\ntag_48:\n    /* \"#utility.yul\":1809:1811   */\n  0x60\n    /* \"#utility.yul\":1794:1812   */\n  swap7\n  swap1\n  swap7\n  add\n    /* \"#utility.yul\":1788:1813   */\n  mload\n    /* \"#utility.yul\":991:1819   */\n  swap5\n  swap8\n  swap4\n  swap7\n  pop\n  pop\n  pop\n  pop\n  jump\t// out\n    /* \"#utility.yul\":1824:2204   */\ntag_25:\n    /* \"#utility.yul\":1903:1904   */\n  0x01\n    /* \"#utility.yul\":1899:1911   */\n  dup2\n  dup2\n  shr\n  swap1\n    /* \"#utility.yul\":1946:1958   */\n  dup3\n  and\n  dup1\n    /* \"#utility.yul\":1967:2028   */\n  tag_50\n  jumpi\n    /* \"#utility.yul\":2021:2025   */\n  0x7f\n    /* \"#utility.yul\":2013:2019   */\n  dup3\n    /* \"#utility.yul\":2009:2026   */\n  and\n    /* \"#utility.yul\":1999:2026   */\n  swap2\n  pop\n    /* \"#utility.yul\":1967:2028   */\ntag_50:\n    /* \"#utility.yul\":2074:2076   */\n  0x20\n    /* \"#utility.yul\":2066:2072   */\n  dup3\n    /* \"#utility.yul\":2063:2077   */\n  lt\n    /* \"#utility.yul\":2043:2061   */\n  dup2\n    /* \"#utility.yul\":2040:2078   */\n  sub\n    /* \"#utility.yul\":2037:2198   */\n  tag_51\n  jumpi\n    /* \"#utility.yul\":2120:2130   */\n  0x4e487b71\n    /* \"#utility.yul\":2115:2118   */\n  0xe0\n    /* \"#utility.yul\":2111:2131   */\n  shl\n    /* \"#utility.yul\":2108:2109   */\n  0x00\n    /* \"#utility.yul\":2101:2132   */\n  mstore\n    /* \"#utility.yul\":2155:2159   */\n  0x22\n    /* \"#utility.yul\":2152:2153   */\n  0x04\n    /* \"#utility.yul\":2145:2160   */\n  mstore\n    /* \"#utility.yul\":2183:2187   */\n  0x24\n    /* \"#utility.yul\":2180:2181   */\n  0x00\n    /* \"#utility.yul\":2173:2188   */\n  revert\n    /* \"#utility.yul\":2037:2198   */\ntag_51:\n  pop\n    /* \"#utility.yul\":1824:2204   */\n  swap2\n  swap1\n  pop\n  jump\t// out\n    /* \"#utility.yul\":2335:2880   */\ntag_27:\n    /* \"#utility.yul\":2437:2439   */\n  0x1f\n    /* \"#utility.yul\":2432:2435   */\n  dup3\n    /* \"#utility.yul\":2429:2440   */\n  gt\n    /* \"#utility.yul\":2426:2874   */\n  iszero\n  tag_54\n  jumpi\n    /* \"#utility.yul\":2473:2474   */\n  0x00\n    /* \"#utility.yul\":2498:2503   */\n  dup2\n    /* \"#utility.yul\":2494:2496   */\n  dup2\n    /* \"#utility.yul\":2487:2504   */\n  mstore\n    /* \"#utility.yul\":2543:2547   */\n  0x20\n    /* \"#utility.yul\":2539:2541   */\n  dup2\n    /* \"#utility.yul\":2529:2548   */\n  keccak256\n    /* \"#utility.yul\":2613:2615   */\n  0x1f\n    /* \"#utility.yul\":2601:2611   */\n  dup6\n    /* \"#utility.yul\":2597:2616   */\n  add\n    /* \"#utility.yul\":2594:2595   */\n  0x05\n    /* \"#utility.yul\":2590:2617   */\n  shr\n    /* \"#utility.yul\":2584:2588   */\n  dup2\n    /* \"#utility.yul\":2580:2618   */\n  add\n    /* \"#utility.yul\":2649:2653   */\n  0x20\n    /* \"#utility.yul\":2637:2647   */\n  dup7\n    /* \"#utility.yul\":2634:2654   */\n  lt\n    /* \"#utility.yul\":2631:2678   */\n  iszero\n  tag_55\n  jumpi\n  pop\n    /* \"#utility.yul\":2672:2676   */\n  dup1\n    /* \"#utility.yul\":2631:2678   */\ntag_55:\n    /* \"#utility.yul\":2727:2729   */\n  0x1f\n    /* \"#utility.yul\":2722:2725   */\n  dup6\n    /* \"#utility.yul\":2718:2730   */\n  add\n    /* \"#utility.yul\":2715:2716   */\n  0x05\n    /* \"#utility.yul\":2711:2731   */\n  shr\n    /* \"#utility.yul\":2705:2709   */\n  dup3\n    /* \"#utility.yul\":2701:2732   */\n  add\n    /* \"#utility.yul\":2691:2732   */\n  swap2\n  pop\n    /* \"#utility.yul\":2782:2864   */\ntag_56:\n    /* \"#utility.yul\":2800:2802   */\n  dup2\n    /* \"#utility.yul\":2793:2798   */\n  dup2\n    /* \"#utility.yul\":2790:2803   */\n  lt\n    /* \"#utility.yul\":2782:2864   */\n  iszero\n  tag_58\n  jumpi\n    /* \"#utility.yul\":2845:2862   */\n  dup3\n  dup2\n  sstore\n    /* \"#utility.yul\":2826:2827   */\n  0x01\n    /* \"#utility.yul\":2815:2828   */\n  add\n    /* \"#utility.yul\":2782:2864   */\n  jump(tag_56)\ntag_58:\n    /* \"#utility.yul\":2786:2789   */\n  pop\n  pop\n  pop\n    /* \"#utility.yul\":2426:2874   */\ntag_54:\n    /* \"#utility.yul\":2335:2880   */\n  pop\n  pop\n  pop\n  jump\t// out\n    /* \"#utility.yul\":3056:4408   */\ntag_10:\n    /* \"#utility.yul\":3176:3186   */\n  dup2\n  mload\n  sub(shl(0x40, 0x01), 0x01)\n    /* \"#utility.yul\":3198:3228   */\n  dup2\n  gt\n    /* \"#utility.yul\":3195:3251   */\n  iszero\n  tag_62\n  jumpi\n    /* \"#utility.yul\":3231:3249   */\n  tag_62\n  tag_23\n  jump\t// in\ntag_62:\n    /* \"#utility.yul\":3260:3357   */\n  tag_63\n    /* \"#utility.yul\":3350:3356   */\n  dup2\n    /* \"#utility.yul\":3310:3348   */\n  tag_64\n    /* \"#utility.yul\":3342:3346   */\n  dup5\n    /* \"#utility.yul\":3336:3347   */\n  sload\n    /* \"#utility.yul\":3310:3348   */\n  tag_25\n  jump\t// in\ntag_64:\n    /* \"#utility.yul\":3304:3308   */\n  dup5\n    /* \"#utility.yul\":3260:3357   */\n  tag_27\n  jump\t// in\ntag_63:\n    /* \"#utility.yul\":3412:3416   */\n  0x20\n  dup1\n    /* \"#utility.yul\":3476:3478   */\n  0x1f\n    /* \"#utility.yul\":3465:3479   */\n  dup4\n  gt\n    /* \"#utility.yul\":3493:3494   */\n  0x01\n    /* \"#utility.yul\":3488:4151   */\n  dup2\n  eq\n  tag_66\n  jumpi\n    /* \"#utility.yul\":4195:4196   */\n  0x00\n    /* \"#utility.yul\":4212:4218   */\n  dup5\n    /* \"#utility.yul\":4209:4298   */\n  iszero\n  tag_67\n  jumpi\n  pop\n    /* \"#utility.yul\":4264:4283   */\n  dup6\n  dup4\n  add\n    /* \"#utility.yul\":4258:4284   */\n  mload\n    /* \"#utility.yul\":4209:4298   */\ntag_67:\n  not(0x00)\n    /* \"#utility.yul\":3013:3014   */\n  0x03\n    /* \"#utility.yul\":3009:3020   */\n  dup7\n  swap1\n  shl\n    /* \"#utility.yul\":3005:3029   */\n  shr\n    /* \"#utility.yul\":3001:3030   */\n  not\n    /* \"#utility.yul\":2991:3031   */\n  and\n    /* \"#utility.yul\":3037:3038   */\n  0x01\n    /* \"#utility.yul\":3033:3044   */\n  dup6\n  swap1\n  shl\n    /* \"#utility.yul\":2988:3045   */\n  or\n    /* \"#utility.yul\":4311:4392   */\n  dup6\n  sstore\n    /* \"#utility.yul\":3458:4402   */\n  jump(tag_58)\n    /* \"#utility.yul\":3488:4151   */\ntag_66:\n    /* \"#utility.yul\":2282:2283   */\n  0x00\n    /* \"#utility.yul\":2275:2289   */\n  dup6\n  dup2\n  mstore\n    /* \"#utility.yul\":2319:2323   */\n  0x20\n    /* \"#utility.yul\":2306:2324   */\n  dup2\n  keccak256\n  not(0x1f)\n    /* \"#utility.yul\":3524:3544   */\n  dup7\n  and\n  swap2\n    /* \"#utility.yul\":3642:3878   */\ntag_70:\n    /* \"#utility.yul\":3656:3663   */\n  dup3\n    /* \"#utility.yul\":3653:3654   */\n  dup2\n    /* \"#utility.yul\":3650:3664   */\n  lt\n    /* \"#utility.yul\":3642:3878   */\n  iszero\n  tag_72\n  jumpi\n    /* \"#utility.yul\":3745:3764   */\n  dup9\n  dup7\n  add\n    /* \"#utility.yul\":3739:3765   */\n  mload\n    /* \"#utility.yul\":3724:3766   */\n  dup3\n  sstore\n    /* \"#utility.yul\":3837:3864   */\n  swap5\n  dup5\n  add\n  swap5\n    /* \"#utility.yul\":3805:3806   */\n  0x01\n    /* \"#utility.yul\":3793:3807   */\n  swap1\n  swap2\n  add\n  swap1\n    /* \"#utility.yul\":3672:3691   */\n  dup5\n  add\n    /* \"#utility.yul\":3642:3878   */\n  jump(tag_70)\ntag_72:\n    /* \"#utility.yul\":3646:3649   */\n  pop\n    /* \"#utility.yul\":3906:3912   */\n  dup6\n    /* \"#utility.yul\":3897:3904   */\n  dup3\n    /* \"#utility.yul\":3894:3913   */\n  lt\n    /* \"#utility.yul\":3891:4092   */\n  iszero\n  tag_73\n  jumpi\n    /* \"#utility.yul\":3967:3986   */\n  dup8\n  dup6\n  add\n    /* \"#utility.yul\":3961:3987   */\n  mload\n  not(0x00)\n    /* \"#utility.yul\":4050:4051   */\n  0x03\n    /* \"#utility.yul\":4046:4060   */\n  dup9\n  swap1\n  shl\n    /* \"#utility.yul\":4062:4065   */\n  0xf8\n    /* \"#utility.yul\":4042:4066   */\n  and\n    /* \"#utility.yul\":4038:4075   */\n  shr\n    /* \"#utility.yul\":4034:4076   */\n  not\n    /* \"#utility.yul\":4019:4077   */\n  and\n    /* \"#utility.yul\":4004:4078   */\n  dup2\n  sstore\n    /* \"#utility.yul\":3891:4092   */\ntag_73:\n  pop\n  pop\n  pop\n  pop\n  pop\n    /* \"#utility.yul\":4138:4139   */\n  0x01\n    /* \"#utility.yul\":4122:4136   */\n  swap1\n  dup2\n  shl\n    /* \"#utility.yul\":4118:4140   */\n  add\n    /* \"#utility.yul\":4105:4141   */\n  swap1\n  sstore\n  pop\n    /* \"#utility.yul\":3056:4408   */\n  jump\t// out\ntag_29:\n    /* \"contracts/Collectible.sol\":339:1840  contract Collectible is ERC721, Ownable, ReentrancyGuard {... */\n  dataSize(sub_0)\n  dup1\n  dataOffset(sub_0)\n  0x00\n  codecopy\n  0x00\n  return\nstop\n\nsub_0: assembly {\n        /* \"contracts/Collectible.sol\":339:1840  contract Collectible is ERC721, Ownable, ReentrancyGuard {... */\n      mstore(0x40, 0x80)\n      callvalue\n      dup1\n      iszero\n      tag_1\n      jumpi\n      0x00\n      dup1\n      revert\n    tag_1:\n      pop\n      jumpi(tag_2, lt(calldatasize, 0x04))\n      shr(0xe0, calldataload(0x00))\n      dup1\n      0x715018a6\n      gt\n      tag_25\n      jumpi\n      dup1\n      0xc87b56dd\n      gt\n      tag_26\n      jumpi\n      dup1\n      0xc87b56dd\n      eq\n      tag_19\n      jumpi\n      dup1\n      0xd2adfd1c\n      eq\n      tag_20\n      jumpi\n      dup1\n      0xd547cfb7\n      eq\n      tag_21\n      jumpi\n      dup1\n      0xd5abeb01\n      eq\n      tag_22\n      jumpi\n      dup1\n      0xe985e9c5\n      eq\n      tag_23\n      jumpi\n      dup1\n      0xf2fde38b\n      eq\n      tag_24\n      jumpi\n      0x00\n      dup1\n      revert\n    tag_26:\n      dup1\n      0x715018a6\n      eq\n      tag_14\n      jumpi\n      dup1\n      0x8da5cb5b\n      eq\n      tag_15\n      jumpi\n      dup1\n      0x95d89b41\n      eq\n      tag_16\n      jumpi\n      dup1\n      0xa22cb465\n      eq\n      tag_17\n      jumpi\n      dup1\n      0xb88d4fde\n      eq\n      tag_18\n      jumpi\n      0x00\n      dup1\n      revert\n    tag_25:\n      dup1\n      0x42842e0e\n      gt\n      tag_27\n      jumpi\n      dup1\n      0x42842e0e\n      eq\n      tag_8\n      jumpi\n      dup1\n      0x5601a1da\n      eq\n      tag_9\n      jumpi\n      dup1\n      0x6352211e\n      eq\n      tag_10\n      jumpi\n      dup1\n      0x6a627842\n      eq\n      tag_11\n      jumpi\n      dup1\n      0x70a08231\n      eq\n      tag_12\n      jumpi\n      dup1\n      0x714cff56\n      eq\n      tag_13\n      jumpi\n      0x00\n      dup1\n      revert\n    tag_27:\n      dup1\n      0x01ffc9a7\n      eq\n      tag_3\n      jumpi\n      dup1\n      0x06fdde03\n      eq\n      tag_4\n      jumpi\n      dup1\n      0x081812fc\n      eq\n      tag_5\n      jumpi\n      dup1\n      0x095ea7b3\n      eq\n      tag_6\n      jumpi\n      dup1\n      0x23b872dd\n      eq\n      tag_7\n      jumpi\n    tag_2:\n      0x00\n      dup1\n      revert\n        /* \"@openzeppelin/contracts/token/ERC721/ERC721.sol\":1570:1870  function supportsInterface(bytes4 interfaceId) public view virtual override(ERC165, IERC165) returns (bool) {... */\n    tag_3:\n      tag_28\n      tag_29\n      calldatasize\n      0x04\n      tag_30\n      jump\t// in\n    tag_29:\n      tag_31\n      jump\t// in\n    tag_28:\n      mload(0x40)\n        /* \"#utility.yul\":565:579   */\n      swap1\n      iszero\n        /* \"#utility.yul\":558:580   */\n      iszero\n        /* \"#utility.yul\":540:581   */\n      dup2\n      mstore\n        /* \"#utility.yul\":528:530   */\n      0x20\n        /* \"#utility.yul\":513:531   */\n      add\n        /* \"@openzeppelin/contracts/token/ERC721/ERC721.sol\":1570:1870  function supportsInterface(bytes4 interfaceId) public view virtual override(ERC165, IERC165) returns (bool) {... */\n    tag_32:\n      mload(0x40)\n      dup1\n      swap2\n      sub\n      swap1\n      return\n        /* \"@openzeppelin/contracts/token/ERC721/ERC721.sol\":2471:2569  function name() public view virtual override returns (string memory) {... */\n    tag_4:\n      tag_34\n      tag_35\n      jump\t// in\n    tag_34:\n      mload(0x40)\n      tag_32\n      swap2\n      swap1\n      tag_37\n      jump\t// in\n        /* \"@openzeppelin/contracts/token/ERC721/ERC721.sol\":3935:4102  function getApproved(uint256 tokenId) public view virtual override returns (address) {... */\n    tag_5:\n      tag_38\n      tag_39\n      calldatasize\n      0x04\n      tag_40\n      jump\t// in\n    tag_39:\n      tag_41\n      jump\t// in\n    tag_38:\n      mload(0x40)\n      sub(shl(0xa0, 0x01), 0x01)\n        /* \"#utility.yul\":1697:1729   */\n      swap1\n      swap2\n      and\n        /* \"#utility.yul\":1679:1730   */\n      dup2\n      mstore\n        /* \"#utility.yul\":1667:1669   */\n      0x20\n        /* \"#utility.yul\":1652:1670   */\n      add\n        /* \"@openzeppelin/contracts/token/ERC721/ERC721.sol\":3935:4102  function getApproved(uint256 tokenId) public view virtual override returns (address) {... */\n      tag_32\n        /* \"#utility.yul\":1533:1736   */\n      jump\n        /* \"@openzeppelin/contracts/token/ERC721/ERC721.sol\":3468:3874  function approve(address to, uint256 tokenId) public virtual override {... */\n    tag_6:\n      tag_44\n      tag_45\n      calldatasize\n      0x04\n      tag_46\n      jump\t// in\n    tag_45:\n      tag_47\n      jump\t// in\n    tag_44:\n      stop\n        /* \"@openzeppelin/contracts/token/ERC721/ERC721.sol\":4612:4938  function transferFrom(... */\n    tag_7:\n      tag_44\n      tag_49\n      calldatasize\n      0x04\n      tag_50\n      jump\t// in\n    tag_49:\n      tag_51\n      jump\t// in\n        /* \"@openzeppelin/contracts/token/ERC721/ERC721.sol\":5004:5183  function safeTransferFrom(... */\n    tag_8:\n      tag_44\n      tag_53\n      calldatasize\n      0x04\n      tag_50\n      jump\t// in\n    tag_53:\n      tag_54\n      jump\t// in\n        /* \"contracts/Collectible.sol\":482:520  ITraitCollectible public traitContract */\n    tag_9:\n      sload(0x09)\n      tag_38\n      swap1\n      sub(shl(0xa0, 0x01), 0x01)\n      and\n      dup2\n      jump\n        /* \"@openzeppelin/contracts/token/ERC721/ERC721.sol\":2190:2409  function ownerOf(uint256 tokenId) public view virtual override returns (address) {... */\n    tag_10:\n      tag_38\n      tag_60\n      calldatasize\n      0x04\n      tag_40\n      jump\t// in\n    tag_60:\n      tag_61\n      jump\t// in\n        /* \"contracts/Collectible.sol\":979:1332  function mint(address _to) external nonReentrant {... */\n    tag_11:\n      tag_44\n      tag_64\n      calldatasize\n      0x04\n      tag_65\n      jump\t// in\n    tag_64:\n      tag_66\n      jump\t// in\n        /* \"@openzeppelin/contracts/token/ERC721/ERC721.sol\":1929:2133  function balanceOf(address owner) public view virtual override returns (uint256) {... */\n    tag_12:\n      tag_67\n      tag_68\n      calldatasize\n      0x04\n      tag_65\n      jump\t// in\n    tag_68:\n      tag_69\n      jump\t// in\n    tag_67:\n      mload(0x40)\n        /* \"#utility.yul\":3082:3107   */\n      swap1\n      dup2\n      mstore\n        /* \"#utility.yul\":3070:3072   */\n      0x20\n        /* \"#utility.yul\":3055:3073   */\n      add\n        /* \"@openzeppelin/contracts/token/ERC721/ERC721.sol\":1929:2133  function balanceOf(address owner) public view virtual override returns (uint256) {... */\n      tag_32\n        /* \"#utility.yul\":2936:3113   */\n      jump\n        /* \"contracts/Collectible.sol\":444:476  Counters.Counter public tokenIds */\n    tag_13:\n      sload(0x08)\n      tag_67\n      swap1\n      dup2\n      jump\n        /* \"@openzeppelin/contracts/access/Ownable.sol\":1831:1932  function renounceOwnership() public virtual onlyOwner {... */\n    tag_14:\n      tag_44\n      tag_76\n      jump\t// in\n        /* \"@openzeppelin/contracts/access/Ownable.sol\":1201:1286  function owner() public view virtual returns (address) {... */\n    tag_15:\n        /* \"@openzeppelin/contracts/access/Ownable.sol\":1273:1279  _owner */\n      and(sub(shl(0xa0, 0x01), 0x01), sload(0x06))\n        /* \"@openzeppelin/contracts/access/Ownable.sol\":1201:1286  function owner() public view virtual returns (address) {... */\n      jump(tag_38)\n        /* \"@openzeppelin/contracts/token/ERC721/ERC721.sol\":2633:2735  function symbol() public view virtual override returns (string memory) {... */\n    tag_16:\n      tag_34\n      tag_81\n      jump\t// in\n        /* \"@openzeppelin/contracts/token/ERC721/ERC721.sol\":4169:4322  function setApprovalForAll(address operator, bool approved) public virtual override {... */\n    tag_17:\n      tag_44\n      tag_84\n      calldatasize\n      0x04\n      tag_85\n      jump\t// in\n    tag_84:\n      tag_86\n      jump\t// in\n        /* \"@openzeppelin/contracts/token/ERC721/ERC721.sol\":5249:5563  function safeTransferFrom(... */\n    tag_18:\n      tag_44\n      tag_88\n      calldatasize\n      0x04\n      tag_89\n      jump\t// in\n    tag_88:\n      tag_90\n      jump\t// in\n        /* \"contracts/Collectible.sol\":1455:1606  function tokenURI(... */\n    tag_19:\n      tag_34\n      tag_92\n      calldatasize\n      0x04\n      tag_40\n      jump\t// in\n    tag_92:\n      tag_93\n      jump\t// in\n        /* \"contracts/Collectible.sol\":1700:1838  function setTraitCollectible(address _traitContract) external onlyOwner {... */\n    tag_20:\n      tag_44\n      tag_96\n      calldatasize\n      0x04\n      tag_65\n      jump\t// in\n    tag_96:\n      tag_97\n      jump\t// in\n        /* \"contracts/Collectible.sol\":557:583  string public baseTokenURI */\n    tag_21:\n      tag_34\n      tag_99\n      jump\t// in\n        /* \"contracts/Collectible.sol\":527:551  uint256 public maxSupply */\n    tag_22:\n      tag_67\n      sload(0x0a)\n      dup2\n      jump\n        /* \"@openzeppelin/contracts/token/ERC721/ERC721.sol\":4388:4550  function isApprovedForAll(address owner, address operator) public view virtual override returns (bool) {... */\n    tag_23:\n      tag_28\n      tag_105\n      calldatasize\n      0x04\n      tag_106\n      jump\t// in\n    tag_105:\n      tag_107\n      jump\t// in\n        /* \"@openzeppelin/contracts/access/Ownable.sol\":2081:2279  function transferOwnership(address newOwner) public virtual onlyOwner {... */\n    tag_24:\n      tag_44\n      tag_110\n      calldatasize\n      0x04\n      tag_65\n      jump\t// in\n    tag_110:\n      tag_111\n      jump\t// in\n        /* \"@openzeppelin/contracts/token/ERC721/ERC721.sol\":1570:1870  function supportsInterface(bytes4 interfaceId) public view virtual override(ERC165, IERC165) returns (bool) {... */\n    tag_31:\n        /* \"@openzeppelin/contracts/token/ERC721/ERC721.sol\":1672:1676  bool */\n      0x00\n      not(sub(shl(0xe0, 0x01), 0x01))\n        /* \"@openzeppelin/contracts/token/ERC721/ERC721.sol\":1707:1747  interfaceId == type(IERC721).interfaceId */\n      dup3\n      and\n      shl(0xe0, 0x80ac58cd)\n      eq\n      dup1\n        /* \"@openzeppelin/contracts/token/ERC721/ERC721.sol\":1707:1811  interfaceId == type(IERC721).interfaceId ||... */\n      tag_113\n      jumpi\n      pop\n      not(sub(shl(0xe0, 0x01), 0x01))\n        /* \"@openzeppelin/contracts/token/ERC721/ERC721.sol\":1763:1811  interfaceId == type(IERC721Metadata).interfaceId */\n      dup3\n      and\n      shl(0xe0, 0x5b5e139f)\n      eq\n        /* \"@openzeppelin/contracts/token/ERC721/ERC721.sol\":1707:1811  interfaceId == type(IERC721).interfaceId ||... */\n    tag_113:\n        /* \"@openzeppelin/contracts/token/ERC721/ERC721.sol\":1707:1863  interfaceId == type(IERC721).interfaceId ||... */\n      dup1\n      tag_115\n      jumpi\n      pop\n      shl(0xe0, 0x01ffc9a7)\n      not(sub(shl(0xe0, 0x01), 0x01))\n        /* \"@openzeppelin/contracts/utils/introspection/ERC165.sol\":937:977  interfaceId == type(IERC165).interfaceId */\n      dup4\n      and\n      eq\n        /* \"@openzeppelin/contracts/token/ERC721/ERC721.sol\":1827:1863  super.supportsInterface(interfaceId) */\n    tag_115:\n        /* \"@openzeppelin/contracts/token/ERC721/ERC721.sol\":1688:1863  return... */\n      swap3\n        /* \"@openzeppelin/contracts/token/ERC721/ERC721.sol\":1570:1870  function supportsInterface(bytes4 interfaceId) public view virtual override(ERC165, IERC165) returns (bool) {... */\n      swap2\n      pop\n      pop\n      jump\t// out\n        /* \"@openzeppelin/contracts/token/ERC721/ERC721.sol\":2471:2569  function name() public view virtual override returns (string memory) {... */\n    tag_35:\n        /* \"@openzeppelin/contracts/token/ERC721/ERC721.sol\":2525:2538  string memory */\n      0x60\n        /* \"@openzeppelin/contracts/token/ERC721/ERC721.sol\":2557:2562  _name */\n      0x00\n        /* \"@openzeppelin/contracts/token/ERC721/ERC721.sol\":2550:2562  return _name */\n      dup1\n      sload\n      tag_118\n      swap1\n      tag_119\n      jump\t// in\n    tag_118:\n      dup1\n      0x1f\n      add\n      0x20\n      dup1\n      swap2\n      div\n      mul\n      0x20\n      add\n      mload(0x40)\n      swap1\n      dup2\n      add\n      0x40\n      mstore\n      dup1\n      swap3\n      swap2\n      swap1\n      dup2\n      dup2\n      mstore\n      0x20\n      add\n      dup3\n      dup1\n      sload\n      tag_120\n      swap1\n      tag_119\n      jump\t// in\n    tag_120:\n      dup1\n      iszero\n      tag_121\n      jumpi\n      dup1\n      0x1f\n      lt\n      tag_122\n      jumpi\n      0x0100\n      dup1\n      dup4\n      sload\n      div\n      mul\n      dup4\n      mstore\n      swap2\n      0x20\n      add\n      swap2\n      jump(tag_121)\n    tag_122:\n      dup3\n      add\n      swap2\n      swap1\n      0x00\n      mstore\n      keccak256(0x00, 0x20)\n      swap1\n    tag_123:\n      dup2\n      sload\n      dup2\n      mstore\n      swap1\n      0x01\n      add\n      swap1\n      0x20\n      add\n      dup1\n      dup4\n      gt\n      tag_123\n      jumpi\n      dup3\n      swap1\n      sub\n      0x1f\n      and\n      dup3\n      add\n      swap2\n    tag_121:\n      pop\n      pop\n      pop\n      pop\n      pop\n      swap1\n      pop\n        /* \"@openzeppelin/contracts/token/ERC721/ERC721.sol\":2471:2569  function name() public view virtual override returns (string memory) {... */\n      swap1\n      jump\t// out\n        /* \"@openzeppelin/contracts/token/ERC721/ERC721.sol\":3935:4102  function getApproved(uint256 tokenId) public view virtual override returns (address) {... */\n    tag_41:\n        /* \"@openzeppelin/contracts/token/ERC721/ERC721.sol\":4011:4018  address */\n      0x00\n        /* \"@openzeppelin/contracts/token/ERC721/ERC721.sol\":4030:4053  _requireMinted(tokenId) */\n      tag_125\n        /* \"@openzeppelin/contracts/token/ERC721/ERC721.sol\":4045:4052  tokenId */\n      dup3\n        /* \"@openzeppelin/contracts/token/ERC721/ERC721.sol\":4030:4044  _requireMinted */\n      tag_126\n        /* \"@openzeppelin/contracts/token/ERC721/ERC721.sol\":4030:4053  _requireMinted(tokenId) */\n      jump\t// in\n    tag_125:\n      pop\n        /* \"@openzeppelin/contracts/token/ERC721/ERC721.sol\":4071:4095  _tokenApprovals[tokenId] */\n      0x00\n      swap1\n      dup2\n      mstore\n        /* \"@openzeppelin/contracts/token/ERC721/ERC721.sol\":4071:4086  _tokenApprovals */\n      0x04\n        /* \"@openzeppelin/contracts/token/ERC721/ERC721.sol\":4071:4095  _tokenApprovals[tokenId] */\n      0x20\n      mstore\n      0x40\n      swap1\n      keccak256\n      sload\n      sub(shl(0xa0, 0x01), 0x01)\n      and\n      swap1\n        /* \"@openzeppelin/contracts/token/ERC721/ERC721.sol\":3935:4102  function getApproved(uint256 tokenId) public view virtual override returns (address) {... */\n      jump\t// out\n        /* \"@openzeppelin/contracts/token/ERC721/ERC721.sol\":3468:3874  function approve(address to, uint256 tokenId) public virtual override {... */\n    tag_47:\n        /* \"@openzeppelin/contracts/token/ERC721/ERC721.sol\":3548:3561  address owner */\n      0x00\n        /* \"@openzeppelin/contracts/token/ERC721/ERC721.sol\":3564:3587  ERC721.ownerOf(tokenId) */\n      tag_128\n        /* \"@openzeppelin/contracts/token/ERC721/ERC721.sol\":3579:3586  tokenId */\n      dup3\n        /* \"@openzeppelin/contracts/token/ERC721/ERC721.sol\":3564:3578  ERC721.ownerOf */\n      tag_61\n        /* \"@openzeppelin/contracts/token/ERC721/ERC721.sol\":3564:3587  ERC721.ownerOf(tokenId) */\n      jump\t// in\n    tag_128:\n        /* \"@openzeppelin/contracts/token/ERC721/ERC721.sol\":3548:3587  address owner = ERC721.ownerOf(tokenId) */\n      swap1\n      pop\n        /* \"@openzeppelin/contracts/token/ERC721/ERC721.sol\":3611:3616  owner */\n      dup1\n      sub(shl(0xa0, 0x01), 0x01)\n        /* \"@openzeppelin/contracts/token/ERC721/ERC721.sol\":3605:3616  to != owner */\n      and\n        /* \"@openzeppelin/contracts/token/ERC721/ERC721.sol\":3605:3607  to */\n      dup4\n      sub(shl(0xa0, 0x01), 0x01)\n        /* \"@openzeppelin/contracts/token/ERC721/ERC721.sol\":3605:3616  to != owner */\n      and\n      sub\n        /* \"@openzeppelin/contracts/token/ERC721/ERC721.sol\":3597:3654  require(to != owner, \"ERC721: approval to current owner\") */\n      tag_129\n      jumpi\n      mload(0x40)\n      shl(0xe5, 0x461bcd)\n      dup2\n      mstore\n        /* \"#utility.yul\":5818:5820   */\n      0x20\n        /* \"@openzeppelin/contracts/token/ERC721/ERC721.sol\":3597:3654  require(to != owner, \"ERC721: approval to current owner\") */\n      0x04\n      dup3\n      add\n        /* \"#utility.yul\":5800:5821   */\n      mstore\n        /* \"#utility.yul\":5857:5859   */\n      0x21\n        /* \"#utility.yul\":5837:5855   */\n      0x24\n      dup3\n      add\n        /* \"#utility.yul\":5830:5860   */\n      mstore\n        /* \"#utility.yul\":5896:5930   */\n      0x4552433732313a20617070726f76616c20746f2063757272656e74206f776e65\n        /* \"#utility.yul\":5876:5894   */\n      0x44\n      dup3\n      add\n        /* \"#utility.yul\":5869:5931   */\n      mstore\n      shl(0xf9, 0x39)\n        /* \"#utility.yul\":5947:5965   */\n      0x64\n      dup3\n      add\n        /* \"#utility.yul\":5940:5971   */\n      mstore\n        /* \"#utility.yul\":5988:6007   */\n      0x84\n      add\n        /* \"@openzeppelin/contracts/token/ERC721/ERC721.sol\":3597:3654  require(to != owner, \"ERC721: approval to current owner\") */\n    tag_130:\n      mload(0x40)\n      dup1\n      swap2\n      sub\n      swap1\n      revert\n    tag_129:\n        /* \"@openzeppelin/contracts/utils/Context.sol\":719:729  msg.sender */\n      caller\n      sub(shl(0xa0, 0x01), 0x01)\n        /* \"@openzeppelin/contracts/token/ERC721/ERC721.sol\":3686:3707  _msgSender() == owner */\n      dup3\n      and\n      eq\n      dup1\n        /* \"@openzeppelin/contracts/token/ERC721/ERC721.sol\":3686:3748  _msgSender() == owner || isApprovedForAll(owner, _msgSender()) */\n      tag_135\n      jumpi\n      pop\n        /* \"@openzeppelin/contracts/token/ERC721/ERC721.sol\":3711:3748  isApprovedForAll(owner, _msgSender()) */\n      tag_135\n        /* \"@openzeppelin/contracts/token/ERC721/ERC721.sol\":3728:3733  owner */\n      dup2\n        /* \"@openzeppelin/contracts/utils/Context.sol\":719:729  msg.sender */\n      caller\n        /* \"@openzeppelin/contracts/token/ERC721/ERC721.sol\":4388:4550  function isApprovedForAll(address owner, address operator) public view virtual override returns (bool) {... */\n      tag_107\n      jump\t// in\n        /* \"@openzeppelin/contracts/token/ERC721/ERC721.sol\":3711:3748  isApprovedForAll(owner, _msgSender()) */\n    tag_135:\n        /* \"@openzeppelin/contracts/token/ERC721/ERC721.sol\":3665:3835  require(... */\n      tag_137\n      jumpi\n      mload(0x40)\n      shl(0xe5, 0x461bcd)\n      dup2\n      mstore\n        /* \"#utility.yul\":6220:6222   */\n      0x20\n        /* \"@openzeppelin/contracts/token/ERC721/ERC721.sol\":3665:3835  require(... */\n      0x04\n      dup3\n      add\n        /* \"#utility.yul\":6202:6223   */\n      mstore\n        /* \"#utility.yul\":6259:6261   */\n      0x3d\n        /* \"#utility.yul\":6239:6257   */\n      0x24\n      dup3\n      add\n        /* \"#utility.yul\":6232:6262   */\n      mstore\n        /* \"#utility.yul\":6298:6332   */\n      0x4552433732313a20617070726f76652063616c6c6572206973206e6f7420746f\n        /* \"#utility.yul\":6278:6296   */\n      0x44\n      dup3\n      add\n        /* \"#utility.yul\":6271:6333   */\n      mstore\n        /* \"#utility.yul\":6369:6400   */\n      0x6b656e206f776e6572206f7220617070726f76656420666f7220616c6c000000\n        /* \"#utility.yul\":6349:6367   */\n      0x64\n      dup3\n      add\n        /* \"#utility.yul\":6342:6401   */\n      mstore\n        /* \"#utility.yul\":6418:6437   */\n      0x84\n      add\n        /* \"@openzeppelin/contracts/token/ERC721/ERC721.sol\":3665:3835  require(... */\n      tag_130\n        /* \"#utility.yul\":6018:6443   */\n      jump\n        /* \"@openzeppelin/contracts/token/ERC721/ERC721.sol\":3665:3835  require(... */\n    tag_137:\n        /* \"@openzeppelin/contracts/token/ERC721/ERC721.sol\":3846:3867  _approve(to, tokenId) */\n      tag_140\n        /* \"@openzeppelin/contracts/token/ERC721/ERC721.sol\":3855:3857  to */\n      dup4\n        /* \"@openzeppelin/contracts/token/ERC721/ERC721.sol\":3859:3866  tokenId */\n      dup4\n        /* \"@openzeppelin/contracts/token/ERC721/ERC721.sol\":3846:3854  _approve */\n      tag_141\n        /* \"@openzeppelin/contracts/token/ERC721/ERC721.sol\":3846:3867  _approve(to, tokenId) */\n      jump\t// in\n    tag_140:\n        /* \"@openzeppelin/contracts/token/ERC721/ERC721.sol\":3538:3874  {... */\n      pop\n        /* \"@openzeppelin/contracts/token/ERC721/ERC721.sol\":3468:3874  function approve(address to, uint256 tokenId) public virtual override {... */\n      pop\n      pop\n      jump\t// out\n        /* \"@openzeppelin/contracts/token/ERC721/ERC721.sol\":4612:4938  function transferFrom(... */\n    tag_51:\n        /* \"@openzeppelin/contracts/token/ERC721/ERC721.sol\":4801:4842  _isApprovedOrOwner(_msgSender(), tokenId) */\n      tag_143\n        /* \"@openzeppelin/contracts/utils/Context.sol\":719:729  msg.sender */\n      caller\n        /* \"@openzeppelin/contracts/token/ERC721/ERC721.sol\":4834:4841  tokenId */\n      dup3\n        /* \"@openzeppelin/contracts/token/ERC721/ERC721.sol\":4801:4819  _isApprovedOrOwner */\n      tag_145\n        /* \"@openzeppelin/contracts/token/ERC721/ERC721.sol\":4801:4842  _isApprovedOrOwner(_msgSender(), tokenId) */\n      jump\t// in\n    tag_143:\n        /* \"@openzeppelin/contracts/token/ERC721/ERC721.sol\":4793:4892  require(_isApprovedOrOwner(_msgSender(), tokenId), \"ERC721: caller is not token owner or approved\") */\n      tag_146\n      jumpi\n      mload(0x40)\n      shl(0xe5, 0x461bcd)\n      dup2\n      mstore\n      0x04\n      add\n      tag_130\n      swap1\n      tag_148\n      jump\t// in\n    tag_146:\n        /* \"@openzeppelin/contracts/token/ERC721/ERC721.sol\":4903:4931  _transfer(from, to, tokenId) */\n      tag_140\n        /* \"@openzeppelin/contracts/token/ERC721/ERC721.sol\":4913:4917  from */\n      dup4\n        /* \"@openzeppelin/contracts/token/ERC721/ERC721.sol\":4919:4921  to */\n      dup4\n        /* \"@openzeppelin/contracts/token/ERC721/ERC721.sol\":4923:4930  tokenId */\n      dup4\n        /* \"@openzeppelin/contracts/token/ERC721/ERC721.sol\":4903:4912  _transfer */\n      tag_150\n        /* \"@openzeppelin/contracts/token/ERC721/ERC721.sol\":4903:4931  _transfer(from, to, tokenId) */\n      jump\t// in\n        /* \"@openzeppelin/contracts/token/ERC721/ERC721.sol\":5004:5183  function safeTransferFrom(... */\n    tag_54:\n        /* \"@openzeppelin/contracts/token/ERC721/ERC721.sol\":5137:5176  safeTransferFrom(from, to, tokenId, \"\") */\n      tag_140\n        /* \"@openzeppelin/contracts/token/ERC721/ERC721.sol\":5154:5158  from */\n      dup4\n        /* \"@openzeppelin/contracts/token/ERC721/ERC721.sol\":5160:5162  to */\n      dup4\n        /* \"@openzeppelin/contracts/token/ERC721/ERC721.sol\":5164:5171  tokenId */\n      dup4\n        /* \"@openzeppelin/contracts/token/ERC721/ERC721.sol\":5137:5176  safeTransferFrom(from, to, tokenId, \"\") */\n      mload(0x40)\n      dup1\n      0x20\n      add\n      0x40\n      mstore\n      dup1\n      0x00\n      dup2\n      mstore\n      pop\n        /* \"@openzeppelin/contracts/token/ERC721/ERC721.sol\":5137:5153  safeTransferFrom */\n      tag_90\n        /* \"@openzeppelin/contracts/token/ERC721/ERC721.sol\":5137:5176  safeTransferFrom(from, to, tokenId, \"\") */\n      jump\t// in\n        /* \"@openzeppelin/contracts/token/ERC721/ERC721.sol\":2190:2409  function ownerOf(uint256 tokenId) public view virtual override returns (address) {... */\n    tag_61:\n        /* \"@openzeppelin/contracts/token/ERC721/ERC721.sol\":2262:2269  address */\n      0x00\n        /* \"@openzeppelin/contracts/token/ERC721/ERC721.sol\":6930:6946  _owners[tokenId] */\n      dup2\n      dup2\n      mstore\n        /* \"@openzeppelin/contracts/token/ERC721/ERC721.sol\":6930:6937  _owners */\n      0x02\n        /* \"@openzeppelin/contracts/token/ERC721/ERC721.sol\":6930:6946  _owners[tokenId] */\n      0x20\n      mstore\n      0x40\n      dup2\n      keccak256\n      sload\n      sub(shl(0xa0, 0x01), 0x01)\n      and\n      dup1\n        /* \"@openzeppelin/contracts/token/ERC721/ERC721.sol\":2324:2380  require(owner != address(0), \"ERC721: invalid token ID\") */\n      tag_115\n      jumpi\n      mload(0x40)\n      shl(0xe5, 0x461bcd)\n      dup2\n      mstore\n        /* \"#utility.yul\":7064:7066   */\n      0x20\n        /* \"@openzeppelin/contracts/token/ERC721/ERC721.sol\":2324:2380  require(owner != address(0), \"ERC721: invalid token ID\") */\n      0x04\n      dup3\n      add\n        /* \"#utility.yul\":7046:7067   */\n      mstore\n        /* \"#utility.yul\":7103:7105   */\n      0x18\n        /* \"#utility.yul\":7083:7101   */\n      0x24\n      dup3\n      add\n        /* \"#utility.yul\":7076:7106   */\n      mstore\n      shl(0x42, 0x115490cdcc8c4e881a5b9d985b1a59081d1bdad95b881251)\n        /* \"#utility.yul\":7122:7140   */\n      0x44\n      dup3\n      add\n        /* \"#utility.yul\":7115:7169   */\n      mstore\n        /* \"#utility.yul\":7186:7204   */\n      0x64\n      add\n        /* \"@openzeppelin/contracts/token/ERC721/ERC721.sol\":2324:2380  require(owner != address(0), \"ERC721: invalid token ID\") */\n      tag_130\n        /* \"#utility.yul\":6862:7210   */\n      jump\n        /* \"contracts/Collectible.sol\":979:1332  function mint(address _to) external nonReentrant {... */\n    tag_66:\n        /* \"@openzeppelin/contracts/security/ReentrancyGuard.sol\":2261:2282  _nonReentrantBefore() */\n      tag_160\n        /* \"@openzeppelin/contracts/security/ReentrancyGuard.sol\":2261:2280  _nonReentrantBefore */\n      tag_161\n        /* \"@openzeppelin/contracts/security/ReentrancyGuard.sol\":2261:2282  _nonReentrantBefore() */\n      jump\t// in\n    tag_160:\n        /* \"contracts/Collectible.sol\":1080:1089  maxSupply */\n      sload(0x0a)\n        /* \"contracts/Collectible.sol\":1059:1067  tokenIds */\n      0x08\n        /* \"@openzeppelin/contracts/utils/Counters.sol\":918:932  counter._value */\n      sload\n        /* \"contracts/Collectible.sol\":1059:1089  tokenIds.current() < maxSupply */\n      lt\n        /* \"contracts/Collectible.sol\":1038:1146  require(... */\n      tag_165\n      jumpi\n      mload(0x40)\n      shl(0xe5, 0x461bcd)\n      dup2\n      mstore\n        /* \"#utility.yul\":7417:7419   */\n      0x20\n        /* \"contracts/Collectible.sol\":1038:1146  require(... */\n      0x04\n      dup3\n      add\n        /* \"#utility.yul\":7399:7420   */\n      mstore\n        /* \"#utility.yul\":7456:7458   */\n      0x1f\n        /* \"#utility.yul\":7436:7454   */\n      0x24\n      dup3\n      add\n        /* \"#utility.yul\":7429:7459   */\n      mstore\n        /* \"#utility.yul\":7495:7528   */\n      0x4d6178696d756d20737570706c7920686173206265656e207265616368656400\n        /* \"#utility.yul\":7475:7493   */\n      0x44\n      dup3\n      add\n        /* \"#utility.yul\":7468:7529   */\n      mstore\n        /* \"#utility.yul\":7546:7564   */\n      0x64\n      add\n        /* \"contracts/Collectible.sol\":1038:1146  require(... */\n      tag_130\n        /* \"#utility.yul\":7215:7570   */\n      jump\n        /* \"contracts/Collectible.sol\":1038:1146  require(... */\n    tag_165:\n        /* \"contracts/Collectible.sol\":1156:1176  tokenIds.increment() */\n      tag_168\n        /* \"contracts/Collectible.sol\":1156:1164  tokenIds */\n      0x08\n        /* \"@openzeppelin/contracts/utils/Counters.sol\":1032:1051  counter._value += 1 */\n      dup1\n      sload\n        /* \"@openzeppelin/contracts/utils/Counters.sol\":1050:1051  1 */\n      0x01\n        /* \"@openzeppelin/contracts/utils/Counters.sol\":1032:1051  counter._value += 1 */\n      add\n      swap1\n      sstore\n        /* \"@openzeppelin/contracts/utils/Counters.sol\":945:1068  function increment(Counter storage counter) internal {... */\n      jump\n        /* \"contracts/Collectible.sol\":1156:1176  tokenIds.increment() */\n    tag_168:\n        /* \"contracts/Collectible.sol\":1186:1203  uint256 newItemId */\n      0x00\n        /* \"contracts/Collectible.sol\":1206:1224  tokenIds.current() */\n      tag_170\n        /* \"contracts/Collectible.sol\":1206:1214  tokenIds */\n      0x08\n        /* \"@openzeppelin/contracts/utils/Counters.sol\":918:932  counter._value */\n      sload\n      swap1\n        /* \"@openzeppelin/contracts/utils/Counters.sol\":827:939  function current(Counter storage counter) internal view returns (uint256) {... */\n      jump\n        /* \"contracts/Collectible.sol\":1206:1224  tokenIds.current() */\n    tag_170:\n        /* \"contracts/Collectible.sol\":1186:1224  uint256 newItemId = tokenIds.current() */\n      swap1\n      pop\n        /* \"contracts/Collectible.sol\":1234:1259  _safeMint(_to, newItemId) */\n      tag_171\n        /* \"contracts/Collectible.sol\":1244:1247  _to */\n      dup3\n        /* \"contracts/Collectible.sol\":1249:1258  newItemId */\n      dup3\n        /* \"contracts/Collectible.sol\":1234:1243  _safeMint */\n      tag_172\n        /* \"contracts/Collectible.sol\":1234:1259  _safeMint(_to, newItemId) */\n      jump\t// in\n    tag_171:\n        /* \"contracts/Collectible.sol\":1269:1282  traitContract */\n      and(sub(shl(0xa0, 0x01), 0x01), sload(0x09))\n        /* \"contracts/Collectible.sol\":1269:1291  traitContract.addTrait */\n      0xc333f045\n        /* \"contracts/Collectible.sol\":1292:1310  tokenIds.current() */\n      tag_173\n        /* \"contracts/Collectible.sol\":1292:1300  tokenIds */\n      0x08\n        /* \"@openzeppelin/contracts/utils/Counters.sol\":918:932  counter._value */\n      sload\n      swap1\n        /* \"@openzeppelin/contracts/utils/Counters.sol\":827:939  function current(Counter storage counter) internal view returns (uint256) {... */\n      jump\n        /* \"contracts/Collectible.sol\":1292:1310  tokenIds.current() */\n    tag_173:\n        /* \"@openzeppelin/contracts/utils/Context.sol\":719:729  msg.sender */\n      caller\n        /* \"contracts/Collectible.sol\":1269:1325  traitContract.addTrait(tokenIds.current(), _msgSender()) */\n      mload(0x40)\n      not(sub(shl(0xe0, 0x01), 0x01))\n      0xe0\n      dup6\n      swap1\n      shl\n      and\n      dup2\n      mstore\n      0x04\n      dup2\n      add\n        /* \"#utility.yul\":7749:7774   */\n      swap3\n      swap1\n      swap3\n      mstore\n      sub(shl(0xa0, 0x01), 0x01)\n        /* \"#utility.yul\":7810:7842   */\n      and\n        /* \"#utility.yul\":7790:7808   */\n      0x24\n      dup3\n      add\n        /* \"#utility.yul\":7783:7843   */\n      mstore\n        /* \"#utility.yul\":7722:7740   */\n      0x44\n      add\n        /* \"contracts/Collectible.sol\":1269:1325  traitContract.addTrait(tokenIds.current(), _msgSender()) */\n      0x00\n      mload(0x40)\n      dup1\n      dup4\n      sub\n      dup2\n      0x00\n      dup8\n      dup1\n      extcodesize\n      iszero\n      dup1\n      iszero\n      tag_177\n      jumpi\n      0x00\n      dup1\n      revert\n    tag_177:\n      pop\n      gas\n      call\n      iszero\n      dup1\n      iszero\n      tag_179\n      jumpi\n      returndatasize\n      0x00\n      dup1\n      returndatacopy\n      revert(0x00, returndatasize)\n    tag_179:\n      pop\n      pop\n      pop\n      pop\n        /* \"contracts/Collectible.sol\":1028:1332  {... */\n      pop\n        /* \"@openzeppelin/contracts/security/ReentrancyGuard.sol\":2303:2323  _nonReentrantAfter() */\n      tag_180\n        /* \"@openzeppelin/contracts/security/ReentrancyGuard.sol\":1716:1717  1 */\n      0x01\n        /* \"@openzeppelin/contracts/security/ReentrancyGuard.sol\":2809:2816  _status */\n      0x07\n        /* \"@openzeppelin/contracts/security/ReentrancyGuard.sol\":2809:2831  _status = _NOT_ENTERED */\n      sstore\n        /* \"@openzeppelin/contracts/security/ReentrancyGuard.sol\":2629:2838  function _nonReentrantAfter() private {... */\n      jump\n        /* \"@openzeppelin/contracts/security/ReentrancyGuard.sol\":2303:2323  _nonReentrantAfter() */\n    tag_180:\n        /* \"contracts/Collectible.sol\":979:1332  function mint(address _to) external nonReentrant {... */\n      pop\n      jump\t// out\n        /* \"@openzeppelin/contracts/token/ERC721/ERC721.sol\":1929:2133  function balanceOf(address owner) public view virtual override returns (uint256) {... */\n    tag_69:\n        /* \"@openzeppelin/contracts/token/ERC721/ERC721.sol\":2001:2008  uint256 */\n      0x00\n      sub(shl(0xa0, 0x01), 0x01)\n        /* \"@openzeppelin/contracts/token/ERC721/ERC721.sol\":2028:2047  owner != address(0) */\n      dup3\n      and\n        /* \"@openzeppelin/contracts/token/ERC721/ERC721.sol\":2020:2093  require(owner != address(0), \"ERC721: address zero is not a valid owner\") */\n      tag_183\n      jumpi\n      mload(0x40)\n      shl(0xe5, 0x461bcd)\n      dup2\n      mstore\n        /* \"#utility.yul\":8056:8058   */\n      0x20\n        /* \"@openzeppelin/contracts/token/ERC721/ERC721.sol\":2020:2093  require(owner != address(0), \"ERC721: address zero is not a valid owner\") */\n      0x04\n      dup3\n      add\n        /* \"#utility.yul\":8038:8059   */\n      mstore\n        /* \"#utility.yul\":8095:8097   */\n      0x29\n        /* \"#utility.yul\":8075:8093   */\n      0x24\n      dup3\n      add\n        /* \"#utility.yul\":8068:8098   */\n      mstore\n        /* \"#utility.yul\":8134:8168   */\n      0x4552433732313a2061646472657373207a65726f206973206e6f742061207661\n        /* \"#utility.yul\":8114:8132   */\n      0x44\n      dup3\n      add\n        /* \"#utility.yul\":8107:8169   */\n      mstore\n      shl(0xb9, 0x3634b21037bbb732b9)\n        /* \"#utility.yul\":8185:8203   */\n      0x64\n      dup3\n      add\n        /* \"#utility.yul\":8178:8217   */\n      mstore\n        /* \"#utility.yul\":8234:8253   */\n      0x84\n      add\n        /* \"@openzeppelin/contracts/token/ERC721/ERC721.sol\":2020:2093  require(owner != address(0), \"ERC721: address zero is not a valid owner\") */\n      tag_130\n        /* \"#utility.yul\":7854:8259   */\n      jump\n        /* \"@openzeppelin/contracts/token/ERC721/ERC721.sol\":2020:2093  require(owner != address(0), \"ERC721: address zero is not a valid owner\") */\n    tag_183:\n      pop\n      sub(shl(0xa0, 0x01), 0x01)\n        /* \"@openzeppelin/contracts/token/ERC721/ERC721.sol\":2110:2126  _balances[owner] */\n      and\n      0x00\n      swap1\n      dup2\n      mstore\n        /* \"@openzeppelin/contracts/token/ERC721/ERC721.sol\":2110:2119  _balances */\n      0x03\n        /* \"@openzeppelin/contracts/token/ERC721/ERC721.sol\":2110:2126  _balances[owner] */\n      0x20\n      mstore\n      0x40\n      swap1\n      keccak256\n      sload\n      swap1\n        /* \"@openzeppelin/contracts/token/ERC721/ERC721.sol\":1929:2133  function balanceOf(address owner) public view virtual override returns (uint256) {... */\n      jump\t// out\n        /* \"@openzeppelin/contracts/access/Ownable.sol\":1831:1932  function renounceOwnership() public virtual onlyOwner {... */\n    tag_76:\n        /* \"@openzeppelin/contracts/access/Ownable.sol\":1094:1107  _checkOwner() */\n      tag_187\n        /* \"@openzeppelin/contracts/access/Ownable.sol\":1094:1105  _checkOwner */\n      tag_188\n        /* \"@openzeppelin/contracts/access/Ownable.sol\":1094:1107  _checkOwner() */\n      jump\t// in\n    tag_187:\n        /* \"@openzeppelin/contracts/access/Ownable.sol\":1895:1925  _transferOwnership(address(0)) */\n      tag_190\n        /* \"@openzeppelin/contracts/access/Ownable.sol\":1922:1923  0 */\n      0x00\n        /* \"@openzeppelin/contracts/access/Ownable.sol\":1895:1913  _transferOwnership */\n      tag_191\n        /* \"@openzeppelin/contracts/access/Ownable.sol\":1895:1925  _transferOwnership(address(0)) */\n      jump\t// in\n    tag_190:\n        /* \"@openzeppelin/contracts/access/Ownable.sol\":1831:1932  function renounceOwnership() public virtual onlyOwner {... */\n      jump\t// out\n        /* \"@openzeppelin/contracts/token/ERC721/ERC721.sol\":2633:2735  function symbol() public view virtual override returns (string memory) {... */\n    tag_81:\n        /* \"@openzeppelin/contracts/token/ERC721/ERC721.sol\":2689:2702  string memory */\n      0x60\n        /* \"@openzeppelin/contracts/token/ERC721/ERC721.sol\":2721:2728  _symbol */\n      0x01\n        /* \"@openzeppelin/contracts/token/ERC721/ERC721.sol\":2714:2728  return _symbol */\n      dup1\n      sload\n      tag_118\n      swap1\n      tag_119\n      jump\t// in\n        /* \"@openzeppelin/contracts/token/ERC721/ERC721.sol\":4169:4322  function setApprovalForAll(address operator, bool approved) public virtual override {... */\n    tag_86:\n        /* \"@openzeppelin/contracts/token/ERC721/ERC721.sol\":4263:4315  _setApprovalForAll(_msgSender(), operator, approved) */\n      tag_200\n        /* \"@openzeppelin/contracts/utils/Context.sol\":719:729  msg.sender */\n      caller\n        /* \"@openzeppelin/contracts/token/ERC721/ERC721.sol\":4296:4304  operator */\n      dup4\n        /* \"@openzeppelin/contracts/token/ERC721/ERC721.sol\":4306:4314  approved */\n      dup4\n        /* \"@openzeppelin/contracts/token/ERC721/ERC721.sol\":4263:4281  _setApprovalForAll */\n      tag_202\n        /* \"@openzeppelin/contracts/token/ERC721/ERC721.sol\":4263:4315  _setApprovalForAll(_msgSender(), operator, approved) */\n      jump\t// in\n    tag_200:\n        /* \"@openzeppelin/contracts/token/ERC721/ERC721.sol\":4169:4322  function setApprovalForAll(address operator, bool approved) public virtual override {... */\n      pop\n      pop\n      jump\t// out\n        /* \"@openzeppelin/contracts/token/ERC721/ERC721.sol\":5249:5563  function safeTransferFrom(... */\n    tag_90:\n        /* \"@openzeppelin/contracts/token/ERC721/ERC721.sol\":5417:5458  _isApprovedOrOwner(_msgSender(), tokenId) */\n      tag_204\n        /* \"@openzeppelin/contracts/utils/Context.sol\":719:729  msg.sender */\n      caller\n        /* \"@openzeppelin/contracts/token/ERC721/ERC721.sol\":5450:5457  tokenId */\n      dup4\n        /* \"@openzeppelin/contracts/token/ERC721/ERC721.sol\":5417:5435  _isApprovedOrOwner */\n      tag_145\n        /* \"@openzeppelin/contracts/token/ERC721/ERC721.sol\":5417:5458  _isApprovedOrOwner(_msgSender(), tokenId) */\n      jump\t// in\n    tag_204:\n        /* \"@openzeppelin/contracts/token/ERC721/ERC721.sol\":5409:5508  require(_isApprovedOrOwner(_msgSender(), tokenId), \"ERC721: caller is not token owner or approved\") */\n      tag_206\n      jumpi\n      mload(0x40)\n      shl(0xe5, 0x461bcd)\n      dup2\n      mstore\n      0x04\n      add\n      tag_130\n      swap1\n      tag_148\n      jump\t// in\n    tag_206:\n        /* \"@openzeppelin/contracts/token/ERC721/ERC721.sol\":5518:5556  _safeTransfer(from, to, tokenId, data) */\n      tag_208\n        /* \"@openzeppelin/contracts/token/ERC721/ERC721.sol\":5532:5536  from */\n      dup5\n        /* \"@openzeppelin/contracts/token/ERC721/ERC721.sol\":5538:5540  to */\n      dup5\n        /* \"@openzeppelin/contracts/token/ERC721/ERC721.sol\":5542:5549  tokenId */\n      dup5\n        /* \"@openzeppelin/contracts/token/ERC721/ERC721.sol\":5551:5555  data */\n      dup5\n        /* \"@openzeppelin/contracts/token/ERC721/ERC721.sol\":5518:5531  _safeTransfer */\n      tag_209\n        /* \"@openzeppelin/contracts/token/ERC721/ERC721.sol\":5518:5556  _safeTransfer(from, to, tokenId, data) */\n      jump\t// in\n    tag_208:\n        /* \"@openzeppelin/contracts/token/ERC721/ERC721.sol\":5249:5563  function safeTransferFrom(... */\n      pop\n      pop\n      pop\n      pop\n      jump\t// out\n        /* \"contracts/Collectible.sol\":1455:1606  function tokenURI(... */\n    tag_93:\n        /* \"contracts/Collectible.sol\":1567:1580  traitContract */\n      sload(0x09)\n        /* \"contracts/Collectible.sol\":1567:1599  traitContract.tokenURI(_tokenId) */\n      mload(0x40)\n      shl(0xe0, 0xc87b56dd)\n      dup2\n      mstore\n      0x04\n      dup2\n      add\n        /* \"#utility.yul\":3082:3107   */\n      dup4\n      swap1\n      mstore\n        /* \"contracts/Collectible.sol\":1535:1548  string memory */\n      0x60\n      swap2\n      sub(shl(0xa0, 0x01), 0x01)\n        /* \"contracts/Collectible.sol\":1567:1580  traitContract */\n      and\n      swap1\n        /* \"contracts/Collectible.sol\":1567:1589  traitContract.tokenURI */\n      0xc87b56dd\n      swap1\n        /* \"#utility.yul\":3055:3073   */\n      0x24\n      add\n        /* \"contracts/Collectible.sol\":1567:1599  traitContract.tokenURI(_tokenId) */\n      0x00\n      mload(0x40)\n      dup1\n      dup4\n      sub\n      dup2\n      dup7\n      gas\n      staticcall\n      iszero\n      dup1\n      iszero\n      tag_213\n      jumpi\n      returndatasize\n      0x00\n      dup1\n      returndatacopy\n      revert(0x00, returndatasize)\n    tag_213:\n      pop\n      pop\n      pop\n      pop\n      mload(0x40)\n      returndatasize\n      0x00\n      dup3\n      returndatacopy\n      0x1f\n      returndatasize\n      swap1\n      dup2\n      add\n      not(0x1f)\n      and\n      dup3\n      add\n      0x40\n      mstore\n      tag_115\n      swap2\n      swap1\n      dup2\n      add\n      swap1\n      tag_215\n      jump\t// in\n        /* \"contracts/Collectible.sol\":1700:1838  function setTraitCollectible(address _traitContract) external onlyOwner {... */\n    tag_97:\n        /* \"@openzeppelin/contracts/access/Ownable.sol\":1094:1107  _checkOwner() */\n      tag_217\n        /* \"@openzeppelin/contracts/access/Ownable.sol\":1094:1105  _checkOwner */\n      tag_188\n        /* \"@openzeppelin/contracts/access/Ownable.sol\":1094:1107  _checkOwner() */\n      jump\t// in\n    tag_217:\n        /* \"contracts/Collectible.sol\":1782:1795  traitContract */\n      0x09\n        /* \"contracts/Collectible.sol\":1782:1831  traitContract = ITraitCollectible(_traitContract) */\n      dup1\n      sload\n      not(sub(shl(0xa0, 0x01), 0x01))\n      and\n      sub(shl(0xa0, 0x01), 0x01)\n      swap3\n      swap1\n      swap3\n      and\n      swap2\n      swap1\n      swap2\n      or\n      swap1\n      sstore\n        /* \"contracts/Collectible.sol\":1700:1838  function setTraitCollectible(address _traitContract) external onlyOwner {... */\n      jump\t// out\n        /* \"contracts/Collectible.sol\":557:583  string public baseTokenURI */\n    tag_99:\n      0x0b\n      dup1\n      sload\n      tag_219\n      swap1\n      tag_119\n      jump\t// in\n    tag_219:\n      dup1\n      0x1f\n      add\n      0x20\n      dup1\n      swap2\n      div\n      mul\n      0x20\n      add\n      mload(0x40)\n      swap1\n      dup2\n      add\n      0x40\n      mstore\n      dup1\n      swap3\n      swap2\n      swap1\n      dup2\n      dup2\n      mstore\n      0x20\n      add\n      dup3\n      dup1\n      sload\n      tag_220\n      swap1\n      tag_119\n      jump\t// in\n    tag_220:\n      dup1\n      iszero\n      tag_221\n      jumpi\n      dup1\n      0x1f\n      lt\n      tag_222\n      jumpi\n      0x0100\n      dup1\n      dup4\n      sload\n      div\n      mul\n      dup4\n      mstore\n      swap2\n      0x20\n      add\n      swap2\n      jump(tag_221)\n    tag_222:\n      dup3\n      add\n      swap2\n      swap1\n      0x00\n      mstore\n      keccak256(0x00, 0x20)\n      swap1\n    tag_223:\n      dup2\n      sload\n      dup2\n      mstore\n      swap1\n      0x01\n      add\n      swap1\n      0x20\n      add\n      dup1\n      dup4\n      gt\n      tag_223\n      jumpi\n      dup3\n      swap1\n      sub\n      0x1f\n      and\n      dup3\n      add\n      swap2\n    tag_221:\n      pop\n      pop\n      pop\n      pop\n      pop\n      dup2\n      jump\t// out\n        /* \"@openzeppelin/contracts/token/ERC721/ERC721.sol\":4388:4550  function isApprovedForAll(address owner, address operator) public view virtual override returns (bool) {... */\n    tag_107:\n      sub(shl(0xa0, 0x01), 0x01)\n        /* \"@openzeppelin/contracts/token/ERC721/ERC721.sol\":4508:4533  _operatorApprovals[owner] */\n      swap2\n      dup3\n      and\n        /* \"@openzeppelin/contracts/token/ERC721/ERC721.sol\":4485:4489  bool */\n      0x00\n        /* \"@openzeppelin/contracts/token/ERC721/ERC721.sol\":4508:4533  _operatorApprovals[owner] */\n      swap1\n      dup2\n      mstore\n        /* \"@openzeppelin/contracts/token/ERC721/ERC721.sol\":4508:4526  _operatorApprovals */\n      0x05\n        /* \"@openzeppelin/contracts/token/ERC721/ERC721.sol\":4508:4533  _operatorApprovals[owner] */\n      0x20\n      swap1\n      dup2\n      mstore\n      0x40\n      dup1\n      dup4\n      keccak256\n        /* \"@openzeppelin/contracts/token/ERC721/ERC721.sol\":4508:4543  _operatorApprovals[owner][operator] */\n      swap4\n      swap1\n      swap5\n      and\n      dup3\n      mstore\n      swap2\n      swap1\n      swap2\n      mstore\n      keccak256\n      sload\n      0xff\n      and\n      swap1\n        /* \"@openzeppelin/contracts/token/ERC721/ERC721.sol\":4388:4550  function isApprovedForAll(address owner, address operator) public view virtual override returns (bool) {... */\n      jump\t// out\n        /* \"@openzeppelin/contracts/access/Ownable.sol\":2081:2279  function transferOwnership(address newOwner) public virtual onlyOwner {... */\n    tag_111:\n        /* \"@openzeppelin/contracts/access/Ownable.sol\":1094:1107  _checkOwner() */\n      tag_226\n        /* \"@openzeppelin/contracts/access/Ownable.sol\":1094:1105  _checkOwner */\n      tag_188\n        /* \"@openzeppelin/contracts/access/Ownable.sol\":1094:1107  _checkOwner() */\n      jump\t// in\n    tag_226:\n      sub(shl(0xa0, 0x01), 0x01)\n        /* \"@openzeppelin/contracts/access/Ownable.sol\":2169:2191  newOwner != address(0) */\n      dup2\n      and\n        /* \"@openzeppelin/contracts/access/Ownable.sol\":2161:2234  require(newOwner != address(0), \"Ownable: new owner is the zero address\") */\n      tag_228\n      jumpi\n      mload(0x40)\n      shl(0xe5, 0x461bcd)\n      dup2\n      mstore\n        /* \"#utility.yul\":9119:9121   */\n      0x20\n        /* \"@openzeppelin/contracts/access/Ownable.sol\":2161:2234  require(newOwner != address(0), \"Ownable: new owner is the zero address\") */\n      0x04\n      dup3\n      add\n        /* \"#utility.yul\":9101:9122   */\n      mstore\n        /* \"#utility.yul\":9158:9160   */\n      0x26\n        /* \"#utility.yul\":9138:9156   */\n      0x24\n      dup3\n      add\n        /* \"#utility.yul\":9131:9161   */\n      mstore\n        /* \"#utility.yul\":9197:9231   */\n      0x4f776e61626c653a206e6577206f776e657220697320746865207a65726f2061\n        /* \"#utility.yul\":9177:9195   */\n      0x44\n      dup3\n      add\n        /* \"#utility.yul\":9170:9232   */\n      mstore\n      shl(0xd0, 0x646472657373)\n        /* \"#utility.yul\":9248:9266   */\n      0x64\n      dup3\n      add\n        /* \"#utility.yul\":9241:9277   */\n      mstore\n        /* \"#utility.yul\":9294:9313   */\n      0x84\n      add\n        /* \"@openzeppelin/contracts/access/Ownable.sol\":2161:2234  require(newOwner != address(0), \"Ownable: new owner is the zero address\") */\n      tag_130\n        /* \"#utility.yul\":8917:9319   */\n      jump\n        /* \"@openzeppelin/contracts/access/Ownable.sol\":2161:2234  require(newOwner != address(0), \"Ownable: new owner is the zero address\") */\n    tag_228:\n        /* \"@openzeppelin/contracts/access/Ownable.sol\":2244:2272  _transferOwnership(newOwner) */\n      tag_180\n        /* \"@openzeppelin/contracts/access/Ownable.sol\":2263:2271  newOwner */\n      dup2\n        /* \"@openzeppelin/contracts/access/Ownable.sol\":2244:2262  _transferOwnership */\n      tag_191\n        /* \"@openzeppelin/contracts/access/Ownable.sol\":2244:2272  _transferOwnership(newOwner) */\n      jump\t// in\n        /* \"@openzeppelin/contracts/token/ERC721/ERC721.sol\":13466:13599  function _requireMinted(uint256 tokenId) internal view virtual {... */\n    tag_126:\n        /* \"@openzeppelin/contracts/token/ERC721/ERC721.sol\":7321:7325  bool */\n      0x00\n        /* \"@openzeppelin/contracts/token/ERC721/ERC721.sol\":6930:6946  _owners[tokenId] */\n      dup2\n      dup2\n      mstore\n        /* \"@openzeppelin/contracts/token/ERC721/ERC721.sol\":6930:6937  _owners */\n      0x02\n        /* \"@openzeppelin/contracts/token/ERC721/ERC721.sol\":6930:6946  _owners[tokenId] */\n      0x20\n      mstore\n      0x40\n      swap1\n      keccak256\n      sload\n      sub(shl(0xa0, 0x01), 0x01)\n      and\n        /* \"@openzeppelin/contracts/token/ERC721/ERC721.sol\":13539:13592  require(_exists(tokenId), \"ERC721: invalid token ID\") */\n      tag_180\n      jumpi\n      mload(0x40)\n      shl(0xe5, 0x461bcd)\n      dup2\n      mstore\n        /* \"#utility.yul\":7064:7066   */\n      0x20\n        /* \"@openzeppelin/contracts/token/ERC721/ERC721.sol\":13539:13592  require(_exists(tokenId), \"ERC721: invalid token ID\") */\n      0x04\n      dup3\n      add\n        /* \"#utility.yul\":7046:7067   */\n      mstore\n        /* \"#utility.yul\":7103:7105   */\n      0x18\n        /* \"#utility.yul\":7083:7101   */\n      0x24\n      dup3\n      add\n        /* \"#utility.yul\":7076:7106   */\n      mstore\n      shl(0x42, 0x115490cdcc8c4e881a5b9d985b1a59081d1bdad95b881251)\n        /* \"#utility.yul\":7122:7140   */\n      0x44\n      dup3\n      add\n        /* \"#utility.yul\":7115:7169   */\n      mstore\n        /* \"#utility.yul\":7186:7204   */\n      0x64\n      add\n        /* \"@openzeppelin/contracts/token/ERC721/ERC721.sol\":13539:13592  require(_exists(tokenId), \"ERC721: invalid token ID\") */\n      tag_130\n        /* \"#utility.yul\":6862:7210   */\n      jump\n        /* \"@openzeppelin/contracts/token/ERC721/ERC721.sol\":12768:12939  function _approve(address to, uint256 tokenId) internal virtual {... */\n    tag_141:\n        /* \"@openzeppelin/contracts/token/ERC721/ERC721.sol\":12842:12866  _tokenApprovals[tokenId] */\n      0x00\n      dup2\n      dup2\n      mstore\n        /* \"@openzeppelin/contracts/token/ERC721/ERC721.sol\":12842:12857  _tokenApprovals */\n      0x04\n        /* \"@openzeppelin/contracts/token/ERC721/ERC721.sol\":12842:12866  _tokenApprovals[tokenId] */\n      0x20\n      mstore\n      0x40\n      swap1\n      keccak256\n        /* \"@openzeppelin/contracts/token/ERC721/ERC721.sol\":12842:12871  _tokenApprovals[tokenId] = to */\n      dup1\n      sload\n      not(sub(shl(0xa0, 0x01), 0x01))\n      and\n      sub(shl(0xa0, 0x01), 0x01)\n      dup5\n      and\n      swap1\n      dup2\n      or\n      swap1\n      swap2\n      sstore\n        /* \"@openzeppelin/contracts/token/ERC721/ERC721.sol\":12842:12866  _tokenApprovals[tokenId] */\n      dup2\n      swap1\n        /* \"@openzeppelin/contracts/token/ERC721/ERC721.sol\":12895:12918  ERC721.ownerOf(tokenId) */\n      tag_240\n        /* \"@openzeppelin/contracts/token/ERC721/ERC721.sol\":12842:12866  _tokenApprovals[tokenId] */\n      dup3\n        /* \"@openzeppelin/contracts/token/ERC721/ERC721.sol\":12895:12909  ERC721.ownerOf */\n      tag_61\n        /* \"@openzeppelin/contracts/token/ERC721/ERC721.sol\":12895:12918  ERC721.ownerOf(tokenId) */\n      jump\t// in\n    tag_240:\n      sub(shl(0xa0, 0x01), 0x01)\n        /* \"@openzeppelin/contracts/token/ERC721/ERC721.sol\":12886:12932  Approval(ERC721.ownerOf(tokenId), to, tokenId) */\n      and\n      0x8c5be1e5ebec7d5bd14f71427d1e84f3dd0314c0f7b2291e5b200ac8c7c3b925\n      mload(0x40)\n      mload(0x40)\n      dup1\n      swap2\n      sub\n      swap1\n      log4\n        /* \"@openzeppelin/contracts/token/ERC721/ERC721.sol\":12768:12939  function _approve(address to, uint256 tokenId) internal virtual {... */\n      pop\n      pop\n      jump\t// out\n        /* \"@openzeppelin/contracts/token/ERC721/ERC721.sol\":7540:7801  function _isApprovedOrOwner(address spender, uint256 tokenId) internal view virtual returns (bool) {... */\n    tag_145:\n        /* \"@openzeppelin/contracts/token/ERC721/ERC721.sol\":7633:7637  bool */\n      0x00\n        /* \"@openzeppelin/contracts/token/ERC721/ERC721.sol\":7649:7662  address owner */\n      dup1\n        /* \"@openzeppelin/contracts/token/ERC721/ERC721.sol\":7665:7688  ERC721.ownerOf(tokenId) */\n      tag_242\n        /* \"@openzeppelin/contracts/token/ERC721/ERC721.sol\":7680:7687  tokenId */\n      dup4\n        /* \"@openzeppelin/contracts/token/ERC721/ERC721.sol\":7665:7679  ERC721.ownerOf */\n      tag_61\n        /* \"@openzeppelin/contracts/token/ERC721/ERC721.sol\":7665:7688  ERC721.ownerOf(tokenId) */\n      jump\t// in\n    tag_242:\n        /* \"@openzeppelin/contracts/token/ERC721/ERC721.sol\":7649:7688  address owner = ERC721.ownerOf(tokenId) */\n      swap1\n      pop\n        /* \"@openzeppelin/contracts/token/ERC721/ERC721.sol\":7717:7722  owner */\n      dup1\n      sub(shl(0xa0, 0x01), 0x01)\n        /* \"@openzeppelin/contracts/token/ERC721/ERC721.sol\":7706:7722  spender == owner */\n      and\n        /* \"@openzeppelin/contracts/token/ERC721/ERC721.sol\":7706:7713  spender */\n      dup5\n      sub(shl(0xa0, 0x01), 0x01)\n        /* \"@openzeppelin/contracts/token/ERC721/ERC721.sol\":7706:7722  spender == owner */\n      and\n      eq\n        /* \"@openzeppelin/contracts/token/ERC721/ERC721.sol\":7706:7758  spender == owner || isApprovedForAll(owner, spender) */\n      dup1\n      tag_244\n      jumpi\n      pop\n        /* \"@openzeppelin/contracts/token/ERC721/ERC721.sol\":7726:7758  isApprovedForAll(owner, spender) */\n      tag_244\n        /* \"@openzeppelin/contracts/token/ERC721/ERC721.sol\":7743:7748  owner */\n      dup2\n        /* \"@openzeppelin/contracts/token/ERC721/ERC721.sol\":7750:7757  spender */\n      dup6\n        /* \"@openzeppelin/contracts/token/ERC721/ERC721.sol\":7726:7742  isApprovedForAll */\n      tag_107\n        /* \"@openzeppelin/contracts/token/ERC721/ERC721.sol\":7726:7758  isApprovedForAll(owner, spender) */\n      jump\t// in\n    tag_244:\n        /* \"@openzeppelin/contracts/token/ERC721/ERC721.sol\":7706:7793  spender == owner || isApprovedForAll(owner, spender) || getApproved(tokenId) == spender */\n      dup1\n      tag_245\n      jumpi\n      pop\n        /* \"@openzeppelin/contracts/token/ERC721/ERC721.sol\":7786:7793  spender */\n      dup4\n      sub(shl(0xa0, 0x01), 0x01)\n        /* \"@openzeppelin/contracts/token/ERC721/ERC721.sol\":7762:7793  getApproved(tokenId) == spender */\n      and\n        /* \"@openzeppelin/contracts/token/ERC721/ERC721.sol\":7762:7782  getApproved(tokenId) */\n      tag_246\n        /* \"@openzeppelin/contracts/token/ERC721/ERC721.sol\":7774:7781  tokenId */\n      dup5\n        /* \"@openzeppelin/contracts/token/ERC721/ERC721.sol\":7762:7773  getApproved */\n      tag_41\n        /* \"@openzeppelin/contracts/token/ERC721/ERC721.sol\":7762:7782  getApproved(tokenId) */\n      jump\t// in\n    tag_246:\n      sub(shl(0xa0, 0x01), 0x01)\n        /* \"@openzeppelin/contracts/token/ERC721/ERC721.sol\":7762:7793  getApproved(tokenId) == spender */\n      and\n      eq\n        /* \"@openzeppelin/contracts/token/ERC721/ERC721.sol\":7706:7793  spender == owner || isApprovedForAll(owner, spender) || getApproved(tokenId) == spender */\n    tag_245:\n        /* \"@openzeppelin/contracts/token/ERC721/ERC721.sol\":7698:7794  return (spender == owner || isApprovedForAll(owner, spender) || getApproved(tokenId) == spender) */\n      swap5\n        /* \"@openzeppelin/contracts/token/ERC721/ERC721.sol\":7540:7801  function _isApprovedOrOwner(address spender, uint256 tokenId) internal view virtual returns (bool) {... */\n      swap4\n      pop\n      pop\n      pop\n      pop\n      jump\t// out\n        /* \"@openzeppelin/contracts/token/ERC721/ERC721.sol\":11423:12656  function _transfer(... */\n    tag_150:\n        /* \"@openzeppelin/contracts/token/ERC721/ERC721.sol\":11577:11581  from */\n      dup3\n      sub(shl(0xa0, 0x01), 0x01)\n        /* \"@openzeppelin/contracts/token/ERC721/ERC721.sol\":11550:11581  ERC721.ownerOf(tokenId) == from */\n      and\n        /* \"@openzeppelin/contracts/token/ERC721/ERC721.sol\":11550:11573  ERC721.ownerOf(tokenId) */\n      tag_248\n        /* \"@openzeppelin/contracts/token/ERC721/ERC721.sol\":11565:11572  tokenId */\n      dup3\n        /* \"@openzeppelin/contracts/token/ERC721/ERC721.sol\":11550:11564  ERC721.ownerOf */\n      tag_61\n        /* \"@openzeppelin/contracts/token/ERC721/ERC721.sol\":11550:11573  ERC721.ownerOf(tokenId) */\n      jump\t// in\n    tag_248:\n      sub(shl(0xa0, 0x01), 0x01)\n        /* \"@openzeppelin/contracts/token/ERC721/ERC721.sol\":11550:11581  ERC721.ownerOf(tokenId) == from */\n      and\n      eq\n        /* \"@openzeppelin/contracts/token/ERC721/ERC721.sol\":11542:11623  require(ERC721.ownerOf(tokenId) == from, \"ERC721: transfer from incorrect owner\") */\n      tag_249\n      jumpi\n      mload(0x40)\n      shl(0xe5, 0x461bcd)\n      dup2\n      mstore\n      0x04\n      add\n      tag_130\n      swap1\n      tag_251\n      jump\t// in\n    tag_249:\n      sub(shl(0xa0, 0x01), 0x01)\n        /* \"@openzeppelin/contracts/token/ERC721/ERC721.sol\":11641:11657  to != address(0) */\n      dup3\n      and\n        /* \"@openzeppelin/contracts/token/ERC721/ERC721.sol\":11633:11698  require(to != address(0), \"ERC721: transfer to the zero address\") */\n      tag_252\n      jumpi\n      mload(0x40)\n      shl(0xe5, 0x461bcd)\n      dup2\n      mstore\n        /* \"#utility.yul\":9932:9934   */\n      0x20\n        /* \"@openzeppelin/contracts/token/ERC721/ERC721.sol\":11633:11698  require(to != address(0), \"ERC721: transfer to the zero address\") */\n      0x04\n      dup3\n      add\n        /* \"#utility.yul\":9914:9935   */\n      mstore\n        /* \"#utility.yul\":9971:9973   */\n      0x24\n        /* \"#utility.yul\":9951:9969   */\n      dup1\n      dup3\n      add\n        /* \"#utility.yul\":9944:9974   */\n      mstore\n        /* \"#utility.yul\":10010:10044   */\n      0x4552433732313a207472616e7366657220746f20746865207a65726f20616464\n        /* \"#utility.yul\":9990:10008   */\n      0x44\n      dup3\n      add\n        /* \"#utility.yul\":9983:10045   */\n      mstore\n      shl(0xe0, 0x72657373)\n        /* \"#utility.yul\":10061:10079   */\n      0x64\n      dup3\n      add\n        /* \"#utility.yul\":10054:10088   */\n      mstore\n        /* \"#utility.yul\":10105:10124   */\n      0x84\n      add\n        /* \"@openzeppelin/contracts/token/ERC721/ERC721.sol\":11633:11698  require(to != address(0), \"ERC721: transfer to the zero address\") */\n      tag_130\n        /* \"#utility.yul\":9730:10130   */\n      jump\n        /* \"@openzeppelin/contracts/token/ERC721/ERC721.sol\":11633:11698  require(to != address(0), \"ERC721: transfer to the zero address\") */\n    tag_252:\n        /* \"@openzeppelin/contracts/token/ERC721/ERC721.sol\":11709:11751  _beforeTokenTransfer(from, to, tokenId, 1) */\n      tag_255\n        /* \"@openzeppelin/contracts/token/ERC721/ERC721.sol\":11730:11734  from */\n      dup4\n        /* \"@openzeppelin/contracts/token/ERC721/ERC721.sol\":11736:11738  to */\n      dup4\n        /* \"@openzeppelin/contracts/token/ERC721/ERC721.sol\":11740:11747  tokenId */\n      dup4\n        /* \"@openzeppelin/contracts/token/ERC721/ERC721.sol\":11749:11750  1 */\n      0x01\n        /* \"@openzeppelin/contracts/token/ERC721/ERC721.sol\":11709:11729  _beforeTokenTransfer */\n      tag_256\n        /* \"@openzeppelin/contracts/token/ERC721/ERC721.sol\":11709:11751  _beforeTokenTransfer(from, to, tokenId, 1) */\n      jump\t// in\n    tag_255:\n        /* \"@openzeppelin/contracts/token/ERC721/ERC721.sol\":11878:11882  from */\n      dup3\n      sub(shl(0xa0, 0x01), 0x01)\n        /* \"@openzeppelin/contracts/token/ERC721/ERC721.sol\":11851:11882  ERC721.ownerOf(tokenId) == from */\n      and\n        /* \"@openzeppelin/contracts/token/ERC721/ERC721.sol\":11851:11874  ERC721.ownerOf(tokenId) */\n      tag_257\n        /* \"@openzeppelin/contracts/token/ERC721/ERC721.sol\":11866:11873  tokenId */\n      dup3\n        /* \"@openzeppelin/contracts/token/ERC721/ERC721.sol\":11851:11865  ERC721.ownerOf */\n      tag_61\n        /* \"@openzeppelin/contracts/token/ERC721/ERC721.sol\":11851:11874  ERC721.ownerOf(tokenId) */\n      jump\t// in\n    tag_257:\n      sub(shl(0xa0, 0x01), 0x01)\n        /* \"@openzeppelin/contracts/token/ERC721/ERC721.sol\":11851:11882  ERC721.ownerOf(tokenId) == from */\n      and\n      eq\n        /* \"@openzeppelin/contracts/token/ERC721/ERC721.sol\":11843:11924  require(ERC721.ownerOf(tokenId) == from, \"ERC721: transfer from incorrect owner\") */\n      tag_258\n      jumpi\n      mload(0x40)\n      shl(0xe5, 0x461bcd)\n      dup2\n      mstore\n      0x04\n      add\n      tag_130\n      swap1\n      tag_251\n      jump\t// in\n    tag_258:\n        /* \"@openzeppelin/contracts/token/ERC721/ERC721.sol\":11993:12017  _tokenApprovals[tokenId] */\n      0x00\n      dup2\n      dup2\n      mstore\n        /* \"@openzeppelin/contracts/token/ERC721/ERC721.sol\":11993:12008  _tokenApprovals */\n      0x04\n        /* \"@openzeppelin/contracts/token/ERC721/ERC721.sol\":11993:12017  _tokenApprovals[tokenId] */\n      0x20\n      swap1\n      dup2\n      mstore\n      0x40\n      dup1\n      dup4\n      keccak256\n        /* \"@openzeppelin/contracts/token/ERC721/ERC721.sol\":11986:12017  delete _tokenApprovals[tokenId] */\n      dup1\n      sload\n      not(sub(shl(0xa0, 0x01), 0x01))\n      swap1\n      dup2\n      and\n      swap1\n      swap2\n      sstore\n      sub(shl(0xa0, 0x01), 0x01)\n        /* \"@openzeppelin/contracts/token/ERC721/ERC721.sol\":12461:12476  _balances[from] */\n      dup8\n      dup2\n      and\n      dup1\n      dup7\n      mstore\n        /* \"@openzeppelin/contracts/token/ERC721/ERC721.sol\":12461:12470  _balances */\n      0x03\n        /* \"@openzeppelin/contracts/token/ERC721/ERC721.sol\":12461:12476  _balances[from] */\n      dup6\n      mstore\n      dup4\n      dup7\n      keccak256\n        /* \"@openzeppelin/contracts/token/ERC721/ERC721.sol\":12461:12481  _balances[from] -= 1 */\n      dup1\n      sload\n      not(0x00)\n      add\n      swap1\n      sstore\n        /* \"@openzeppelin/contracts/token/ERC721/ERC721.sol\":12495:12508  _balances[to] */\n      swap1\n      dup8\n      and\n      dup1\n      dup7\n      mstore\n      dup4\n      dup7\n      keccak256\n        /* \"@openzeppelin/contracts/token/ERC721/ERC721.sol\":12495:12513  _balances[to] += 1 */\n      dup1\n      sload\n        /* \"@openzeppelin/contracts/token/ERC721/ERC721.sol\":11986:12017  delete _tokenApprovals[tokenId] */\n      0x01\n        /* \"@openzeppelin/contracts/token/ERC721/ERC721.sol\":12495:12513  _balances[to] += 1 */\n      add\n      swap1\n      sstore\n        /* \"@openzeppelin/contracts/token/ERC721/ERC721.sol\":12533:12549  _owners[tokenId] */\n      dup7\n      dup7\n      mstore\n        /* \"@openzeppelin/contracts/token/ERC721/ERC721.sol\":12533:12540  _owners */\n      0x02\n        /* \"@openzeppelin/contracts/token/ERC721/ERC721.sol\":12533:12549  _owners[tokenId] */\n      swap1\n      swap5\n      mstore\n      dup3\n      dup6\n      keccak256\n        /* \"@openzeppelin/contracts/token/ERC721/ERC721.sol\":12533:12554  _owners[tokenId] = to */\n      dup1\n      sload\n      swap1\n      swap3\n      and\n      dup5\n      or\n      swap1\n      swap2\n      sstore\n        /* \"@openzeppelin/contracts/token/ERC721/ERC721.sol\":12570:12597  Transfer(from, to, tokenId) */\n      swap1\n      mload\n        /* \"@openzeppelin/contracts/token/ERC721/ERC721.sol\":12009:12016  tokenId */\n      dup5\n      swap4\n        /* \"@openzeppelin/contracts/token/ERC721/ERC721.sol\":12570:12597  Transfer(from, to, tokenId) */\n      0xddf252ad1be2c89b69c2b068fc378daa952ba7f163c4a11628f55a4df523b3ef\n      swap2\n      log4\n        /* \"@openzeppelin/contracts/token/ERC721/ERC721.sol\":3538:3874  {... */\n      pop\n        /* \"@openzeppelin/contracts/token/ERC721/ERC721.sol\":3468:3874  function approve(address to, uint256 tokenId) public virtual override {... */\n      pop\n      pop\n      jump\t// out\n        /* \"@openzeppelin/contracts/security/ReentrancyGuard.sol\":2336:2623  function _nonReentrantBefore() private {... */\n    tag_161:\n        /* \"@openzeppelin/contracts/security/ReentrancyGuard.sol\":1759:1760  2 */\n      0x02\n        /* \"@openzeppelin/contracts/security/ReentrancyGuard.sol\":2468:2475  _status */\n      sload(0x07)\n        /* \"@openzeppelin/contracts/security/ReentrancyGuard.sol\":2468:2487  _status != _ENTERED */\n      sub\n        /* \"@openzeppelin/contracts/security/ReentrancyGuard.sol\":2460:2523  require(_status != _ENTERED, \"ReentrancyGuard: reentrant call\") */\n      tag_264\n      jumpi\n      mload(0x40)\n      shl(0xe5, 0x461bcd)\n      dup2\n      mstore\n        /* \"#utility.yul\":10337:10339   */\n      0x20\n        /* \"@openzeppelin/contracts/security/ReentrancyGuard.sol\":2460:2523  require(_status != _ENTERED, \"ReentrancyGuard: reentrant call\") */\n      0x04\n      dup3\n      add\n        /* \"#utility.yul\":10319:10340   */\n      mstore\n        /* \"#utility.yul\":10376:10378   */\n      0x1f\n        /* \"#utility.yul\":10356:10374   */\n      0x24\n      dup3\n      add\n        /* \"#utility.yul\":10349:10379   */\n      mstore\n        /* \"#utility.yul\":10415:10448   */\n      0x5265656e7472616e637947756172643a207265656e7472616e742063616c6c00\n        /* \"#utility.yul\":10395:10413   */\n      0x44\n      dup3\n      add\n        /* \"#utility.yul\":10388:10449   */\n      mstore\n        /* \"#utility.yul\":10466:10484   */\n      0x64\n      add\n        /* \"@openzeppelin/contracts/security/ReentrancyGuard.sol\":2460:2523  require(_status != _ENTERED, \"ReentrancyGuard: reentrant call\") */\n      tag_130\n        /* \"#utility.yul\":10135:10490   */\n      jump\n        /* \"@openzeppelin/contracts/security/ReentrancyGuard.sol\":2460:2523  require(_status != _ENTERED, \"ReentrancyGuard: reentrant call\") */\n    tag_264:\n        /* \"@openzeppelin/contracts/security/ReentrancyGuard.sol\":1759:1760  2 */\n      0x02\n        /* \"@openzeppelin/contracts/security/ReentrancyGuard.sol\":2598:2605  _status */\n      0x07\n        /* \"@openzeppelin/contracts/security/ReentrancyGuard.sol\":2598:2616  _status = _ENTERED */\n      sstore\n        /* \"@openzeppelin/contracts/security/ReentrancyGuard.sol\":2336:2623  function _nonReentrantBefore() private {... */\n      jump\t// out\n        /* \"@openzeppelin/contracts/token/ERC721/ERC721.sol\":8131:8239  function _safeMint(address to, uint256 tokenId) internal virtual {... */\n    tag_172:\n        /* \"@openzeppelin/contracts/token/ERC721/ERC721.sol\":8206:8232  _safeMint(to, tokenId, \"\") */\n      tag_200\n        /* \"@openzeppelin/contracts/token/ERC721/ERC721.sol\":8216:8218  to */\n      dup3\n        /* \"@openzeppelin/contracts/token/ERC721/ERC721.sol\":8220:8227  tokenId */\n      dup3\n        /* \"@openzeppelin/contracts/token/ERC721/ERC721.sol\":8206:8232  _safeMint(to, tokenId, \"\") */\n      mload(0x40)\n      dup1\n      0x20\n      add\n      0x40\n      mstore\n      dup1\n      0x00\n      dup2\n      mstore\n      pop\n        /* \"@openzeppelin/contracts/token/ERC721/ERC721.sol\":8206:8215  _safeMint */\n      tag_271\n        /* \"@openzeppelin/contracts/token/ERC721/ERC721.sol\":8206:8232  _safeMint(to, tokenId, \"\") */\n      jump\t// in\n        /* \"@openzeppelin/contracts/access/Ownable.sol\":1359:1489  function _checkOwner() internal view virtual {... */\n    tag_188:\n        /* \"@openzeppelin/contracts/access/Ownable.sol\":1273:1279  _owner */\n      and(sub(shl(0xa0, 0x01), 0x01), sload(0x06))\n        /* \"@openzeppelin/contracts/utils/Context.sol\":719:729  msg.sender */\n      caller\n        /* \"@openzeppelin/contracts/access/Ownable.sol\":1422:1445  owner() == _msgSender() */\n      eq\n        /* \"@openzeppelin/contracts/access/Ownable.sol\":1414:1482  require(owner() == _msgSender(), \"Ownable: caller is not the owner\") */\n      tag_190\n      jumpi\n      mload(0x40)\n      shl(0xe5, 0x461bcd)\n      dup2\n      mstore\n        /* \"#utility.yul\":10697:10699   */\n      0x20\n        /* \"@openzeppelin/contracts/access/Ownable.sol\":1414:1482  require(owner() == _msgSender(), \"Ownable: caller is not the owner\") */\n      0x04\n      dup3\n      add\n        /* \"#utility.yul\":10679:10700   */\n      dup2\n      swap1\n      mstore\n        /* \"#utility.yul\":10716:10734   */\n      0x24\n      dup3\n      add\n        /* \"#utility.yul\":10709:10739   */\n      mstore\n        /* \"#utility.yul\":10775:10809   */\n      0x4f776e61626c653a2063616c6c6572206973206e6f7420746865206f776e6572\n        /* \"#utility.yul\":10755:10773   */\n      0x44\n      dup3\n      add\n        /* \"#utility.yul\":10748:10810   */\n      mstore\n        /* \"#utility.yul\":10827:10845   */\n      0x64\n      add\n        /* \"@openzeppelin/contracts/access/Ownable.sol\":1414:1482  require(owner() == _msgSender(), \"Ownable: caller is not the owner\") */\n      tag_130\n        /* \"#utility.yul\":10495:10851   */\n      jump\n        /* \"@openzeppelin/contracts/access/Ownable.sol\":2433:2620  function _transferOwnership(address newOwner) internal virtual {... */\n    tag_191:\n        /* \"@openzeppelin/contracts/access/Ownable.sol\":2525:2531  _owner */\n      0x06\n      dup1\n      sload\n      sub(shl(0xa0, 0x01), 0x01)\n        /* \"@openzeppelin/contracts/access/Ownable.sol\":2541:2558  _owner = newOwner */\n      dup4\n      dup2\n      and\n      not(sub(shl(0xa0, 0x01), 0x01))\n      dup4\n      and\n      dup2\n      or\n      swap1\n      swap4\n      sstore\n        /* \"@openzeppelin/contracts/access/Ownable.sol\":2573:2613  OwnershipTransferred(oldOwner, newOwner) */\n      mload(0x40)\n        /* \"@openzeppelin/contracts/access/Ownable.sol\":2525:2531  _owner */\n      swap2\n      and\n      swap2\n        /* \"@openzeppelin/contracts/access/Ownable.sol\":2541:2558  _owner = newOwner */\n      swap1\n        /* \"@openzeppelin/contracts/access/Ownable.sol\":2525:2531  _owner */\n      dup3\n      swap1\n        /* \"@openzeppelin/contracts/access/Ownable.sol\":2573:2613  OwnershipTransferred(oldOwner, newOwner) */\n      0x8be0079c531659141344cd1fd0a4f28419497f9722a3daafe3b4186f6b6457e0\n      swap1\n        /* \"@openzeppelin/contracts/access/Ownable.sol\":2506:2522  address oldOwner */\n      0x00\n      swap1\n        /* \"@openzeppelin/contracts/access/Ownable.sol\":2573:2613  OwnershipTransferred(oldOwner, newOwner) */\n      log3\n        /* \"@openzeppelin/contracts/access/Ownable.sol\":2496:2620  {... */\n      pop\n        /* \"@openzeppelin/contracts/access/Ownable.sol\":2433:2620  function _transferOwnership(address newOwner) internal virtual {... */\n      pop\n      jump\t// out\n        /* \"@openzeppelin/contracts/token/ERC721/ERC721.sol\":13075:13382  function _setApprovalForAll(... */\n    tag_202:\n        /* \"@openzeppelin/contracts/token/ERC721/ERC721.sol\":13225:13233  operator */\n      dup2\n      sub(shl(0xa0, 0x01), 0x01)\n        /* \"@openzeppelin/contracts/token/ERC721/ERC721.sol\":13216:13233  owner != operator */\n      and\n        /* \"@openzeppelin/contracts/token/ERC721/ERC721.sol\":13216:13221  owner */\n      dup4\n      sub(shl(0xa0, 0x01), 0x01)\n        /* \"@openzeppelin/contracts/token/ERC721/ERC721.sol\":13216:13233  owner != operator */\n      and\n      sub\n        /* \"@openzeppelin/contracts/token/ERC721/ERC721.sol\":13208:13263  require(owner != operator, \"ERC721: approve to caller\") */\n      tag_281\n      jumpi\n      mload(0x40)\n      shl(0xe5, 0x461bcd)\n      dup2\n      mstore\n        /* \"#utility.yul\":11058:11060   */\n      0x20\n        /* \"@openzeppelin/contracts/token/ERC721/ERC721.sol\":13208:13263  require(owner != operator, \"ERC721: approve to caller\") */\n      0x04\n      dup3\n      add\n        /* \"#utility.yul\":11040:11061   */\n      mstore\n        /* \"#utility.yul\":11097:11099   */\n      0x19\n        /* \"#utility.yul\":11077:11095   */\n      0x24\n      dup3\n      add\n        /* \"#utility.yul\":11070:11100   */\n      mstore\n        /* \"#utility.yul\":11136:11163   */\n      0x4552433732313a20617070726f766520746f2063616c6c657200000000000000\n        /* \"#utility.yul\":11116:11134   */\n      0x44\n      dup3\n      add\n        /* \"#utility.yul\":11109:11164   */\n      mstore\n        /* \"#utility.yul\":11181:11199   */\n      0x64\n      add\n        /* \"@openzeppelin/contracts/token/ERC721/ERC721.sol\":13208:13263  require(owner != operator, \"ERC721: approve to caller\") */\n      tag_130\n        /* \"#utility.yul\":10856:11205   */\n      jump\n        /* \"@openzeppelin/contracts/token/ERC721/ERC721.sol\":13208:13263  require(owner != operator, \"ERC721: approve to caller\") */\n    tag_281:\n      sub(shl(0xa0, 0x01), 0x01)\n        /* \"@openzeppelin/contracts/token/ERC721/ERC721.sol\":13273:13298  _operatorApprovals[owner] */\n      dup4\n      dup2\n      and\n      0x00\n      dup2\n      dup2\n      mstore\n        /* \"@openzeppelin/contracts/token/ERC721/ERC721.sol\":13273:13291  _operatorApprovals */\n      0x05\n        /* \"@openzeppelin/contracts/token/ERC721/ERC721.sol\":13273:13298  _operatorApprovals[owner] */\n      0x20\n      swap1\n      dup2\n      mstore\n      0x40\n      dup1\n      dup4\n      keccak256\n        /* \"@openzeppelin/contracts/token/ERC721/ERC721.sol\":13273:13308  _operatorApprovals[owner][operator] */\n      swap5\n      dup8\n      and\n      dup1\n      dup5\n      mstore\n      swap5\n      dup3\n      mstore\n      swap2\n      dup3\n      swap1\n      keccak256\n        /* \"@openzeppelin/contracts/token/ERC721/ERC721.sol\":13273:13319  _operatorApprovals[owner][operator] = approved */\n      dup1\n      sload\n      not(0xff)\n      and\n      dup7\n      iszero\n      iszero\n      swap1\n      dup2\n      or\n      swap1\n      swap2\n      sstore\n        /* \"@openzeppelin/contracts/token/ERC721/ERC721.sol\":13334:13375  ApprovalForAll(owner, operator, approved) */\n      swap2\n      mload\n        /* \"#utility.yul\":540:581   */\n      swap2\n      dup3\n      mstore\n        /* \"@openzeppelin/contracts/token/ERC721/ERC721.sol\":13334:13375  ApprovalForAll(owner, operator, approved) */\n      0x17307eab39ab6107e8899845ad3d59bd9653f200f220920489ca2b5937696c31\n      swap2\n        /* \"#utility.yul\":513:531   */\n      add\n        /* \"@openzeppelin/contracts/token/ERC721/ERC721.sol\":13334:13375  ApprovalForAll(owner, operator, approved) */\n      mload(0x40)\n      dup1\n      swap2\n      sub\n      swap1\n      log3\n        /* \"@openzeppelin/contracts/token/ERC721/ERC721.sol\":13075:13382  function _setApprovalForAll(... */\n      pop\n      pop\n      pop\n      jump\t// out\n        /* \"@openzeppelin/contracts/token/ERC721/ERC721.sol\":6424:6729  function _safeTransfer(... */\n    tag_209:\n        /* \"@openzeppelin/contracts/token/ERC721/ERC721.sol\":6574:6602  _transfer(from, to, tokenId) */\n      tag_286\n        /* \"@openzeppelin/contracts/token/ERC721/ERC721.sol\":6584:6588  from */\n      dup5\n        /* \"@openzeppelin/contracts/token/ERC721/ERC721.sol\":6590:6592  to */\n      dup5\n        /* \"@openzeppelin/contracts/token/ERC721/ERC721.sol\":6594:6601  tokenId */\n      dup5\n        /* \"@openzeppelin/contracts/token/ERC721/ERC721.sol\":6574:6583  _transfer */\n      tag_150\n        /* \"@openzeppelin/contracts/token/ERC721/ERC721.sol\":6574:6602  _transfer(from, to, tokenId) */\n      jump\t// in\n    tag_286:\n        /* \"@openzeppelin/contracts/token/ERC721/ERC721.sol\":6620:6667  _checkOnERC721Received(from, to, tokenId, data) */\n      tag_287\n        /* \"@openzeppelin/contracts/token/ERC721/ERC721.sol\":6643:6647  from */\n      dup5\n        /* \"@openzeppelin/contracts/token/ERC721/ERC721.sol\":6649:6651  to */\n      dup5\n        /* \"@openzeppelin/contracts/token/ERC721/ERC721.sol\":6653:6660  tokenId */\n      dup5\n        /* \"@openzeppelin/contracts/token/ERC721/ERC721.sol\":6662:6666  data */\n      dup5\n        /* \"@openzeppelin/contracts/token/ERC721/ERC721.sol\":6620:6642  _checkOnERC721Received */\n      tag_288\n        /* \"@openzeppelin/contracts/token/ERC721/ERC721.sol\":6620:6667  _checkOnERC721Received(from, to, tokenId, data) */\n      jump\t// in\n    tag_287:\n        /* \"@openzeppelin/contracts/token/ERC721/ERC721.sol\":6612:6722  require(_checkOnERC721Received(from, to, tokenId, data), \"ERC721: transfer to non ERC721Receiver implementer\") */\n      tag_208\n      jumpi\n      mload(0x40)\n      shl(0xe5, 0x461bcd)\n      dup2\n      mstore\n      0x04\n      add\n      tag_130\n      swap1\n      tag_291\n      jump\t// in\n        /* \"@openzeppelin/contracts/token/ERC721/ERC721.sol\":15698:16094  function _beforeTokenTransfer(... */\n    tag_256:\n        /* \"@openzeppelin/contracts/token/ERC721/ERC721.sol\":15882:15883  1 */\n      0x01\n        /* \"@openzeppelin/contracts/token/ERC721/ERC721.sol\":15870:15879  batchSize */\n      dup2\n        /* \"@openzeppelin/contracts/token/ERC721/ERC721.sol\":15870:15883  batchSize > 1 */\n      gt\n        /* \"@openzeppelin/contracts/token/ERC721/ERC721.sol\":15866:16088  if (batchSize > 1) {... */\n      iszero\n      tag_208\n      jumpi\n      sub(shl(0xa0, 0x01), 0x01)\n        /* \"@openzeppelin/contracts/token/ERC721/ERC721.sol\":15903:15921  from != address(0) */\n      dup5\n      and\n      iszero\n        /* \"@openzeppelin/contracts/token/ERC721/ERC721.sol\":15899:15984  if (from != address(0)) {... */\n      tag_296\n      jumpi\n      sub(shl(0xa0, 0x01), 0x01)\n        /* \"@openzeppelin/contracts/token/ERC721/ERC721.sol\":15941:15956  _balances[from] */\n      dup5\n      and\n      0x00\n      swap1\n      dup2\n      mstore\n        /* \"@openzeppelin/contracts/token/ERC721/ERC721.sol\":15941:15950  _balances */\n      0x03\n        /* \"@openzeppelin/contracts/token/ERC721/ERC721.sol\":15941:15956  _balances[from] */\n      0x20\n      mstore\n      0x40\n      dup2\n      keccak256\n        /* \"@openzeppelin/contracts/token/ERC721/ERC721.sol\":15941:15969  _balances[from] -= batchSize */\n      dup1\n      sload\n        /* \"@openzeppelin/contracts/token/ERC721/ERC721.sol\":15960:15969  batchSize */\n      dup4\n      swap3\n        /* \"@openzeppelin/contracts/token/ERC721/ERC721.sol\":15941:15956  _balances[from] */\n      swap1\n        /* \"@openzeppelin/contracts/token/ERC721/ERC721.sol\":15941:15969  _balances[from] -= batchSize */\n      tag_297\n      swap1\n        /* \"@openzeppelin/contracts/token/ERC721/ERC721.sol\":15960:15969  batchSize */\n      dup5\n      swap1\n        /* \"@openzeppelin/contracts/token/ERC721/ERC721.sol\":15941:15969  _balances[from] -= batchSize */\n      tag_298\n      jump\t// in\n    tag_297:\n      swap1\n      swap2\n      sstore\n      pop\n      pop\n        /* \"@openzeppelin/contracts/token/ERC721/ERC721.sol\":15899:15984  if (from != address(0)) {... */\n    tag_296:\n      sub(shl(0xa0, 0x01), 0x01)\n        /* \"@openzeppelin/contracts/token/ERC721/ERC721.sol\":16001:16017  to != address(0) */\n      dup4\n      and\n      iszero\n        /* \"@openzeppelin/contracts/token/ERC721/ERC721.sol\":15997:16078  if (to != address(0)) {... */\n      tag_208\n      jumpi\n      sub(shl(0xa0, 0x01), 0x01)\n        /* \"@openzeppelin/contracts/token/ERC721/ERC721.sol\":16037:16050  _balances[to] */\n      dup4\n      and\n      0x00\n      swap1\n      dup2\n      mstore\n        /* \"@openzeppelin/contracts/token/ERC721/ERC721.sol\":16037:16046  _balances */\n      0x03\n        /* \"@openzeppelin/contracts/token/ERC721/ERC721.sol\":16037:16050  _balances[to] */\n      0x20\n      mstore\n      0x40\n      dup2\n      keccak256\n        /* \"@openzeppelin/contracts/token/ERC721/ERC721.sol\":16037:16063  _balances[to] += batchSize */\n      dup1\n      sload\n        /* \"@openzeppelin/contracts/token/ERC721/ERC721.sol\":16054:16063  batchSize */\n      dup4\n      swap3\n        /* \"@openzeppelin/contracts/token/ERC721/ERC721.sol\":16037:16050  _balances[to] */\n      swap1\n        /* \"@openzeppelin/contracts/token/ERC721/ERC721.sol\":16037:16063  _balances[to] += batchSize */\n      tag_300\n      swap1\n        /* \"@openzeppelin/contracts/token/ERC721/ERC721.sol\":16054:16063  batchSize */\n      dup5\n      swap1\n        /* \"@openzeppelin/contracts/token/ERC721/ERC721.sol\":16037:16063  _balances[to] += batchSize */\n      tag_301\n      jump\t// in\n    tag_300:\n      swap1\n      swap2\n      sstore\n      pop\n      pop\n        /* \"@openzeppelin/contracts/token/ERC721/ERC721.sol\":15698:16094  function _beforeTokenTransfer(... */\n      pop\n      pop\n      pop\n      pop\n      jump\t// out\n        /* \"@openzeppelin/contracts/token/ERC721/ERC721.sol\":8460:8769  function _safeMint(... */\n    tag_271:\n        /* \"@openzeppelin/contracts/token/ERC721/ERC721.sol\":8584:8602  _mint(to, tokenId) */\n      tag_304\n        /* \"@openzeppelin/contracts/token/ERC721/ERC721.sol\":8590:8592  to */\n      dup4\n        /* \"@openzeppelin/contracts/token/ERC721/ERC721.sol\":8594:8601  tokenId */\n      dup4\n        /* \"@openzeppelin/contracts/token/ERC721/ERC721.sol\":8584:8589  _mint */\n      tag_305\n        /* \"@openzeppelin/contracts/token/ERC721/ERC721.sol\":8584:8602  _mint(to, tokenId) */\n      jump\t// in\n    tag_304:\n        /* \"@openzeppelin/contracts/token/ERC721/ERC721.sol\":8633:8686  _checkOnERC721Received(address(0), to, tokenId, data) */\n      tag_306\n        /* \"@openzeppelin/contracts/token/ERC721/ERC721.sol\":8664:8665  0 */\n      0x00\n        /* \"@openzeppelin/contracts/token/ERC721/ERC721.sol\":8668:8670  to */\n      dup5\n        /* \"@openzeppelin/contracts/token/ERC721/ERC721.sol\":8672:8679  tokenId */\n      dup5\n        /* \"@openzeppelin/contracts/token/ERC721/ERC721.sol\":8681:8685  data */\n      dup5\n        /* \"@openzeppelin/contracts/token/ERC721/ERC721.sol\":8633:8655  _checkOnERC721Received */\n      tag_288\n        /* \"@openzeppelin/contracts/token/ERC721/ERC721.sol\":8633:8686  _checkOnERC721Received(address(0), to, tokenId, data) */\n      jump\t// in\n    tag_306:\n        /* \"@openzeppelin/contracts/token/ERC721/ERC721.sol\":8612:8762  require(... */\n      tag_140\n      jumpi\n      mload(0x40)\n      shl(0xe5, 0x461bcd)\n      dup2\n      mstore\n      0x04\n      add\n      tag_130\n      swap1\n      tag_291\n      jump\t// in\n        /* \"@openzeppelin/contracts/token/ERC721/ERC721.sol\":14151:14982  function _checkOnERC721Received(... */\n    tag_288:\n        /* \"@openzeppelin/contracts/token/ERC721/ERC721.sol\":14300:14304  bool */\n      0x00\n      sub(shl(0xa0, 0x01), 0x01)\n        /* \"@openzeppelin/contracts/token/ERC721/ERC721.sol\":14320:14333  to.isContract */\n      dup5\n      and\n        /* \"@openzeppelin/contracts/utils/Address.sol\":1465:1484  account.code.length */\n      extcodesize\n        /* \"@openzeppelin/contracts/utils/Address.sol\":1465:1488  account.code.length > 0 */\n      iszero\n        /* \"@openzeppelin/contracts/token/ERC721/ERC721.sol\":14316:14976  if (to.isContract()) {... */\n      tag_312\n      jumpi\n        /* \"@openzeppelin/contracts/token/ERC721/ERC721.sol\":14355:14426  IERC721Receiver(to).onERC721Received(_msgSender(), from, tokenId, data) */\n      mload(0x40)\n      shl(0xe1, 0x0a85bd01)\n      dup2\n      mstore\n      sub(shl(0xa0, 0x01), 0x01)\n        /* \"@openzeppelin/contracts/token/ERC721/ERC721.sol\":14355:14391  IERC721Receiver(to).onERC721Received */\n      dup6\n      and\n      swap1\n      0x150b7a02\n      swap1\n        /* \"@openzeppelin/contracts/token/ERC721/ERC721.sol\":14355:14426  IERC721Receiver(to).onERC721Received(_msgSender(), from, tokenId, data) */\n      tag_314\n      swap1\n        /* \"@openzeppelin/contracts/utils/Context.sol\":719:729  msg.sender */\n      caller\n      swap1\n        /* \"@openzeppelin/contracts/token/ERC721/ERC721.sol\":14406:14410  from */\n      dup10\n      swap1\n        /* \"@openzeppelin/contracts/token/ERC721/ERC721.sol\":14412:14419  tokenId */\n      dup9\n      swap1\n        /* \"@openzeppelin/contracts/token/ERC721/ERC721.sol\":14421:14425  data */\n      dup9\n      swap1\n        /* \"@openzeppelin/contracts/token/ERC721/ERC721.sol\":14355:14426  IERC721Receiver(to).onERC721Received(_msgSender(), from, tokenId, data) */\n      0x04\n      add\n      tag_315\n      jump\t// in\n    tag_314:\n      0x20\n      mload(0x40)\n      dup1\n      dup4\n      sub\n      dup2\n      0x00\n      dup8\n      gas\n      call\n      swap3\n      pop\n      pop\n      pop\n      dup1\n      iszero\n      tag_316\n      jumpi\n      pop\n      0x40\n      dup1\n      mload\n      0x1f\n      returndatasize\n      swap1\n      dup2\n      add\n      not(0x1f)\n      and\n      dup3\n      add\n      swap1\n      swap3\n      mstore\n      tag_317\n      swap2\n      dup2\n      add\n      swap1\n      tag_318\n      jump\t// in\n    tag_317:\n      0x01\n    tag_316:\n        /* \"@openzeppelin/contracts/token/ERC721/ERC721.sol\":14351:14924  try IERC721Receiver(to).onERC721Received(_msgSender(), from, tokenId, data) returns (bytes4 retval) {... */\n      tag_319\n      jumpi\n      returndatasize\n      dup1\n      dup1\n      iszero\n      tag_324\n      jumpi\n      mload(0x40)\n      swap2\n      pop\n      and(add(returndatasize, 0x3f), not(0x1f))\n      dup3\n      add\n      0x40\n      mstore\n      returndatasize\n      dup3\n      mstore\n      returndatasize\n      0x00\n      0x20\n      dup5\n      add\n      returndatacopy\n      jump(tag_323)\n    tag_324:\n      0x60\n      swap2\n      pop\n    tag_323:\n      pop\n        /* \"@openzeppelin/contracts/token/ERC721/ERC721.sol\":14593:14599  reason */\n      dup1\n        /* \"@openzeppelin/contracts/token/ERC721/ERC721.sol\":14593:14606  reason.length */\n      mload\n        /* \"@openzeppelin/contracts/token/ERC721/ERC721.sol\":14610:14611  0 */\n      0x00\n        /* \"@openzeppelin/contracts/token/ERC721/ERC721.sol\":14593:14611  reason.length == 0 */\n      sub\n        /* \"@openzeppelin/contracts/token/ERC721/ERC721.sol\":14589:14910  if (reason.length == 0) {... */\n      tag_325\n      jumpi\n        /* \"@openzeppelin/contracts/token/ERC721/ERC721.sol\":14635:14695  revert(\"ERC721: transfer to non ERC721Receiver implementer\") */\n      mload(0x40)\n      shl(0xe5, 0x461bcd)\n      dup2\n      mstore\n      0x04\n      add\n      tag_130\n      swap1\n      tag_291\n      jump\t// in\n        /* \"@openzeppelin/contracts/token/ERC721/ERC721.sol\":14589:14910  if (reason.length == 0) {... */\n    tag_325:\n        /* \"@openzeppelin/contracts/token/ERC721/ERC721.sol\":14862:14868  reason */\n      dup1\n        /* \"@openzeppelin/contracts/token/ERC721/ERC721.sol\":14856:14869  mload(reason) */\n      mload\n        /* \"@openzeppelin/contracts/token/ERC721/ERC721.sol\":14847:14853  reason */\n      dup2\n        /* \"@openzeppelin/contracts/token/ERC721/ERC721.sol\":14843:14845  32 */\n      0x20\n        /* \"@openzeppelin/contracts/token/ERC721/ERC721.sol\":14839:14854  add(32, reason) */\n      add\n        /* \"@openzeppelin/contracts/token/ERC721/ERC721.sol\":14832:14870  revert(add(32, reason), mload(reason)) */\n      revert\n        /* \"@openzeppelin/contracts/token/ERC721/ERC721.sol\":14351:14924  try IERC721Receiver(to).onERC721Received(_msgSender(), from, tokenId, data) returns (bytes4 retval) {... */\n    tag_319:\n      not(sub(shl(0xe0, 0x01), 0x01))\n        /* \"@openzeppelin/contracts/token/ERC721/ERC721.sol\":14476:14527  retval == IERC721Receiver.onERC721Received.selector */\n      and\n      shl(0xe1, 0x0a85bd01)\n      eq\n      swap1\n      pop\n        /* \"@openzeppelin/contracts/token/ERC721/ERC721.sol\":14469:14527  return retval == IERC721Receiver.onERC721Received.selector */\n      jump(tag_245)\n        /* \"@openzeppelin/contracts/token/ERC721/ERC721.sol\":14316:14976  if (to.isContract()) {... */\n    tag_312:\n      pop\n        /* \"@openzeppelin/contracts/token/ERC721/ERC721.sol\":14961:14965  true */\n      0x01\n        /* \"@openzeppelin/contracts/token/ERC721/ERC721.sol\":14151:14982  function _checkOnERC721Received(... */\n      swap5\n      swap4\n      pop\n      pop\n      pop\n      pop\n      jump\t// out\n        /* \"@openzeppelin/contracts/token/ERC721/ERC721.sol\":9091:10011  function _mint(address to, uint256 tokenId) internal virtual {... */\n    tag_305:\n      sub(shl(0xa0, 0x01), 0x01)\n        /* \"@openzeppelin/contracts/token/ERC721/ERC721.sol\":9170:9186  to != address(0) */\n      dup3\n      and\n        /* \"@openzeppelin/contracts/token/ERC721/ERC721.sol\":9162:9223  require(to != address(0), \"ERC721: mint to the zero address\") */\n      tag_331\n      jumpi\n      mload(0x40)\n      shl(0xe5, 0x461bcd)\n      dup2\n      mstore\n        /* \"#utility.yul\":12974:12976   */\n      0x20\n        /* \"@openzeppelin/contracts/token/ERC721/ERC721.sol\":9162:9223  require(to != address(0), \"ERC721: mint to the zero address\") */\n      0x04\n      dup3\n      add\n        /* \"#utility.yul\":12956:12977   */\n      dup2\n      swap1\n      mstore\n        /* \"#utility.yul\":12993:13011   */\n      0x24\n      dup3\n      add\n        /* \"#utility.yul\":12986:13016   */\n      mstore\n        /* \"#utility.yul\":13052:13086   */\n      0x4552433732313a206d696e7420746f20746865207a65726f2061646472657373\n        /* \"#utility.yul\":13032:13050   */\n      0x44\n      dup3\n      add\n        /* \"#utility.yul\":13025:13087   */\n      mstore\n        /* \"#utility.yul\":13104:13122   */\n      0x64\n      add\n        /* \"@openzeppelin/contracts/token/ERC721/ERC721.sol\":9162:9223  require(to != address(0), \"ERC721: mint to the zero address\") */\n      tag_130\n        /* \"#utility.yul\":12772:13128   */\n      jump\n        /* \"@openzeppelin/contracts/token/ERC721/ERC721.sol\":9162:9223  require(to != address(0), \"ERC721: mint to the zero address\") */\n    tag_331:\n        /* \"@openzeppelin/contracts/token/ERC721/ERC721.sol\":7321:7325  bool */\n      0x00\n        /* \"@openzeppelin/contracts/token/ERC721/ERC721.sol\":6930:6946  _owners[tokenId] */\n      dup2\n      dup2\n      mstore\n        /* \"@openzeppelin/contracts/token/ERC721/ERC721.sol\":6930:6937  _owners */\n      0x02\n        /* \"@openzeppelin/contracts/token/ERC721/ERC721.sol\":6930:6946  _owners[tokenId] */\n      0x20\n      mstore\n      0x40\n      swap1\n      keccak256\n      sload\n      sub(shl(0xa0, 0x01), 0x01)\n      and\n        /* \"@openzeppelin/contracts/token/ERC721/ERC721.sol\":7344:7375  _ownerOf(tokenId) != address(0) */\n      iszero\n        /* \"@openzeppelin/contracts/token/ERC721/ERC721.sol\":9233:9291  require(!_exists(tokenId), \"ERC721: token already minted\") */\n      tag_335\n      jumpi\n      mload(0x40)\n      shl(0xe5, 0x461bcd)\n      dup2\n      mstore\n        /* \"#utility.yul\":13335:13337   */\n      0x20\n        /* \"@openzeppelin/contracts/token/ERC721/ERC721.sol\":9233:9291  require(!_exists(tokenId), \"ERC721: token already minted\") */\n      0x04\n      dup3\n      add\n        /* \"#utility.yul\":13317:13338   */\n      mstore\n        /* \"#utility.yul\":13374:13376   */\n      0x1c\n        /* \"#utility.yul\":13354:13372   */\n      0x24\n      dup3\n      add\n        /* \"#utility.yul\":13347:13377   */\n      mstore\n        /* \"#utility.yul\":13413:13443   */\n      0x4552433732313a20746f6b656e20616c7265616479206d696e74656400000000\n        /* \"#utility.yul\":13393:13411   */\n      0x44\n      dup3\n      add\n        /* \"#utility.yul\":13386:13444   */\n      mstore\n        /* \"#utility.yul\":13461:13479   */\n      0x64\n      add\n        /* \"@openzeppelin/contracts/token/ERC721/ERC721.sol\":9233:9291  require(!_exists(tokenId), \"ERC721: token already minted\") */\n      tag_130\n        /* \"#utility.yul\":13133:13485   */\n      jump\n        /* \"@openzeppelin/contracts/token/ERC721/ERC721.sol\":9233:9291  require(!_exists(tokenId), \"ERC721: token already minted\") */\n    tag_335:\n        /* \"@openzeppelin/contracts/token/ERC721/ERC721.sol\":9302:9350  _beforeTokenTransfer(address(0), to, tokenId, 1) */\n      tag_338\n        /* \"@openzeppelin/contracts/token/ERC721/ERC721.sol\":9331:9332  0 */\n      0x00\n        /* \"@openzeppelin/contracts/token/ERC721/ERC721.sol\":9335:9337  to */\n      dup4\n        /* \"@openzeppelin/contracts/token/ERC721/ERC721.sol\":9339:9346  tokenId */\n      dup4\n        /* \"@openzeppelin/contracts/token/ERC721/ERC721.sol\":9348:9349  1 */\n      0x01\n        /* \"@openzeppelin/contracts/token/ERC721/ERC721.sol\":9302:9322  _beforeTokenTransfer */\n      tag_256\n        /* \"@openzeppelin/contracts/token/ERC721/ERC721.sol\":9302:9350  _beforeTokenTransfer(address(0), to, tokenId, 1) */\n      jump\t// in\n    tag_338:\n        /* \"@openzeppelin/contracts/token/ERC721/ERC721.sol\":7321:7325  bool */\n      0x00\n        /* \"@openzeppelin/contracts/token/ERC721/ERC721.sol\":6930:6946  _owners[tokenId] */\n      dup2\n      dup2\n      mstore\n        /* \"@openzeppelin/contracts/token/ERC721/ERC721.sol\":6930:6937  _owners */\n      0x02\n        /* \"@openzeppelin/contracts/token/ERC721/ERC721.sol\":6930:6946  _owners[tokenId] */\n      0x20\n      mstore\n      0x40\n      swap1\n      keccak256\n      sload\n      sub(shl(0xa0, 0x01), 0x01)\n      and\n        /* \"@openzeppelin/contracts/token/ERC721/ERC721.sol\":7344:7375  _ownerOf(tokenId) != address(0) */\n      iszero\n        /* \"@openzeppelin/contracts/token/ERC721/ERC721.sol\":9437:9495  require(!_exists(tokenId), \"ERC721: token already minted\") */\n      tag_340\n      jumpi\n      mload(0x40)\n      shl(0xe5, 0x461bcd)\n      dup2\n      mstore\n        /* \"#utility.yul\":13335:13337   */\n      0x20\n        /* \"@openzeppelin/contracts/token/ERC721/ERC721.sol\":9437:9495  require(!_exists(tokenId), \"ERC721: token already minted\") */\n      0x04\n      dup3\n      add\n        /* \"#utility.yul\":13317:13338   */\n      mstore\n        /* \"#utility.yul\":13374:13376   */\n      0x1c\n        /* \"#utility.yul\":13354:13372   */\n      0x24\n      dup3\n      add\n        /* \"#utility.yul\":13347:13377   */\n      mstore\n        /* \"#utility.yul\":13413:13443   */\n      0x4552433732313a20746f6b656e20616c7265616479206d696e74656400000000\n        /* \"#utility.yul\":13393:13411   */\n      0x44\n      dup3\n      add\n        /* \"#utility.yul\":13386:13444   */\n      mstore\n        /* \"#utility.yul\":13461:13479   */\n      0x64\n      add\n        /* \"@openzeppelin/contracts/token/ERC721/ERC721.sol\":9437:9495  require(!_exists(tokenId), \"ERC721: token already minted\") */\n      tag_130\n        /* \"#utility.yul\":13133:13485   */\n      jump\n        /* \"@openzeppelin/contracts/token/ERC721/ERC721.sol\":9437:9495  require(!_exists(tokenId), \"ERC721: token already minted\") */\n    tag_340:\n      sub(shl(0xa0, 0x01), 0x01)\n        /* \"@openzeppelin/contracts/token/ERC721/ERC721.sol\":9837:9850  _balances[to] */\n      dup3\n      and\n      0x00\n      dup2\n      dup2\n      mstore\n        /* \"@openzeppelin/contracts/token/ERC721/ERC721.sol\":9837:9846  _balances */\n      0x03\n        /* \"@openzeppelin/contracts/token/ERC721/ERC721.sol\":9837:9850  _balances[to] */\n      0x20\n      swap1\n      dup2\n      mstore\n      0x40\n      dup1\n      dup4\n      keccak256\n        /* \"@openzeppelin/contracts/token/ERC721/ERC721.sol\":9837:9855  _balances[to] += 1 */\n      dup1\n      sload\n        /* \"@openzeppelin/contracts/token/ERC721/ERC721.sol\":9854:9855  1 */\n      0x01\n        /* \"@openzeppelin/contracts/token/ERC721/ERC721.sol\":9837:9855  _balances[to] += 1 */\n      add\n      swap1\n      sstore\n        /* \"@openzeppelin/contracts/token/ERC721/ERC721.sol\":9876:9892  _owners[tokenId] */\n      dup5\n      dup4\n      mstore\n        /* \"@openzeppelin/contracts/token/ERC721/ERC721.sol\":9876:9883  _owners */\n      0x02\n        /* \"@openzeppelin/contracts/token/ERC721/ERC721.sol\":9876:9892  _owners[tokenId] */\n      swap1\n      swap2\n      mstore\n      dup1\n      dup3\n      keccak256\n        /* \"@openzeppelin/contracts/token/ERC721/ERC721.sol\":9876:9897  _owners[tokenId] = to */\n      dup1\n      sload\n      not(sub(shl(0xa0, 0x01), 0x01))\n      and\n      dup5\n      or\n      swap1\n      sstore\n        /* \"@openzeppelin/contracts/token/ERC721/ERC721.sol\":9913:9946  Transfer(address(0), to, tokenId) */\n      mload\n        /* \"@openzeppelin/contracts/token/ERC721/ERC721.sol\":9884:9891  tokenId */\n      dup4\n      swap3\n        /* \"@openzeppelin/contracts/token/ERC721/ERC721.sol\":9837:9850  _balances[to] */\n      swap2\n      swap1\n        /* \"@openzeppelin/contracts/token/ERC721/ERC721.sol\":9913:9946  Transfer(address(0), to, tokenId) */\n      0xddf252ad1be2c89b69c2b068fc378daa952ba7f163c4a11628f55a4df523b3ef\n      swap1\n        /* \"@openzeppelin/contracts/token/ERC721/ERC721.sol\":9837:9850  _balances[to] */\n      dup3\n      swap1\n        /* \"@openzeppelin/contracts/token/ERC721/ERC721.sol\":9913:9946  Transfer(address(0), to, tokenId) */\n      log4\n        /* \"@openzeppelin/contracts/token/ERC721/ERC721.sol\":4169:4322  function setApprovalForAll(address operator, bool approved) public virtual override {... */\n      pop\n      pop\n      jump\t// out\n        /* \"#utility.yul\":14:145   */\n    tag_344:\n      not(sub(shl(0xe0, 0x01), 0x01))\n        /* \"#utility.yul\":88:120   */\n      dup2\n      and\n        /* \"#utility.yul\":78:121   */\n      dup2\n      eq\n        /* \"#utility.yul\":68:139   */\n      tag_180\n      jumpi\n        /* \"#utility.yul\":135:136   */\n      0x00\n        /* \"#utility.yul\":132:133   */\n      dup1\n        /* \"#utility.yul\":125:137   */\n      revert\n        /* \"#utility.yul\":150:395   */\n    tag_30:\n        /* \"#utility.yul\":208:214   */\n      0x00\n        /* \"#utility.yul\":261:263   */\n      0x20\n        /* \"#utility.yul\":249:258   */\n      dup3\n        /* \"#utility.yul\":240:247   */\n      dup5\n        /* \"#utility.yul\":236:259   */\n      sub\n        /* \"#utility.yul\":232:264   */\n      slt\n        /* \"#utility.yul\":229:281   */\n      iszero\n      tag_356\n      jumpi\n        /* \"#utility.yul\":277:278   */\n      0x00\n        /* \"#utility.yul\":274:275   */\n      dup1\n        /* \"#utility.yul\":267:279   */\n      revert\n        /* \"#utility.yul\":229:281   */\n    tag_356:\n        /* \"#utility.yul\":316:325   */\n      dup2\n        /* \"#utility.yul\":303:326   */\n      calldataload\n        /* \"#utility.yul\":335:365   */\n      tag_357\n        /* \"#utility.yul\":359:364   */\n      dup2\n        /* \"#utility.yul\":335:365   */\n      tag_344\n      jump\t// in\n    tag_357:\n        /* \"#utility.yul\":384:389   */\n      swap4\n        /* \"#utility.yul\":150:395   */\n      swap3\n      pop\n      pop\n      pop\n      jump\t// out\n        /* \"#utility.yul\":592:842   */\n    tag_345:\n        /* \"#utility.yul\":677:678   */\n      0x00\n        /* \"#utility.yul\":687:800   */\n    tag_360:\n        /* \"#utility.yul\":701:707   */\n      dup4\n        /* \"#utility.yul\":698:699   */\n      dup2\n        /* \"#utility.yul\":695:708   */\n      lt\n        /* \"#utility.yul\":687:800   */\n      iszero\n      tag_362\n      jumpi\n        /* \"#utility.yul\":777:788   */\n      dup2\n      dup2\n      add\n        /* \"#utility.yul\":771:789   */\n      mload\n        /* \"#utility.yul\":758:769   */\n      dup4\n      dup3\n      add\n        /* \"#utility.yul\":751:790   */\n      mstore\n        /* \"#utility.yul\":723:725   */\n      0x20\n        /* \"#utility.yul\":716:726   */\n      add\n        /* \"#utility.yul\":687:800   */\n      jump(tag_360)\n    tag_362:\n      pop\n      pop\n        /* \"#utility.yul\":834:835   */\n      0x00\n        /* \"#utility.yul\":816:832   */\n      swap2\n      add\n        /* \"#utility.yul\":809:836   */\n      mstore\n        /* \"#utility.yul\":592:842   */\n      jump\t// out\n        /* \"#utility.yul\":847:1118   */\n    tag_346:\n        /* \"#utility.yul\":889:892   */\n      0x00\n        /* \"#utility.yul\":927:932   */\n      dup2\n        /* \"#utility.yul\":921:933   */\n      mload\n        /* \"#utility.yul\":954:960   */\n      dup1\n        /* \"#utility.yul\":949:952   */\n      dup5\n        /* \"#utility.yul\":942:961   */\n      mstore\n        /* \"#utility.yul\":970:1046   */\n      tag_364\n        /* \"#utility.yul\":1039:1045   */\n      dup2\n        /* \"#utility.yul\":1032:1036   */\n      0x20\n        /* \"#utility.yul\":1027:1030   */\n      dup7\n        /* \"#utility.yul\":1023:1037   */\n      add\n        /* \"#utility.yul\":1016:1020   */\n      0x20\n        /* \"#utility.yul\":1009:1014   */\n      dup7\n        /* \"#utility.yul\":1005:1021   */\n      add\n        /* \"#utility.yul\":970:1046   */\n      tag_345\n      jump\t// in\n    tag_364:\n        /* \"#utility.yul\":1100:1102   */\n      0x1f\n        /* \"#utility.yul\":1079:1094   */\n      add\n      not(0x1f)\n        /* \"#utility.yul\":1075:1104   */\n      and\n        /* \"#utility.yul\":1066:1105   */\n      swap3\n      swap1\n      swap3\n      add\n        /* \"#utility.yul\":1107:1111   */\n      0x20\n        /* \"#utility.yul\":1062:1112   */\n      add\n      swap3\n        /* \"#utility.yul\":847:1118   */\n      swap2\n      pop\n      pop\n      jump\t// out\n        /* \"#utility.yul\":1123:1343   */\n    tag_37:\n        /* \"#utility.yul\":1272:1274   */\n      0x20\n        /* \"#utility.yul\":1261:1270   */\n      dup2\n        /* \"#utility.yul\":1254:1275   */\n      mstore\n        /* \"#utility.yul\":1235:1239   */\n      0x00\n        /* \"#utility.yul\":1292:1337   */\n      tag_357\n        /* \"#utility.yul\":1333:1335   */\n      0x20\n        /* \"#utility.yul\":1322:1331   */\n      dup4\n        /* \"#utility.yul\":1318:1336   */\n      add\n        /* \"#utility.yul\":1310:1316   */\n      dup5\n        /* \"#utility.yul\":1292:1337   */\n      tag_346\n      jump\t// in\n        /* \"#utility.yul\":1348:1528   */\n    tag_40:\n        /* \"#utility.yul\":1407:1413   */\n      0x00\n        /* \"#utility.yul\":1460:1462   */\n      0x20\n        /* \"#utility.yul\":1448:1457   */\n      dup3\n        /* \"#utility.yul\":1439:1446   */\n      dup5\n        /* \"#utility.yul\":1435:1458   */\n      sub\n        /* \"#utility.yul\":1431:1463   */\n      slt\n        /* \"#utility.yul\":1428:1480   */\n      iszero\n      tag_368\n      jumpi\n        /* \"#utility.yul\":1476:1477   */\n      0x00\n        /* \"#utility.yul\":1473:1474   */\n      dup1\n        /* \"#utility.yul\":1466:1478   */\n      revert\n        /* \"#utility.yul\":1428:1480   */\n    tag_368:\n      pop\n        /* \"#utility.yul\":1499:1522   */\n      calldataload\n      swap2\n        /* \"#utility.yul\":1348:1528   */\n      swap1\n      pop\n      jump\t// out\n        /* \"#utility.yul\":1741:1914   */\n    tag_347:\n        /* \"#utility.yul\":1809:1829   */\n      dup1\n      calldataload\n      sub(shl(0xa0, 0x01), 0x01)\n        /* \"#utility.yul\":1858:1889   */\n      dup2\n      and\n        /* \"#utility.yul\":1848:1890   */\n      dup2\n      eq\n        /* \"#utility.yul\":1838:1908   */\n      tag_371\n      jumpi\n        /* \"#utility.yul\":1904:1905   */\n      0x00\n        /* \"#utility.yul\":1901:1902   */\n      dup1\n        /* \"#utility.yul\":1894:1906   */\n      revert\n        /* \"#utility.yul\":1838:1908   */\n    tag_371:\n        /* \"#utility.yul\":1741:1914   */\n      swap2\n      swap1\n      pop\n      jump\t// out\n        /* \"#utility.yul\":1919:2173   */\n    tag_46:\n        /* \"#utility.yul\":1987:1993   */\n      0x00\n        /* \"#utility.yul\":1995:2001   */\n      dup1\n        /* \"#utility.yul\":2048:2050   */\n      0x40\n        /* \"#utility.yul\":2036:2045   */\n      dup4\n        /* \"#utility.yul\":2027:2034   */\n      dup6\n        /* \"#utility.yul\":2023:2046   */\n      sub\n        /* \"#utility.yul\":2019:2051   */\n      slt\n        /* \"#utility.yul\":2016:2068   */\n      iszero\n      tag_373\n      jumpi\n        /* \"#utility.yul\":2064:2065   */\n      0x00\n        /* \"#utility.yul\":2061:2062   */\n      dup1\n        /* \"#utility.yul\":2054:2066   */\n      revert\n        /* \"#utility.yul\":2016:2068   */\n    tag_373:\n        /* \"#utility.yul\":2087:2116   */\n      tag_374\n        /* \"#utility.yul\":2106:2115   */\n      dup4\n        /* \"#utility.yul\":2087:2116   */\n      tag_347\n      jump\t// in\n    tag_374:\n        /* \"#utility.yul\":2077:2116   */\n      swap5\n        /* \"#utility.yul\":2163:2165   */\n      0x20\n        /* \"#utility.yul\":2148:2166   */\n      swap4\n      swap1\n      swap4\n      add\n        /* \"#utility.yul\":2135:2167   */\n      calldataload\n      swap4\n      pop\n      pop\n      pop\n        /* \"#utility.yul\":1919:2173   */\n      jump\t// out\n        /* \"#utility.yul\":2178:2506   */\n    tag_50:\n        /* \"#utility.yul\":2255:2261   */\n      0x00\n        /* \"#utility.yul\":2263:2269   */\n      dup1\n        /* \"#utility.yul\":2271:2277   */\n      0x00\n        /* \"#utility.yul\":2324:2326   */\n      0x60\n        /* \"#utility.yul\":2312:2321   */\n      dup5\n        /* \"#utility.yul\":2303:2310   */\n      dup7\n        /* \"#utility.yul\":2299:2322   */\n      sub\n        /* \"#utility.yul\":2295:2327   */\n      slt\n        /* \"#utility.yul\":2292:2344   */\n      iszero\n      tag_376\n      jumpi\n        /* \"#utility.yul\":2340:2341   */\n      0x00\n        /* \"#utility.yul\":2337:2338   */\n      dup1\n        /* \"#utility.yul\":2330:2342   */\n      revert\n        /* \"#utility.yul\":2292:2344   */\n    tag_376:\n        /* \"#utility.yul\":2363:2392   */\n      tag_377\n        /* \"#utility.yul\":2382:2391   */\n      dup5\n        /* \"#utility.yul\":2363:2392   */\n      tag_347\n      jump\t// in\n    tag_377:\n        /* \"#utility.yul\":2353:2392   */\n      swap3\n      pop\n        /* \"#utility.yul\":2411:2449   */\n      tag_378\n        /* \"#utility.yul\":2445:2447   */\n      0x20\n        /* \"#utility.yul\":2434:2443   */\n      dup6\n        /* \"#utility.yul\":2430:2448   */\n      add\n        /* \"#utility.yul\":2411:2449   */\n      tag_347\n      jump\t// in\n    tag_378:\n        /* \"#utility.yul\":2401:2449   */\n      swap2\n      pop\n        /* \"#utility.yul\":2496:2498   */\n      0x40\n        /* \"#utility.yul\":2485:2494   */\n      dup5\n        /* \"#utility.yul\":2481:2499   */\n      add\n        /* \"#utility.yul\":2468:2500   */\n      calldataload\n        /* \"#utility.yul\":2458:2500   */\n      swap1\n      pop\n        /* \"#utility.yul\":2178:2506   */\n      swap3\n      pop\n      swap3\n      pop\n      swap3\n      jump\t// out\n        /* \"#utility.yul\":2745:2931   */\n    tag_65:\n        /* \"#utility.yul\":2804:2810   */\n      0x00\n        /* \"#utility.yul\":2857:2859   */\n      0x20\n        /* \"#utility.yul\":2845:2854   */\n      dup3\n        /* \"#utility.yul\":2836:2843   */\n      dup5\n        /* \"#utility.yul\":2832:2855   */\n      sub\n        /* \"#utility.yul\":2828:2860   */\n      slt\n        /* \"#utility.yul\":2825:2877   */\n      iszero\n      tag_381\n      jumpi\n        /* \"#utility.yul\":2873:2874   */\n      0x00\n        /* \"#utility.yul\":2870:2871   */\n      dup1\n        /* \"#utility.yul\":2863:2875   */\n      revert\n        /* \"#utility.yul\":2825:2877   */\n    tag_381:\n        /* \"#utility.yul\":2896:2925   */\n      tag_357\n        /* \"#utility.yul\":2915:2924   */\n      dup3\n        /* \"#utility.yul\":2896:2925   */\n      tag_347\n      jump\t// in\n        /* \"#utility.yul\":3118:3465   */\n    tag_85:\n        /* \"#utility.yul\":3183:3189   */\n      0x00\n        /* \"#utility.yul\":3191:3197   */\n      dup1\n        /* \"#utility.yul\":3244:3246   */\n      0x40\n        /* \"#utility.yul\":3232:3241   */\n      dup4\n        /* \"#utility.yul\":3223:3230   */\n      dup6\n        /* \"#utility.yul\":3219:3242   */\n      sub\n        /* \"#utility.yul\":3215:3247   */\n      slt\n        /* \"#utility.yul\":3212:3264   */\n      iszero\n      tag_385\n      jumpi\n        /* \"#utility.yul\":3260:3261   */\n      0x00\n        /* \"#utility.yul\":3257:3258   */\n      dup1\n        /* \"#utility.yul\":3250:3262   */\n      revert\n        /* \"#utility.yul\":3212:3264   */\n    tag_385:\n        /* \"#utility.yul\":3283:3312   */\n      tag_386\n        /* \"#utility.yul\":3302:3311   */\n      dup4\n        /* \"#utility.yul\":3283:3312   */\n      tag_347\n      jump\t// in\n    tag_386:\n        /* \"#utility.yul\":3273:3312   */\n      swap2\n      pop\n        /* \"#utility.yul\":3362:3364   */\n      0x20\n        /* \"#utility.yul\":3351:3360   */\n      dup4\n        /* \"#utility.yul\":3347:3365   */\n      add\n        /* \"#utility.yul\":3334:3366   */\n      calldataload\n        /* \"#utility.yul\":3409:3414   */\n      dup1\n        /* \"#utility.yul\":3402:3415   */\n      iszero\n        /* \"#utility.yul\":3395:3416   */\n      iszero\n        /* \"#utility.yul\":3388:3393   */\n      dup2\n        /* \"#utility.yul\":3385:3417   */\n      eq\n        /* \"#utility.yul\":3375:3435   */\n      tag_387\n      jumpi\n        /* \"#utility.yul\":3431:3432   */\n      0x00\n        /* \"#utility.yul\":3428:3429   */\n      dup1\n        /* \"#utility.yul\":3421:3433   */\n      revert\n        /* \"#utility.yul\":3375:3435   */\n    tag_387:\n        /* \"#utility.yul\":3454:3459   */\n      dup1\n        /* \"#utility.yul\":3444:3459   */\n      swap2\n      pop\n      pop\n        /* \"#utility.yul\":3118:3465   */\n      swap3\n      pop\n      swap3\n      swap1\n      pop\n      jump\t// out\n        /* \"#utility.yul\":3470:3597   */\n    tag_348:\n        /* \"#utility.yul\":3531:3541   */\n      0x4e487b71\n        /* \"#utility.yul\":3526:3529   */\n      0xe0\n        /* \"#utility.yul\":3522:3542   */\n      shl\n        /* \"#utility.yul\":3519:3520   */\n      0x00\n        /* \"#utility.yul\":3512:3543   */\n      mstore\n        /* \"#utility.yul\":3562:3566   */\n      0x41\n        /* \"#utility.yul\":3559:3560   */\n      0x04\n        /* \"#utility.yul\":3552:3567   */\n      mstore\n        /* \"#utility.yul\":3586:3590   */\n      0x24\n        /* \"#utility.yul\":3583:3584   */\n      0x00\n        /* \"#utility.yul\":3576:3591   */\n      revert\n        /* \"#utility.yul\":3602:3877   */\n    tag_349:\n        /* \"#utility.yul\":3673:3675   */\n      0x40\n        /* \"#utility.yul\":3667:3676   */\n      mload\n        /* \"#utility.yul\":3738:3740   */\n      0x1f\n        /* \"#utility.yul\":3719:3732   */\n      dup3\n      add\n      not(0x1f)\n        /* \"#utility.yul\":3715:3742   */\n      and\n        /* \"#utility.yul\":3703:3743   */\n      dup2\n      add\n        /* \"#utility.yul\":3773:3791   */\n      0xffffffffffffffff\n        /* \"#utility.yul\":3758:3792   */\n      dup2\n      gt\n        /* \"#utility.yul\":3794:3816   */\n      dup3\n      dup3\n      lt\n        /* \"#utility.yul\":3755:3817   */\n      or\n        /* \"#utility.yul\":3752:3840   */\n      iszero\n      tag_391\n      jumpi\n        /* \"#utility.yul\":3820:3838   */\n      tag_391\n      tag_348\n      jump\t// in\n    tag_391:\n        /* \"#utility.yul\":3856:3858   */\n      0x40\n        /* \"#utility.yul\":3849:3871   */\n      mstore\n        /* \"#utility.yul\":3602:3877   */\n      swap2\n      swap1\n      pop\n      jump\t// out\n        /* \"#utility.yul\":3882:4068   */\n    tag_350:\n        /* \"#utility.yul\":3930:3934   */\n      0x00\n        /* \"#utility.yul\":3963:3981   */\n      0xffffffffffffffff\n        /* \"#utility.yul\":3955:3961   */\n      dup3\n        /* \"#utility.yul\":3952:3982   */\n      gt\n        /* \"#utility.yul\":3949:4005   */\n      iszero\n      tag_394\n      jumpi\n        /* \"#utility.yul\":3985:4003   */\n      tag_394\n      tag_348\n      jump\t// in\n    tag_394:\n      pop\n        /* \"#utility.yul\":4051:4053   */\n      0x1f\n        /* \"#utility.yul\":4030:4045   */\n      add\n      not(0x1f)\n        /* \"#utility.yul\":4026:4055   */\n      and\n        /* \"#utility.yul\":4057:4061   */\n      0x20\n        /* \"#utility.yul\":4022:4062   */\n      add\n      swap1\n        /* \"#utility.yul\":3882:4068   */\n      jump\t// out\n        /* \"#utility.yul\":4073:4961   */\n    tag_89:\n        /* \"#utility.yul\":4168:4174   */\n      0x00\n        /* \"#utility.yul\":4176:4182   */\n      dup1\n        /* \"#utility.yul\":4184:4190   */\n      0x00\n        /* \"#utility.yul\":4192:4198   */\n      dup1\n        /* \"#utility.yul\":4245:4248   */\n      0x80\n        /* \"#utility.yul\":4233:4242   */\n      dup6\n        /* \"#utility.yul\":4224:4231   */\n      dup8\n        /* \"#utility.yul\":4220:4243   */\n      sub\n        /* \"#utility.yul\":4216:4249   */\n      slt\n        /* \"#utility.yul\":4213:4266   */\n      iszero\n      tag_396\n      jumpi\n        /* \"#utility.yul\":4262:4263   */\n      0x00\n        /* \"#utility.yul\":4259:4260   */\n      dup1\n        /* \"#utility.yul\":4252:4264   */\n      revert\n        /* \"#utility.yul\":4213:4266   */\n    tag_396:\n        /* \"#utility.yul\":4285:4314   */\n      tag_397\n        /* \"#utility.yul\":4304:4313   */\n      dup6\n        /* \"#utility.yul\":4285:4314   */\n      tag_347\n      jump\t// in\n    tag_397:\n        /* \"#utility.yul\":4275:4314   */\n      swap4\n      pop\n        /* \"#utility.yul\":4333:4371   */\n      tag_398\n        /* \"#utility.yul\":4367:4369   */\n      0x20\n        /* \"#utility.yul\":4356:4365   */\n      dup7\n        /* \"#utility.yul\":4352:4370   */\n      add\n        /* \"#utility.yul\":4333:4371   */\n      tag_347\n      jump\t// in\n    tag_398:\n        /* \"#utility.yul\":4323:4371   */\n      swap3\n      pop\n        /* \"#utility.yul\":4418:4420   */\n      0x40\n        /* \"#utility.yul\":4407:4416   */\n      dup6\n        /* \"#utility.yul\":4403:4421   */\n      add\n        /* \"#utility.yul\":4390:4422   */\n      calldataload\n        /* \"#utility.yul\":4380:4422   */\n      swap2\n      pop\n        /* \"#utility.yul\":4473:4475   */\n      0x60\n        /* \"#utility.yul\":4462:4471   */\n      dup6\n        /* \"#utility.yul\":4458:4476   */\n      add\n        /* \"#utility.yul\":4445:4477   */\n      calldataload\n        /* \"#utility.yul\":4500:4518   */\n      0xffffffffffffffff\n        /* \"#utility.yul\":4492:4498   */\n      dup2\n        /* \"#utility.yul\":4489:4519   */\n      gt\n        /* \"#utility.yul\":4486:4536   */\n      iszero\n      tag_399\n      jumpi\n        /* \"#utility.yul\":4532:4533   */\n      0x00\n        /* \"#utility.yul\":4529:4530   */\n      dup1\n        /* \"#utility.yul\":4522:4534   */\n      revert\n        /* \"#utility.yul\":4486:4536   */\n    tag_399:\n        /* \"#utility.yul\":4555:4577   */\n      dup6\n      add\n        /* \"#utility.yul\":4608:4612   */\n      0x1f\n        /* \"#utility.yul\":4600:4613   */\n      dup2\n      add\n        /* \"#utility.yul\":4596:4623   */\n      dup8\n      sgt\n        /* \"#utility.yul\":4586:4641   */\n      tag_400\n      jumpi\n        /* \"#utility.yul\":4637:4638   */\n      0x00\n        /* \"#utility.yul\":4634:4635   */\n      dup1\n        /* \"#utility.yul\":4627:4639   */\n      revert\n        /* \"#utility.yul\":4586:4641   */\n    tag_400:\n        /* \"#utility.yul\":4673:4675   */\n      dup1\n        /* \"#utility.yul\":4660:4676   */\n      calldataload\n        /* \"#utility.yul\":4698:4746   */\n      tag_401\n        /* \"#utility.yul\":4714:4745   */\n      tag_402\n        /* \"#utility.yul\":4742:4744   */\n      dup3\n        /* \"#utility.yul\":4714:4745   */\n      tag_350\n      jump\t// in\n    tag_402:\n        /* \"#utility.yul\":4698:4746   */\n      tag_349\n      jump\t// in\n    tag_401:\n        /* \"#utility.yul\":4769:4771   */\n      dup2\n        /* \"#utility.yul\":4762:4767   */\n      dup2\n        /* \"#utility.yul\":4755:4772   */\n      mstore\n        /* \"#utility.yul\":4809:4816   */\n      dup9\n        /* \"#utility.yul\":4804:4806   */\n      0x20\n        /* \"#utility.yul\":4799:4801   */\n      dup4\n        /* \"#utility.yul\":4795:4797   */\n      dup6\n        /* \"#utility.yul\":4791:4802   */\n      add\n        /* \"#utility.yul\":4787:4807   */\n      add\n        /* \"#utility.yul\":4784:4817   */\n      gt\n        /* \"#utility.yul\":4781:4834   */\n      iszero\n      tag_403\n      jumpi\n        /* \"#utility.yul\":4830:4831   */\n      0x00\n        /* \"#utility.yul\":4827:4828   */\n      dup1\n        /* \"#utility.yul\":4820:4832   */\n      revert\n        /* \"#utility.yul\":4781:4834   */\n    tag_403:\n        /* \"#utility.yul\":4885:4887   */\n      dup2\n        /* \"#utility.yul\":4880:4882   */\n      0x20\n        /* \"#utility.yul\":4876:4878   */\n      dup5\n        /* \"#utility.yul\":4872:4883   */\n      add\n        /* \"#utility.yul\":4867:4869   */\n      0x20\n        /* \"#utility.yul\":4860:4865   */\n      dup4\n        /* \"#utility.yul\":4856:4870   */\n      add\n        /* \"#utility.yul\":4843:4888   */\n      calldatacopy\n        /* \"#utility.yul\":4929:4930   */\n      0x00\n        /* \"#utility.yul\":4924:4926   */\n      0x20\n        /* \"#utility.yul\":4919:4921   */\n      dup4\n        /* \"#utility.yul\":4912:4917   */\n      dup4\n        /* \"#utility.yul\":4908:4922   */\n      add\n        /* \"#utility.yul\":4904:4927   */\n      add\n        /* \"#utility.yul\":4897:4931   */\n      mstore\n        /* \"#utility.yul\":4950:4955   */\n      dup1\n        /* \"#utility.yul\":4940:4955   */\n      swap4\n      pop\n      pop\n      pop\n      pop\n        /* \"#utility.yul\":4073:4961   */\n      swap3\n      swap6\n      swap2\n      swap5\n      pop\n      swap3\n      pop\n      jump\t// out\n        /* \"#utility.yul\":4966:5226   */\n    tag_106:\n        /* \"#utility.yul\":5034:5040   */\n      0x00\n        /* \"#utility.yul\":5042:5048   */\n      dup1\n        /* \"#utility.yul\":5095:5097   */\n      0x40\n        /* \"#utility.yul\":5083:5092   */\n      dup4\n        /* \"#utility.yul\":5074:5081   */\n      dup6\n        /* \"#utility.yul\":5070:5093   */\n      sub\n        /* \"#utility.yul\":5066:5098   */\n      slt\n        /* \"#utility.yul\":5063:5115   */\n      iszero\n      tag_405\n      jumpi\n        /* \"#utility.yul\":5111:5112   */\n      0x00\n        /* \"#utility.yul\":5108:5109   */\n      dup1\n        /* \"#utility.yul\":5101:5113   */\n      revert\n        /* \"#utility.yul\":5063:5115   */\n    tag_405:\n        /* \"#utility.yul\":5134:5163   */\n      tag_406\n        /* \"#utility.yul\":5153:5162   */\n      dup4\n        /* \"#utility.yul\":5134:5163   */\n      tag_347\n      jump\t// in\n    tag_406:\n        /* \"#utility.yul\":5124:5163   */\n      swap2\n      pop\n        /* \"#utility.yul\":5182:5220   */\n      tag_407\n        /* \"#utility.yul\":5216:5218   */\n      0x20\n        /* \"#utility.yul\":5205:5214   */\n      dup5\n        /* \"#utility.yul\":5201:5219   */\n      add\n        /* \"#utility.yul\":5182:5220   */\n      tag_347\n      jump\t// in\n    tag_407:\n        /* \"#utility.yul\":5172:5220   */\n      swap1\n      pop\n        /* \"#utility.yul\":4966:5226   */\n      swap3\n      pop\n      swap3\n      swap1\n      pop\n      jump\t// out\n        /* \"#utility.yul\":5231:5611   */\n    tag_119:\n        /* \"#utility.yul\":5310:5311   */\n      0x01\n        /* \"#utility.yul\":5306:5318   */\n      dup2\n      dup2\n      shr\n      swap1\n        /* \"#utility.yul\":5353:5365   */\n      dup3\n      and\n      dup1\n        /* \"#utility.yul\":5374:5435   */\n      tag_409\n      jumpi\n        /* \"#utility.yul\":5428:5432   */\n      0x7f\n        /* \"#utility.yul\":5420:5426   */\n      dup3\n        /* \"#utility.yul\":5416:5433   */\n      and\n        /* \"#utility.yul\":5406:5433   */\n      swap2\n      pop\n        /* \"#utility.yul\":5374:5435   */\n    tag_409:\n        /* \"#utility.yul\":5481:5483   */\n      0x20\n        /* \"#utility.yul\":5473:5479   */\n      dup3\n        /* \"#utility.yul\":5470:5484   */\n      lt\n        /* \"#utility.yul\":5450:5468   */\n      dup2\n        /* \"#utility.yul\":5447:5485   */\n      sub\n        /* \"#utility.yul\":5444:5605   */\n      tag_410\n      jumpi\n        /* \"#utility.yul\":5527:5537   */\n      0x4e487b71\n        /* \"#utility.yul\":5522:5525   */\n      0xe0\n        /* \"#utility.yul\":5518:5538   */\n      shl\n        /* \"#utility.yul\":5515:5516   */\n      0x00\n        /* \"#utility.yul\":5508:5539   */\n      mstore\n        /* \"#utility.yul\":5562:5566   */\n      0x22\n        /* \"#utility.yul\":5559:5560   */\n      0x04\n        /* \"#utility.yul\":5552:5567   */\n      mstore\n        /* \"#utility.yul\":5590:5594   */\n      0x24\n        /* \"#utility.yul\":5587:5588   */\n      0x00\n        /* \"#utility.yul\":5580:5595   */\n      revert\n        /* \"#utility.yul\":5444:5605   */\n    tag_410:\n      pop\n        /* \"#utility.yul\":5231:5611   */\n      swap2\n      swap1\n      pop\n      jump\t// out\n        /* \"#utility.yul\":6448:6857   */\n    tag_148:\n        /* \"#utility.yul\":6650:6652   */\n      0x20\n        /* \"#utility.yul\":6632:6653   */\n      dup1\n      dup3\n      mstore\n        /* \"#utility.yul\":6689:6691   */\n      0x2d\n        /* \"#utility.yul\":6669:6687   */\n      swap1\n      dup3\n      add\n        /* \"#utility.yul\":6662:6692   */\n      mstore\n        /* \"#utility.yul\":6728:6762   */\n      0x4552433732313a2063616c6c6572206973206e6f7420746f6b656e206f776e65\n        /* \"#utility.yul\":6723:6725   */\n      0x40\n        /* \"#utility.yul\":6708:6726   */\n      dup3\n      add\n        /* \"#utility.yul\":6701:6763   */\n      mstore\n      shl(0x9a, 0x1c881bdc88185c1c1c9bdd9959)\n        /* \"#utility.yul\":6794:6796   */\n      0x60\n        /* \"#utility.yul\":6779:6797   */\n      dup3\n      add\n        /* \"#utility.yul\":6772:6815   */\n      mstore\n        /* \"#utility.yul\":6847:6850   */\n      0x80\n        /* \"#utility.yul\":6832:6851   */\n      add\n      swap1\n        /* \"#utility.yul\":6448:6857   */\n      jump\t// out\n        /* \"#utility.yul\":8264:8912   */\n    tag_215:\n        /* \"#utility.yul\":8344:8350   */\n      0x00\n        /* \"#utility.yul\":8397:8399   */\n      0x20\n        /* \"#utility.yul\":8385:8394   */\n      dup3\n        /* \"#utility.yul\":8376:8383   */\n      dup5\n        /* \"#utility.yul\":8372:8395   */\n      sub\n        /* \"#utility.yul\":8368:8400   */\n      slt\n        /* \"#utility.yul\":8365:8417   */\n      iszero\n      tag_419\n      jumpi\n        /* \"#utility.yul\":8413:8414   */\n      0x00\n        /* \"#utility.yul\":8410:8411   */\n      dup1\n        /* \"#utility.yul\":8403:8415   */\n      revert\n        /* \"#utility.yul\":8365:8417   */\n    tag_419:\n        /* \"#utility.yul\":8446:8455   */\n      dup2\n        /* \"#utility.yul\":8440:8456   */\n      mload\n        /* \"#utility.yul\":8479:8497   */\n      0xffffffffffffffff\n        /* \"#utility.yul\":8471:8477   */\n      dup2\n        /* \"#utility.yul\":8468:8498   */\n      gt\n        /* \"#utility.yul\":8465:8515   */\n      iszero\n      tag_420\n      jumpi\n        /* \"#utility.yul\":8511:8512   */\n      0x00\n        /* \"#utility.yul\":8508:8509   */\n      dup1\n        /* \"#utility.yul\":8501:8513   */\n      revert\n        /* \"#utility.yul\":8465:8515   */\n    tag_420:\n        /* \"#utility.yul\":8534:8556   */\n      dup3\n      add\n        /* \"#utility.yul\":8587:8591   */\n      0x1f\n        /* \"#utility.yul\":8579:8592   */\n      dup2\n      add\n        /* \"#utility.yul\":8575:8602   */\n      dup5\n      sgt\n        /* \"#utility.yul\":8565:8620   */\n      tag_421\n      jumpi\n        /* \"#utility.yul\":8616:8617   */\n      0x00\n        /* \"#utility.yul\":8613:8614   */\n      dup1\n        /* \"#utility.yul\":8606:8618   */\n      revert\n        /* \"#utility.yul\":8565:8620   */\n    tag_421:\n        /* \"#utility.yul\":8645:8647   */\n      dup1\n        /* \"#utility.yul\":8639:8648   */\n      mload\n        /* \"#utility.yul\":8670:8718   */\n      tag_422\n        /* \"#utility.yul\":8686:8717   */\n      tag_402\n        /* \"#utility.yul\":8714:8716   */\n      dup3\n        /* \"#utility.yul\":8686:8717   */\n      tag_350\n      jump\t// in\n        /* \"#utility.yul\":8670:8718   */\n    tag_422:\n        /* \"#utility.yul\":8741:8743   */\n      dup2\n        /* \"#utility.yul\":8734:8739   */\n      dup2\n        /* \"#utility.yul\":8727:8744   */\n      mstore\n        /* \"#utility.yul\":8781:8788   */\n      dup6\n        /* \"#utility.yul\":8776:8778   */\n      0x20\n        /* \"#utility.yul\":8771:8773   */\n      dup4\n        /* \"#utility.yul\":8767:8769   */\n      dup6\n        /* \"#utility.yul\":8763:8774   */\n      add\n        /* \"#utility.yul\":8759:8779   */\n      add\n        /* \"#utility.yul\":8756:8789   */\n      gt\n        /* \"#utility.yul\":8753:8806   */\n      iszero\n      tag_424\n      jumpi\n        /* \"#utility.yul\":8802:8803   */\n      0x00\n        /* \"#utility.yul\":8799:8800   */\n      dup1\n        /* \"#utility.yul\":8792:8804   */\n      revert\n        /* \"#utility.yul\":8753:8806   */\n    tag_424:\n        /* \"#utility.yul\":8815:8882   */\n      tag_425\n        /* \"#utility.yul\":8879:8881   */\n      dup3\n        /* \"#utility.yul\":8874:8876   */\n      0x20\n        /* \"#utility.yul\":8867:8872   */\n      dup4\n        /* \"#utility.yul\":8863:8877   */\n      add\n        /* \"#utility.yul\":8858:8860   */\n      0x20\n        /* \"#utility.yul\":8854:8856   */\n      dup7\n        /* \"#utility.yul\":8850:8861   */\n      add\n        /* \"#utility.yul\":8815:8882   */\n      tag_345\n      jump\t// in\n    tag_425:\n        /* \"#utility.yul\":8901:8906   */\n      swap6\n        /* \"#utility.yul\":8264:8912   */\n      swap5\n      pop\n      pop\n      pop\n      pop\n      pop\n      jump\t// out\n        /* \"#utility.yul\":9324:9725   */\n    tag_251:\n        /* \"#utility.yul\":9526:9528   */\n      0x20\n        /* \"#utility.yul\":9508:9529   */\n      dup1\n      dup3\n      mstore\n        /* \"#utility.yul\":9565:9567   */\n      0x25\n        /* \"#utility.yul\":9545:9563   */\n      swap1\n      dup3\n      add\n        /* \"#utility.yul\":9538:9568   */\n      mstore\n        /* \"#utility.yul\":9604:9638   */\n      0x4552433732313a207472616e736665722066726f6d20696e636f727265637420\n        /* \"#utility.yul\":9599:9601   */\n      0x40\n        /* \"#utility.yul\":9584:9602   */\n      dup3\n      add\n        /* \"#utility.yul\":9577:9639   */\n      mstore\n      shl(0xd9, 0x37bbb732b9)\n        /* \"#utility.yul\":9670:9672   */\n      0x60\n        /* \"#utility.yul\":9655:9673   */\n      dup3\n      add\n        /* \"#utility.yul\":9648:9683   */\n      mstore\n        /* \"#utility.yul\":9715:9718   */\n      0x80\n        /* \"#utility.yul\":9700:9719   */\n      add\n      swap1\n        /* \"#utility.yul\":9324:9725   */\n      jump\t// out\n        /* \"#utility.yul\":11210:11624   */\n    tag_291:\n        /* \"#utility.yul\":11412:11414   */\n      0x20\n        /* \"#utility.yul\":11394:11415   */\n      dup1\n      dup3\n      mstore\n        /* \"#utility.yul\":11451:11453   */\n      0x32\n        /* \"#utility.yul\":11431:11449   */\n      swap1\n      dup3\n      add\n        /* \"#utility.yul\":11424:11454   */\n      mstore\n        /* \"#utility.yul\":11490:11524   */\n      0x4552433732313a207472616e7366657220746f206e6f6e204552433732315265\n        /* \"#utility.yul\":11485:11487   */\n      0x40\n        /* \"#utility.yul\":11470:11488   */\n      dup3\n      add\n        /* \"#utility.yul\":11463:11525   */\n      mstore\n      shl(0x71, 0x31b2b4bb32b91034b6b83632b6b2b73a32b9)\n        /* \"#utility.yul\":11556:11558   */\n      0x60\n        /* \"#utility.yul\":11541:11559   */\n      dup3\n      add\n        /* \"#utility.yul\":11534:11582   */\n      mstore\n        /* \"#utility.yul\":11614:11617   */\n      0x80\n        /* \"#utility.yul\":11599:11618   */\n      add\n      swap1\n        /* \"#utility.yul\":11210:11624   */\n      jump\t// out\n        /* \"#utility.yul\":11629:11756   */\n    tag_351:\n        /* \"#utility.yul\":11690:11700   */\n      0x4e487b71\n        /* \"#utility.yul\":11685:11688   */\n      0xe0\n        /* \"#utility.yul\":11681:11701   */\n      shl\n        /* \"#utility.yul\":11678:11679   */\n      0x00\n        /* \"#utility.yul\":11671:11702   */\n      mstore\n        /* \"#utility.yul\":11721:11725   */\n      0x11\n        /* \"#utility.yul\":11718:11719   */\n      0x04\n        /* \"#utility.yul\":11711:11726   */\n      mstore\n        /* \"#utility.yul\":11745:11749   */\n      0x24\n        /* \"#utility.yul\":11742:11743   */\n      0x00\n        /* \"#utility.yul\":11735:11750   */\n      revert\n        /* \"#utility.yul\":11761:11889   */\n    tag_298:\n        /* \"#utility.yul\":11828:11837   */\n      dup2\n      dup2\n      sub\n        /* \"#utility.yul\":11849:11860   */\n      dup2\n      dup2\n      gt\n        /* \"#utility.yul\":11846:11883   */\n      iszero\n      tag_115\n      jumpi\n        /* \"#utility.yul\":11863:11881   */\n      tag_115\n      tag_351\n      jump\t// in\n        /* \"#utility.yul\":11894:12019   */\n    tag_301:\n        /* \"#utility.yul\":11959:11968   */\n      dup1\n      dup3\n      add\n        /* \"#utility.yul\":11980:11990   */\n      dup1\n      dup3\n      gt\n        /* \"#utility.yul\":11977:12013   */\n      iszero\n      tag_115\n      jumpi\n        /* \"#utility.yul\":11993:12011   */\n      tag_115\n      tag_351\n      jump\t// in\n        /* \"#utility.yul\":12024:12513   */\n    tag_315:\n      sub(shl(0xa0, 0x01), 0x01)\n        /* \"#utility.yul\":12293:12308   */\n      dup6\n      dup2\n      and\n        /* \"#utility.yul\":12275:12309   */\n      dup3\n      mstore\n        /* \"#utility.yul\":12345:12360   */\n      dup5\n      and\n        /* \"#utility.yul\":12340:12342   */\n      0x20\n        /* \"#utility.yul\":12325:12343   */\n      dup3\n      add\n        /* \"#utility.yul\":12318:12361   */\n      mstore\n        /* \"#utility.yul\":12392:12394   */\n      0x40\n        /* \"#utility.yul\":12377:12395   */\n      dup2\n      add\n        /* \"#utility.yul\":12370:12404   */\n      dup4\n      swap1\n      mstore\n        /* \"#utility.yul\":12440:12443   */\n      0x80\n        /* \"#utility.yul\":12435:12437   */\n      0x60\n        /* \"#utility.yul\":12420:12438   */\n      dup3\n      add\n        /* \"#utility.yul\":12413:12444   */\n      dup2\n      swap1\n      mstore\n        /* \"#utility.yul\":12218:12222   */\n      0x00\n      swap1\n        /* \"#utility.yul\":12461:12507   */\n      tag_441\n      swap1\n        /* \"#utility.yul\":12487:12506   */\n      dup4\n      add\n        /* \"#utility.yul\":12479:12485   */\n      dup5\n        /* \"#utility.yul\":12461:12507   */\n      tag_346\n      jump\t// in\n    tag_441:\n        /* \"#utility.yul\":12453:12507   */\n      swap7\n        /* \"#utility.yul\":12024:12513   */\n      swap6\n      pop\n      pop\n      pop\n      pop\n      pop\n      pop\n      jump\t// out\n        /* \"#utility.yul\":12518:12767   */\n    tag_318:\n        /* \"#utility.yul\":12587:12593   */\n      0x00\n        /* \"#utility.yul\":12640:12642   */\n      0x20\n        /* \"#utility.yul\":12628:12637   */\n      dup3\n        /* \"#utility.yul\":12619:12626   */\n      dup5\n        /* \"#utility.yul\":12615:12638   */\n      sub\n        /* \"#utility.yul\":12611:12643   */\n      slt\n        /* \"#utility.yul\":12608:12660   */\n      iszero\n      tag_443\n      jumpi\n        /* \"#utility.yul\":12656:12657   */\n      0x00\n        /* \"#utility.yul\":12653:12654   */\n      dup1\n        /* \"#utility.yul\":12646:12658   */\n      revert\n        /* \"#utility.yul\":12608:12660   */\n    tag_443:\n        /* \"#utility.yul\":12688:12697   */\n      dup2\n        /* \"#utility.yul\":12682:12698   */\n      mload\n        /* \"#utility.yul\":12707:12737   */\n      tag_357\n        /* \"#utility.yul\":12731:12736   */\n      dup2\n        /* \"#utility.yul\":12707:12737   */\n      tag_344\n      jump\t// in\n\n    auxdata: 0xa2646970667358221220587cf587f2235ae56998606033e49aedac38c3a6be02068412d8ef01a1ed3f2d64736f6c63430008110033\n}\n",
				"bytecode": {
					"linkReferences": {},
					"object": "60806040523480156200001157600080fd5b5060405162001a8a38038062001a8a8339810160408190526200003491620001ae565b83836000620000448382620002d6565b506001620000538282620002d6565b505050620000706200006a6200009360201b60201c565b62000097565b6001600755600a819055600b620000888382620002d6565b5050505050620003a2565b3390565b600680546001600160a01b038381166001600160a01b0319831681179093556040519116919082907f8be0079c531659141344cd1fd0a4f28419497f9722a3daafe3b4186f6b6457e090600090a35050565b634e487b7160e01b600052604160045260246000fd5b600082601f8301126200011157600080fd5b81516001600160401b03808211156200012e576200012e620000e9565b604051601f8301601f19908116603f01168101908282118183101715620001595762000159620000e9565b816040528381526020925086838588010111156200017657600080fd5b600091505b838210156200019a57858201830151818301840152908201906200017b565b600093810190920192909252949350505050565b60008060008060808587031215620001c557600080fd5b84516001600160401b0380821115620001dd57600080fd5b620001eb88838901620000ff565b955060208701519150808211156200020257600080fd5b6200021088838901620000ff565b945060408701519150808211156200022757600080fd5b506200023687828801620000ff565b606096909601519497939650505050565b600181811c908216806200025c57607f821691505b6020821081036200027d57634e487b7160e01b600052602260045260246000fd5b50919050565b601f821115620002d157600081815260208120601f850160051c81016020861015620002ac5750805b601f850160051c820191505b81811015620002cd57828155600101620002b8565b5050505b505050565b81516001600160401b03811115620002f257620002f2620000e9565b6200030a8162000303845462000247565b8462000283565b602080601f831160018114620003425760008415620003295750858301515b600019600386901b1c1916600185901b178555620002cd565b600085815260208120601f198616915b82811015620003735788860151825594840194600190910190840162000352565b5085821015620003925787850151600019600388901b60f8161c191681555b5050505050600190811b01905550565b6116d880620003b26000396000f3fe608060405234801561001057600080fd5b50600436106101425760003560e01c8063715018a6116100b8578063c87b56dd1161007c578063c87b56dd14610295578063d2adfd1c146102a8578063d547cfb7146102bb578063d5abeb01146102c3578063e985e9c5146102cc578063f2fde38b146102df57600080fd5b8063715018a61461024e5780638da5cb5b1461025657806395d89b4114610267578063a22cb4651461026f578063b88d4fde1461028257600080fd5b806342842e0e1161010a57806342842e0e146101d75780635601a1da146101ea5780636352211e146101fd5780636a6278421461021057806370a0823114610223578063714cff561461024457600080fd5b806301ffc9a71461014757806306fdde031461016f578063081812fc14610184578063095ea7b3146101af57806323b872dd146101c4575b600080fd5b61015a6101553660046111b1565b6102f2565b60405190151581526020015b60405180910390f35b610177610344565b6040516101669190611225565b610197610192366004611238565b6103d6565b6040516001600160a01b039091168152602001610166565b6101c26101bd36600461126d565b6103fd565b005b6101c26101d2366004611297565b610517565b6101c26101e5366004611297565b610548565b600954610197906001600160a01b031681565b61019761020b366004611238565b610563565b6101c261021e3660046112d3565b6105c3565b6102366102313660046112d3565b6106cb565b604051908152602001610166565b6008546102369081565b6101c2610751565b6006546001600160a01b0316610197565b610177610765565b6101c261027d3660046112ee565b610774565b6101c2610290366004611399565b610783565b6101776102a3366004611238565b6107bb565b6101c26102b63660046112d3565b61082d565b610177610857565b610236600a5481565b61015a6102da366004611444565b6108e5565b6101c26102ed3660046112d3565b610913565b60006001600160e01b031982166380ac58cd60e01b148061032357506001600160e01b03198216635b5e139f60e01b145b8061033e57506301ffc9a760e01b6001600160e01b03198316145b92915050565b60606000805461035390611477565b80601f016020809104026020016040519081016040528092919081815260200182805461037f90611477565b80156103cc5780601f106103a1576101008083540402835291602001916103cc565b820191906000526020600020905b8154815290600101906020018083116103af57829003601f168201915b5050505050905090565b60006103e182610989565b506000908152600460205260409020546001600160a01b031690565b600061040882610563565b9050806001600160a01b0316836001600160a01b03160361047a5760405162461bcd60e51b815260206004820152602160248201527f4552433732313a20617070726f76616c20746f2063757272656e74206f776e656044820152603960f91b60648201526084015b60405180910390fd5b336001600160a01b0382161480610496575061049681336108e5565b6105085760405162461bcd60e51b815260206004820152603d60248201527f4552433732313a20617070726f76652063616c6c6572206973206e6f7420746f60448201527f6b656e206f776e6572206f7220617070726f76656420666f7220616c6c0000006064820152608401610471565b61051283836109e8565b505050565b6105213382610a56565b61053d5760405162461bcd60e51b8152600401610471906114b1565b610512838383610ab5565b61051283838360405180602001604052806000815250610783565b6000818152600260205260408120546001600160a01b03168061033e5760405162461bcd60e51b8152602060048201526018602482015277115490cdcc8c4e881a5b9d985b1a59081d1bdad95b88125160421b6044820152606401610471565b6105cb610c26565b600a546008541061061e5760405162461bcd60e51b815260206004820152601f60248201527f4d6178696d756d20737570706c7920686173206265656e2072656163686564006044820152606401610471565b61062c600880546001019055565b600061063760085490565b90506106438282610c7f565b6009546001600160a01b031663c333f04561065d60085490565b336040516001600160e01b031960e085901b16815260048101929092526001600160a01b03166024820152604401600060405180830381600087803b1580156106a557600080fd5b505af11580156106b9573d6000803e3d6000fd5b50505050506106c86001600755565b50565b60006001600160a01b0382166107355760405162461bcd60e51b815260206004820152602960248201527f4552433732313a2061646472657373207a65726f206973206e6f7420612076616044820152683634b21037bbb732b960b91b6064820152608401610471565b506001600160a01b031660009081526003602052604090205490565b610759610c99565b6107636000610cf3565b565b60606001805461035390611477565b61077f338383610d45565b5050565b61078d3383610a56565b6107a95760405162461bcd60e51b8152600401610471906114b1565b6107b584848484610e13565b50505050565b60095460405163c87b56dd60e01b8152600481018390526060916001600160a01b03169063c87b56dd90602401600060405180830381865afa158015610805573d6000803e3d6000fd5b505050506040513d6000823e601f3d908101601f1916820160405261033e91908101906114fe565b610835610c99565b600980546001600160a01b0319166001600160a01b0392909216919091179055565b600b805461086490611477565b80601f016020809104026020016040519081016040528092919081815260200182805461089090611477565b80156108dd5780601f106108b2576101008083540402835291602001916108dd565b820191906000526020600020905b8154815290600101906020018083116108c057829003601f168201915b505050505081565b6001600160a01b03918216600090815260056020908152604080832093909416825291909152205460ff1690565b61091b610c99565b6001600160a01b0381166109805760405162461bcd60e51b815260206004820152602660248201527f4f776e61626c653a206e6577206f776e657220697320746865207a65726f206160448201526564647265737360d01b6064820152608401610471565b6106c881610cf3565b6000818152600260205260409020546001600160a01b03166106c85760405162461bcd60e51b8152602060048201526018602482015277115490cdcc8c4e881a5b9d985b1a59081d1bdad95b88125160421b6044820152606401610471565b600081815260046020526040902080546001600160a01b0319166001600160a01b0384169081179091558190610a1d82610563565b6001600160a01b03167f8c5be1e5ebec7d5bd14f71427d1e84f3dd0314c0f7b2291e5b200ac8c7c3b92560405160405180910390a45050565b600080610a6283610563565b9050806001600160a01b0316846001600160a01b03161480610a895750610a8981856108e5565b80610aad5750836001600160a01b0316610aa2846103d6565b6001600160a01b0316145b949350505050565b826001600160a01b0316610ac882610563565b6001600160a01b031614610aee5760405162461bcd60e51b815260040161047190611575565b6001600160a01b038216610b505760405162461bcd60e51b8152602060048201526024808201527f4552433732313a207472616e7366657220746f20746865207a65726f206164646044820152637265737360e01b6064820152608401610471565b610b5d8383836001610e46565b826001600160a01b0316610b7082610563565b6001600160a01b031614610b965760405162461bcd60e51b815260040161047190611575565b600081815260046020908152604080832080546001600160a01b03199081169091556001600160a01b0387811680865260038552838620805460001901905590871680865283862080546001019055868652600290945282852080549092168417909155905184937fddf252ad1be2c89b69c2b068fc378daa952ba7f163c4a11628f55a4df523b3ef91a4505050565b600260075403610c785760405162461bcd60e51b815260206004820152601f60248201527f5265656e7472616e637947756172643a207265656e7472616e742063616c6c006044820152606401610471565b6002600755565b61077f828260405180602001604052806000815250610ece565b6006546001600160a01b031633146107635760405162461bcd60e51b815260206004820181905260248201527f4f776e61626c653a2063616c6c6572206973206e6f7420746865206f776e65726044820152606401610471565b600680546001600160a01b038381166001600160a01b0319831681179093556040519116919082907f8be0079c531659141344cd1fd0a4f28419497f9722a3daafe3b4186f6b6457e090600090a35050565b816001600160a01b0316836001600160a01b031603610da65760405162461bcd60e51b815260206004820152601960248201527f4552433732313a20617070726f766520746f2063616c6c6572000000000000006044820152606401610471565b6001600160a01b03838116600081815260056020908152604080832094871680845294825291829020805460ff191686151590811790915591519182527f17307eab39ab6107e8899845ad3d59bd9653f200f220920489ca2b5937696c31910160405180910390a3505050565b610e1e848484610ab5565b610e2a84848484610f01565b6107b55760405162461bcd60e51b8152600401610471906115ba565b60018111156107b5576001600160a01b03841615610e8c576001600160a01b03841660009081526003602052604081208054839290610e86908490611622565b90915550505b6001600160a01b038316156107b5576001600160a01b03831660009081526003602052604081208054839290610ec3908490611635565b909155505050505050565b610ed88383611002565b610ee56000848484610f01565b6105125760405162461bcd60e51b8152600401610471906115ba565b60006001600160a01b0384163b15610ff757604051630a85bd0160e11b81526001600160a01b0385169063150b7a0290610f45903390899088908890600401611648565b6020604051808303816000875af1925050508015610f80575060408051601f3d908101601f19168201909252610f7d91810190611685565b60015b610fdd573d808015610fae576040519150601f19603f3d011682016040523d82523d6000602084013e610fb3565b606091505b508051600003610fd55760405162461bcd60e51b8152600401610471906115ba565b805181602001fd5b6001600160e01b031916630a85bd0160e11b149050610aad565b506001949350505050565b6001600160a01b0382166110585760405162461bcd60e51b815260206004820181905260248201527f4552433732313a206d696e7420746f20746865207a65726f20616464726573736044820152606401610471565b6000818152600260205260409020546001600160a01b0316156110bd5760405162461bcd60e51b815260206004820152601c60248201527f4552433732313a20746f6b656e20616c7265616479206d696e746564000000006044820152606401610471565b6110cb600083836001610e46565b6000818152600260205260409020546001600160a01b0316156111305760405162461bcd60e51b815260206004820152601c60248201527f4552433732313a20746f6b656e20616c7265616479206d696e746564000000006044820152606401610471565b6001600160a01b038216600081815260036020908152604080832080546001019055848352600290915280822080546001600160a01b0319168417905551839291907fddf252ad1be2c89b69c2b068fc378daa952ba7f163c4a11628f55a4df523b3ef908290a45050565b6001600160e01b0319811681146106c857600080fd5b6000602082840312156111c357600080fd5b81356111ce8161119b565b9392505050565b60005b838110156111f05781810151838201526020016111d8565b50506000910152565b600081518084526112118160208601602086016111d5565b601f01601f19169290920160200192915050565b6020815260006111ce60208301846111f9565b60006020828403121561124a57600080fd5b5035919050565b80356001600160a01b038116811461126857600080fd5b919050565b6000806040838503121561128057600080fd5b61128983611251565b946020939093013593505050565b6000806000606084860312156112ac57600080fd5b6112b584611251565b92506112c360208501611251565b9150604084013590509250925092565b6000602082840312156112e557600080fd5b6111ce82611251565b6000806040838503121561130157600080fd5b61130a83611251565b91506020830135801515811461131f57600080fd5b809150509250929050565b634e487b7160e01b600052604160045260246000fd5b604051601f8201601f1916810167ffffffffffffffff811182821017156113695761136961132a565b604052919050565b600067ffffffffffffffff82111561138b5761138b61132a565b50601f01601f191660200190565b600080600080608085870312156113af57600080fd5b6113b885611251565b93506113c660208601611251565b925060408501359150606085013567ffffffffffffffff8111156113e957600080fd5b8501601f810187136113fa57600080fd5b803561140d61140882611371565b611340565b81815288602083850101111561142257600080fd5b8160208401602083013760006020838301015280935050505092959194509250565b6000806040838503121561145757600080fd5b61146083611251565b915061146e60208401611251565b90509250929050565b600181811c9082168061148b57607f821691505b6020821081036114ab57634e487b7160e01b600052602260045260246000fd5b50919050565b6020808252602d908201527f4552433732313a2063616c6c6572206973206e6f7420746f6b656e206f776e6560408201526c1c881bdc88185c1c1c9bdd9959609a1b606082015260800190565b60006020828403121561151057600080fd5b815167ffffffffffffffff81111561152757600080fd5b8201601f8101841361153857600080fd5b805161154661140882611371565b81815285602083850101111561155b57600080fd5b61156c8260208301602086016111d5565b95945050505050565b60208082526025908201527f4552433732313a207472616e736665722066726f6d20696e636f72726563742060408201526437bbb732b960d91b606082015260800190565b60208082526032908201527f4552433732313a207472616e7366657220746f206e6f6e20455243373231526560408201527131b2b4bb32b91034b6b83632b6b2b73a32b960711b606082015260800190565b634e487b7160e01b600052601160045260246000fd5b8181038181111561033e5761033e61160c565b8082018082111561033e5761033e61160c565b6001600160a01b038581168252841660208201526040810183905260806060820181905260009061167b908301846111f9565b9695505050505050565b60006020828403121561169757600080fd5b81516111ce8161119b56fea2646970667358221220587cf587f2235ae56998606033e49aedac38c3a6be02068412d8ef01a1ed3f2d64736f6c63430008110033",
					"opcodes": "PUSH1 0x80 PUSH1 0x40 MSTORE CALLVALUE DUP1 ISZERO PUSH3 0x11 JUMPI PUSH1 0x0 DUP1 REVERT JUMPDEST POP PUSH1 0x40 MLOAD PUSH3 0x1A8A CODESIZE SUB DUP1 PUSH3 0x1A8A DUP4 CODECOPY DUP2 ADD PUSH1 0x40 DUP2 SWAP1 MSTORE PUSH3 0x34 SWAP2 PUSH3 0x1AE JUMP JUMPDEST DUP4 DUP4 PUSH1 0x0 PUSH3 0x44 DUP4 DUP3 PUSH3 0x2D6 JUMP JUMPDEST POP PUSH1 0x1 PUSH3 0x53 DUP3 DUP3 PUSH3 0x2D6 JUMP JUMPDEST POP POP POP PUSH3 0x70 PUSH3 0x6A PUSH3 0x93 PUSH1 0x20 SHL PUSH1 0x20 SHR JUMP JUMPDEST PUSH3 0x97 JUMP JUMPDEST PUSH1 0x1 PUSH1 0x7 SSTORE PUSH1 0xA DUP2 SWAP1 SSTORE PUSH1 0xB PUSH3 0x88 DUP4 DUP3 PUSH3 0x2D6 JUMP JUMPDEST POP POP POP POP POP PUSH3 0x3A2 JUMP JUMPDEST CALLER SWAP1 JUMP JUMPDEST PUSH1 0x6 DUP1 SLOAD PUSH1 0x1 PUSH1 0x1 PUSH1 0xA0 SHL SUB DUP4 DUP2 AND PUSH1 0x1 PUSH1 0x1 PUSH1 0xA0 SHL SUB NOT DUP4 AND DUP2 OR SWAP1 SWAP4 SSTORE PUSH1 0x40 MLOAD SWAP2 AND SWAP2 SWAP1 DUP3 SWAP1 PUSH32 0x8BE0079C531659141344CD1FD0A4F28419497F9722A3DAAFE3B4186F6B6457E0 SWAP1 PUSH1 0x0 SWAP1 LOG3 POP POP JUMP JUMPDEST PUSH4 0x4E487B71 PUSH1 0xE0 SHL PUSH1 0x0 MSTORE PUSH1 0x41 PUSH1 0x4 MSTORE PUSH1 0x24 PUSH1 0x0 REVERT JUMPDEST PUSH1 0x0 DUP3 PUSH1 0x1F DUP4 ADD SLT PUSH3 0x111 JUMPI PUSH1 0x0 DUP1 REVERT JUMPDEST DUP2 MLOAD PUSH1 0x1 PUSH1 0x1 PUSH1 0x40 SHL SUB DUP1 DUP3 GT ISZERO PUSH3 0x12E JUMPI PUSH3 0x12E PUSH3 0xE9 JUMP JUMPDEST PUSH1 0x40 MLOAD PUSH1 0x1F DUP4 ADD PUSH1 0x1F NOT SWAP1 DUP2 AND PUSH1 0x3F ADD AND DUP2 ADD SWAP1 DUP3 DUP3 GT DUP2 DUP4 LT OR ISZERO PUSH3 0x159 JUMPI PUSH3 0x159 PUSH3 0xE9 JUMP JUMPDEST DUP2 PUSH1 0x40 MSTORE DUP4 DUP2 MSTORE PUSH1 0x20 SWAP3 POP DUP7 DUP4 DUP6 DUP9 ADD ADD GT ISZERO PUSH3 0x176 JUMPI PUSH1 0x0 DUP1 REVERT JUMPDEST PUSH1 0x0 SWAP2 POP JUMPDEST DUP4 DUP3 LT ISZERO PUSH3 0x19A JUMPI DUP6 DUP3 ADD DUP4 ADD MLOAD DUP2 DUP4 ADD DUP5 ADD MSTORE SWAP1 DUP3 ADD SWAP1 PUSH3 0x17B JUMP JUMPDEST PUSH1 0x0 SWAP4 DUP2 ADD SWAP1 SWAP3 ADD SWAP3 SWAP1 SWAP3 MSTORE SWAP5 SWAP4 POP POP POP POP JUMP JUMPDEST PUSH1 0x0 DUP1 PUSH1 0x0 DUP1 PUSH1 0x80 DUP6 DUP8 SUB SLT ISZERO PUSH3 0x1C5 JUMPI PUSH1 0x0 DUP1 REVERT JUMPDEST DUP5 MLOAD PUSH1 0x1 PUSH1 0x1 PUSH1 0x40 SHL SUB DUP1 DUP3 GT ISZERO PUSH3 0x1DD JUMPI PUSH1 0x0 DUP1 REVERT JUMPDEST PUSH3 0x1EB DUP9 DUP4 DUP10 ADD PUSH3 0xFF JUMP JUMPDEST SWAP6 POP PUSH1 0x20 DUP8 ADD MLOAD SWAP2 POP DUP1 DUP3 GT ISZERO PUSH3 0x202 JUMPI PUSH1 0x0 DUP1 REVERT JUMPDEST PUSH3 0x210 DUP9 DUP4 DUP10 ADD PUSH3 0xFF JUMP JUMPDEST SWAP5 POP PUSH1 0x40 DUP8 ADD MLOAD SWAP2 POP DUP1 DUP3 GT ISZERO PUSH3 0x227 JUMPI PUSH1 0x0 DUP1 REVERT JUMPDEST POP PUSH3 0x236 DUP8 DUP3 DUP9 ADD PUSH3 0xFF JUMP JUMPDEST PUSH1 0x60 SWAP7 SWAP1 SWAP7 ADD MLOAD SWAP5 SWAP8 SWAP4 SWAP7 POP POP POP POP JUMP JUMPDEST PUSH1 0x1 DUP2 DUP2 SHR SWAP1 DUP3 AND DUP1 PUSH3 0x25C JUMPI PUSH1 0x7F DUP3 AND SWAP2 POP JUMPDEST PUSH1 0x20 DUP3 LT DUP2 SUB PUSH3 0x27D JUMPI PUSH4 0x4E487B71 PUSH1 0xE0 SHL PUSH1 0x0 MSTORE PUSH1 0x22 PUSH1 0x4 MSTORE PUSH1 0x24 PUSH1 0x0 REVERT JUMPDEST POP SWAP2 SWAP1 POP JUMP JUMPDEST PUSH1 0x1F DUP3 GT ISZERO PUSH3 0x2D1 JUMPI PUSH1 0x0 DUP2 DUP2 MSTORE PUSH1 0x20 DUP2 KECCAK256 PUSH1 0x1F DUP6 ADD PUSH1 0x5 SHR DUP2 ADD PUSH1 0x20 DUP7 LT ISZERO PUSH3 0x2AC JUMPI POP DUP1 JUMPDEST PUSH1 0x1F DUP6 ADD PUSH1 0x5 SHR DUP3 ADD SWAP2 POP JUMPDEST DUP2 DUP2 LT ISZERO PUSH3 0x2CD JUMPI DUP3 DUP2 SSTORE PUSH1 0x1 ADD PUSH3 0x2B8 JUMP JUMPDEST POP POP POP JUMPDEST POP POP POP JUMP JUMPDEST DUP2 MLOAD PUSH1 0x1 PUSH1 0x1 PUSH1 0x40 SHL SUB DUP2 GT ISZERO PUSH3 0x2F2 JUMPI PUSH3 0x2F2 PUSH3 0xE9 JUMP JUMPDEST PUSH3 0x30A DUP2 PUSH3 0x303 DUP5 SLOAD PUSH3 0x247 JUMP JUMPDEST DUP5 PUSH3 0x283 JUMP JUMPDEST PUSH1 0x20 DUP1 PUSH1 0x1F DUP4 GT PUSH1 0x1 DUP2 EQ PUSH3 0x342 JUMPI PUSH1 0x0 DUP5 ISZERO PUSH3 0x329 JUMPI POP DUP6 DUP4 ADD MLOAD JUMPDEST PUSH1 0x0 NOT PUSH1 0x3 DUP7 SWAP1 SHL SHR NOT AND PUSH1 0x1 DUP6 SWAP1 SHL OR DUP6 SSTORE PUSH3 0x2CD JUMP JUMPDEST PUSH1 0x0 DUP6 DUP2 MSTORE PUSH1 0x20 DUP2 KECCAK256 PUSH1 0x1F NOT DUP7 AND SWAP2 JUMPDEST DUP3 DUP2 LT ISZERO PUSH3 0x373 JUMPI DUP9 DUP7 ADD MLOAD DUP3 SSTORE SWAP5 DUP5 ADD SWAP5 PUSH1 0x1 SWAP1 SWAP2 ADD SWAP1 DUP5 ADD PUSH3 0x352 JUMP JUMPDEST POP DUP6 DUP3 LT ISZERO PUSH3 0x392 JUMPI DUP8 DUP6 ADD MLOAD PUSH1 0x0 NOT PUSH1 0x3 DUP9 SWAP1 SHL PUSH1 0xF8 AND SHR NOT AND DUP2 SSTORE JUMPDEST POP POP POP POP POP PUSH1 0x1 SWAP1 DUP2 SHL ADD SWAP1 SSTORE POP JUMP JUMPDEST PUSH2 0x16D8 DUP1 PUSH3 0x3B2 PUSH1 0x0 CODECOPY PUSH1 0x0 RETURN INVALID PUSH1 0x80 PUSH1 0x40 MSTORE CALLVALUE DUP1 ISZERO PUSH2 0x10 JUMPI PUSH1 0x0 DUP1 REVERT JUMPDEST POP PUSH1 0x4 CALLDATASIZE LT PUSH2 0x142 JUMPI PUSH1 0x0 CALLDATALOAD PUSH1 0xE0 SHR DUP1 PUSH4 0x715018A6 GT PUSH2 0xB8 JUMPI DUP1 PUSH4 0xC87B56DD GT PUSH2 0x7C JUMPI DUP1 PUSH4 0xC87B56DD EQ PUSH2 0x295 JUMPI DUP1 PUSH4 0xD2ADFD1C EQ PUSH2 0x2A8 JUMPI DUP1 PUSH4 0xD547CFB7 EQ PUSH2 0x2BB JUMPI DUP1 PUSH4 0xD5ABEB01 EQ PUSH2 0x2C3 JUMPI DUP1 PUSH4 0xE985E9C5 EQ PUSH2 0x2CC JUMPI DUP1 PUSH4 0xF2FDE38B EQ PUSH2 0x2DF JUMPI PUSH1 0x0 DUP1 REVERT JUMPDEST DUP1 PUSH4 0x715018A6 EQ PUSH2 0x24E JUMPI DUP1 PUSH4 0x8DA5CB5B EQ PUSH2 0x256 JUMPI DUP1 PUSH4 0x95D89B41 EQ PUSH2 0x267 JUMPI DUP1 PUSH4 0xA22CB465 EQ PUSH2 0x26F JUMPI DUP1 PUSH4 0xB88D4FDE EQ PUSH2 0x282 JUMPI PUSH1 0x0 DUP1 REVERT JUMPDEST DUP1 PUSH4 0x42842E0E GT PUSH2 0x10A JUMPI DUP1 PUSH4 0x42842E0E EQ PUSH2 0x1D7 JUMPI DUP1 PUSH4 0x5601A1DA EQ PUSH2 0x1EA JUMPI DUP1 PUSH4 0x6352211E EQ PUSH2 0x1FD JUMPI DUP1 PUSH4 0x6A627842 EQ PUSH2 0x210 JUMPI DUP1 PUSH4 0x70A08231 EQ PUSH2 0x223 JUMPI DUP1 PUSH4 0x714CFF56 EQ PUSH2 0x244 JUMPI PUSH1 0x0 DUP1 REVERT JUMPDEST DUP1 PUSH4 0x1FFC9A7 EQ PUSH2 0x147 JUMPI DUP1 PUSH4 0x6FDDE03 EQ PUSH2 0x16F JUMPI DUP1 PUSH4 0x81812FC EQ PUSH2 0x184 JUMPI DUP1 PUSH4 0x95EA7B3 EQ PUSH2 0x1AF JUMPI DUP1 PUSH4 0x23B872DD EQ PUSH2 0x1C4 JUMPI JUMPDEST PUSH1 0x0 DUP1 REVERT JUMPDEST PUSH2 0x15A PUSH2 0x155 CALLDATASIZE PUSH1 0x4 PUSH2 0x11B1 JUMP JUMPDEST PUSH2 0x2F2 JUMP JUMPDEST PUSH1 0x40 MLOAD SWAP1 ISZERO ISZERO DUP2 MSTORE PUSH1 0x20 ADD JUMPDEST PUSH1 0x40 MLOAD DUP1 SWAP2 SUB SWAP1 RETURN JUMPDEST PUSH2 0x177 PUSH2 0x344 JUMP JUMPDEST PUSH1 0x40 MLOAD PUSH2 0x166 SWAP2 SWAP1 PUSH2 0x1225 JUMP JUMPDEST PUSH2 0x197 PUSH2 0x192 CALLDATASIZE PUSH1 0x4 PUSH2 0x1238 JUMP JUMPDEST PUSH2 0x3D6 JUMP JUMPDEST PUSH1 0x40 MLOAD PUSH1 0x1 PUSH1 0x1 PUSH1 0xA0 SHL SUB SWAP1 SWAP2 AND DUP2 MSTORE PUSH1 0x20 ADD PUSH2 0x166 JUMP JUMPDEST PUSH2 0x1C2 PUSH2 0x1BD CALLDATASIZE PUSH1 0x4 PUSH2 0x126D JUMP JUMPDEST PUSH2 0x3FD JUMP JUMPDEST STOP JUMPDEST PUSH2 0x1C2 PUSH2 0x1D2 CALLDATASIZE PUSH1 0x4 PUSH2 0x1297 JUMP JUMPDEST PUSH2 0x517 JUMP JUMPDEST PUSH2 0x1C2 PUSH2 0x1E5 CALLDATASIZE PUSH1 0x4 PUSH2 0x1297 JUMP JUMPDEST PUSH2 0x548 JUMP JUMPDEST PUSH1 0x9 SLOAD PUSH2 0x197 SWAP1 PUSH1 0x1 PUSH1 0x1 PUSH1 0xA0 SHL SUB AND DUP2 JUMP JUMPDEST PUSH2 0x197 PUSH2 0x20B CALLDATASIZE PUSH1 0x4 PUSH2 0x1238 JUMP JUMPDEST PUSH2 0x563 JUMP JUMPDEST PUSH2 0x1C2 PUSH2 0x21E CALLDATASIZE PUSH1 0x4 PUSH2 0x12D3 JUMP JUMPDEST PUSH2 0x5C3 JUMP JUMPDEST PUSH2 0x236 PUSH2 0x231 CALLDATASIZE PUSH1 0x4 PUSH2 0x12D3 JUMP JUMPDEST PUSH2 0x6CB JUMP JUMPDEST PUSH1 0x40 MLOAD SWAP1 DUP2 MSTORE PUSH1 0x20 ADD PUSH2 0x166 JUMP JUMPDEST PUSH1 0x8 SLOAD PUSH2 0x236 SWAP1 DUP2 JUMP JUMPDEST PUSH2 0x1C2 PUSH2 0x751 JUMP JUMPDEST PUSH1 0x6 SLOAD PUSH1 0x1 PUSH1 0x1 PUSH1 0xA0 SHL SUB AND PUSH2 0x197 JUMP JUMPDEST PUSH2 0x177 PUSH2 0x765 JUMP JUMPDEST PUSH2 0x1C2 PUSH2 0x27D CALLDATASIZE PUSH1 0x4 PUSH2 0x12EE JUMP JUMPDEST PUSH2 0x774 JUMP JUMPDEST PUSH2 0x1C2 PUSH2 0x290 CALLDATASIZE PUSH1 0x4 PUSH2 0x1399 JUMP JUMPDEST PUSH2 0x783 JUMP JUMPDEST PUSH2 0x177 PUSH2 0x2A3 CALLDATASIZE PUSH1 0x4 PUSH2 0x1238 JUMP JUMPDEST PUSH2 0x7BB JUMP JUMPDEST PUSH2 0x1C2 PUSH2 0x2B6 CALLDATASIZE PUSH1 0x4 PUSH2 0x12D3 JUMP JUMPDEST PUSH2 0x82D JUMP JUMPDEST PUSH2 0x177 PUSH2 0x857 JUMP JUMPDEST PUSH2 0x236 PUSH1 0xA SLOAD DUP2 JUMP JUMPDEST PUSH2 0x15A PUSH2 0x2DA CALLDATASIZE PUSH1 0x4 PUSH2 0x1444 JUMP JUMPDEST PUSH2 0x8E5 JUMP JUMPDEST PUSH2 0x1C2 PUSH2 0x2ED CALLDATASIZE PUSH1 0x4 PUSH2 0x12D3 JUMP JUMPDEST PUSH2 0x913 JUMP JUMPDEST PUSH1 0x0 PUSH1 0x1 PUSH1 0x1 PUSH1 0xE0 SHL SUB NOT DUP3 AND PUSH4 0x80AC58CD PUSH1 0xE0 SHL EQ DUP1 PUSH2 0x323 JUMPI POP PUSH1 0x1 PUSH1 0x1 PUSH1 0xE0 SHL SUB NOT DUP3 AND PUSH4 0x5B5E139F PUSH1 0xE0 SHL EQ JUMPDEST DUP1 PUSH2 0x33E JUMPI POP PUSH4 0x1FFC9A7 PUSH1 0xE0 SHL PUSH1 0x1 PUSH1 0x1 PUSH1 0xE0 SHL SUB NOT DUP4 AND EQ JUMPDEST SWAP3 SWAP2 POP POP JUMP JUMPDEST PUSH1 0x60 PUSH1 0x0 DUP1 SLOAD PUSH2 0x353 SWAP1 PUSH2 0x1477 JUMP JUMPDEST DUP1 PUSH1 0x1F ADD PUSH1 0x20 DUP1 SWAP2 DIV MUL PUSH1 0x20 ADD PUSH1 0x40 MLOAD SWAP1 DUP2 ADD PUSH1 0x40 MSTORE DUP1 SWAP3 SWAP2 SWAP1 DUP2 DUP2 MSTORE PUSH1 0x20 ADD DUP3 DUP1 SLOAD PUSH2 0x37F SWAP1 PUSH2 0x1477 JUMP JUMPDEST DUP1 ISZERO PUSH2 0x3CC JUMPI DUP1 PUSH1 0x1F LT PUSH2 0x3A1 JUMPI PUSH2 0x100 DUP1 DUP4 SLOAD DIV MUL DUP4 MSTORE SWAP2 PUSH1 0x20 ADD SWAP2 PUSH2 0x3CC JUMP JUMPDEST DUP3 ADD SWAP2 SWAP1 PUSH1 0x0 MSTORE PUSH1 0x20 PUSH1 0x0 KECCAK256 SWAP1 JUMPDEST DUP2 SLOAD DUP2 MSTORE SWAP1 PUSH1 0x1 ADD SWAP1 PUSH1 0x20 ADD DUP1 DUP4 GT PUSH2 0x3AF JUMPI DUP3 SWAP1 SUB PUSH1 0x1F AND DUP3 ADD SWAP2 JUMPDEST POP POP POP POP POP SWAP1 POP SWAP1 JUMP JUMPDEST PUSH1 0x0 PUSH2 0x3E1 DUP3 PUSH2 0x989 JUMP JUMPDEST POP PUSH1 0x0 SWAP1 DUP2 MSTORE PUSH1 0x4 PUSH1 0x20 MSTORE PUSH1 0x40 SWAP1 KECCAK256 SLOAD PUSH1 0x1 PUSH1 0x1 PUSH1 0xA0 SHL SUB AND SWAP1 JUMP JUMPDEST PUSH1 0x0 PUSH2 0x408 DUP3 PUSH2 0x563 JUMP JUMPDEST SWAP1 POP DUP1 PUSH1 0x1 PUSH1 0x1 PUSH1 0xA0 SHL SUB AND DUP4 PUSH1 0x1 PUSH1 0x1 PUSH1 0xA0 SHL SUB AND SUB PUSH2 0x47A JUMPI PUSH1 0x40 MLOAD PUSH3 0x461BCD PUSH1 0xE5 SHL DUP2 MSTORE PUSH1 0x20 PUSH1 0x4 DUP3 ADD MSTORE PUSH1 0x21 PUSH1 0x24 DUP3 ADD MSTORE PUSH32 0x4552433732313A20617070726F76616C20746F2063757272656E74206F776E65 PUSH1 0x44 DUP3 ADD MSTORE PUSH1 0x39 PUSH1 0xF9 SHL PUSH1 0x64 DUP3 ADD MSTORE PUSH1 0x84 ADD JUMPDEST PUSH1 0x40 MLOAD DUP1 SWAP2 SUB SWAP1 REVERT JUMPDEST CALLER PUSH1 0x1 PUSH1 0x1 PUSH1 0xA0 SHL SUB DUP3 AND EQ DUP1 PUSH2 0x496 JUMPI POP PUSH2 0x496 DUP2 CALLER PUSH2 0x8E5 JUMP JUMPDEST PUSH2 0x508 JUMPI PUSH1 0x40 MLOAD PUSH3 0x461BCD PUSH1 0xE5 SHL DUP2 MSTORE PUSH1 0x20 PUSH1 0x4 DUP3 ADD MSTORE PUSH1 0x3D PUSH1 0x24 DUP3 ADD MSTORE PUSH32 0x4552433732313A20617070726F76652063616C6C6572206973206E6F7420746F PUSH1 0x44 DUP3 ADD MSTORE PUSH32 0x6B656E206F776E6572206F7220617070726F76656420666F7220616C6C000000 PUSH1 0x64 DUP3 ADD MSTORE PUSH1 0x84 ADD PUSH2 0x471 JUMP JUMPDEST PUSH2 0x512 DUP4 DUP4 PUSH2 0x9E8 JUMP JUMPDEST POP POP POP JUMP JUMPDEST PUSH2 0x521 CALLER DUP3 PUSH2 0xA56 JUMP JUMPDEST PUSH2 0x53D JUMPI PUSH1 0x40 MLOAD PUSH3 0x461BCD PUSH1 0xE5 SHL DUP2 MSTORE PUSH1 0x4 ADD PUSH2 0x471 SWAP1 PUSH2 0x14B1 JUMP JUMPDEST PUSH2 0x512 DUP4 DUP4 DUP4 PUSH2 0xAB5 JUMP JUMPDEST PUSH2 0x512 DUP4 DUP4 DUP4 PUSH1 0x40 MLOAD DUP1 PUSH1 0x20 ADD PUSH1 0x40 MSTORE DUP1 PUSH1 0x0 DUP2 MSTORE POP PUSH2 0x783 JUMP JUMPDEST PUSH1 0x0 DUP2 DUP2 MSTORE PUSH1 0x2 PUSH1 0x20 MSTORE PUSH1 0x40 DUP2 KECCAK256 SLOAD PUSH1 0x1 PUSH1 0x1 PUSH1 0xA0 SHL SUB AND DUP1 PUSH2 0x33E JUMPI PUSH1 0x40 MLOAD PUSH3 0x461BCD PUSH1 0xE5 SHL DUP2 MSTORE PUSH1 0x20 PUSH1 0x4 DUP3 ADD MSTORE PUSH1 0x18 PUSH1 0x24 DUP3 ADD MSTORE PUSH24 0x115490CDCC8C4E881A5B9D985B1A59081D1BDAD95B881251 PUSH1 0x42 SHL PUSH1 0x44 DUP3 ADD MSTORE PUSH1 0x64 ADD PUSH2 0x471 JUMP JUMPDEST PUSH2 0x5CB PUSH2 0xC26 JUMP JUMPDEST PUSH1 0xA SLOAD PUSH1 0x8 SLOAD LT PUSH2 0x61E JUMPI PUSH1 0x40 MLOAD PUSH3 0x461BCD PUSH1 0xE5 SHL DUP2 MSTORE PUSH1 0x20 PUSH1 0x4 DUP3 ADD MSTORE PUSH1 0x1F PUSH1 0x24 DUP3 ADD MSTORE PUSH32 0x4D6178696D756D20737570706C7920686173206265656E207265616368656400 PUSH1 0x44 DUP3 ADD MSTORE PUSH1 0x64 ADD PUSH2 0x471 JUMP JUMPDEST PUSH2 0x62C PUSH1 0x8 DUP1 SLOAD PUSH1 0x1 ADD SWAP1 SSTORE JUMP JUMPDEST PUSH1 0x0 PUSH2 0x637 PUSH1 0x8 SLOAD SWAP1 JUMP JUMPDEST SWAP1 POP PUSH2 0x643 DUP3 DUP3 PUSH2 0xC7F JUMP JUMPDEST PUSH1 0x9 SLOAD PUSH1 0x1 PUSH1 0x1 PUSH1 0xA0 SHL SUB AND PUSH4 0xC333F045 PUSH2 0x65D PUSH1 0x8 SLOAD SWAP1 JUMP JUMPDEST CALLER PUSH1 0x40 MLOAD PUSH1 0x1 PUSH1 0x1 PUSH1 0xE0 SHL SUB NOT PUSH1 0xE0 DUP6 SWAP1 SHL AND DUP2 MSTORE PUSH1 0x4 DUP2 ADD SWAP3 SWAP1 SWAP3 MSTORE PUSH1 0x1 PUSH1 0x1 PUSH1 0xA0 SHL SUB AND PUSH1 0x24 DUP3 ADD MSTORE PUSH1 0x44 ADD PUSH1 0x0 PUSH1 0x40 MLOAD DUP1 DUP4 SUB DUP2 PUSH1 0x0 DUP8 DUP1 EXTCODESIZE ISZERO DUP1 ISZERO PUSH2 0x6A5 JUMPI PUSH1 0x0 DUP1 REVERT JUMPDEST POP GAS CALL ISZERO DUP1 ISZERO PUSH2 0x6B9 JUMPI RETURNDATASIZE PUSH1 0x0 DUP1 RETURNDATACOPY RETURNDATASIZE PUSH1 0x0 REVERT JUMPDEST POP POP POP POP POP PUSH2 0x6C8 PUSH1 0x1 PUSH1 0x7 SSTORE JUMP JUMPDEST POP JUMP JUMPDEST PUSH1 0x0 PUSH1 0x1 PUSH1 0x1 PUSH1 0xA0 SHL SUB DUP3 AND PUSH2 0x735 JUMPI PUSH1 0x40 MLOAD PUSH3 0x461BCD PUSH1 0xE5 SHL DUP2 MSTORE PUSH1 0x20 PUSH1 0x4 DUP3 ADD MSTORE PUSH1 0x29 PUSH1 0x24 DUP3 ADD MSTORE PUSH32 0x4552433732313A2061646472657373207A65726F206973206E6F742061207661 PUSH1 0x44 DUP3 ADD MSTORE PUSH9 0x3634B21037BBB732B9 PUSH1 0xB9 SHL PUSH1 0x64 DUP3 ADD MSTORE PUSH1 0x84 ADD PUSH2 0x471 JUMP JUMPDEST POP PUSH1 0x1 PUSH1 0x1 PUSH1 0xA0 SHL SUB AND PUSH1 0x0 SWAP1 DUP2 MSTORE PUSH1 0x3 PUSH1 0x20 MSTORE PUSH1 0x40 SWAP1 KECCAK256 SLOAD SWAP1 JUMP JUMPDEST PUSH2 0x759 PUSH2 0xC99 JUMP JUMPDEST PUSH2 0x763 PUSH1 0x0 PUSH2 0xCF3 JUMP JUMPDEST JUMP JUMPDEST PUSH1 0x60 PUSH1 0x1 DUP1 SLOAD PUSH2 0x353 SWAP1 PUSH2 0x1477 JUMP JUMPDEST PUSH2 0x77F CALLER DUP4 DUP4 PUSH2 0xD45 JUMP JUMPDEST POP POP JUMP JUMPDEST PUSH2 0x78D CALLER DUP4 PUSH2 0xA56 JUMP JUMPDEST PUSH2 0x7A9 JUMPI PUSH1 0x40 MLOAD PUSH3 0x461BCD PUSH1 0xE5 SHL DUP2 MSTORE PUSH1 0x4 ADD PUSH2 0x471 SWAP1 PUSH2 0x14B1 JUMP JUMPDEST PUSH2 0x7B5 DUP5 DUP5 DUP5 DUP5 PUSH2 0xE13 JUMP JUMPDEST POP POP POP POP JUMP JUMPDEST PUSH1 0x9 SLOAD PUSH1 0x40 MLOAD PUSH4 0xC87B56DD PUSH1 0xE0 SHL DUP2 MSTORE PUSH1 0x4 DUP2 ADD DUP4 SWAP1 MSTORE PUSH1 0x60 SWAP2 PUSH1 0x1 PUSH1 0x1 PUSH1 0xA0 SHL SUB AND SWAP1 PUSH4 0xC87B56DD SWAP1 PUSH1 0x24 ADD PUSH1 0x0 PUSH1 0x40 MLOAD DUP1 DUP4 SUB DUP2 DUP7 GAS STATICCALL ISZERO DUP1 ISZERO PUSH2 0x805 JUMPI RETURNDATASIZE PUSH1 0x0 DUP1 RETURNDATACOPY RETURNDATASIZE PUSH1 0x0 REVERT JUMPDEST POP POP POP POP PUSH1 0x40 MLOAD RETURNDATASIZE PUSH1 0x0 DUP3 RETURNDATACOPY PUSH1 0x1F RETURNDATASIZE SWAP1 DUP2 ADD PUSH1 0x1F NOT AND DUP3 ADD PUSH1 0x40 MSTORE PUSH2 0x33E SWAP2 SWAP1 DUP2 ADD SWAP1 PUSH2 0x14FE JUMP JUMPDEST PUSH2 0x835 PUSH2 0xC99 JUMP JUMPDEST PUSH1 0x9 DUP1 SLOAD PUSH1 0x1 PUSH1 0x1 PUSH1 0xA0 SHL SUB NOT AND PUSH1 0x1 PUSH1 0x1 PUSH1 0xA0 SHL SUB SWAP3 SWAP1 SWAP3 AND SWAP2 SWAP1 SWAP2 OR SWAP1 SSTORE JUMP JUMPDEST PUSH1 0xB DUP1 SLOAD PUSH2 0x864 SWAP1 PUSH2 0x1477 JUMP JUMPDEST DUP1 PUSH1 0x1F ADD PUSH1 0x20 DUP1 SWAP2 DIV MUL PUSH1 0x20 ADD PUSH1 0x40 MLOAD SWAP1 DUP2 ADD PUSH1 0x40 MSTORE DUP1 SWAP3 SWAP2 SWAP1 DUP2 DUP2 MSTORE PUSH1 0x20 ADD DUP3 DUP1 SLOAD PUSH2 0x890 SWAP1 PUSH2 0x1477 JUMP JUMPDEST DUP1 ISZERO PUSH2 0x8DD JUMPI DUP1 PUSH1 0x1F LT PUSH2 0x8B2 JUMPI PUSH2 0x100 DUP1 DUP4 SLOAD DIV MUL DUP4 MSTORE SWAP2 PUSH1 0x20 ADD SWAP2 PUSH2 0x8DD JUMP JUMPDEST DUP3 ADD SWAP2 SWAP1 PUSH1 0x0 MSTORE PUSH1 0x20 PUSH1 0x0 KECCAK256 SWAP1 JUMPDEST DUP2 SLOAD DUP2 MSTORE SWAP1 PUSH1 0x1 ADD SWAP1 PUSH1 0x20 ADD DUP1 DUP4 GT PUSH2 0x8C0 JUMPI DUP3 SWAP1 SUB PUSH1 0x1F AND DUP3 ADD SWAP2 JUMPDEST POP POP POP POP POP DUP2 JUMP JUMPDEST PUSH1 0x1 PUSH1 0x1 PUSH1 0xA0 SHL SUB SWAP2 DUP3 AND PUSH1 0x0 SWAP1 DUP2 MSTORE PUSH1 0x5 PUSH1 0x20 SWAP1 DUP2 MSTORE PUSH1 0x40 DUP1 DUP4 KECCAK256 SWAP4 SWAP1 SWAP5 AND DUP3 MSTORE SWAP2 SWAP1 SWAP2 MSTORE KECCAK256 SLOAD PUSH1 0xFF AND SWAP1 JUMP JUMPDEST PUSH2 0x91B PUSH2 0xC99 JUMP JUMPDEST PUSH1 0x1 PUSH1 0x1 PUSH1 0xA0 SHL SUB DUP2 AND PUSH2 0x980 JUMPI PUSH1 0x40 MLOAD PUSH3 0x461BCD PUSH1 0xE5 SHL DUP2 MSTORE PUSH1 0x20 PUSH1 0x4 DUP3 ADD MSTORE PUSH1 0x26 PUSH1 0x24 DUP3 ADD MSTORE PUSH32 0x4F776E61626C653A206E6577206F776E657220697320746865207A65726F2061 PUSH1 0x44 DUP3 ADD MSTORE PUSH6 0x646472657373 PUSH1 0xD0 SHL PUSH1 0x64 DUP3 ADD MSTORE PUSH1 0x84 ADD PUSH2 0x471 JUMP JUMPDEST PUSH2 0x6C8 DUP2 PUSH2 0xCF3 JUMP JUMPDEST PUSH1 0x0 DUP2 DUP2 MSTORE PUSH1 0x2 PUSH1 0x20 MSTORE PUSH1 0x40 SWAP1 KECCAK256 SLOAD PUSH1 0x1 PUSH1 0x1 PUSH1 0xA0 SHL SUB AND PUSH2 0x6C8 JUMPI PUSH1 0x40 MLOAD PUSH3 0x461BCD PUSH1 0xE5 SHL DUP2 MSTORE PUSH1 0x20 PUSH1 0x4 DUP3 ADD MSTORE PUSH1 0x18 PUSH1 0x24 DUP3 ADD MSTORE PUSH24 0x115490CDCC8C4E881A5B9D985B1A59081D1BDAD95B881251 PUSH1 0x42 SHL PUSH1 0x44 DUP3 ADD MSTORE PUSH1 0x64 ADD PUSH2 0x471 JUMP JUMPDEST PUSH1 0x0 DUP2 DUP2 MSTORE PUSH1 0x4 PUSH1 0x20 MSTORE PUSH1 0x40 SWAP1 KECCAK256 DUP1 SLOAD PUSH1 0x1 PUSH1 0x1 PUSH1 0xA0 SHL SUB NOT AND PUSH1 0x1 PUSH1 0x1 PUSH1 0xA0 SHL SUB DUP5 AND SWAP1 DUP2 OR SWAP1 SWAP2 SSTORE DUP2 SWAP1 PUSH2 0xA1D DUP3 PUSH2 0x563 JUMP JUMPDEST PUSH1 0x1 PUSH1 0x1 PUSH1 0xA0 SHL SUB AND PUSH32 0x8C5BE1E5EBEC7D5BD14F71427D1E84F3DD0314C0F7B2291E5B200AC8C7C3B925 PUSH1 0x40 MLOAD PUSH1 0x40 MLOAD DUP1 SWAP2 SUB SWAP1 LOG4 POP POP JUMP JUMPDEST PUSH1 0x0 DUP1 PUSH2 0xA62 DUP4 PUSH2 0x563 JUMP JUMPDEST SWAP1 POP DUP1 PUSH1 0x1 PUSH1 0x1 PUSH1 0xA0 SHL SUB AND DUP5 PUSH1 0x1 PUSH1 0x1 PUSH1 0xA0 SHL SUB AND EQ DUP1 PUSH2 0xA89 JUMPI POP PUSH2 0xA89 DUP2 DUP6 PUSH2 0x8E5 JUMP JUMPDEST DUP1 PUSH2 0xAAD JUMPI POP DUP4 PUSH1 0x1 PUSH1 0x1 PUSH1 0xA0 SHL SUB AND PUSH2 0xAA2 DUP5 PUSH2 0x3D6 JUMP JUMPDEST PUSH1 0x1 PUSH1 0x1 PUSH1 0xA0 SHL SUB AND EQ JUMPDEST SWAP5 SWAP4 POP POP POP POP JUMP JUMPDEST DUP3 PUSH1 0x1 PUSH1 0x1 PUSH1 0xA0 SHL SUB AND PUSH2 0xAC8 DUP3 PUSH2 0x563 JUMP JUMPDEST PUSH1 0x1 PUSH1 0x1 PUSH1 0xA0 SHL SUB AND EQ PUSH2 0xAEE JUMPI PUSH1 0x40 MLOAD PUSH3 0x461BCD PUSH1 0xE5 SHL DUP2 MSTORE PUSH1 0x4 ADD PUSH2 0x471 SWAP1 PUSH2 0x1575 JUMP JUMPDEST PUSH1 0x1 PUSH1 0x1 PUSH1 0xA0 SHL SUB DUP3 AND PUSH2 0xB50 JUMPI PUSH1 0x40 MLOAD PUSH3 0x461BCD PUSH1 0xE5 SHL DUP2 MSTORE PUSH1 0x20 PUSH1 0x4 DUP3 ADD MSTORE PUSH1 0x24 DUP1 DUP3 ADD MSTORE PUSH32 0x4552433732313A207472616E7366657220746F20746865207A65726F20616464 PUSH1 0x44 DUP3 ADD MSTORE PUSH4 0x72657373 PUSH1 0xE0 SHL PUSH1 0x64 DUP3 ADD MSTORE PUSH1 0x84 ADD PUSH2 0x471 JUMP JUMPDEST PUSH2 0xB5D DUP4 DUP4 DUP4 PUSH1 0x1 PUSH2 0xE46 JUMP JUMPDEST DUP3 PUSH1 0x1 PUSH1 0x1 PUSH1 0xA0 SHL SUB AND PUSH2 0xB70 DUP3 PUSH2 0x563 JUMP JUMPDEST PUSH1 0x1 PUSH1 0x1 PUSH1 0xA0 SHL SUB AND EQ PUSH2 0xB96 JUMPI PUSH1 0x40 MLOAD PUSH3 0x461BCD PUSH1 0xE5 SHL DUP2 MSTORE PUSH1 0x4 ADD PUSH2 0x471 SWAP1 PUSH2 0x1575 JUMP JUMPDEST PUSH1 0x0 DUP2 DUP2 MSTORE PUSH1 0x4 PUSH1 0x20 SWAP1 DUP2 MSTORE PUSH1 0x40 DUP1 DUP4 KECCAK256 DUP1 SLOAD PUSH1 0x1 PUSH1 0x1 PUSH1 0xA0 SHL SUB NOT SWAP1 DUP2 AND SWAP1 SWAP2 SSTORE PUSH1 0x1 PUSH1 0x1 PUSH1 0xA0 SHL SUB DUP8 DUP2 AND DUP1 DUP7 MSTORE PUSH1 0x3 DUP6 MSTORE DUP4 DUP7 KECCAK256 DUP1 SLOAD PUSH1 0x0 NOT ADD SWAP1 SSTORE SWAP1 DUP8 AND DUP1 DUP7 MSTORE DUP4 DUP7 KECCAK256 DUP1 SLOAD PUSH1 0x1 ADD SWAP1 SSTORE DUP7 DUP7 MSTORE PUSH1 0x2 SWAP1 SWAP5 MSTORE DUP3 DUP6 KECCAK256 DUP1 SLOAD SWAP1 SWAP3 AND DUP5 OR SWAP1 SWAP2 SSTORE SWAP1 MLOAD DUP5 SWAP4 PUSH32 0xDDF252AD1BE2C89B69C2B068FC378DAA952BA7F163C4A11628F55A4DF523B3EF SWAP2 LOG4 POP POP POP JUMP JUMPDEST PUSH1 0x2 PUSH1 0x7 SLOAD SUB PUSH2 0xC78 JUMPI PUSH1 0x40 MLOAD PUSH3 0x461BCD PUSH1 0xE5 SHL DUP2 MSTORE PUSH1 0x20 PUSH1 0x4 DUP3 ADD MSTORE PUSH1 0x1F PUSH1 0x24 DUP3 ADD MSTORE PUSH32 0x5265656E7472616E637947756172643A207265656E7472616E742063616C6C00 PUSH1 0x44 DUP3 ADD MSTORE PUSH1 0x64 ADD PUSH2 0x471 JUMP JUMPDEST PUSH1 0x2 PUSH1 0x7 SSTORE JUMP JUMPDEST PUSH2 0x77F DUP3 DUP3 PUSH1 0x40 MLOAD DUP1 PUSH1 0x20 ADD PUSH1 0x40 MSTORE DUP1 PUSH1 0x0 DUP2 MSTORE POP PUSH2 0xECE JUMP JUMPDEST PUSH1 0x6 SLOAD PUSH1 0x1 PUSH1 0x1 PUSH1 0xA0 SHL SUB AND CALLER EQ PUSH2 0x763 JUMPI PUSH1 0x40 MLOAD PUSH3 0x461BCD PUSH1 0xE5 SHL DUP2 MSTORE PUSH1 0x20 PUSH1 0x4 DUP3 ADD DUP2 SWAP1 MSTORE PUSH1 0x24 DUP3 ADD MSTORE PUSH32 0x4F776E61626C653A2063616C6C6572206973206E6F7420746865206F776E6572 PUSH1 0x44 DUP3 ADD MSTORE PUSH1 0x64 ADD PUSH2 0x471 JUMP JUMPDEST PUSH1 0x6 DUP1 SLOAD PUSH1 0x1 PUSH1 0x1 PUSH1 0xA0 SHL SUB DUP4 DUP2 AND PUSH1 0x1 PUSH1 0x1 PUSH1 0xA0 SHL SUB NOT DUP4 AND DUP2 OR SWAP1 SWAP4 SSTORE PUSH1 0x40 MLOAD SWAP2 AND SWAP2 SWAP1 DUP3 SWAP1 PUSH32 0x8BE0079C531659141344CD1FD0A4F28419497F9722A3DAAFE3B4186F6B6457E0 SWAP1 PUSH1 0x0 SWAP1 LOG3 POP POP JUMP JUMPDEST DUP2 PUSH1 0x1 PUSH1 0x1 PUSH1 0xA0 SHL SUB AND DUP4 PUSH1 0x1 PUSH1 0x1 PUSH1 0xA0 SHL SUB AND SUB PUSH2 0xDA6 JUMPI PUSH1 0x40 MLOAD PUSH3 0x461BCD PUSH1 0xE5 SHL DUP2 MSTORE PUSH1 0x20 PUSH1 0x4 DUP3 ADD MSTORE PUSH1 0x19 PUSH1 0x24 DUP3 ADD MSTORE PUSH32 0x4552433732313A20617070726F766520746F2063616C6C657200000000000000 PUSH1 0x44 DUP3 ADD MSTORE PUSH1 0x64 ADD PUSH2 0x471 JUMP JUMPDEST PUSH1 0x1 PUSH1 0x1 PUSH1 0xA0 SHL SUB DUP4 DUP2 AND PUSH1 0x0 DUP2 DUP2 MSTORE PUSH1 0x5 PUSH1 0x20 SWAP1 DUP2 MSTORE PUSH1 0x40 DUP1 DUP4 KECCAK256 SWAP5 DUP8 AND DUP1 DUP5 MSTORE SWAP5 DUP3 MSTORE SWAP2 DUP3 SWAP1 KECCAK256 DUP1 SLOAD PUSH1 0xFF NOT AND DUP7 ISZERO ISZERO SWAP1 DUP2 OR SWAP1 SWAP2 SSTORE SWAP2 MLOAD SWAP2 DUP3 MSTORE PUSH32 0x17307EAB39AB6107E8899845AD3D59BD9653F200F220920489CA2B5937696C31 SWAP2 ADD PUSH1 0x40 MLOAD DUP1 SWAP2 SUB SWAP1 LOG3 POP POP POP JUMP JUMPDEST PUSH2 0xE1E DUP5 DUP5 DUP5 PUSH2 0xAB5 JUMP JUMPDEST PUSH2 0xE2A DUP5 DUP5 DUP5 DUP5 PUSH2 0xF01 JUMP JUMPDEST PUSH2 0x7B5 JUMPI PUSH1 0x40 MLOAD PUSH3 0x461BCD PUSH1 0xE5 SHL DUP2 MSTORE PUSH1 0x4 ADD PUSH2 0x471 SWAP1 PUSH2 0x15BA JUMP JUMPDEST PUSH1 0x1 DUP2 GT ISZERO PUSH2 0x7B5 JUMPI PUSH1 0x1 PUSH1 0x1 PUSH1 0xA0 SHL SUB DUP5 AND ISZERO PUSH2 0xE8C JUMPI PUSH1 0x1 PUSH1 0x1 PUSH1 0xA0 SHL SUB DUP5 AND PUSH1 0x0 SWAP1 DUP2 MSTORE PUSH1 0x3 PUSH1 0x20 MSTORE PUSH1 0x40 DUP2 KECCAK256 DUP1 SLOAD DUP4 SWAP3 SWAP1 PUSH2 0xE86 SWAP1 DUP5 SWAP1 PUSH2 0x1622 JUMP JUMPDEST SWAP1 SWAP2 SSTORE POP POP JUMPDEST PUSH1 0x1 PUSH1 0x1 PUSH1 0xA0 SHL SUB DUP4 AND ISZERO PUSH2 0x7B5 JUMPI PUSH1 0x1 PUSH1 0x1 PUSH1 0xA0 SHL SUB DUP4 AND PUSH1 0x0 SWAP1 DUP2 MSTORE PUSH1 0x3 PUSH1 0x20 MSTORE PUSH1 0x40 DUP2 KECCAK256 DUP1 SLOAD DUP4 SWAP3 SWAP1 PUSH2 0xEC3 SWAP1 DUP5 SWAP1 PUSH2 0x1635 JUMP JUMPDEST SWAP1 SWAP2 SSTORE POP POP POP POP POP POP JUMP JUMPDEST PUSH2 0xED8 DUP4 DUP4 PUSH2 0x1002 JUMP JUMPDEST PUSH2 0xEE5 PUSH1 0x0 DUP5 DUP5 DUP5 PUSH2 0xF01 JUMP JUMPDEST PUSH2 0x512 JUMPI PUSH1 0x40 MLOAD PUSH3 0x461BCD PUSH1 0xE5 SHL DUP2 MSTORE PUSH1 0x4 ADD PUSH2 0x471 SWAP1 PUSH2 0x15BA JUMP JUMPDEST PUSH1 0x0 PUSH1 0x1 PUSH1 0x1 PUSH1 0xA0 SHL SUB DUP5 AND EXTCODESIZE ISZERO PUSH2 0xFF7 JUMPI PUSH1 0x40 MLOAD PUSH4 0xA85BD01 PUSH1 0xE1 SHL DUP2 MSTORE PUSH1 0x1 PUSH1 0x1 PUSH1 0xA0 SHL SUB DUP6 AND SWAP1 PUSH4 0x150B7A02 SWAP1 PUSH2 0xF45 SWAP1 CALLER SWAP1 DUP10 SWAP1 DUP9 SWAP1 DUP9 SWAP1 PUSH1 0x4 ADD PUSH2 0x1648 JUMP JUMPDEST PUSH1 0x20 PUSH1 0x40 MLOAD DUP1 DUP4 SUB DUP2 PUSH1 0x0 DUP8 GAS CALL SWAP3 POP POP POP DUP1 ISZERO PUSH2 0xF80 JUMPI POP PUSH1 0x40 DUP1 MLOAD PUSH1 0x1F RETURNDATASIZE SWAP1 DUP2 ADD PUSH1 0x1F NOT AND DUP3 ADD SWAP1 SWAP3 MSTORE PUSH2 0xF7D SWAP2 DUP2 ADD SWAP1 PUSH2 0x1685 JUMP JUMPDEST PUSH1 0x1 JUMPDEST PUSH2 0xFDD JUMPI RETURNDATASIZE DUP1 DUP1 ISZERO PUSH2 0xFAE JUMPI PUSH1 0x40 MLOAD SWAP2 POP PUSH1 0x1F NOT PUSH1 0x3F RETURNDATASIZE ADD AND DUP3 ADD PUSH1 0x40 MSTORE RETURNDATASIZE DUP3 MSTORE RETURNDATASIZE PUSH1 0x0 PUSH1 0x20 DUP5 ADD RETURNDATACOPY PUSH2 0xFB3 JUMP JUMPDEST PUSH1 0x60 SWAP2 POP JUMPDEST POP DUP1 MLOAD PUSH1 0x0 SUB PUSH2 0xFD5 JUMPI PUSH1 0x40 MLOAD PUSH3 0x461BCD PUSH1 0xE5 SHL DUP2 MSTORE PUSH1 0x4 ADD PUSH2 0x471 SWAP1 PUSH2 0x15BA JUMP JUMPDEST DUP1 MLOAD DUP2 PUSH1 0x20 ADD REVERT JUMPDEST PUSH1 0x1 PUSH1 0x1 PUSH1 0xE0 SHL SUB NOT AND PUSH4 0xA85BD01 PUSH1 0xE1 SHL EQ SWAP1 POP PUSH2 0xAAD JUMP JUMPDEST POP PUSH1 0x1 SWAP5 SWAP4 POP POP POP POP JUMP JUMPDEST PUSH1 0x1 PUSH1 0x1 PUSH1 0xA0 SHL SUB DUP3 AND PUSH2 0x1058 JUMPI PUSH1 0x40 MLOAD PUSH3 0x461BCD PUSH1 0xE5 SHL DUP2 MSTORE PUSH1 0x20 PUSH1 0x4 DUP3 ADD DUP2 SWAP1 MSTORE PUSH1 0x24 DUP3 ADD MSTORE PUSH32 0x4552433732313A206D696E7420746F20746865207A65726F2061646472657373 PUSH1 0x44 DUP3 ADD MSTORE PUSH1 0x64 ADD PUSH2 0x471 JUMP JUMPDEST PUSH1 0x0 DUP2 DUP2 MSTORE PUSH1 0x2 PUSH1 0x20 MSTORE PUSH1 0x40 SWAP1 KECCAK256 SLOAD PUSH1 0x1 PUSH1 0x1 PUSH1 0xA0 SHL SUB AND ISZERO PUSH2 0x10BD JUMPI PUSH1 0x40 MLOAD PUSH3 0x461BCD PUSH1 0xE5 SHL DUP2 MSTORE PUSH1 0x20 PUSH1 0x4 DUP3 ADD MSTORE PUSH1 0x1C PUSH1 0x24 DUP3 ADD MSTORE PUSH32 0x4552433732313A20746F6B656E20616C7265616479206D696E74656400000000 PUSH1 0x44 DUP3 ADD MSTORE PUSH1 0x64 ADD PUSH2 0x471 JUMP JUMPDEST PUSH2 0x10CB PUSH1 0x0 DUP4 DUP4 PUSH1 0x1 PUSH2 0xE46 JUMP JUMPDEST PUSH1 0x0 DUP2 DUP2 MSTORE PUSH1 0x2 PUSH1 0x20 MSTORE PUSH1 0x40 SWAP1 KECCAK256 SLOAD PUSH1 0x1 PUSH1 0x1 PUSH1 0xA0 SHL SUB AND ISZERO PUSH2 0x1130 JUMPI PUSH1 0x40 MLOAD PUSH3 0x461BCD PUSH1 0xE5 SHL DUP2 MSTORE PUSH1 0x20 PUSH1 0x4 DUP3 ADD MSTORE PUSH1 0x1C PUSH1 0x24 DUP3 ADD MSTORE PUSH32 0x4552433732313A20746F6B656E20616C7265616479206D696E74656400000000 PUSH1 0x44 DUP3 ADD MSTORE PUSH1 0x64 ADD PUSH2 0x471 JUMP JUMPDEST PUSH1 0x1 PUSH1 0x1 PUSH1 0xA0 SHL SUB DUP3 AND PUSH1 0x0 DUP2 DUP2 MSTORE PUSH1 0x3 PUSH1 0x20 SWAP1 DUP2 MSTORE PUSH1 0x40 DUP1 DUP4 KECCAK256 DUP1 SLOAD PUSH1 0x1 ADD SWAP1 SSTORE DUP5 DUP4 MSTORE PUSH1 0x2 SWAP1 SWAP2 MSTORE DUP1 DUP3 KECCAK256 DUP1 SLOAD PUSH1 0x1 PUSH1 0x1 PUSH1 0xA0 SHL SUB NOT AND DUP5 OR SWAP1 SSTORE MLOAD DUP4 SWAP3 SWAP2 SWAP1 PUSH32 0xDDF252AD1BE2C89B69C2B068FC378DAA952BA7F163C4A11628F55A4DF523B3EF SWAP1 DUP3 SWAP1 LOG4 POP POP JUMP JUMPDEST PUSH1 0x1 PUSH1 0x1 PUSH1 0xE0 SHL SUB NOT DUP2 AND DUP2 EQ PUSH2 0x6C8 JUMPI PUSH1 0x0 DUP1 REVERT JUMPDEST PUSH1 0x0 PUSH1 0x20 DUP3 DUP5 SUB SLT ISZERO PUSH2 0x11C3 JUMPI PUSH1 0x0 DUP1 REVERT JUMPDEST DUP2 CALLDATALOAD PUSH2 0x11CE DUP2 PUSH2 0x119B JUMP JUMPDEST SWAP4 SWAP3 POP POP POP JUMP JUMPDEST PUSH1 0x0 JUMPDEST DUP4 DUP2 LT ISZERO PUSH2 0x11F0 JUMPI DUP2 DUP2 ADD MLOAD DUP4 DUP3 ADD MSTORE PUSH1 0x20 ADD PUSH2 0x11D8 JUMP JUMPDEST POP POP PUSH1 0x0 SWAP2 ADD MSTORE JUMP JUMPDEST PUSH1 0x0 DUP2 MLOAD DUP1 DUP5 MSTORE PUSH2 0x1211 DUP2 PUSH1 0x20 DUP7 ADD PUSH1 0x20 DUP7 ADD PUSH2 0x11D5 JUMP JUMPDEST PUSH1 0x1F ADD PUSH1 0x1F NOT AND SWAP3 SWAP1 SWAP3 ADD PUSH1 0x20 ADD SWAP3 SWAP2 POP POP JUMP JUMPDEST PUSH1 0x20 DUP2 MSTORE PUSH1 0x0 PUSH2 0x11CE PUSH1 0x20 DUP4 ADD DUP5 PUSH2 0x11F9 JUMP JUMPDEST PUSH1 0x0 PUSH1 0x20 DUP3 DUP5 SUB SLT ISZERO PUSH2 0x124A JUMPI PUSH1 0x0 DUP1 REVERT JUMPDEST POP CALLDATALOAD SWAP2 SWAP1 POP JUMP JUMPDEST DUP1 CALLDATALOAD PUSH1 0x1 PUSH1 0x1 PUSH1 0xA0 SHL SUB DUP2 AND DUP2 EQ PUSH2 0x1268 JUMPI PUSH1 0x0 DUP1 REVERT JUMPDEST SWAP2 SWAP1 POP JUMP JUMPDEST PUSH1 0x0 DUP1 PUSH1 0x40 DUP4 DUP6 SUB SLT ISZERO PUSH2 0x1280 JUMPI PUSH1 0x0 DUP1 REVERT JUMPDEST PUSH2 0x1289 DUP4 PUSH2 0x1251 JUMP JUMPDEST SWAP5 PUSH1 0x20 SWAP4 SWAP1 SWAP4 ADD CALLDATALOAD SWAP4 POP POP POP JUMP JUMPDEST PUSH1 0x0 DUP1 PUSH1 0x0 PUSH1 0x60 DUP5 DUP7 SUB SLT ISZERO PUSH2 0x12AC JUMPI PUSH1 0x0 DUP1 REVERT JUMPDEST PUSH2 0x12B5 DUP5 PUSH2 0x1251 JUMP JUMPDEST SWAP3 POP PUSH2 0x12C3 PUSH1 0x20 DUP6 ADD PUSH2 0x1251 JUMP JUMPDEST SWAP2 POP PUSH1 0x40 DUP5 ADD CALLDATALOAD SWAP1 POP SWAP3 POP SWAP3 POP SWAP3 JUMP JUMPDEST PUSH1 0x0 PUSH1 0x20 DUP3 DUP5 SUB SLT ISZERO PUSH2 0x12E5 JUMPI PUSH1 0x0 DUP1 REVERT JUMPDEST PUSH2 0x11CE DUP3 PUSH2 0x1251 JUMP JUMPDEST PUSH1 0x0 DUP1 PUSH1 0x40 DUP4 DUP6 SUB SLT ISZERO PUSH2 0x1301 JUMPI PUSH1 0x0 DUP1 REVERT JUMPDEST PUSH2 0x130A DUP4 PUSH2 0x1251 JUMP JUMPDEST SWAP2 POP PUSH1 0x20 DUP4 ADD CALLDATALOAD DUP1 ISZERO ISZERO DUP2 EQ PUSH2 0x131F JUMPI PUSH1 0x0 DUP1 REVERT JUMPDEST DUP1 SWAP2 POP POP SWAP3 POP SWAP3 SWAP1 POP JUMP JUMPDEST PUSH4 0x4E487B71 PUSH1 0xE0 SHL PUSH1 0x0 MSTORE PUSH1 0x41 PUSH1 0x4 MSTORE PUSH1 0x24 PUSH1 0x0 REVERT JUMPDEST PUSH1 0x40 MLOAD PUSH1 0x1F DUP3 ADD PUSH1 0x1F NOT AND DUP2 ADD PUSH8 0xFFFFFFFFFFFFFFFF DUP2 GT DUP3 DUP3 LT OR ISZERO PUSH2 0x1369 JUMPI PUSH2 0x1369 PUSH2 0x132A JUMP JUMPDEST PUSH1 0x40 MSTORE SWAP2 SWAP1 POP JUMP JUMPDEST PUSH1 0x0 PUSH8 0xFFFFFFFFFFFFFFFF DUP3 GT ISZERO PUSH2 0x138B JUMPI PUSH2 0x138B PUSH2 0x132A JUMP JUMPDEST POP PUSH1 0x1F ADD PUSH1 0x1F NOT AND PUSH1 0x20 ADD SWAP1 JUMP JUMPDEST PUSH1 0x0 DUP1 PUSH1 0x0 DUP1 PUSH1 0x80 DUP6 DUP8 SUB SLT ISZERO PUSH2 0x13AF JUMPI PUSH1 0x0 DUP1 REVERT JUMPDEST PUSH2 0x13B8 DUP6 PUSH2 0x1251 JUMP JUMPDEST SWAP4 POP PUSH2 0x13C6 PUSH1 0x20 DUP7 ADD PUSH2 0x1251 JUMP JUMPDEST SWAP3 POP PUSH1 0x40 DUP6 ADD CALLDATALOAD SWAP2 POP PUSH1 0x60 DUP6 ADD CALLDATALOAD PUSH8 0xFFFFFFFFFFFFFFFF DUP2 GT ISZERO PUSH2 0x13E9 JUMPI PUSH1 0x0 DUP1 REVERT JUMPDEST DUP6 ADD PUSH1 0x1F DUP2 ADD DUP8 SGT PUSH2 0x13FA JUMPI PUSH1 0x0 DUP1 REVERT JUMPDEST DUP1 CALLDATALOAD PUSH2 0x140D PUSH2 0x1408 DUP3 PUSH2 0x1371 JUMP JUMPDEST PUSH2 0x1340 JUMP JUMPDEST DUP2 DUP2 MSTORE DUP9 PUSH1 0x20 DUP4 DUP6 ADD ADD GT ISZERO PUSH2 0x1422 JUMPI PUSH1 0x0 DUP1 REVERT JUMPDEST DUP2 PUSH1 0x20 DUP5 ADD PUSH1 0x20 DUP4 ADD CALLDATACOPY PUSH1 0x0 PUSH1 0x20 DUP4 DUP4 ADD ADD MSTORE DUP1 SWAP4 POP POP POP POP SWAP3 SWAP6 SWAP2 SWAP5 POP SWAP3 POP JUMP JUMPDEST PUSH1 0x0 DUP1 PUSH1 0x40 DUP4 DUP6 SUB SLT ISZERO PUSH2 0x1457 JUMPI PUSH1 0x0 DUP1 REVERT JUMPDEST PUSH2 0x1460 DUP4 PUSH2 0x1251 JUMP JUMPDEST SWAP2 POP PUSH2 0x146E PUSH1 0x20 DUP5 ADD PUSH2 0x1251 JUMP JUMPDEST SWAP1 POP SWAP3 POP SWAP3 SWAP1 POP JUMP JUMPDEST PUSH1 0x1 DUP2 DUP2 SHR SWAP1 DUP3 AND DUP1 PUSH2 0x148B JUMPI PUSH1 0x7F DUP3 AND SWAP2 POP JUMPDEST PUSH1 0x20 DUP3 LT DUP2 SUB PUSH2 0x14AB JUMPI PUSH4 0x4E487B71 PUSH1 0xE0 SHL PUSH1 0x0 MSTORE PUSH1 0x22 PUSH1 0x4 MSTORE PUSH1 0x24 PUSH1 0x0 REVERT JUMPDEST POP SWAP2 SWAP1 POP JUMP JUMPDEST PUSH1 0x20 DUP1 DUP3 MSTORE PUSH1 0x2D SWAP1 DUP3 ADD MSTORE PUSH32 0x4552433732313A2063616C6C6572206973206E6F7420746F6B656E206F776E65 PUSH1 0x40 DUP3 ADD MSTORE PUSH13 0x1C881BDC88185C1C1C9BDD9959 PUSH1 0x9A SHL PUSH1 0x60 DUP3 ADD MSTORE PUSH1 0x80 ADD SWAP1 JUMP JUMPDEST PUSH1 0x0 PUSH1 0x20 DUP3 DUP5 SUB SLT ISZERO PUSH2 0x1510 JUMPI PUSH1 0x0 DUP1 REVERT JUMPDEST DUP2 MLOAD PUSH8 0xFFFFFFFFFFFFFFFF DUP2 GT ISZERO PUSH2 0x1527 JUMPI PUSH1 0x0 DUP1 REVERT JUMPDEST DUP3 ADD PUSH1 0x1F DUP2 ADD DUP5 SGT PUSH2 0x1538 JUMPI PUSH1 0x0 DUP1 REVERT JUMPDEST DUP1 MLOAD PUSH2 0x1546 PUSH2 0x1408 DUP3 PUSH2 0x1371 JUMP JUMPDEST DUP2 DUP2 MSTORE DUP6 PUSH1 0x20 DUP4 DUP6 ADD ADD GT ISZERO PUSH2 0x155B JUMPI PUSH1 0x0 DUP1 REVERT JUMPDEST PUSH2 0x156C DUP3 PUSH1 0x20 DUP4 ADD PUSH1 0x20 DUP7 ADD PUSH2 0x11D5 JUMP JUMPDEST SWAP6 SWAP5 POP POP POP POP POP JUMP JUMPDEST PUSH1 0x20 DUP1 DUP3 MSTORE PUSH1 0x25 SWAP1 DUP3 ADD MSTORE PUSH32 0x4552433732313A207472616E736665722066726F6D20696E636F727265637420 PUSH1 0x40 DUP3 ADD MSTORE PUSH5 0x37BBB732B9 PUSH1 0xD9 SHL PUSH1 0x60 DUP3 ADD MSTORE PUSH1 0x80 ADD SWAP1 JUMP JUMPDEST PUSH1 0x20 DUP1 DUP3 MSTORE PUSH1 0x32 SWAP1 DUP3 ADD MSTORE PUSH32 0x4552433732313A207472616E7366657220746F206E6F6E204552433732315265 PUSH1 0x40 DUP3 ADD MSTORE PUSH18 0x31B2B4BB32B91034B6B83632B6B2B73A32B9 PUSH1 0x71 SHL PUSH1 0x60 DUP3 ADD MSTORE PUSH1 0x80 ADD SWAP1 JUMP JUMPDEST PUSH4 0x4E487B71 PUSH1 0xE0 SHL PUSH1 0x0 MSTORE PUSH1 0x11 PUSH1 0x4 MSTORE PUSH1 0x24 PUSH1 0x0 REVERT JUMPDEST DUP2 DUP2 SUB DUP2 DUP2 GT ISZERO PUSH2 0x33E JUMPI PUSH2 0x33E PUSH2 0x160C JUMP JUMPDEST DUP1 DUP3 ADD DUP1 DUP3 GT ISZERO PUSH2 0x33E JUMPI PUSH2 0x33E PUSH2 0x160C JUMP JUMPDEST PUSH1 0x1 PUSH1 0x1 PUSH1 0xA0 SHL SUB DUP6 DUP2 AND DUP3 MSTORE DUP5 AND PUSH1 0x20 DUP3 ADD MSTORE PUSH1 0x40 DUP2 ADD DUP4 SWAP1 MSTORE PUSH1 0x80 PUSH1 0x60 DUP3 ADD DUP2 SWAP1 MSTORE PUSH1 0x0 SWAP1 PUSH2 0x167B SWAP1 DUP4 ADD DUP5 PUSH2 0x11F9 JUMP JUMPDEST SWAP7 SWAP6 POP POP POP POP POP POP JUMP JUMPDEST PUSH1 0x0 PUSH1 0x20 DUP3 DUP5 SUB SLT ISZERO PUSH2 0x1697 JUMPI PUSH1 0x0 DUP1 REVERT JUMPDEST DUP2 MLOAD PUSH2 0x11CE DUP2 PUSH2 0x119B JUMP INVALID LOG2 PUSH5 0x6970667358 0x22 SLT KECCAK256 PC PUSH29 0xF587F2235AE56998606033E49AEDAC38C3A6BE02068412D8EF01A1ED3F 0x2D PUSH5 0x736F6C6343 STOP ADDMOD GT STOP CALLER "
				},
				"gasEstimates": {
					"creation": {
						"codeDepositCost": "1169600",
						"executionCost": "infinite",
						"totalCost": "infinite"
					},
					"external": {
						"approve(address,uint256)": "infinite",
						"balanceOf(address)": "2700",
						"baseTokenURI()": "infinite",
						"getApproved(uint256)": "4792",
						"isApprovedForAll(address,address)": "infinite",
						"maxSupply()": "2383",
						"mint(address)": "infinite",
						"name()": "infinite",
						"owner()": "2376",
						"ownerOf(uint256)": "2605",
						"renounceOwnership()": "infinite",
						"safeTransferFrom(address,address,uint256)": "infinite",
						"safeTransferFrom(address,address,uint256,bytes)": "infinite",
						"setApprovalForAll(address,bool)": "26772",
						"setTraitCollectible(address)": "26779",
						"supportsInterface(bytes4)": "534",
						"symbol()": "infinite",
						"tokenIds()": "2431",
						"tokenURI(uint256)": "infinite",
						"traitContract()": "2382",
						"transferFrom(address,address,uint256)": "infinite",
						"transferOwnership(address)": "28468"
					},
					"internal": {
						"_baseURI()": "infinite"
					}
				},
				"methodIdentifiers": {
					"approve(address,uint256)": "095ea7b3",
					"balanceOf(address)": "70a08231",
					"baseTokenURI()": "d547cfb7",
					"getApproved(uint256)": "081812fc",
					"isApprovedForAll(address,address)": "e985e9c5",
					"maxSupply()": "d5abeb01",
					"mint(address)": "6a627842",
					"name()": "06fdde03",
					"owner()": "8da5cb5b",
					"ownerOf(uint256)": "6352211e",
					"renounceOwnership()": "715018a6",
					"safeTransferFrom(address,address,uint256)": "42842e0e",
					"safeTransferFrom(address,address,uint256,bytes)": "b88d4fde",
					"setApprovalForAll(address,bool)": "a22cb465",
					"setTraitCollectible(address)": "d2adfd1c",
					"supportsInterface(bytes4)": "01ffc9a7",
					"symbol()": "95d89b41",
					"tokenIds()": "714cff56",
					"tokenURI(uint256)": "c87b56dd",
					"traitContract()": "5601a1da",
					"transferFrom(address,address,uint256)": "23b872dd",
					"transferOwnership(address)": "f2fde38b"
				}
			},
			"storageLayout": {
				"storage": [
					{
						"astId": 192,
						"contract": "contracts/Collectible.sol:Collectible",
						"label": "_name",
						"offset": 0,
						"slot": "0",
						"type": "t_string_storage"
					},
					{
						"astId": 194,
						"contract": "contracts/Collectible.sol:Collectible",
						"label": "_symbol",
						"offset": 0,
						"slot": "1",
						"type": "t_string_storage"
					},
					{
						"astId": 198,
						"contract": "contracts/Collectible.sol:Collectible",
						"label": "_owners",
						"offset": 0,
						"slot": "2",
						"type": "t_mapping(t_uint256,t_address)"
					},
					{
						"astId": 202,
						"contract": "contracts/Collectible.sol:Collectible",
						"label": "_balances",
						"offset": 0,
						"slot": "3",
						"type": "t_mapping(t_address,t_uint256)"
					},
					{
						"astId": 206,
						"contract": "contracts/Collectible.sol:Collectible",
						"label": "_tokenApprovals",
						"offset": 0,
						"slot": "4",
						"type": "t_mapping(t_uint256,t_address)"
					},
					{
						"astId": 212,
						"contract": "contracts/Collectible.sol:Collectible",
						"label": "_operatorApprovals",
						"offset": 0,
						"slot": "5",
						"type": "t_mapping(t_address,t_mapping(t_address,t_bool))"
					},
					{
						"astId": 7,
						"contract": "contracts/Collectible.sol:Collectible",
						"label": "_owner",
						"offset": 0,
						"slot": "6",
						"type": "t_address"
					},
					{
						"astId": 123,
						"contract": "contracts/Collectible.sol:Collectible",
						"label": "_status",
						"offset": 0,
						"slot": "7",
						"type": "t_uint256"
					},
					{
						"astId": 2794,
						"contract": "contracts/Collectible.sol:Collectible",
						"label": "tokenIds",
						"offset": 0,
						"slot": "8",
						"type": "t_struct(Counter)1630_storage"
					},
					{
						"astId": 2797,
						"contract": "contracts/Collectible.sol:Collectible",
						"label": "traitContract",
						"offset": 0,
						"slot": "9",
						"type": "t_contract(ITraitCollectible)2935"
					},
					{
						"astId": 2799,
						"contract": "contracts/Collectible.sol:Collectible",
						"label": "maxSupply",
						"offset": 0,
						"slot": "10",
						"type": "t_uint256"
					},
					{
						"astId": 2801,
						"contract": "contracts/Collectible.sol:Collectible",
						"label": "baseTokenURI",
						"offset": 0,
						"slot": "11",
						"type": "t_string_storage"
					}
				],
				"types": {
					"t_address": {
						"encoding": "inplace",
						"label": "address",
						"numberOfBytes": "20"
					},
					"t_bool": {
						"encoding": "inplace",
						"label": "bool",
						"numberOfBytes": "1"
					},
					"t_contract(ITraitCollectible)2935": {
						"encoding": "inplace",
						"label": "contract ITraitCollectible",
						"numberOfBytes": "20"
					},
					"t_mapping(t_address,t_bool)": {
						"encoding": "mapping",
						"key": "t_address",
						"label": "mapping(address => bool)",
						"numberOfBytes": "32",
						"value": "t_bool"
					},
					"t_mapping(t_address,t_mapping(t_address,t_bool))": {
						"encoding": "mapping",
						"key": "t_address",
						"label": "mapping(address => mapping(address => bool))",
						"numberOfBytes": "32",
						"value": "t_mapping(t_address,t_bool)"
					},
					"t_mapping(t_address,t_uint256)": {
						"encoding": "mapping",
						"key": "t_address",
						"label": "mapping(address => uint256)",
						"numberOfBytes": "32",
						"value": "t_uint256"
					},
					"t_mapping(t_uint256,t_address)": {
						"encoding": "mapping",
						"key": "t_uint256",
						"label": "mapping(uint256 => address)",
						"numberOfBytes": "32",
						"value": "t_address"
					},
					"t_string_storage": {
						"encoding": "bytes",
						"label": "string",
						"numberOfBytes": "32"
					},
					"t_struct(Counter)1630_storage": {
						"encoding": "inplace",
						"label": "struct Counters.Counter",
						"members": [
							{
								"astId": 1629,
								"contract": "contracts/Collectible.sol:Collectible",
								"label": "_value",
								"offset": 0,
								"slot": "0",
								"type": "t_uint256"
							}
						],
						"numberOfBytes": "32"
					},
					"t_uint256": {
						"encoding": "inplace",
						"label": "uint256",
						"numberOfBytes": "32"
					}
				}
			},
			"userdoc": {
				"kind": "user",
				"methods": {},
				"version": 1
			}
		}
	}
}