{
  "_format": "hh-sol-artifact-1",
  "contractName": "ShopNFTGenerator",
  "sourceName": "contracts/ShopNFTGenerator.sol",
  "abi": [
    {
      "inputs": [],
      "stateMutability": "nonpayable",
      "type": "constructor"
    },
    {
      "anonymous": false,
      "inputs": [
        {
          "indexed": true,
          "internalType": "address",
          "name": "contractAddress",
          "type": "address"
        },
        {
          "indexed": true,
          "internalType": "uint256",
          "name": "index",
          "type": "uint256"
        }
      ],
      "name": "NewContractCreated",
      "type": "event"
    },
    {
      "anonymous": false,
      "inputs": [
        {
          "indexed": true,
          "internalType": "address",
          "name": "previousOwner",
          "type": "address"
        },
        {
          "indexed": true,
          "internalType": "address",
          "name": "newOwner",
          "type": "address"
        }
      ],
      "name": "OwnershipTransferred",
      "type": "event"
    },
    {
      "inputs": [
        {
          "internalType": "uint256",
          "name": "",
          "type": "uint256"
        }
      ],
      "name": "contracts",
      "outputs": [
        {
          "internalType": "address",
          "name": "",
          "type": "address"
        }
      ],
      "stateMutability": "view",
      "type": "function"
    },
    {
      "inputs": [
        {
          "internalType": "string",
          "name": "_name",
          "type": "string"
        },
        {
          "internalType": "string",
          "name": "_symbol",
          "type": "string"
        },
        {
          "internalType": "string",
          "name": "_baseTokenURI",
          "type": "string"
        },
        {
          "internalType": "uint256",
          "name": "_maxSupply",
          "type": "uint256"
        }
      ],
      "name": "createContract",
      "outputs": [],
      "stateMutability": "nonpayable",
      "type": "function"
    },
    {
      "inputs": [],
      "name": "index",
      "outputs": [
        {
          "internalType": "uint256",
          "name": "",
          "type": "uint256"
        }
      ],
      "stateMutability": "view",
      "type": "function"
    },
    {
      "inputs": [],
      "name": "owner",
      "outputs": [
        {
          "internalType": "address",
          "name": "",
          "type": "address"
        }
      ],
      "stateMutability": "view",
      "type": "function"
    },
    {
      "inputs": [],
      "name": "randomContract",
      "outputs": [
        {
          "internalType": "contract Random",
          "name": "",
          "type": "address"
        }
      ],
      "stateMutability": "view",
      "type": "function"
    },
    {
      "inputs": [],
      "name": "renounceOwnership",
      "outputs": [],
      "stateMutability": "nonpayable",
      "type": "function"
    },
    {
      "inputs": [
        {
          "internalType": "address",
          "name": "newOwner",
          "type": "address"
        }
      ],
      "name": "transferOwnership",
      "outputs": [],
      "stateMutability": "nonpayable",
      "type": "function"
    }
  ],
  "bytecode": "0x608060405234801561001057600080fd5b5061002d6100226100a360201b60201c565b6100ab60201b60201c565b60006002819055506040516100419061016f565b604051809103906000f08015801561005d573d6000803e3d6000fd5b50600160006101000a81548173ffffffffffffffffffffffffffffffffffffffff021916908373ffffffffffffffffffffffffffffffffffffffff16021790555061017d565b600033905090565b60008060009054906101000a900473ffffffffffffffffffffffffffffffffffffffff169050816000806101000a81548173ffffffffffffffffffffffffffffffffffffffff021916908373ffffffffffffffffffffffffffffffffffffffff1602179055508173ffffffffffffffffffffffffffffffffffffffff168173ffffffffffffffffffffffffffffffffffffffff167f8be0079c531659141344cd1fd0a4f28419497f9722a3daafe3b4186f6b6457e060405160405180910390a35050565b6105358062006fa883390190565b616e1b806200018d6000396000f3fe60806040523480156200001157600080fd5b5060043610620000885760003560e01c80638da5cb5b11620000635780638da5cb5b14620000f15780639270be761462000113578063ccf69e9b1462000133578063f2fde38b14620001555762000088565b80632986c0e5146200008d578063474da79a14620000af578063715018a614620000e5575b600080fd5b6200009762000175565b604051620000a69190620006e0565b60405180910390f35b620000cd6004803603810190620000c7919062000742565b6200017b565b604051620000dc9190620007b9565b60405180910390f35b620000ef620001ae565b005b620000fb620001c6565b6040516200010a9190620007b9565b60405180910390f35b6200013160048036038101906200012b919062000938565b620001ef565b005b6200013d620004a8565b6040516200014c919062000a72565b60405180910390f35b6200017360048036038101906200016d919062000ac0565b620004ce565b005b60025481565b60036020528060005260406000206000915054906101000a900473ffffffffffffffffffffffffffffffffffffffff1681565b620001b862000558565b620001c46000620005dd565b565b60008060009054906101000a900473ffffffffffffffffffffffffffffffffffffffff16905090565b620001f962000558565b6000848484846040516200020d90620006a9565b6200021c949392919062000b7b565b604051809103906000f08015801562000239573d6000803e3d6000fd5b5090506000600160009054906101000a900473ffffffffffffffffffffffffffffffffffffffff16826040516200027090620006b7565b6200027d92919062000c02565b604051809103906000f0801580156200029a573d6000803e3d6000fd5b5090508173ffffffffffffffffffffffffffffffffffffffff1663d2adfd1c826040518263ffffffff1660e01b8152600401620002d89190620007b9565b600060405180830381600087803b158015620002f357600080fd5b505af115801562000308573d6000803e3d6000fd5b505050508173ffffffffffffffffffffffffffffffffffffffff1663f2fde38b336040518263ffffffff1660e01b8152600401620003479190620007b9565b600060405180830381600087803b1580156200036257600080fd5b505af115801562000377573d6000803e3d6000fd5b505050508073ffffffffffffffffffffffffffffffffffffffff1663f2fde38b836040518263ffffffff1660e01b8152600401620003b69190620007b9565b600060405180830381600087803b158015620003d157600080fd5b505af1158015620003e6573d6000803e3d6000fd5b505050508160036000600254815260200190815260200160002060006101000a81548173ffffffffffffffffffffffffffffffffffffffff021916908373ffffffffffffffffffffffffffffffffffffffff1602179055506002548273ffffffffffffffffffffffffffffffffffffffff167f1118269319064b841205f4635dfcac2dda808dedaadedbbdd30d6b0077f3d1ae60405160405180910390a360016002600082825462000499919062000c5e565b92505081905550505050505050565b600160009054906101000a900473ffffffffffffffffffffffffffffffffffffffff1681565b620004d862000558565b600073ffffffffffffffffffffffffffffffffffffffff168173ffffffffffffffffffffffffffffffffffffffff16036200054a576040517f08c379a0000000000000000000000000000000000000000000000000000000008152600401620005419062000d0f565b60405180910390fd5b6200055581620005dd565b50565b62000562620006a1565b73ffffffffffffffffffffffffffffffffffffffff1662000582620001c6565b73ffffffffffffffffffffffffffffffffffffffff1614620005db576040517f08c379a0000000000000000000000000000000000000000000000000000000008152600401620005d29062000d81565b60405180910390fd5b565b60008060009054906101000a900473ffffffffffffffffffffffffffffffffffffffff169050816000806101000a81548173ffffffffffffffffffffffffffffffffffffffff021916908373ffffffffffffffffffffffffffffffffffffffff1602179055508173ffffffffffffffffffffffffffffffffffffffff168173ffffffffffffffffffffffffffffffffffffffff167f8be0079c531659141344cd1fd0a4f28419497f9722a3daafe3b4186f6b6457e060405160405180910390a35050565b600033905090565b61348d8062000da483390190565b612bb5806200423183390190565b6000819050919050565b620006da81620006c5565b82525050565b6000602082019050620006f76000830184620006cf565b92915050565b6000604051905090565b600080fd5b600080fd5b6200071c81620006c5565b81146200072857600080fd5b50565b6000813590506200073c8162000711565b92915050565b6000602082840312156200075b576200075a62000707565b5b60006200076b848285016200072b565b91505092915050565b600073ffffffffffffffffffffffffffffffffffffffff82169050919050565b6000620007a18262000774565b9050919050565b620007b38162000794565b82525050565b6000602082019050620007d06000830184620007a8565b92915050565b600080fd5b600080fd5b6000601f19601f8301169050919050565b7f4e487b7100000000000000000000000000000000000000000000000000000000600052604160045260246000fd5b6200082b82620007e0565b810181811067ffffffffffffffff821117156200084d576200084c620007f1565b5b80604052505050565b600062000862620006fd565b905062000870828262000820565b919050565b600067ffffffffffffffff821115620008935762000892620007f1565b5b6200089e82620007e0565b9050602081019050919050565b82818337600083830152505050565b6000620008d1620008cb8462000875565b62000856565b905082815260208101848484011115620008f057620008ef620007db565b5b620008fd848285620008ab565b509392505050565b600082601f8301126200091d576200091c620007d6565b5b81356200092f848260208601620008ba565b91505092915050565b6000806000806080858703121562000955576200095462000707565b5b600085013567ffffffffffffffff8111156200097657620009756200070c565b5b620009848782880162000905565b945050602085013567ffffffffffffffff811115620009a857620009a76200070c565b5b620009b68782880162000905565b935050604085013567ffffffffffffffff811115620009da57620009d96200070c565b5b620009e88782880162000905565b9250506060620009fb878288016200072b565b91505092959194509250565b6000819050919050565b600062000a3262000a2c62000a268462000774565b62000a07565b62000774565b9050919050565b600062000a468262000a11565b9050919050565b600062000a5a8262000a39565b9050919050565b62000a6c8162000a4d565b82525050565b600060208201905062000a89600083018462000a61565b92915050565b62000a9a8162000794565b811462000aa657600080fd5b50565b60008135905062000aba8162000a8f565b92915050565b60006020828403121562000ad95762000ad862000707565b5b600062000ae98482850162000aa9565b91505092915050565b600081519050919050565b600082825260208201905092915050565b60005b8381101562000b2e57808201518184015260208101905062000b11565b60008484015250505050565b600062000b478262000af2565b62000b53818562000afd565b935062000b6581856020860162000b0e565b62000b7081620007e0565b840191505092915050565b6000608082019050818103600083015262000b97818762000b3a565b9050818103602083015262000bad818662000b3a565b9050818103604083015262000bc3818562000b3a565b905062000bd46060830184620006cf565b95945050505050565b600062000bea8262000a39565b9050919050565b62000bfc8162000bdd565b82525050565b600060408201905062000c19600083018562000a61565b62000c28602083018462000bf1565b9392505050565b7f4e487b7100000000000000000000000000000000000000000000000000000000600052601160045260246000fd5b600062000c6b82620006c5565b915062000c7883620006c5565b925082820190508082111562000c935762000c9262000c2f565b5b92915050565b7f4f776e61626c653a206e6577206f776e657220697320746865207a65726f206160008201527f6464726573730000000000000000000000000000000000000000000000000000602082015250565b600062000cf760268362000afd565b915062000d048262000c99565b604082019050919050565b6000602082019050818103600083015262000d2a8162000ce8565b9050919050565b7f4f776e61626c653a2063616c6c6572206973206e6f7420746865206f776e6572600082015250565b600062000d6960208362000afd565b915062000d768262000d31565b602082019050919050565b6000602082019050818103600083015262000d9c8162000d5a565b905091905056fe60806040523480156200001157600080fd5b506040516200348d3803806200348d833981810160405281019062000037919062000346565b838381600090816200004a919062000656565b5080600190816200005c919062000656565b5050506200007f62000073620000aa60201b60201c565b620000b260201b60201c565b600160078190555080600a8190555081600b90816200009f919062000656565b50505050506200073d565b600033905090565b6000600660009054906101000a900473ffffffffffffffffffffffffffffffffffffffff16905081600660006101000a81548173ffffffffffffffffffffffffffffffffffffffff021916908373ffffffffffffffffffffffffffffffffffffffff1602179055508173ffffffffffffffffffffffffffffffffffffffff168173ffffffffffffffffffffffffffffffffffffffff167f8be0079c531659141344cd1fd0a4f28419497f9722a3daafe3b4186f6b6457e060405160405180910390a35050565b6000604051905090565b600080fd5b600080fd5b600080fd5b600080fd5b6000601f19601f8301169050919050565b7f4e487b7100000000000000000000000000000000000000000000000000000000600052604160045260246000fd5b620001e18262000196565b810181811067ffffffffffffffff82111715620002035762000202620001a7565b5b80604052505050565b60006200021862000178565b9050620002268282620001d6565b919050565b600067ffffffffffffffff821115620002495762000248620001a7565b5b620002548262000196565b9050602081019050919050565b60005b838110156200028157808201518184015260208101905062000264565b60008484015250505050565b6000620002a46200029e846200022b565b6200020c565b905082815260208101848484011115620002c357620002c262000191565b5b620002d084828562000261565b509392505050565b600082601f830112620002f057620002ef6200018c565b5b8151620003028482602086016200028d565b91505092915050565b6000819050919050565b62000320816200030b565b81146200032c57600080fd5b50565b600081519050620003408162000315565b92915050565b6000806000806080858703121562000363576200036262000182565b5b600085015167ffffffffffffffff81111562000384576200038362000187565b5b6200039287828801620002d8565b945050602085015167ffffffffffffffff811115620003b657620003b562000187565b5b620003c487828801620002d8565b935050604085015167ffffffffffffffff811115620003e857620003e762000187565b5b620003f687828801620002d8565b925050606062000409878288016200032f565b91505092959194509250565b600081519050919050565b7f4e487b7100000000000000000000000000000000000000000000000000000000600052602260045260246000fd5b600060028204905060018216806200046857607f821691505b6020821081036200047e576200047d62000420565b5b50919050565b60008190508160005260206000209050919050565b60006020601f8301049050919050565b600082821b905092915050565b600060088302620004e87fffffffffffffffffffffffffffffffffffffffffffffffffffffffffffffffff82620004a9565b620004f48683620004a9565b95508019841693508086168417925050509392505050565b6000819050919050565b600062000537620005316200052b846200030b565b6200050c565b6200030b565b9050919050565b6000819050919050565b620005538362000516565b6200056b62000562826200053e565b848454620004b6565b825550505050565b600090565b6200058262000573565b6200058f81848462000548565b505050565b5b81811015620005b757620005ab60008262000578565b60018101905062000595565b5050565b601f8211156200060657620005d08162000484565b620005db8462000499565b81016020851015620005eb578190505b62000603620005fa8562000499565b83018262000594565b50505b505050565b600082821c905092915050565b60006200062b600019846008026200060b565b1980831691505092915050565b600062000646838362000618565b9150826002028217905092915050565b620006618262000415565b67ffffffffffffffff8111156200067d576200067c620001a7565b5b6200068982546200044f565b62000696828285620005bb565b600060209050601f831160018114620006ce5760008415620006b9578287015190505b620006c5858262000638565b86555062000735565b601f198416620006de8662000484565b60005b828110156200070857848901518255600182019150602085019450602081019050620006e1565b8683101562000728578489015162000724601f89168262000618565b8355505b6001600288020188555050505b505050505050565b612d40806200074d6000396000f3fe608060405234801561001057600080fd5b50600436106101425760003560e01c8063715018a6116100b8578063c87b56dd1161007c578063c87b56dd1461034f578063d2adfd1c1461037f578063d547cfb71461039b578063d5abeb01146103b9578063e985e9c5146103d7578063f2fde38b1461040757610142565b8063715018a6146102d15780638da5cb5b146102db57806395d89b41146102f9578063a22cb46514610317578063b88d4fde1461033357610142565b806342842e0e1161010a57806342842e0e146101fd5780635601a1da146102195780636352211e146102375780636a6278421461026757806370a0823114610283578063714cff56146102b357610142565b806301ffc9a71461014757806306fdde0314610177578063081812fc14610195578063095ea7b3146101c557806323b872dd146101e1575b600080fd5b610161600480360381019061015c9190611cd1565b610423565b60405161016e9190611d19565b60405180910390f35b61017f610505565b60405161018c9190611dc4565b60405180910390f35b6101af60048036038101906101aa9190611e1c565b610597565b6040516101bc9190611e8a565b60405180910390f35b6101df60048036038101906101da9190611ed1565b6105dd565b005b6101fb60048036038101906101f69190611f11565b6106f4565b005b61021760048036038101906102129190611f11565b610754565b005b610221610774565b60405161022e9190611fc3565b60405180910390f35b610251600480360381019061024c9190611e1c565b61079a565b60405161025e9190611e8a565b60405180910390f35b610281600480360381019061027c9190611fde565b610820565b005b61029d60048036038101906102989190611fde565b610942565b6040516102aa919061201a565b60405180910390f35b6102bb6109f9565b6040516102c8919061201a565b60405180910390f35b6102d9610a05565b005b6102e3610a19565b6040516102f09190611e8a565b60405180910390f35b610301610a43565b60405161030e9190611dc4565b60405180910390f35b610331600480360381019061032c9190612061565b610ad5565b005b61034d600480360381019061034891906121d6565b610aeb565b005b61036960048036038101906103649190611e1c565b610b4d565b6040516103769190611dc4565b60405180910390f35b61039960048036038101906103949190611fde565b610bf7565b005b6103a3610c43565b6040516103b09190611dc4565b60405180910390f35b6103c1610cd1565b6040516103ce919061201a565b60405180910390f35b6103f160048036038101906103ec9190612259565b610cd7565b6040516103fe9190611d19565b60405180910390f35b610421600480360381019061041c9190611fde565b610d6b565b005b60007f80ac58cd000000000000000000000000000000000000000000000000000000007bffffffffffffffffffffffffffffffffffffffffffffffffffffffff1916827bffffffffffffffffffffffffffffffffffffffffffffffffffffffff191614806104ee57507f5b5e139f000000000000000000000000000000000000000000000000000000007bffffffffffffffffffffffffffffffffffffffffffffffffffffffff1916827bffffffffffffffffffffffffffffffffffffffffffffffffffffffff1916145b806104fe57506104fd82610dee565b5b9050919050565b606060008054610514906122c8565b80601f0160208091040260200160405190810160405280929190818152602001828054610540906122c8565b801561058d5780601f106105625761010080835404028352916020019161058d565b820191906000526020600020905b81548152906001019060200180831161057057829003601f168201915b5050505050905090565b60006105a282610e58565b6004600083815260200190815260200160002060009054906101000a900473ffffffffffffffffffffffffffffffffffffffff169050919050565b60006105e88261079a565b90508073ffffffffffffffffffffffffffffffffffffffff168373ffffffffffffffffffffffffffffffffffffffff1603610658576040517f08c379a000000000000000000000000000000000000000000000000000000000815260040161064f9061236b565b60405180910390fd5b8073ffffffffffffffffffffffffffffffffffffffff16610677610ea3565b73ffffffffffffffffffffffffffffffffffffffff1614806106a657506106a5816106a0610ea3565b610cd7565b5b6106e5576040517f08c379a00000000000000000000000000000000000000000000000000000000081526004016106dc906123fd565b60405180910390fd5b6106ef8383610eab565b505050565b6107056106ff610ea3565b82610f64565b610744576040517f08c379a000000000000000000000000000000000000000000000000000000000815260040161073b9061248f565b60405180910390fd5b61074f838383610ff9565b505050565b61076f83838360405180602001604052806000815250610aeb565b505050565b600960009054906101000a900473ffffffffffffffffffffffffffffffffffffffff1681565b6000806107a6836112f2565b9050600073ffffffffffffffffffffffffffffffffffffffff168173ffffffffffffffffffffffffffffffffffffffff1603610817576040517f08c379a000000000000000000000000000000000000000000000000000000000815260040161080e906124fb565b60405180910390fd5b80915050919050565b61082861132f565b600a54610835600861137e565b10610875576040517f08c379a000000000000000000000000000000000000000000000000000000000815260040161086c90612567565b60405180910390fd5b61087f600861138c565b600061088b600861137e565b905061089782826113a2565b600960009054906101000a900473ffffffffffffffffffffffffffffffffffffffff1673ffffffffffffffffffffffffffffffffffffffff1663c333f0456108df600861137e565b6108e7610ea3565b6040518363ffffffff1660e01b8152600401610904929190612587565b600060405180830381600087803b15801561091e57600080fd5b505af1158015610932573d6000803e3d6000fd5b505050505061093f6113c0565b50565b60008073ffffffffffffffffffffffffffffffffffffffff168273ffffffffffffffffffffffffffffffffffffffff16036109b2576040517f08c379a00000000000000000000000000000000000000000000000000000000081526004016109a990612622565b60405180910390fd5b600360008373ffffffffffffffffffffffffffffffffffffffff1673ffffffffffffffffffffffffffffffffffffffff168152602001908152602001600020549050919050565b60088060000154905081565b610a0d6113ca565b610a176000611448565b565b6000600660009054906101000a900473ffffffffffffffffffffffffffffffffffffffff16905090565b606060018054610a52906122c8565b80601f0160208091040260200160405190810160405280929190818152602001828054610a7e906122c8565b8015610acb5780601f10610aa057610100808354040283529160200191610acb565b820191906000526020600020905b815481529060010190602001808311610aae57829003601f168201915b5050505050905090565b610ae7610ae0610ea3565b838361150e565b5050565b610afc610af6610ea3565b83610f64565b610b3b576040517f08c379a0000000000000000000000000000000000000000000000000000000008152600401610b329061248f565b60405180910390fd5b610b478484848461167a565b50505050565b6060600960009054906101000a900473ffffffffffffffffffffffffffffffffffffffff1673ffffffffffffffffffffffffffffffffffffffff1663c87b56dd836040518263ffffffff1660e01b8152600401610baa919061201a565b600060405180830381865afa158015610bc7573d6000803e3d6000fd5b505050506040513d6000823e3d601f19601f82011682018060405250810190610bf091906126e3565b9050919050565b610bff6113ca565b80600960006101000a81548173ffffffffffffffffffffffffffffffffffffffff021916908373ffffffffffffffffffffffffffffffffffffffff16021790555050565b600b8054610c50906122c8565b80601f0160208091040260200160405190810160405280929190818152602001828054610c7c906122c8565b8015610cc95780601f10610c9e57610100808354040283529160200191610cc9565b820191906000526020600020905b815481529060010190602001808311610cac57829003601f168201915b505050505081565b600a5481565b6000600560008473ffffffffffffffffffffffffffffffffffffffff1673ffffffffffffffffffffffffffffffffffffffff16815260200190815260200160002060008373ffffffffffffffffffffffffffffffffffffffff1673ffffffffffffffffffffffffffffffffffffffff16815260200190815260200160002060009054906101000a900460ff16905092915050565b610d736113ca565b600073ffffffffffffffffffffffffffffffffffffffff168173ffffffffffffffffffffffffffffffffffffffff1603610de2576040517f08c379a0000000000000000000000000000000000000000000000000000000008152600401610dd99061279e565b60405180910390fd5b610deb81611448565b50565b60007f01ffc9a7000000000000000000000000000000000000000000000000000000007bffffffffffffffffffffffffffffffffffffffffffffffffffffffff1916827bffffffffffffffffffffffffffffffffffffffffffffffffffffffff1916149050919050565b610e61816116d6565b610ea0576040517f08c379a0000000000000000000000000000000000000000000000000000000008152600401610e97906124fb565b60405180910390fd5b50565b600033905090565b816004600083815260200190815260200160002060006101000a81548173ffffffffffffffffffffffffffffffffffffffff021916908373ffffffffffffffffffffffffffffffffffffffff160217905550808273ffffffffffffffffffffffffffffffffffffffff16610f1e8361079a565b73ffffffffffffffffffffffffffffffffffffffff167f8c5be1e5ebec7d5bd14f71427d1e84f3dd0314c0f7b2291e5b200ac8c7c3b92560405160405180910390a45050565b600080610f708361079a565b90508073ffffffffffffffffffffffffffffffffffffffff168473ffffffffffffffffffffffffffffffffffffffff161480610fb25750610fb18185610cd7565b5b80610ff057508373ffffffffffffffffffffffffffffffffffffffff16610fd884610597565b73ffffffffffffffffffffffffffffffffffffffff16145b91505092915050565b8273ffffffffffffffffffffffffffffffffffffffff166110198261079a565b73ffffffffffffffffffffffffffffffffffffffff161461106f576040517f08c379a000000000000000000000000000000000000000000000000000000000815260040161106690612830565b60405180910390fd5b600073ffffffffffffffffffffffffffffffffffffffff168273ffffffffffffffffffffffffffffffffffffffff16036110de576040517f08c379a00000000000000000000000000000000000000000000000000000000081526004016110d5906128c2565b60405180910390fd5b6110eb8383836001611717565b8273ffffffffffffffffffffffffffffffffffffffff1661110b8261079a565b73ffffffffffffffffffffffffffffffffffffffff1614611161576040517f08c379a000000000000000000000000000000000000000000000000000000000815260040161115890612830565b60405180910390fd5b6004600082815260200190815260200160002060006101000a81549073ffffffffffffffffffffffffffffffffffffffff02191690556001600360008573ffffffffffffffffffffffffffffffffffffffff1673ffffffffffffffffffffffffffffffffffffffff168152602001908152602001600020600082825403925050819055506001600360008473ffffffffffffffffffffffffffffffffffffffff1673ffffffffffffffffffffffffffffffffffffffff16815260200190815260200160002060008282540192505081905550816002600083815260200190815260200160002060006101000a81548173ffffffffffffffffffffffffffffffffffffffff021916908373ffffffffffffffffffffffffffffffffffffffff160217905550808273ffffffffffffffffffffffffffffffffffffffff168473ffffffffffffffffffffffffffffffffffffffff167fddf252ad1be2c89b69c2b068fc378daa952ba7f163c4a11628f55a4df523b3ef60405160405180910390a46112ed838383600161183d565b505050565b60006002600083815260200190815260200160002060009054906101000a900473ffffffffffffffffffffffffffffffffffffffff169050919050565b600260075403611374576040517f08c379a000000000000000000000000000000000000000000000000000000000815260040161136b9061292e565b60405180910390fd5b6002600781905550565b600081600001549050919050565b6001816000016000828254019250508190555050565b6113bc828260405180602001604052806000815250611843565b5050565b6001600781905550565b6113d2610ea3565b73ffffffffffffffffffffffffffffffffffffffff166113f0610a19565b73ffffffffffffffffffffffffffffffffffffffff1614611446576040517f08c379a000000000000000000000000000000000000000000000000000000000815260040161143d9061299a565b60405180910390fd5b565b6000600660009054906101000a900473ffffffffffffffffffffffffffffffffffffffff16905081600660006101000a81548173ffffffffffffffffffffffffffffffffffffffff021916908373ffffffffffffffffffffffffffffffffffffffff1602179055508173ffffffffffffffffffffffffffffffffffffffff168173ffffffffffffffffffffffffffffffffffffffff167f8be0079c531659141344cd1fd0a4f28419497f9722a3daafe3b4186f6b6457e060405160405180910390a35050565b8173ffffffffffffffffffffffffffffffffffffffff168373ffffffffffffffffffffffffffffffffffffffff160361157c576040517f08c379a000000000000000000000000000000000000000000000000000000000815260040161157390612a06565b60405180910390fd5b80600560008573ffffffffffffffffffffffffffffffffffffffff1673ffffffffffffffffffffffffffffffffffffffff16815260200190815260200160002060008473ffffffffffffffffffffffffffffffffffffffff1673ffffffffffffffffffffffffffffffffffffffff16815260200190815260200160002060006101000a81548160ff0219169083151502179055508173ffffffffffffffffffffffffffffffffffffffff168373ffffffffffffffffffffffffffffffffffffffff167f17307eab39ab6107e8899845ad3d59bd9653f200f220920489ca2b5937696c318360405161166d9190611d19565b60405180910390a3505050565b611685848484610ff9565b6116918484848461189e565b6116d0576040517f08c379a00000000000000000000000000000000000000000000000000000000081526004016116c790612a98565b60405180910390fd5b50505050565b60008073ffffffffffffffffffffffffffffffffffffffff166116f8836112f2565b73ffffffffffffffffffffffffffffffffffffffff1614159050919050565b600181111561183757600073ffffffffffffffffffffffffffffffffffffffff168473ffffffffffffffffffffffffffffffffffffffff16146117ab5780600360008673ffffffffffffffffffffffffffffffffffffffff1673ffffffffffffffffffffffffffffffffffffffff16815260200190815260200160002060008282546117a39190612ae7565b925050819055505b600073ffffffffffffffffffffffffffffffffffffffff168373ffffffffffffffffffffffffffffffffffffffff16146118365780600360008573ffffffffffffffffffffffffffffffffffffffff1673ffffffffffffffffffffffffffffffffffffffff168152602001908152602001600020600082825461182e9190612b1b565b925050819055505b5b50505050565b50505050565b61184d8383611a25565b61185a600084848461189e565b611899576040517f08c379a000000000000000000000000000000000000000000000000000000000815260040161189090612a98565b60405180910390fd5b505050565b60006118bf8473ffffffffffffffffffffffffffffffffffffffff16611c42565b15611a18578373ffffffffffffffffffffffffffffffffffffffff1663150b7a026118e8610ea3565b8786866040518563ffffffff1660e01b815260040161190a9493929190612ba4565b6020604051808303816000875af192505050801561194657506040513d601f19601f820116820180604052508101906119439190612c05565b60015b6119c8573d8060008114611976576040519150601f19603f3d011682016040523d82523d6000602084013e61197b565b606091505b5060008151036119c0576040517f08c379a00000000000000000000000000000000000000000000000000000000081526004016119b790612a98565b60405180910390fd5b805181602001fd5b63150b7a0260e01b7bffffffffffffffffffffffffffffffffffffffffffffffffffffffff1916817bffffffffffffffffffffffffffffffffffffffffffffffffffffffff191614915050611a1d565b600190505b949350505050565b600073ffffffffffffffffffffffffffffffffffffffff168273ffffffffffffffffffffffffffffffffffffffff1603611a94576040517f08c379a0000000000000000000000000000000000000000000000000000000008152600401611a8b90612c7e565b60405180910390fd5b611a9d816116d6565b15611add576040517f08c379a0000000000000000000000000000000000000000000000000000000008152600401611ad490612cea565b60405180910390fd5b611aeb600083836001611717565b611af4816116d6565b15611b34576040517f08c379a0000000000000000000000000000000000000000000000000000000008152600401611b2b90612cea565b60405180910390fd5b6001600360008473ffffffffffffffffffffffffffffffffffffffff1673ffffffffffffffffffffffffffffffffffffffff16815260200190815260200160002060008282540192505081905550816002600083815260200190815260200160002060006101000a81548173ffffffffffffffffffffffffffffffffffffffff021916908373ffffffffffffffffffffffffffffffffffffffff160217905550808273ffffffffffffffffffffffffffffffffffffffff16600073ffffffffffffffffffffffffffffffffffffffff167fddf252ad1be2c89b69c2b068fc378daa952ba7f163c4a11628f55a4df523b3ef60405160405180910390a4611c3e60008383600161183d565b5050565b6000808273ffffffffffffffffffffffffffffffffffffffff163b119050919050565b6000604051905090565b600080fd5b600080fd5b60007fffffffff0000000000000000000000000000000000000000000000000000000082169050919050565b611cae81611c79565b8114611cb957600080fd5b50565b600081359050611ccb81611ca5565b92915050565b600060208284031215611ce757611ce6611c6f565b5b6000611cf584828501611cbc565b91505092915050565b60008115159050919050565b611d1381611cfe565b82525050565b6000602082019050611d2e6000830184611d0a565b92915050565b600081519050919050565b600082825260208201905092915050565b60005b83811015611d6e578082015181840152602081019050611d53565b60008484015250505050565b6000601f19601f8301169050919050565b6000611d9682611d34565b611da08185611d3f565b9350611db0818560208601611d50565b611db981611d7a565b840191505092915050565b60006020820190508181036000830152611dde8184611d8b565b905092915050565b6000819050919050565b611df981611de6565b8114611e0457600080fd5b50565b600081359050611e1681611df0565b92915050565b600060208284031215611e3257611e31611c6f565b5b6000611e4084828501611e07565b91505092915050565b600073ffffffffffffffffffffffffffffffffffffffff82169050919050565b6000611e7482611e49565b9050919050565b611e8481611e69565b82525050565b6000602082019050611e9f6000830184611e7b565b92915050565b611eae81611e69565b8114611eb957600080fd5b50565b600081359050611ecb81611ea5565b92915050565b60008060408385031215611ee857611ee7611c6f565b5b6000611ef685828601611ebc565b9250506020611f0785828601611e07565b9150509250929050565b600080600060608486031215611f2a57611f29611c6f565b5b6000611f3886828701611ebc565b9350506020611f4986828701611ebc565b9250506040611f5a86828701611e07565b9150509250925092565b6000819050919050565b6000611f89611f84611f7f84611e49565b611f64565b611e49565b9050919050565b6000611f9b82611f6e565b9050919050565b6000611fad82611f90565b9050919050565b611fbd81611fa2565b82525050565b6000602082019050611fd86000830184611fb4565b92915050565b600060208284031215611ff457611ff3611c6f565b5b600061200284828501611ebc565b91505092915050565b61201481611de6565b82525050565b600060208201905061202f600083018461200b565b92915050565b61203e81611cfe565b811461204957600080fd5b50565b60008135905061205b81612035565b92915050565b6000806040838503121561207857612077611c6f565b5b600061208685828601611ebc565b92505060206120978582860161204c565b9150509250929050565b600080fd5b600080fd5b7f4e487b7100000000000000000000000000000000000000000000000000000000600052604160045260246000fd5b6120e382611d7a565b810181811067ffffffffffffffff82111715612102576121016120ab565b5b80604052505050565b6000612115611c65565b905061212182826120da565b919050565b600067ffffffffffffffff821115612141576121406120ab565b5b61214a82611d7a565b9050602081019050919050565b82818337600083830152505050565b600061217961217484612126565b61210b565b905082815260208101848484011115612195576121946120a6565b5b6121a0848285612157565b509392505050565b600082601f8301126121bd576121bc6120a1565b5b81356121cd848260208601612166565b91505092915050565b600080600080608085870312156121f0576121ef611c6f565b5b60006121fe87828801611ebc565b945050602061220f87828801611ebc565b935050604061222087828801611e07565b925050606085013567ffffffffffffffff81111561224157612240611c74565b5b61224d878288016121a8565b91505092959194509250565b600080604083850312156122705761226f611c6f565b5b600061227e85828601611ebc565b925050602061228f85828601611ebc565b9150509250929050565b7f4e487b7100000000000000000000000000000000000000000000000000000000600052602260045260246000fd5b600060028204905060018216806122e057607f821691505b6020821081036122f3576122f2612299565b5b50919050565b7f4552433732313a20617070726f76616c20746f2063757272656e74206f776e6560008201527f7200000000000000000000000000000000000000000000000000000000000000602082015250565b6000612355602183611d3f565b9150612360826122f9565b604082019050919050565b6000602082019050818103600083015261238481612348565b9050919050565b7f4552433732313a20617070726f76652063616c6c6572206973206e6f7420746f60008201527f6b656e206f776e6572206f7220617070726f76656420666f7220616c6c000000602082015250565b60006123e7603d83611d3f565b91506123f28261238b565b604082019050919050565b60006020820190508181036000830152612416816123da565b9050919050565b7f4552433732313a2063616c6c6572206973206e6f7420746f6b656e206f776e6560008201527f72206f7220617070726f76656400000000000000000000000000000000000000602082015250565b6000612479602d83611d3f565b91506124848261241d565b604082019050919050565b600060208201905081810360008301526124a88161246c565b9050919050565b7f4552433732313a20696e76616c696420746f6b656e2049440000000000000000600082015250565b60006124e5601883611d3f565b91506124f0826124af565b602082019050919050565b60006020820190508181036000830152612514816124d8565b9050919050565b7f4d6178696d756d20737570706c7920686173206265656e207265616368656400600082015250565b6000612551601f83611d3f565b915061255c8261251b565b602082019050919050565b6000602082019050818103600083015261258081612544565b9050919050565b600060408201905061259c600083018561200b565b6125a96020830184611e7b565b9392505050565b7f4552433732313a2061646472657373207a65726f206973206e6f74206120766160008201527f6c6964206f776e65720000000000000000000000000000000000000000000000602082015250565b600061260c602983611d3f565b9150612617826125b0565b604082019050919050565b6000602082019050818103600083015261263b816125ff565b9050919050565b600067ffffffffffffffff82111561265d5761265c6120ab565b5b61266682611d7a565b9050602081019050919050565b600061268661268184612642565b61210b565b9050828152602081018484840111156126a2576126a16120a6565b5b6126ad848285611d50565b509392505050565b600082601f8301126126ca576126c96120a1565b5b81516126da848260208601612673565b91505092915050565b6000602082840312156126f9576126f8611c6f565b5b600082015167ffffffffffffffff81111561271757612716611c74565b5b612723848285016126b5565b91505092915050565b7f4f776e61626c653a206e6577206f776e657220697320746865207a65726f206160008201527f6464726573730000000000000000000000000000000000000000000000000000602082015250565b6000612788602683611d3f565b91506127938261272c565b604082019050919050565b600060208201905081810360008301526127b78161277b565b9050919050565b7f4552433732313a207472616e736665722066726f6d20696e636f72726563742060008201527f6f776e6572000000000000000000000000000000000000000000000000000000602082015250565b600061281a602583611d3f565b9150612825826127be565b604082019050919050565b600060208201905081810360008301526128498161280d565b9050919050565b7f4552433732313a207472616e7366657220746f20746865207a65726f2061646460008201527f7265737300000000000000000000000000000000000000000000000000000000602082015250565b60006128ac602483611d3f565b91506128b782612850565b604082019050919050565b600060208201905081810360008301526128db8161289f565b9050919050565b7f5265656e7472616e637947756172643a207265656e7472616e742063616c6c00600082015250565b6000612918601f83611d3f565b9150612923826128e2565b602082019050919050565b600060208201905081810360008301526129478161290b565b9050919050565b7f4f776e61626c653a2063616c6c6572206973206e6f7420746865206f776e6572600082015250565b6000612984602083611d3f565b915061298f8261294e565b602082019050919050565b600060208201905081810360008301526129b381612977565b9050919050565b7f4552433732313a20617070726f766520746f2063616c6c657200000000000000600082015250565b60006129f0601983611d3f565b91506129fb826129ba565b602082019050919050565b60006020820190508181036000830152612a1f816129e3565b9050919050565b7f4552433732313a207472616e7366657220746f206e6f6e20455243373231526560008201527f63656976657220696d706c656d656e7465720000000000000000000000000000602082015250565b6000612a82603283611d3f565b9150612a8d82612a26565b604082019050919050565b60006020820190508181036000830152612ab181612a75565b9050919050565b7f4e487b7100000000000000000000000000000000000000000000000000000000600052601160045260246000fd5b6000612af282611de6565b9150612afd83611de6565b9250828203905081811115612b1557612b14612ab8565b5b92915050565b6000612b2682611de6565b9150612b3183611de6565b9250828201905080821115612b4957612b48612ab8565b5b92915050565b600081519050919050565b600082825260208201905092915050565b6000612b7682612b4f565b612b808185612b5a565b9350612b90818560208601611d50565b612b9981611d7a565b840191505092915050565b6000608082019050612bb96000830187611e7b565b612bc66020830186611e7b565b612bd3604083018561200b565b8181036060830152612be58184612b6b565b905095945050505050565b600081519050612bff81611ca5565b92915050565b600060208284031215612c1b57612c1a611c6f565b5b6000612c2984828501612bf0565b91505092915050565b7f4552433732313a206d696e7420746f20746865207a65726f2061646472657373600082015250565b6000612c68602083611d3f565b9150612c7382612c32565b602082019050919050565b60006020820190508181036000830152612c9781612c5b565b9050919050565b7f4552433732313a20746f6b656e20616c7265616479206d696e74656400000000600082015250565b6000612cd4601c83611d3f565b9150612cdf82612c9e565b602082019050919050565b60006020820190508181036000830152612d0381612cc7565b905091905056fea264697066735822122024675d1ed7ae773c416cb53d7680e15db6584917ac0418857f113bae4512715464736f6c6343000811003360806040523480156200001157600080fd5b5060405162002bb538038062002bb58339818101604052810190620000379190620003d3565b620000576200004b6200023560201b60201c565b6200023d60201b60201c565b81600160006101000a81548173ffffffffffffffffffffffffffffffffffffffff021916908373ffffffffffffffffffffffffffffffffffffffff16021790555080600260006101000a81548173ffffffffffffffffffffffffffffffffffffffff021916908373ffffffffffffffffffffffffffffffffffffffff160217905550600260009054906101000a900473ffffffffffffffffffffffffffffffffffffffff1673ffffffffffffffffffffffffffffffffffffffff166306fdde036040518163ffffffff1660e01b8152600401600060405180830381865afa15801562000147573d6000803e3d6000fd5b505050506040513d6000823e3d601f19601f8201168201806040525081019062000172919062000599565b6004908162000182919062000835565b50600260009054906101000a900473ffffffffffffffffffffffffffffffffffffffff1673ffffffffffffffffffffffffffffffffffffffff1663d547cfb76040518163ffffffff1660e01b8152600401600060405180830381865afa158015620001f1573d6000803e3d6000fd5b505050506040513d6000823e3d601f19601f820116820180604052508101906200021c919062000599565b600390816200022c919062000835565b5050506200091c565b600033905090565b60008060009054906101000a900473ffffffffffffffffffffffffffffffffffffffff169050816000806101000a81548173ffffffffffffffffffffffffffffffffffffffff021916908373ffffffffffffffffffffffffffffffffffffffff1602179055508173ffffffffffffffffffffffffffffffffffffffff168173ffffffffffffffffffffffffffffffffffffffff167f8be0079c531659141344cd1fd0a4f28419497f9722a3daafe3b4186f6b6457e060405160405180910390a35050565b6000604051905090565b600080fd5b600080fd5b600073ffffffffffffffffffffffffffffffffffffffff82169050919050565b6000620003428262000315565b9050919050565b6000620003568262000335565b9050919050565b620003688162000349565b81146200037457600080fd5b50565b60008151905062000388816200035d565b92915050565b60006200039b8262000335565b9050919050565b620003ad816200038e565b8114620003b957600080fd5b50565b600081519050620003cd81620003a2565b92915050565b60008060408385031215620003ed57620003ec6200030b565b5b6000620003fd8582860162000377565b92505060206200041085828601620003bc565b9150509250929050565b600080fd5b600080fd5b6000601f19601f8301169050919050565b7f4e487b7100000000000000000000000000000000000000000000000000000000600052604160045260246000fd5b6200046f8262000424565b810181811067ffffffffffffffff8211171562000491576200049062000435565b5b80604052505050565b6000620004a662000301565b9050620004b4828262000464565b919050565b600067ffffffffffffffff821115620004d757620004d662000435565b5b620004e28262000424565b9050602081019050919050565b60005b838110156200050f578082015181840152602081019050620004f2565b60008484015250505050565b6000620005326200052c84620004b9565b6200049a565b9050828152602081018484840111156200055157620005506200041f565b5b6200055e848285620004ef565b509392505050565b600082601f8301126200057e576200057d6200041a565b5b8151620005908482602086016200051b565b91505092915050565b600060208284031215620005b257620005b16200030b565b5b600082015167ffffffffffffffff811115620005d357620005d262000310565b5b620005e18482850162000566565b91505092915050565b600081519050919050565b7f4e487b7100000000000000000000000000000000000000000000000000000000600052602260045260246000fd5b600060028204905060018216806200063d57607f821691505b602082108103620006535762000652620005f5565b5b50919050565b60008190508160005260206000209050919050565b60006020601f8301049050919050565b600082821b905092915050565b600060088302620006bd7fffffffffffffffffffffffffffffffffffffffffffffffffffffffffffffffff826200067e565b620006c986836200067e565b95508019841693508086168417925050509392505050565b6000819050919050565b6000819050919050565b600062000716620007106200070a84620006e1565b620006eb565b620006e1565b9050919050565b6000819050919050565b6200073283620006f5565b6200074a62000741826200071d565b8484546200068b565b825550505050565b600090565b6200076162000752565b6200076e81848462000727565b505050565b5b8181101562000796576200078a60008262000757565b60018101905062000774565b5050565b601f821115620007e557620007af8162000659565b620007ba846200066e565b81016020851015620007ca578190505b620007e2620007d9856200066e565b83018262000773565b50505b505050565b600082821c905092915050565b60006200080a60001984600802620007ea565b1980831691505092915050565b6000620008258383620007f7565b9150826002028217905092915050565b6200084082620005ea565b67ffffffffffffffff8111156200085c576200085b62000435565b5b62000868825462000624565b620008758282856200079a565b600060209050601f831160018114620008ad576000841562000898578287015190505b620008a4858262000817565b86555062000914565b601f198416620008bd8662000659565b60005b82811015620008e757848901518255600182019150602085019450602081019050620008c0565b8683101562000907578489015162000903601f891682620007f7565b8355505b6001600288020188555050505b505050505050565b612289806200092c6000396000f3fe608060405234801561001057600080fd5b50600436106100b45760003560e01c80638da5cb5b116100715780638da5cb5b1461018b578063a574cea4146101a9578063c333f045146101d9578063c87b56dd146101f5578063d547cfb714610225578063f2fde38b14610243576100b4565b806302fe5305146100b95780632d72225b146100d5578063429b62e5146101055780634b0bddd21461013557806368dba5e514610151578063715018a614610181575b600080fd5b6100d360048036038101906100ce9190611058565b61025f565b005b6100ef60048036038101906100ea91906110d7565b61027a565b6040516100fc9190611113565b60405180910390f35b61011f600480360381019061011a919061118c565b610298565b60405161012c91906111d4565b60405180910390f35b61014f600480360381019061014a919061121b565b6102b8565b005b61016b600480360381019061016691906110d7565b6103dc565b60405161017891906112da565b60405180910390f35b610189610485565b005b610193610499565b6040516101a0919061130b565b60405180910390f35b6101c360048036038101906101be91906110d7565b6104c2565b6040516101d09190611351565b60405180910390f35b6101f360048036038101906101ee919061136c565b6104f9565b005b61020f600480360381019061020a91906110d7565b610698565b60405161021c91906112da565b60405180910390f35b61022d610777565b60405161023a91906112da565b60405180910390f35b61025d6004803603810190610258919061118c565b610805565b005b610267610888565b806003908161027691906115b8565b5050565b60056020528060005260406000206000915090508060000154905081565b60066020528060005260406000206000915054906101000a900460ff1681565b600660003373ffffffffffffffffffffffffffffffffffffffff1673ffffffffffffffffffffffffffffffffffffffff16815260200190815260200160002060009054906101000a900460ff16806103425750610313610499565b73ffffffffffffffffffffffffffffffffffffffff163373ffffffffffffffffffffffffffffffffffffffff16145b610381576040517f08c379a0000000000000000000000000000000000000000000000000000000008152600401610378906116d6565b60405180910390fd5b80600660008473ffffffffffffffffffffffffffffffffffffffff1673ffffffffffffffffffffffffffffffffffffffff16815260200190815260200160002060006101000a81548160ff0219169083151502179055505050565b60608061043c6040518060400160405280600a81526020017f4d696e74207072696365000000000000000000000000000000000000000000008152506104376005600087815260200190815260200160002060000154610906565b610a66565b60405160200161044c9190611732565b60405160208183030381529060405290508060405160200161046e91906117e1565b604051602081830303815290604052915050919050565b61048d610888565b6104976000610a92565b565b60008060009054906101000a900473ffffffffffffffffffffffffffffffffffffffff16905090565b6104ca610eeb565b600560008381526020019081526020016000206040518060200160405290816000820154815250509050919050565b600660003373ffffffffffffffffffffffffffffffffffffffff1673ffffffffffffffffffffffffffffffffffffffff16815260200190815260200160002060009054906101000a900460ff16806105835750610554610499565b73ffffffffffffffffffffffffffffffffffffffff163373ffffffffffffffffffffffffffffffffffffffff16145b6105c2576040517f08c379a00000000000000000000000000000000000000000000000000000000081526004016105b9906116d6565b60405180910390fd5b6000600160009054906101000a900473ffffffffffffffffffffffffffffffffffffffff1673ffffffffffffffffffffffffffffffffffffffff166368a0a80483856040518363ffffffff1660e01b815260040161062192919061180e565b602060405180830381865afa15801561063e573d6000803e3d6000fd5b505050506040513d601f19601f82011682018060405250810190610662919061184c565b90506040518060200160405280828152506005600085815260200190815260200160002060008201518160000155905050505050565b60606000600560008481526020019081526020016000206040518060200160405290816000820154815250509050600060046106d385610906565b6003610700600260009054906101000a900473ffffffffffffffffffffffffffffffffffffffff16610b56565b61070988610906565b6107168760000151610906565b61071f8a6103dc565b6040516020016107359796959493929190611a9e565b604051602081830303815290604052905061074f81610d19565b60405160200161075f9190611b86565b60405160208183030381529060405292505050919050565b60038054610784906113db565b80601f01602080910402602001604051908101604052809291908181526020018280546107b0906113db565b80156107fd5780601f106107d2576101008083540402835291602001916107fd565b820191906000526020600020905b8154815290600101906020018083116107e057829003601f168201915b505050505081565b61080d610888565b600073ffffffffffffffffffffffffffffffffffffffff168173ffffffffffffffffffffffffffffffffffffffff160361087c576040517f08c379a000000000000000000000000000000000000000000000000000000000815260040161087390611c1a565b60405180910390fd5b61088581610a92565b50565b610890610e9d565b73ffffffffffffffffffffffffffffffffffffffff166108ae610499565b73ffffffffffffffffffffffffffffffffffffffff1614610904576040517f08c379a00000000000000000000000000000000000000000000000000000000081526004016108fb90611c86565b60405180910390fd5b565b60606000820361094d576040518060400160405280600181526020017f30000000000000000000000000000000000000000000000000000000000000008152509050610a61565b600082905060005b6000821461097f57808061096890611cd5565b915050600a826109789190611d4c565b9150610955565b60008167ffffffffffffffff81111561099b5761099a610f2d565b5b6040519080825280601f01601f1916602001820160405280156109cd5781602001600182028036833780820191505090505b5090505b60008514610a5a576001826109e69190611d7d565b9150600a856109f59190611db1565b6030610a019190611de2565b60f81b818381518110610a1757610a16611e16565b5b60200101907effffffffffffffffffffffffffffffffffffffffffffffffffffffffffffff1916908160001a905350600a85610a539190611d4c565b94506109d1565b8093505050505b919050565b60608282604051602001610a7b929190611f29565b604051602081830303815290604052905092915050565b60008060009054906101000a900473ffffffffffffffffffffffffffffffffffffffff169050816000806101000a81548173ffffffffffffffffffffffffffffffffffffffff021916908373ffffffffffffffffffffffffffffffffffffffff1602179055508173ffffffffffffffffffffffffffffffffffffffff168173ffffffffffffffffffffffffffffffffffffffff167f8be0079c531659141344cd1fd0a4f28419497f9722a3daafe3b4186f6b6457e060405160405180910390a35050565b60606000602867ffffffffffffffff811115610b7557610b74610f2d565b5b6040519080825280601f01601f191660200182016040528015610ba75781602001600182028036833780820191505090505b50905060005b6014811015610d0f576000816013610bc59190611d7d565b6008610bd19190611f6e565b6002610bdd91906120e3565b8573ffffffffffffffffffffffffffffffffffffffff16610bfe9190611d4c565b60f81b9050600060108260f81c610c15919061213b565b60f81b905060008160f81c6010610c2c919061216c565b8360f81c610c3a91906121a9565b60f81b9050610c4882610ea5565b85856002610c569190611f6e565b81518110610c6757610c66611e16565b5b60200101907effffffffffffffffffffffffffffffffffffffffffffffffffffffffffffff1916908160001a905350610c9f81610ea5565b856001866002610caf9190611f6e565b610cb99190611de2565b81518110610cca57610cc9611e16565b5b60200101907effffffffffffffffffffffffffffffffffffffffffffffffffffffffffffff1916908160001a9053505050508080610d0790611cd5565b915050610bad565b5080915050919050565b60606000825103610d3b57604051806020016040528060008152509050610e98565b60006040518060600160405280604081526020016122146040913990506000600360028551610d6a9190611de2565b610d749190611d4c565b6004610d809190611f6e565b90506000602082610d919190611de2565b67ffffffffffffffff811115610daa57610da9610f2d565b5b6040519080825280601f01601f191660200182016040528015610ddc5781602001600182028036833780820191505090505b509050818152600183018586518101602084015b81831015610e57576003830192508251603f8160121c1685015160f81b8252600182019150603f81600c1c1685015160f81b8252600182019150603f8160061c1685015160f81b8252600182019150603f811685015160f81b825260018201915050610df0565b600389510660018114610e715760028114610e8157610e8c565b613d3d60f01b6002830352610e8c565b603d60f81b60018303525b50505050508093505050505b919050565b600033905090565b6000600a8260f81c60ff161015610ed05760308260f81c610ec691906121de565b60f81b9050610ee6565b60578260f81c610ee091906121de565b60f81b90505b919050565b6040518060200160405280600081525090565b6000604051905090565b600080fd5b600080fd5b600080fd5b600080fd5b6000601f19601f8301169050919050565b7f4e487b7100000000000000000000000000000000000000000000000000000000600052604160045260246000fd5b610f6582610f1c565b810181811067ffffffffffffffff82111715610f8457610f83610f2d565b5b80604052505050565b6000610f97610efe565b9050610fa38282610f5c565b919050565b600067ffffffffffffffff821115610fc357610fc2610f2d565b5b610fcc82610f1c565b9050602081019050919050565b82818337600083830152505050565b6000610ffb610ff684610fa8565b610f8d565b90508281526020810184848401111561101757611016610f17565b5b611022848285610fd9565b509392505050565b600082601f83011261103f5761103e610f12565b5b813561104f848260208601610fe8565b91505092915050565b60006020828403121561106e5761106d610f08565b5b600082013567ffffffffffffffff81111561108c5761108b610f0d565b5b6110988482850161102a565b91505092915050565b6000819050919050565b6110b4816110a1565b81146110bf57600080fd5b50565b6000813590506110d1816110ab565b92915050565b6000602082840312156110ed576110ec610f08565b5b60006110fb848285016110c2565b91505092915050565b61110d816110a1565b82525050565b60006020820190506111286000830184611104565b92915050565b600073ffffffffffffffffffffffffffffffffffffffff82169050919050565b60006111598261112e565b9050919050565b6111698161114e565b811461117457600080fd5b50565b60008135905061118681611160565b92915050565b6000602082840312156111a2576111a1610f08565b5b60006111b084828501611177565b91505092915050565b60008115159050919050565b6111ce816111b9565b82525050565b60006020820190506111e960008301846111c5565b92915050565b6111f8816111b9565b811461120357600080fd5b50565b600081359050611215816111ef565b92915050565b6000806040838503121561123257611231610f08565b5b600061124085828601611177565b925050602061125185828601611206565b9150509250929050565b600081519050919050565b600082825260208201905092915050565b60005b8381101561129557808201518184015260208101905061127a565b60008484015250505050565b60006112ac8261125b565b6112b68185611266565b93506112c6818560208601611277565b6112cf81610f1c565b840191505092915050565b600060208201905081810360008301526112f481846112a1565b905092915050565b6113058161114e565b82525050565b600060208201905061132060008301846112fc565b92915050565b61132f816110a1565b82525050565b60208201600082015161134b6000850182611326565b50505050565b60006020820190506113666000830184611335565b92915050565b6000806040838503121561138357611382610f08565b5b6000611391858286016110c2565b92505060206113a285828601611177565b9150509250929050565b7f4e487b7100000000000000000000000000000000000000000000000000000000600052602260045260246000fd5b600060028204905060018216806113f357607f821691505b602082108103611406576114056113ac565b5b50919050565b60008190508160005260206000209050919050565b60006020601f8301049050919050565b600082821b905092915050565b60006008830261146e7fffffffffffffffffffffffffffffffffffffffffffffffffffffffffffffffff82611431565b6114788683611431565b95508019841693508086168417925050509392505050565b6000819050919050565b60006114b56114b06114ab846110a1565b611490565b6110a1565b9050919050565b6000819050919050565b6114cf8361149a565b6114e36114db826114bc565b84845461143e565b825550505050565b600090565b6114f86114eb565b6115038184846114c6565b505050565b5b818110156115275761151c6000826114f0565b600181019050611509565b5050565b601f82111561156c5761153d8161140c565b61154684611421565b81016020851015611555578190505b61156961156185611421565b830182611508565b50505b505050565b600082821c905092915050565b600061158f60001984600802611571565b1980831691505092915050565b60006115a8838361157e565b9150826002028217905092915050565b6115c18261125b565b67ffffffffffffffff8111156115da576115d9610f2d565b5b6115e482546113db565b6115ef82828561152b565b600060209050601f8311600181146116225760008415611610578287015190505b61161a858261159c565b865550611682565b601f1984166116308661140c565b60005b8281101561165857848901518255600182019150602085019450602081019050611633565b868310156116755784890151611671601f89168261157e565b8355505b6001600288020188555050505b505050505050565b7f6e6f2061646d696e000000000000000000000000000000000000000000000000600082015250565b60006116c0600883611266565b91506116cb8261168a565b602082019050919050565b600060208201905081810360008301526116ef816116b3565b9050919050565b600081905092915050565b600061170c8261125b565b61171681856116f6565b9350611726818560208601611277565b80840191505092915050565b600061173e8284611701565b915081905092915050565b7f5b00000000000000000000000000000000000000000000000000000000000000600082015250565b600061177f6001836116f6565b915061178a82611749565b600182019050919050565b7f5d00000000000000000000000000000000000000000000000000000000000000600082015250565b60006117cb6001836116f6565b91506117d682611795565b600182019050919050565b60006117ec82611772565b91506117f88284611701565b9150611803826117be565b915081905092915050565b600060408201905061182360008301856112fc565b6118306020830184611104565b9392505050565b600081519050611846816110ab565b92915050565b60006020828403121561186257611861610f08565b5b600061187084828501611837565b91505092915050565b7f7b226e616d65223a202200000000000000000000000000000000000000000000600082015250565b60006118af600a836116f6565b91506118ba82611879565b600a82019050919050565b600081546118d2816113db565b6118dc81866116f6565b945060018216600081146118f7576001811461190c5761193f565b60ff198316865281151582028601935061193f565b6119158561140c565b60005b8381101561193757815481890152600182019150602081019050611918565b838801955050505b50505092915050565b7f2023000000000000000000000000000000000000000000000000000000000000600082015250565b600061197e6002836116f6565b915061198982611948565b600282019050919050565b7f222c20226465736372697074696f6e223a20224261736963204e465420436f6e60008201527f74726163742e222c2022696d616765223a202200000000000000000000000000602082015250565b60006119f06033836116f6565b91506119fb82611994565b603382019050919050565b7f222c202261747472696275746573223a00000000000000000000000000000000600082015250565b6000611a3c6010836116f6565b9150611a4782611a06565b601082019050919050565b7f7d00000000000000000000000000000000000000000000000000000000000000600082015250565b6000611a886001836116f6565b9150611a9382611a52565b600182019050919050565b6000611aa9826118a2565b9150611ab5828a6118c5565b9150611ac082611971565b9150611acc8289611701565b9150611ad7826119e3565b9150611ae382886118c5565b9150611aef8287611701565b9150611afb8286611701565b9150611b078285611701565b9150611b1282611a2f565b9150611b1e8284611701565b9150611b2982611a7b565b915081905098975050505050505050565b7f646174613a6170706c69636174696f6e2f6a736f6e3b6261736536342c000000600082015250565b6000611b70601d836116f6565b9150611b7b82611b3a565b601d82019050919050565b6000611b9182611b63565b9150611b9d8284611701565b915081905092915050565b7f4f776e61626c653a206e6577206f776e657220697320746865207a65726f206160008201527f6464726573730000000000000000000000000000000000000000000000000000602082015250565b6000611c04602683611266565b9150611c0f82611ba8565b604082019050919050565b60006020820190508181036000830152611c3381611bf7565b9050919050565b7f4f776e61626c653a2063616c6c6572206973206e6f7420746865206f776e6572600082015250565b6000611c70602083611266565b9150611c7b82611c3a565b602082019050919050565b60006020820190508181036000830152611c9f81611c63565b9050919050565b7f4e487b7100000000000000000000000000000000000000000000000000000000600052601160045260246000fd5b6000611ce0826110a1565b91507fffffffffffffffffffffffffffffffffffffffffffffffffffffffffffffffff8203611d1257611d11611ca6565b5b600182019050919050565b7f4e487b7100000000000000000000000000000000000000000000000000000000600052601260045260246000fd5b6000611d57826110a1565b9150611d62836110a1565b925082611d7257611d71611d1d565b5b828204905092915050565b6000611d88826110a1565b9150611d93836110a1565b9250828203905081811115611dab57611daa611ca6565b5b92915050565b6000611dbc826110a1565b9150611dc7836110a1565b925082611dd757611dd6611d1d565b5b828206905092915050565b6000611ded826110a1565b9150611df8836110a1565b9250828201905080821115611e1057611e0f611ca6565b5b92915050565b7f4e487b7100000000000000000000000000000000000000000000000000000000600052603260045260246000fd5b7f7b2274726169745f74797065223a220000000000000000000000000000000000600082015250565b6000611e7b600f836116f6565b9150611e8682611e45565b600f82019050919050565b7f222c2276616c7565223a22000000000000000000000000000000000000000000600082015250565b6000611ec7600b836116f6565b9150611ed282611e91565b600b82019050919050565b7f227d000000000000000000000000000000000000000000000000000000000000600082015250565b6000611f136002836116f6565b9150611f1e82611edd565b600282019050919050565b6000611f3482611e6e565b9150611f408285611701565b9150611f4b82611eba565b9150611f578284611701565b9150611f6282611f06565b91508190509392505050565b6000611f79826110a1565b9150611f84836110a1565b9250828202611f92816110a1565b91508282048414831517611fa957611fa8611ca6565b5b5092915050565b60008160011c9050919050565b6000808291508390505b600185111561200757808604811115611fe357611fe2611ca6565b5b6001851615611ff25780820291505b808102905061200085611fb0565b9450611fc7565b94509492505050565b60008261202057600190506120dc565b8161202e57600090506120dc565b8160018114612044576002811461204e5761207d565b60019150506120dc565b60ff8411156120605761205f611ca6565b5b8360020a91508482111561207757612076611ca6565b5b506120dc565b5060208310610133831016604e8410600b84101617156120b25782820a9050838111156120ad576120ac611ca6565b5b6120dc565b6120bf8484846001611fbd565b925090508184048111156120d6576120d5611ca6565b5b81810290505b9392505050565b60006120ee826110a1565b91506120f9836110a1565b92506121267fffffffffffffffffffffffffffffffffffffffffffffffffffffffffffffffff8484612010565b905092915050565b600060ff82169050919050565b60006121468261212e565b91506121518361212e565b92508261216157612160611d1d565b5b828204905092915050565b60006121778261212e565b91506121828361212e565b92508282026121908161212e565b91508082146121a2576121a1611ca6565b5b5092915050565b60006121b48261212e565b91506121bf8361212e565b9250828203905060ff8111156121d8576121d7611ca6565b5b92915050565b60006121e98261212e565b91506121f48361212e565b9250828201905060ff81111561220d5761220c611ca6565b5b9291505056fe4142434445464748494a4b4c4d4e4f505152535455565758595a6162636465666768696a6b6c6d6e6f707172737475767778797a303132333435363738392b2fa264697066735822122069b5a410ceb4a9c33918fb0aaece5da4337d6c678ad3a3d8dadfab342290f30f64736f6c63430008110033a2646970667358221220082ba8014c8edf5bf9fd64df85c1a97d2a67862931e742de8685e952cd05001864736f6c63430008110033608060405234801561001057600080fd5b5073779877a7b0d9e8603169ddbd7836e478b46247896000806101000a81548173ffffffffffffffffffffffffffffffffffffffff021916908373ffffffffffffffffffffffffffffffffffffffff1602179055506104c1806100746000396000f3fe608060405234801561001057600080fd5b50600436106100415760003560e01c806360750a4f1461004657806368a0a80414610076578063741bef1a146100a6575b600080fd5b610060600480360381019061005b9190610218565b6100c4565b60405161006d9190610271565b60405180910390f35b610090600480360381019061008b9190610218565b6100f9565b60405161009d919061029b565b60405180910390f35b6100ae61015b565b6040516100bb91906102c5565b60405180910390f35b60004283836040516020016100db93929190610349565b60405160208183030381529060405280519060200120905092915050565b600066038d7ea4c680006001606442868660405160200161011c93929190610349565b6040516020818303038152906040528051906020012060001c61013f91906103b5565b6101499190610415565b6101539190610449565b905092915050565b60008054906101000a900473ffffffffffffffffffffffffffffffffffffffff1681565b600080fd5b600073ffffffffffffffffffffffffffffffffffffffff82169050919050565b60006101af82610184565b9050919050565b6101bf816101a4565b81146101ca57600080fd5b50565b6000813590506101dc816101b6565b92915050565b6000819050919050565b6101f5816101e2565b811461020057600080fd5b50565b600081359050610212816101ec565b92915050565b6000806040838503121561022f5761022e61017f565b5b600061023d858286016101cd565b925050602061024e85828601610203565b9150509250929050565b6000819050919050565b61026b81610258565b82525050565b60006020820190506102866000830184610262565b92915050565b610295816101e2565b82525050565b60006020820190506102b0600083018461028c565b92915050565b6102bf816101a4565b82525050565b60006020820190506102da60008301846102b6565b92915050565b6000819050919050565b6102fb6102f6826101e2565b6102e0565b82525050565b60008160601b9050919050565b600061031982610301565b9050919050565b600061032b8261030e565b9050919050565b61034361033e826101a4565b610320565b82525050565b600061035582866102ea565b6020820191506103658285610332565b60148201915061037582846102ea565b602082019150819050949350505050565b7f4e487b7100000000000000000000000000000000000000000000000000000000600052601260045260246000fd5b60006103c0826101e2565b91506103cb836101e2565b9250826103db576103da610386565b5b828206905092915050565b7f4e487b7100000000000000000000000000000000000000000000000000000000600052601160045260246000fd5b6000610420826101e2565b915061042b836101e2565b9250828201905080821115610443576104426103e6565b5b92915050565b6000610454826101e2565b915061045f836101e2565b925082820261046d816101e2565b91508282048414831517610484576104836103e6565b5b509291505056fea26469706673582212205950d080222a21000c48f6779801be49062546c8f877be34765c809927b6abf764736f6c63430008110033",
  "linkReferences": {},
  "deployedLinkReferences": {}
}