{
	"data": {
		"bytecode": {
			"linkReferences": {},
			"object": "60806040523480156200001157600080fd5b50604051620017b9380380620017b98339810160408190526200003491620001e2565b6200003f3362000179565b600180546001600160a01b038085166001600160a01b031992831617909255600280549284169290911682179055604080516306fdde0360e01b815290516306fdde03916004808201926000929091908290030181865afa158015620000a9573d6000803e3d6000fd5b505050506040513d6000823e601f3d908101601f19168201604052620000d3919081019062000237565b600490620000e290826200039b565b50600260009054906101000a90046001600160a01b03166001600160a01b031663d547cfb76040518163ffffffff1660e01b8152600401600060405180830381865afa15801562000137573d6000803e3d6000fd5b505050506040513d6000823e601f3d908101601f1916820160405262000161919081019062000237565b6003906200017090826200039b565b50505062000467565b600080546001600160a01b038381166001600160a01b0319831681178455604051919092169283917f8be0079c531659141344cd1fd0a4f28419497f9722a3daafe3b4186f6b6457e09190a35050565b6001600160a01b0381168114620001df57600080fd5b50565b60008060408385031215620001f657600080fd5b82516200020381620001c9565b60208401519092506200021681620001c9565b809150509250929050565b634e487b7160e01b600052604160045260246000fd5b600060208083850312156200024b57600080fd5b82516001600160401b03808211156200026357600080fd5b818501915085601f8301126200027857600080fd5b8151818111156200028d576200028d62000221565b604051601f8201601f19908116603f01168101908382118183101715620002b857620002b862000221565b816040528281528886848701011115620002d157600080fd5b600093505b82841015620002f55784840186015181850187015292850192620002d6565b600086848301015280965050505050505092915050565b600181811c908216806200032157607f821691505b6020821081036200034257634e487b7160e01b600052602260045260246000fd5b50919050565b601f8211156200039657600081815260208120601f850160051c81016020861015620003715750805b601f850160051c820191505b8181101562000392578281556001016200037d565b5050505b505050565b81516001600160401b03811115620003b757620003b762000221565b620003cf81620003c884546200030c565b8462000348565b602080601f831160018114620004075760008415620003ee5750858301515b600019600386901b1c1916600185901b17855562000392565b600085815260208120601f198616915b82811015620004385788860151825594840194600190910190840162000417565b5085821015620004575787850151600019600388901b60f8161c191681555b5050505050600190811b01905550565b61134280620004776000396000f3fe608060405234801561001057600080fd5b50600436106100b45760003560e01c80638da5cb5b116100715780638da5cb5b1461016f578063a574cea41461018a578063c333f045146101d0578063c87b56dd146101e3578063d547cfb7146101f6578063f2fde38b146101fe57600080fd5b806302fe5305146100b95780632d72225b146100ce578063429b62e5146101015780634b0bddd21461013457806368dba5e514610147578063715018a614610167575b600080fd5b6100cc6100c7366004610af8565b610211565b005b6100ee6100dc366004610ba9565b60056020526000908152604090205481565b6040519081526020015b60405180910390f35b61012461010f366004610bd9565b60066020526000908152604090205460ff1681565b60405190151581526020016100f8565b6100cc610142366004610bfb565b610229565b61015a610155366004610ba9565b6102b8565b6040516100f89190610c5b565b6100cc61034e565b6000546040516001600160a01b0390911681526020016100f8565b6101c1610198366004610ba9565b604080516020808201835260009182905292815260058352819020815192830190915254815290565b604051905181526020016100f8565b6100cc6101de366004610c8e565b610362565b61015a6101f1366004610ba9565b61045b565b61015a610512565b6100cc61020c366004610bd9565b6105a0565b610219610619565b60036102258282610d43565b5050565b3360009081526006602052604090205460ff168061025157506000546001600160a01b031633145b61028d5760405162461bcd60e51b815260206004820152600860248201526737379030b236b4b760c11b60448201526064015b60405180910390fd5b6001600160a01b03919091166000908152600660205260409020805460ff1916911515919091179055565b6060806103056040518060400160405280600a8152602001694d696e7420707269636560b01b8152506103006005600087815260200190815260200160002060000154610673565b61077c565b6040516020016103159190610e03565b6040516020818303038152906040529050806040516020016103379190610e1f565b604051602081830303815290604052915050919050565b610356610619565b61036060006107a9565b565b3360009081526006602052604090205460ff168061038a57506000546001600160a01b031633145b6103c15760405162461bcd60e51b815260206004820152600860248201526737379030b236b4b760c11b6044820152606401610284565b600154604051631a282a0160e21b81526001600160a01b0383811660048301526024820185905260009216906368a0a80490604401602060405180830381865afa158015610413573d6000803e3d6000fd5b505050506040513d601f19601f820116820180604052508101906104379190610e53565b60408051602080820183529281526000958652600590925290932092519092555050565b60008181526005602090815260408083208151928301909152548152606091600461048585610673565b60025460039061049d906001600160a01b03166107f9565b6104a688610673565b86516104b190610673565b6104ba8a6102b8565b6040516020016104d09796959493929190610edf565b60405160208183030381529060405290506104ea81610940565b6040516020016104fa9190610ff6565b60405160208183030381529060405292505050919050565b6003805461051f90610cba565b80601f016020809104026020016040519081016040528092919081815260200182805461054b90610cba565b80156105985780601f1061056d57610100808354040283529160200191610598565b820191906000526020600020905b81548152906001019060200180831161057b57829003601f168201915b505050505081565b6105a8610619565b6001600160a01b03811661060d5760405162461bcd60e51b815260206004820152602660248201527f4f776e61626c653a206e6577206f776e657220697320746865207a65726f206160448201526564647265737360d01b6064820152608401610284565b610616816107a9565b50565b6000546001600160a01b031633146103605760405162461bcd60e51b815260206004820181905260248201527f4f776e61626c653a2063616c6c6572206973206e6f7420746865206f776e65726044820152606401610284565b60608160000361069a5750506040805180820190915260018152600360fc1b602082015290565b8160005b81156106c457806106ae81611051565b91506106bd9050600a83611080565b915061069e565b60008167ffffffffffffffff8111156106df576106df610ae2565b6040519080825280601f01601f191660200182016040528015610709576020820181803683370190505b5090505b84156107745761071e600183611094565b915061072b600a866110a7565b6107369060306110bb565b60f81b81838151811061074b5761074b6110ce565b60200101906001600160f81b031916908160001a90535061076d600a86611080565b945061070d565b949350505050565b606082826040516020016107919291906110e4565b60405160208183030381529060405290505b92915050565b600080546001600160a01b038381166001600160a01b0319831681178455604051919092169283917f8be0079c531659141344cd1fd0a4f28419497f9722a3daafe3b4186f6b6457e09190a35050565b60408051602880825260608281019093526000919060208201818036833701905050905060005b6014811015610939576000610836826013611094565b610841906008611155565b61084c906002611250565b61085f906001600160a01b038716611080565b60f81b9050600060108260f81c610876919061125c565b60f81b905060008160f81c601061088d919061127e565b8360f81c61089b919061129a565b60f81b90506108a982610aa7565b856108b5866002611155565b815181106108c5576108c56110ce565b60200101906001600160f81b031916908160001a9053506108e581610aa7565b856108f1866002611155565b6108fc9060016110bb565b8151811061090c5761090c6110ce565b60200101906001600160f81b031916908160001a905350505050808061093190611051565b915050610820565b5092915050565b6060815160000361095f57505060408051602081019091526000815290565b60006040518060600160405280604081526020016112cd604091399050600060038451600261098e91906110bb565b6109989190611080565b6109a3906004611155565b905060006109b28260206110bb565b67ffffffffffffffff8111156109ca576109ca610ae2565b6040519080825280601f01601f1916602001820160405280156109f4576020820181803683370190505b509050818152600183018586518101602084015b81831015610a625760039283018051603f601282901c811687015160f890811b8552600c83901c8216880151811b6001860152600683901c8216880151811b60028601529116860151901b93820193909352600401610a08565b600389510660018114610a7c5760028114610a8d57610a99565b613d3d60f01b600119830152610a99565b603d60f81b6000198301525b509398975050505050505050565b6000600a60f883901c1015610ace57610ac560f883901c60306112b3565b60f81b92915050565b610ac560f883901c60576112b3565b919050565b634e487b7160e01b600052604160045260246000fd5b600060208284031215610b0a57600080fd5b813567ffffffffffffffff80821115610b2257600080fd5b818401915084601f830112610b3657600080fd5b813581811115610b4857610b48610ae2565b604051601f8201601f19908116603f01168101908382118183101715610b7057610b70610ae2565b81604052828152876020848701011115610b8957600080fd5b826020860160208301376000928101602001929092525095945050505050565b600060208284031215610bbb57600080fd5b5035919050565b80356001600160a01b0381168114610add57600080fd5b600060208284031215610beb57600080fd5b610bf482610bc2565b9392505050565b60008060408385031215610c0e57600080fd5b610c1783610bc2565b915060208301358015158114610c2c57600080fd5b809150509250929050565b60005b83811015610c52578181015183820152602001610c3a565b50506000910152565b6020815260008251806020840152610c7a816040850160208701610c37565b601f01601f19169190910160400192915050565b60008060408385031215610ca157600080fd5b82359150610cb160208401610bc2565b90509250929050565b600181811c90821680610cce57607f821691505b602082108103610cee57634e487b7160e01b600052602260045260246000fd5b50919050565b601f821115610d3e57600081815260208120601f850160051c81016020861015610d1b5750805b601f850160051c820191505b81811015610d3a57828155600101610d27565b5050505b505050565b815167ffffffffffffffff811115610d5d57610d5d610ae2565b610d7181610d6b8454610cba565b84610cf4565b602080601f831160018114610da65760008415610d8e5750858301515b600019600386901b1c1916600185901b178555610d3a565b600085815260208120601f198616915b82811015610dd557888601518255948401946001909101908401610db6565b5085821015610df35787850151600019600388901b60f8161c191681555b5050505050600190811b01905550565b60008251610e15818460208701610c37565b9190910192915050565b605b60f81b815260008251610e3b816001850160208701610c37565b605d60f81b6001939091019283015250600201919050565b600060208284031215610e6557600080fd5b5051919050565b60008154610e7981610cba565b60018281168015610e915760018114610ea657610ed5565b60ff1984168752821515830287019450610ed5565b8560005260208060002060005b85811015610ecc5781548a820152908401908201610eb3565b50505082870194505b5050505092915050565b693d913730b6b2911d101160b11b81526000610efe600a83018a610e6c565b61202360f01b81528851610f19816002840160208d01610c37565b7f222c20226465736372697074696f6e223a20224261736963204e465420436f6e60029290910191820152723a3930b1ba171116101134b6b0b3b2911d101160691b6022820152610f6d6035820189610e6c565b90508651610f7f818360208b01610c37565b8651910190610f92818360208a01610c37565b8551910190610fa5818360208901610c37565b6f1116101130ba3a3934b13aba32b9911d60811b91019081528351610fd1816010840160208801610c37565b610fe7601082840101607d60f81b815260010190565b9b9a5050505050505050505050565b7f646174613a6170706c69636174696f6e2f6a736f6e3b6261736536342c00000081526000825161102e81601d850160208701610c37565b91909101601d0192915050565b634e487b7160e01b600052601160045260246000fd5b6000600182016110635761106361103b565b5060010190565b634e487b7160e01b600052601260045260246000fd5b60008261108f5761108f61106a565b500490565b818103818111156107a3576107a361103b565b6000826110b6576110b661106a565b500690565b808201808211156107a3576107a361103b565b634e487b7160e01b600052603260045260246000fd5b6e3d913a3930b4ba2fba3cb832911d1160891b8152825160009061110f81600f850160208801610c37565b6a1116113b30b63ab2911d1160a91b600f91840191820152835161113a81601a840160208801610c37565b61227d60f01b601a9290910191820152601c01949350505050565b80820281158282048414176107a3576107a361103b565b600181815b808511156111a757816000190482111561118d5761118d61103b565b8085161561119a57918102915b93841c9390800290611171565b509250929050565b6000826111be575060016107a3565b816111cb575060006107a3565b81600181146111e157600281146111eb57611207565b60019150506107a3565b60ff8411156111fc576111fc61103b565b50506001821b6107a3565b5060208310610133831016604e8410600b841016171561122a575081810a6107a3565b611234838361116c565b80600019048211156112485761124861103b565b029392505050565b6000610bf483836111af565b600060ff83168061126f5761126f61106a565b8060ff84160491505092915050565b60ff81811683821602908116908181146109395761093961103b565b60ff82811682821603908111156107a3576107a361103b565b60ff81811683821601908111156107a3576107a361103b56fe4142434445464748494a4b4c4d4e4f505152535455565758595a6162636465666768696a6b6c6d6e6f707172737475767778797a303132333435363738392b2fa2646970667358221220bf2d5978256d137d1b578d03504ce1235b79f891edf918ed9eea29d1bdcfdc5164736f6c63430008110033",
			"opcodes": "PUSH1 0x80 PUSH1 0x40 MSTORE CALLVALUE DUP1 ISZERO PUSH3 0x11 JUMPI PUSH1 0x0 DUP1 REVERT JUMPDEST POP PUSH1 0x40 MLOAD PUSH3 0x17B9 CODESIZE SUB DUP1 PUSH3 0x17B9 DUP4 CODECOPY DUP2 ADD PUSH1 0x40 DUP2 SWAP1 MSTORE PUSH3 0x34 SWAP2 PUSH3 0x1E2 JUMP JUMPDEST PUSH3 0x3F CALLER PUSH3 0x179 JUMP JUMPDEST PUSH1 0x1 DUP1 SLOAD PUSH1 0x1 PUSH1 0x1 PUSH1 0xA0 SHL SUB DUP1 DUP6 AND PUSH1 0x1 PUSH1 0x1 PUSH1 0xA0 SHL SUB NOT SWAP3 DUP4 AND OR SWAP1 SWAP3 SSTORE PUSH1 0x2 DUP1 SLOAD SWAP3 DUP5 AND SWAP3 SWAP1 SWAP2 AND DUP3 OR SWAP1 SSTORE PUSH1 0x40 DUP1 MLOAD PUSH4 0x6FDDE03 PUSH1 0xE0 SHL DUP2 MSTORE SWAP1 MLOAD PUSH4 0x6FDDE03 SWAP2 PUSH1 0x4 DUP1 DUP3 ADD SWAP3 PUSH1 0x0 SWAP3 SWAP1 SWAP2 SWAP1 DUP3 SWAP1 SUB ADD DUP2 DUP7 GAS STATICCALL ISZERO DUP1 ISZERO PUSH3 0xA9 JUMPI RETURNDATASIZE PUSH1 0x0 DUP1 RETURNDATACOPY RETURNDATASIZE PUSH1 0x0 REVERT JUMPDEST POP POP POP POP PUSH1 0x40 MLOAD RETURNDATASIZE PUSH1 0x0 DUP3 RETURNDATACOPY PUSH1 0x1F RETURNDATASIZE SWAP1 DUP2 ADD PUSH1 0x1F NOT AND DUP3 ADD PUSH1 0x40 MSTORE PUSH3 0xD3 SWAP2 SWAP1 DUP2 ADD SWAP1 PUSH3 0x237 JUMP JUMPDEST PUSH1 0x4 SWAP1 PUSH3 0xE2 SWAP1 DUP3 PUSH3 0x39B JUMP JUMPDEST POP PUSH1 0x2 PUSH1 0x0 SWAP1 SLOAD SWAP1 PUSH2 0x100 EXP SWAP1 DIV PUSH1 0x1 PUSH1 0x1 PUSH1 0xA0 SHL SUB AND PUSH1 0x1 PUSH1 0x1 PUSH1 0xA0 SHL SUB AND PUSH4 0xD547CFB7 PUSH1 0x40 MLOAD DUP2 PUSH4 0xFFFFFFFF AND PUSH1 0xE0 SHL DUP2 MSTORE PUSH1 0x4 ADD PUSH1 0x0 PUSH1 0x40 MLOAD DUP1 DUP4 SUB DUP2 DUP7 GAS STATICCALL ISZERO DUP1 ISZERO PUSH3 0x137 JUMPI RETURNDATASIZE PUSH1 0x0 DUP1 RETURNDATACOPY RETURNDATASIZE PUSH1 0x0 REVERT JUMPDEST POP POP POP POP PUSH1 0x40 MLOAD RETURNDATASIZE PUSH1 0x0 DUP3 RETURNDATACOPY PUSH1 0x1F RETURNDATASIZE SWAP1 DUP2 ADD PUSH1 0x1F NOT AND DUP3 ADD PUSH1 0x40 MSTORE PUSH3 0x161 SWAP2 SWAP1 DUP2 ADD SWAP1 PUSH3 0x237 JUMP JUMPDEST PUSH1 0x3 SWAP1 PUSH3 0x170 SWAP1 DUP3 PUSH3 0x39B JUMP JUMPDEST POP POP POP PUSH3 0x467 JUMP JUMPDEST PUSH1 0x0 DUP1 SLOAD PUSH1 0x1 PUSH1 0x1 PUSH1 0xA0 SHL SUB DUP4 DUP2 AND PUSH1 0x1 PUSH1 0x1 PUSH1 0xA0 SHL SUB NOT DUP4 AND DUP2 OR DUP5 SSTORE PUSH1 0x40 MLOAD SWAP2 SWAP1 SWAP3 AND SWAP3 DUP4 SWAP2 PUSH32 0x8BE0079C531659141344CD1FD0A4F28419497F9722A3DAAFE3B4186F6B6457E0 SWAP2 SWAP1 LOG3 POP POP JUMP JUMPDEST PUSH1 0x1 PUSH1 0x1 PUSH1 0xA0 SHL SUB DUP2 AND DUP2 EQ PUSH3 0x1DF JUMPI PUSH1 0x0 DUP1 REVERT JUMPDEST POP JUMP JUMPDEST PUSH1 0x0 DUP1 PUSH1 0x40 DUP4 DUP6 SUB SLT ISZERO PUSH3 0x1F6 JUMPI PUSH1 0x0 DUP1 REVERT JUMPDEST DUP3 MLOAD PUSH3 0x203 DUP2 PUSH3 0x1C9 JUMP JUMPDEST PUSH1 0x20 DUP5 ADD MLOAD SWAP1 SWAP3 POP PUSH3 0x216 DUP2 PUSH3 0x1C9 JUMP JUMPDEST DUP1 SWAP2 POP POP SWAP3 POP SWAP3 SWAP1 POP JUMP JUMPDEST PUSH4 0x4E487B71 PUSH1 0xE0 SHL PUSH1 0x0 MSTORE PUSH1 0x41 PUSH1 0x4 MSTORE PUSH1 0x24 PUSH1 0x0 REVERT JUMPDEST PUSH1 0x0 PUSH1 0x20 DUP1 DUP4 DUP6 SUB SLT ISZERO PUSH3 0x24B JUMPI PUSH1 0x0 DUP1 REVERT JUMPDEST DUP3 MLOAD PUSH1 0x1 PUSH1 0x1 PUSH1 0x40 SHL SUB DUP1 DUP3 GT ISZERO PUSH3 0x263 JUMPI PUSH1 0x0 DUP1 REVERT JUMPDEST DUP2 DUP6 ADD SWAP2 POP DUP6 PUSH1 0x1F DUP4 ADD SLT PUSH3 0x278 JUMPI PUSH1 0x0 DUP1 REVERT JUMPDEST DUP2 MLOAD DUP2 DUP2 GT ISZERO PUSH3 0x28D JUMPI PUSH3 0x28D PUSH3 0x221 JUMP JUMPDEST PUSH1 0x40 MLOAD PUSH1 0x1F DUP3 ADD PUSH1 0x1F NOT SWAP1 DUP2 AND PUSH1 0x3F ADD AND DUP2 ADD SWAP1 DUP4 DUP3 GT DUP2 DUP4 LT OR ISZERO PUSH3 0x2B8 JUMPI PUSH3 0x2B8 PUSH3 0x221 JUMP JUMPDEST DUP2 PUSH1 0x40 MSTORE DUP3 DUP2 MSTORE DUP9 DUP7 DUP5 DUP8 ADD ADD GT ISZERO PUSH3 0x2D1 JUMPI PUSH1 0x0 DUP1 REVERT JUMPDEST PUSH1 0x0 SWAP4 POP JUMPDEST DUP3 DUP5 LT ISZERO PUSH3 0x2F5 JUMPI DUP5 DUP5 ADD DUP7 ADD MLOAD DUP2 DUP6 ADD DUP8 ADD MSTORE SWAP3 DUP6 ADD SWAP3 PUSH3 0x2D6 JUMP JUMPDEST PUSH1 0x0 DUP7 DUP5 DUP4 ADD ADD MSTORE DUP1 SWAP7 POP POP POP POP POP POP POP SWAP3 SWAP2 POP POP JUMP JUMPDEST PUSH1 0x1 DUP2 DUP2 SHR SWAP1 DUP3 AND DUP1 PUSH3 0x321 JUMPI PUSH1 0x7F DUP3 AND SWAP2 POP JUMPDEST PUSH1 0x20 DUP3 LT DUP2 SUB PUSH3 0x342 JUMPI PUSH4 0x4E487B71 PUSH1 0xE0 SHL PUSH1 0x0 MSTORE PUSH1 0x22 PUSH1 0x4 MSTORE PUSH1 0x24 PUSH1 0x0 REVERT JUMPDEST POP SWAP2 SWAP1 POP JUMP JUMPDEST PUSH1 0x1F DUP3 GT ISZERO PUSH3 0x396 JUMPI PUSH1 0x0 DUP2 DUP2 MSTORE PUSH1 0x20 DUP2 KECCAK256 PUSH1 0x1F DUP6 ADD PUSH1 0x5 SHR DUP2 ADD PUSH1 0x20 DUP7 LT ISZERO PUSH3 0x371 JUMPI POP DUP1 JUMPDEST PUSH1 0x1F DUP6 ADD PUSH1 0x5 SHR DUP3 ADD SWAP2 POP JUMPDEST DUP2 DUP2 LT ISZERO PUSH3 0x392 JUMPI DUP3 DUP2 SSTORE PUSH1 0x1 ADD PUSH3 0x37D JUMP JUMPDEST POP POP POP JUMPDEST POP POP POP JUMP JUMPDEST DUP2 MLOAD PUSH1 0x1 PUSH1 0x1 PUSH1 0x40 SHL SUB DUP2 GT ISZERO PUSH3 0x3B7 JUMPI PUSH3 0x3B7 PUSH3 0x221 JUMP JUMPDEST PUSH3 0x3CF DUP2 PUSH3 0x3C8 DUP5 SLOAD PUSH3 0x30C JUMP JUMPDEST DUP5 PUSH3 0x348 JUMP JUMPDEST PUSH1 0x20 DUP1 PUSH1 0x1F DUP4 GT PUSH1 0x1 DUP2 EQ PUSH3 0x407 JUMPI PUSH1 0x0 DUP5 ISZERO PUSH3 0x3EE JUMPI POP DUP6 DUP4 ADD MLOAD JUMPDEST PUSH1 0x0 NOT PUSH1 0x3 DUP7 SWAP1 SHL SHR NOT AND PUSH1 0x1 DUP6 SWAP1 SHL OR DUP6 SSTORE PUSH3 0x392 JUMP JUMPDEST PUSH1 0x0 DUP6 DUP2 MSTORE PUSH1 0x20 DUP2 KECCAK256 PUSH1 0x1F NOT DUP7 AND SWAP2 JUMPDEST DUP3 DUP2 LT ISZERO PUSH3 0x438 JUMPI DUP9 DUP7 ADD MLOAD DUP3 SSTORE SWAP5 DUP5 ADD SWAP5 PUSH1 0x1 SWAP1 SWAP2 ADD SWAP1 DUP5 ADD PUSH3 0x417 JUMP JUMPDEST POP DUP6 DUP3 LT ISZERO PUSH3 0x457 JUMPI DUP8 DUP6 ADD MLOAD PUSH1 0x0 NOT PUSH1 0x3 DUP9 SWAP1 SHL PUSH1 0xF8 AND SHR NOT AND DUP2 SSTORE JUMPDEST POP POP POP POP POP PUSH1 0x1 SWAP1 DUP2 SHL ADD SWAP1 SSTORE POP JUMP JUMPDEST PUSH2 0x1342 DUP1 PUSH3 0x477 PUSH1 0x0 CODECOPY PUSH1 0x0 RETURN INVALID PUSH1 0x80 PUSH1 0x40 MSTORE CALLVALUE DUP1 ISZERO PUSH2 0x10 JUMPI PUSH1 0x0 DUP1 REVERT JUMPDEST POP PUSH1 0x4 CALLDATASIZE LT PUSH2 0xB4 JUMPI PUSH1 0x0 CALLDATALOAD PUSH1 0xE0 SHR DUP1 PUSH4 0x8DA5CB5B GT PUSH2 0x71 JUMPI DUP1 PUSH4 0x8DA5CB5B EQ PUSH2 0x16F JUMPI DUP1 PUSH4 0xA574CEA4 EQ PUSH2 0x18A JUMPI DUP1 PUSH4 0xC333F045 EQ PUSH2 0x1D0 JUMPI DUP1 PUSH4 0xC87B56DD EQ PUSH2 0x1E3 JUMPI DUP1 PUSH4 0xD547CFB7 EQ PUSH2 0x1F6 JUMPI DUP1 PUSH4 0xF2FDE38B EQ PUSH2 0x1FE JUMPI PUSH1 0x0 DUP1 REVERT JUMPDEST DUP1 PUSH4 0x2FE5305 EQ PUSH2 0xB9 JUMPI DUP1 PUSH4 0x2D72225B EQ PUSH2 0xCE JUMPI DUP1 PUSH4 0x429B62E5 EQ PUSH2 0x101 JUMPI DUP1 PUSH4 0x4B0BDDD2 EQ PUSH2 0x134 JUMPI DUP1 PUSH4 0x68DBA5E5 EQ PUSH2 0x147 JUMPI DUP1 PUSH4 0x715018A6 EQ PUSH2 0x167 JUMPI JUMPDEST PUSH1 0x0 DUP1 REVERT JUMPDEST PUSH2 0xCC PUSH2 0xC7 CALLDATASIZE PUSH1 0x4 PUSH2 0xAF8 JUMP JUMPDEST PUSH2 0x211 JUMP JUMPDEST STOP JUMPDEST PUSH2 0xEE PUSH2 0xDC CALLDATASIZE PUSH1 0x4 PUSH2 0xBA9 JUMP JUMPDEST PUSH1 0x5 PUSH1 0x20 MSTORE PUSH1 0x0 SWAP1 DUP2 MSTORE PUSH1 0x40 SWAP1 KECCAK256 SLOAD DUP2 JUMP JUMPDEST PUSH1 0x40 MLOAD SWAP1 DUP2 MSTORE PUSH1 0x20 ADD JUMPDEST PUSH1 0x40 MLOAD DUP1 SWAP2 SUB SWAP1 RETURN JUMPDEST PUSH2 0x124 PUSH2 0x10F CALLDATASIZE PUSH1 0x4 PUSH2 0xBD9 JUMP JUMPDEST PUSH1 0x6 PUSH1 0x20 MSTORE PUSH1 0x0 SWAP1 DUP2 MSTORE PUSH1 0x40 SWAP1 KECCAK256 SLOAD PUSH1 0xFF AND DUP2 JUMP JUMPDEST PUSH1 0x40 MLOAD SWAP1 ISZERO ISZERO DUP2 MSTORE PUSH1 0x20 ADD PUSH2 0xF8 JUMP JUMPDEST PUSH2 0xCC PUSH2 0x142 CALLDATASIZE PUSH1 0x4 PUSH2 0xBFB JUMP JUMPDEST PUSH2 0x229 JUMP JUMPDEST PUSH2 0x15A PUSH2 0x155 CALLDATASIZE PUSH1 0x4 PUSH2 0xBA9 JUMP JUMPDEST PUSH2 0x2B8 JUMP JUMPDEST PUSH1 0x40 MLOAD PUSH2 0xF8 SWAP2 SWAP1 PUSH2 0xC5B JUMP JUMPDEST PUSH2 0xCC PUSH2 0x34E JUMP JUMPDEST PUSH1 0x0 SLOAD PUSH1 0x40 MLOAD PUSH1 0x1 PUSH1 0x1 PUSH1 0xA0 SHL SUB SWAP1 SWAP2 AND DUP2 MSTORE PUSH1 0x20 ADD PUSH2 0xF8 JUMP JUMPDEST PUSH2 0x1C1 PUSH2 0x198 CALLDATASIZE PUSH1 0x4 PUSH2 0xBA9 JUMP JUMPDEST PUSH1 0x40 DUP1 MLOAD PUSH1 0x20 DUP1 DUP3 ADD DUP4 MSTORE PUSH1 0x0 SWAP2 DUP3 SWAP1 MSTORE SWAP3 DUP2 MSTORE PUSH1 0x5 DUP4 MSTORE DUP2 SWAP1 KECCAK256 DUP2 MLOAD SWAP3 DUP4 ADD SWAP1 SWAP2 MSTORE SLOAD DUP2 MSTORE SWAP1 JUMP JUMPDEST PUSH1 0x40 MLOAD SWAP1 MLOAD DUP2 MSTORE PUSH1 0x20 ADD PUSH2 0xF8 JUMP JUMPDEST PUSH2 0xCC PUSH2 0x1DE CALLDATASIZE PUSH1 0x4 PUSH2 0xC8E JUMP JUMPDEST PUSH2 0x362 JUMP JUMPDEST PUSH2 0x15A PUSH2 0x1F1 CALLDATASIZE PUSH1 0x4 PUSH2 0xBA9 JUMP JUMPDEST PUSH2 0x45B JUMP JUMPDEST PUSH2 0x15A PUSH2 0x512 JUMP JUMPDEST PUSH2 0xCC PUSH2 0x20C CALLDATASIZE PUSH1 0x4 PUSH2 0xBD9 JUMP JUMPDEST PUSH2 0x5A0 JUMP JUMPDEST PUSH2 0x219 PUSH2 0x619 JUMP JUMPDEST PUSH1 0x3 PUSH2 0x225 DUP3 DUP3 PUSH2 0xD43 JUMP JUMPDEST POP POP JUMP JUMPDEST CALLER PUSH1 0x0 SWAP1 DUP2 MSTORE PUSH1 0x6 PUSH1 0x20 MSTORE PUSH1 0x40 SWAP1 KECCAK256 SLOAD PUSH1 0xFF AND DUP1 PUSH2 0x251 JUMPI POP PUSH1 0x0 SLOAD PUSH1 0x1 PUSH1 0x1 PUSH1 0xA0 SHL SUB AND CALLER EQ JUMPDEST PUSH2 0x28D JUMPI PUSH1 0x40 MLOAD PUSH3 0x461BCD PUSH1 0xE5 SHL DUP2 MSTORE PUSH1 0x20 PUSH1 0x4 DUP3 ADD MSTORE PUSH1 0x8 PUSH1 0x24 DUP3 ADD MSTORE PUSH8 0x37379030B236B4B7 PUSH1 0xC1 SHL PUSH1 0x44 DUP3 ADD MSTORE PUSH1 0x64 ADD JUMPDEST PUSH1 0x40 MLOAD DUP1 SWAP2 SUB SWAP1 REVERT JUMPDEST PUSH1 0x1 PUSH1 0x1 PUSH1 0xA0 SHL SUB SWAP2 SWAP1 SWAP2 AND PUSH1 0x0 SWAP1 DUP2 MSTORE PUSH1 0x6 PUSH1 0x20 MSTORE PUSH1 0x40 SWAP1 KECCAK256 DUP1 SLOAD PUSH1 0xFF NOT AND SWAP2 ISZERO ISZERO SWAP2 SWAP1 SWAP2 OR SWAP1 SSTORE JUMP JUMPDEST PUSH1 0x60 DUP1 PUSH2 0x305 PUSH1 0x40 MLOAD DUP1 PUSH1 0x40 ADD PUSH1 0x40 MSTORE DUP1 PUSH1 0xA DUP2 MSTORE PUSH1 0x20 ADD PUSH10 0x4D696E74207072696365 PUSH1 0xB0 SHL DUP2 MSTORE POP PUSH2 0x300 PUSH1 0x5 PUSH1 0x0 DUP8 DUP2 MSTORE PUSH1 0x20 ADD SWAP1 DUP2 MSTORE PUSH1 0x20 ADD PUSH1 0x0 KECCAK256 PUSH1 0x0 ADD SLOAD PUSH2 0x673 JUMP JUMPDEST PUSH2 0x77C JUMP JUMPDEST PUSH1 0x40 MLOAD PUSH1 0x20 ADD PUSH2 0x315 SWAP2 SWAP1 PUSH2 0xE03 JUMP JUMPDEST PUSH1 0x40 MLOAD PUSH1 0x20 DUP2 DUP4 SUB SUB DUP2 MSTORE SWAP1 PUSH1 0x40 MSTORE SWAP1 POP DUP1 PUSH1 0x40 MLOAD PUSH1 0x20 ADD PUSH2 0x337 SWAP2 SWAP1 PUSH2 0xE1F JUMP JUMPDEST PUSH1 0x40 MLOAD PUSH1 0x20 DUP2 DUP4 SUB SUB DUP2 MSTORE SWAP1 PUSH1 0x40 MSTORE SWAP2 POP POP SWAP2 SWAP1 POP JUMP JUMPDEST PUSH2 0x356 PUSH2 0x619 JUMP JUMPDEST PUSH2 0x360 PUSH1 0x0 PUSH2 0x7A9 JUMP JUMPDEST JUMP JUMPDEST CALLER PUSH1 0x0 SWAP1 DUP2 MSTORE PUSH1 0x6 PUSH1 0x20 MSTORE PUSH1 0x40 SWAP1 KECCAK256 SLOAD PUSH1 0xFF AND DUP1 PUSH2 0x38A JUMPI POP PUSH1 0x0 SLOAD PUSH1 0x1 PUSH1 0x1 PUSH1 0xA0 SHL SUB AND CALLER EQ JUMPDEST PUSH2 0x3C1 JUMPI PUSH1 0x40 MLOAD PUSH3 0x461BCD PUSH1 0xE5 SHL DUP2 MSTORE PUSH1 0x20 PUSH1 0x4 DUP3 ADD MSTORE PUSH1 0x8 PUSH1 0x24 DUP3 ADD MSTORE PUSH8 0x37379030B236B4B7 PUSH1 0xC1 SHL PUSH1 0x44 DUP3 ADD MSTORE PUSH1 0x64 ADD PUSH2 0x284 JUMP JUMPDEST PUSH1 0x1 SLOAD PUSH1 0x40 MLOAD PUSH4 0x1A282A01 PUSH1 0xE2 SHL DUP2 MSTORE PUSH1 0x1 PUSH1 0x1 PUSH1 0xA0 SHL SUB DUP4 DUP2 AND PUSH1 0x4 DUP4 ADD MSTORE PUSH1 0x24 DUP3 ADD DUP6 SWAP1 MSTORE PUSH1 0x0 SWAP3 AND SWAP1 PUSH4 0x68A0A804 SWAP1 PUSH1 0x44 ADD PUSH1 0x20 PUSH1 0x40 MLOAD DUP1 DUP4 SUB DUP2 DUP7 GAS STATICCALL ISZERO DUP1 ISZERO PUSH2 0x413 JUMPI RETURNDATASIZE PUSH1 0x0 DUP1 RETURNDATACOPY RETURNDATASIZE PUSH1 0x0 REVERT JUMPDEST POP POP POP POP PUSH1 0x40 MLOAD RETURNDATASIZE PUSH1 0x1F NOT PUSH1 0x1F DUP3 ADD AND DUP3 ADD DUP1 PUSH1 0x40 MSTORE POP DUP2 ADD SWAP1 PUSH2 0x437 SWAP2 SWAP1 PUSH2 0xE53 JUMP JUMPDEST PUSH1 0x40 DUP1 MLOAD PUSH1 0x20 DUP1 DUP3 ADD DUP4 MSTORE SWAP3 DUP2 MSTORE PUSH1 0x0 SWAP6 DUP7 MSTORE PUSH1 0x5 SWAP1 SWAP3 MSTORE SWAP1 SWAP4 KECCAK256 SWAP3 MLOAD SWAP1 SWAP3 SSTORE POP POP JUMP JUMPDEST PUSH1 0x0 DUP2 DUP2 MSTORE PUSH1 0x5 PUSH1 0x20 SWAP1 DUP2 MSTORE PUSH1 0x40 DUP1 DUP4 KECCAK256 DUP2 MLOAD SWAP3 DUP4 ADD SWAP1 SWAP2 MSTORE SLOAD DUP2 MSTORE PUSH1 0x60 SWAP2 PUSH1 0x4 PUSH2 0x485 DUP6 PUSH2 0x673 JUMP JUMPDEST PUSH1 0x2 SLOAD PUSH1 0x3 SWAP1 PUSH2 0x49D SWAP1 PUSH1 0x1 PUSH1 0x1 PUSH1 0xA0 SHL SUB AND PUSH2 0x7F9 JUMP JUMPDEST PUSH2 0x4A6 DUP9 PUSH2 0x673 JUMP JUMPDEST DUP7 MLOAD PUSH2 0x4B1 SWAP1 PUSH2 0x673 JUMP JUMPDEST PUSH2 0x4BA DUP11 PUSH2 0x2B8 JUMP JUMPDEST PUSH1 0x40 MLOAD PUSH1 0x20 ADD PUSH2 0x4D0 SWAP8 SWAP7 SWAP6 SWAP5 SWAP4 SWAP3 SWAP2 SWAP1 PUSH2 0xEDF JUMP JUMPDEST PUSH1 0x40 MLOAD PUSH1 0x20 DUP2 DUP4 SUB SUB DUP2 MSTORE SWAP1 PUSH1 0x40 MSTORE SWAP1 POP PUSH2 0x4EA DUP2 PUSH2 0x940 JUMP JUMPDEST PUSH1 0x40 MLOAD PUSH1 0x20 ADD PUSH2 0x4FA SWAP2 SWAP1 PUSH2 0xFF6 JUMP JUMPDEST PUSH1 0x40 MLOAD PUSH1 0x20 DUP2 DUP4 SUB SUB DUP2 MSTORE SWAP1 PUSH1 0x40 MSTORE SWAP3 POP POP POP SWAP2 SWAP1 POP JUMP JUMPDEST PUSH1 0x3 DUP1 SLOAD PUSH2 0x51F SWAP1 PUSH2 0xCBA JUMP JUMPDEST DUP1 PUSH1 0x1F ADD PUSH1 0x20 DUP1 SWAP2 DIV MUL PUSH1 0x20 ADD PUSH1 0x40 MLOAD SWAP1 DUP2 ADD PUSH1 0x40 MSTORE DUP1 SWAP3 SWAP2 SWAP1 DUP2 DUP2 MSTORE PUSH1 0x20 ADD DUP3 DUP1 SLOAD PUSH2 0x54B SWAP1 PUSH2 0xCBA JUMP JUMPDEST DUP1 ISZERO PUSH2 0x598 JUMPI DUP1 PUSH1 0x1F LT PUSH2 0x56D JUMPI PUSH2 0x100 DUP1 DUP4 SLOAD DIV MUL DUP4 MSTORE SWAP2 PUSH1 0x20 ADD SWAP2 PUSH2 0x598 JUMP JUMPDEST DUP3 ADD SWAP2 SWAP1 PUSH1 0x0 MSTORE PUSH1 0x20 PUSH1 0x0 KECCAK256 SWAP1 JUMPDEST DUP2 SLOAD DUP2 MSTORE SWAP1 PUSH1 0x1 ADD SWAP1 PUSH1 0x20 ADD DUP1 DUP4 GT PUSH2 0x57B JUMPI DUP3 SWAP1 SUB PUSH1 0x1F AND DUP3 ADD SWAP2 JUMPDEST POP POP POP POP POP DUP2 JUMP JUMPDEST PUSH2 0x5A8 PUSH2 0x619 JUMP JUMPDEST PUSH1 0x1 PUSH1 0x1 PUSH1 0xA0 SHL SUB DUP2 AND PUSH2 0x60D JUMPI PUSH1 0x40 MLOAD PUSH3 0x461BCD PUSH1 0xE5 SHL DUP2 MSTORE PUSH1 0x20 PUSH1 0x4 DUP3 ADD MSTORE PUSH1 0x26 PUSH1 0x24 DUP3 ADD MSTORE PUSH32 0x4F776E61626C653A206E6577206F776E657220697320746865207A65726F2061 PUSH1 0x44 DUP3 ADD MSTORE PUSH6 0x646472657373 PUSH1 0xD0 SHL PUSH1 0x64 DUP3 ADD MSTORE PUSH1 0x84 ADD PUSH2 0x284 JUMP JUMPDEST PUSH2 0x616 DUP2 PUSH2 0x7A9 JUMP JUMPDEST POP JUMP JUMPDEST PUSH1 0x0 SLOAD PUSH1 0x1 PUSH1 0x1 PUSH1 0xA0 SHL SUB AND CALLER EQ PUSH2 0x360 JUMPI PUSH1 0x40 MLOAD PUSH3 0x461BCD PUSH1 0xE5 SHL DUP2 MSTORE PUSH1 0x20 PUSH1 0x4 DUP3 ADD DUP2 SWAP1 MSTORE PUSH1 0x24 DUP3 ADD MSTORE PUSH32 0x4F776E61626C653A2063616C6C6572206973206E6F7420746865206F776E6572 PUSH1 0x44 DUP3 ADD MSTORE PUSH1 0x64 ADD PUSH2 0x284 JUMP JUMPDEST PUSH1 0x60 DUP2 PUSH1 0x0 SUB PUSH2 0x69A JUMPI POP POP PUSH1 0x40 DUP1 MLOAD DUP1 DUP3 ADD SWAP1 SWAP2 MSTORE PUSH1 0x1 DUP2 MSTORE PUSH1 0x3 PUSH1 0xFC SHL PUSH1 0x20 DUP3 ADD MSTORE SWAP1 JUMP JUMPDEST DUP2 PUSH1 0x0 JUMPDEST DUP2 ISZERO PUSH2 0x6C4 JUMPI DUP1 PUSH2 0x6AE DUP2 PUSH2 0x1051 JUMP JUMPDEST SWAP2 POP PUSH2 0x6BD SWAP1 POP PUSH1 0xA DUP4 PUSH2 0x1080 JUMP JUMPDEST SWAP2 POP PUSH2 0x69E JUMP JUMPDEST PUSH1 0x0 DUP2 PUSH8 0xFFFFFFFFFFFFFFFF DUP2 GT ISZERO PUSH2 0x6DF JUMPI PUSH2 0x6DF PUSH2 0xAE2 JUMP JUMPDEST PUSH1 0x40 MLOAD SWAP1 DUP1 DUP3 MSTORE DUP1 PUSH1 0x1F ADD PUSH1 0x1F NOT AND PUSH1 0x20 ADD DUP3 ADD PUSH1 0x40 MSTORE DUP1 ISZERO PUSH2 0x709 JUMPI PUSH1 0x20 DUP3 ADD DUP2 DUP1 CALLDATASIZE DUP4 CALLDATACOPY ADD SWAP1 POP JUMPDEST POP SWAP1 POP JUMPDEST DUP5 ISZERO PUSH2 0x774 JUMPI PUSH2 0x71E PUSH1 0x1 DUP4 PUSH2 0x1094 JUMP JUMPDEST SWAP2 POP PUSH2 0x72B PUSH1 0xA DUP7 PUSH2 0x10A7 JUMP JUMPDEST PUSH2 0x736 SWAP1 PUSH1 0x30 PUSH2 0x10BB JUMP JUMPDEST PUSH1 0xF8 SHL DUP2 DUP4 DUP2 MLOAD DUP2 LT PUSH2 0x74B JUMPI PUSH2 0x74B PUSH2 0x10CE JUMP JUMPDEST PUSH1 0x20 ADD ADD SWAP1 PUSH1 0x1 PUSH1 0x1 PUSH1 0xF8 SHL SUB NOT AND SWAP1 DUP2 PUSH1 0x0 BYTE SWAP1 MSTORE8 POP PUSH2 0x76D PUSH1 0xA DUP7 PUSH2 0x1080 JUMP JUMPDEST SWAP5 POP PUSH2 0x70D JUMP JUMPDEST SWAP5 SWAP4 POP POP POP POP JUMP JUMPDEST PUSH1 0x60 DUP3 DUP3 PUSH1 0x40 MLOAD PUSH1 0x20 ADD PUSH2 0x791 SWAP3 SWAP2 SWAP1 PUSH2 0x10E4 JUMP JUMPDEST PUSH1 0x40 MLOAD PUSH1 0x20 DUP2 DUP4 SUB SUB DUP2 MSTORE SWAP1 PUSH1 0x40 MSTORE SWAP1 POP JUMPDEST SWAP3 SWAP2 POP POP JUMP JUMPDEST PUSH1 0x0 DUP1 SLOAD PUSH1 0x1 PUSH1 0x1 PUSH1 0xA0 SHL SUB DUP4 DUP2 AND PUSH1 0x1 PUSH1 0x1 PUSH1 0xA0 SHL SUB NOT DUP4 AND DUP2 OR DUP5 SSTORE PUSH1 0x40 MLOAD SWAP2 SWAP1 SWAP3 AND SWAP3 DUP4 SWAP2 PUSH32 0x8BE0079C531659141344CD1FD0A4F28419497F9722A3DAAFE3B4186F6B6457E0 SWAP2 SWAP1 LOG3 POP POP JUMP JUMPDEST PUSH1 0x40 DUP1 MLOAD PUSH1 0x28 DUP1 DUP3 MSTORE PUSH1 0x60 DUP3 DUP2 ADD SWAP1 SWAP4 MSTORE PUSH1 0x0 SWAP2 SWAP1 PUSH1 0x20 DUP3 ADD DUP2 DUP1 CALLDATASIZE DUP4 CALLDATACOPY ADD SWAP1 POP POP SWAP1 POP PUSH1 0x0 JUMPDEST PUSH1 0x14 DUP2 LT ISZERO PUSH2 0x939 JUMPI PUSH1 0x0 PUSH2 0x836 DUP3 PUSH1 0x13 PUSH2 0x1094 JUMP JUMPDEST PUSH2 0x841 SWAP1 PUSH1 0x8 PUSH2 0x1155 JUMP JUMPDEST PUSH2 0x84C SWAP1 PUSH1 0x2 PUSH2 0x1250 JUMP JUMPDEST PUSH2 0x85F SWAP1 PUSH1 0x1 PUSH1 0x1 PUSH1 0xA0 SHL SUB DUP8 AND PUSH2 0x1080 JUMP JUMPDEST PUSH1 0xF8 SHL SWAP1 POP PUSH1 0x0 PUSH1 0x10 DUP3 PUSH1 0xF8 SHR PUSH2 0x876 SWAP2 SWAP1 PUSH2 0x125C JUMP JUMPDEST PUSH1 0xF8 SHL SWAP1 POP PUSH1 0x0 DUP2 PUSH1 0xF8 SHR PUSH1 0x10 PUSH2 0x88D SWAP2 SWAP1 PUSH2 0x127E JUMP JUMPDEST DUP4 PUSH1 0xF8 SHR PUSH2 0x89B SWAP2 SWAP1 PUSH2 0x129A JUMP JUMPDEST PUSH1 0xF8 SHL SWAP1 POP PUSH2 0x8A9 DUP3 PUSH2 0xAA7 JUMP JUMPDEST DUP6 PUSH2 0x8B5 DUP7 PUSH1 0x2 PUSH2 0x1155 JUMP JUMPDEST DUP2 MLOAD DUP2 LT PUSH2 0x8C5 JUMPI PUSH2 0x8C5 PUSH2 0x10CE JUMP JUMPDEST PUSH1 0x20 ADD ADD SWAP1 PUSH1 0x1 PUSH1 0x1 PUSH1 0xF8 SHL SUB NOT AND SWAP1 DUP2 PUSH1 0x0 BYTE SWAP1 MSTORE8 POP PUSH2 0x8E5 DUP2 PUSH2 0xAA7 JUMP JUMPDEST DUP6 PUSH2 0x8F1 DUP7 PUSH1 0x2 PUSH2 0x1155 JUMP JUMPDEST PUSH2 0x8FC SWAP1 PUSH1 0x1 PUSH2 0x10BB JUMP JUMPDEST DUP2 MLOAD DUP2 LT PUSH2 0x90C JUMPI PUSH2 0x90C PUSH2 0x10CE JUMP JUMPDEST PUSH1 0x20 ADD ADD SWAP1 PUSH1 0x1 PUSH1 0x1 PUSH1 0xF8 SHL SUB NOT AND SWAP1 DUP2 PUSH1 0x0 BYTE SWAP1 MSTORE8 POP POP POP POP DUP1 DUP1 PUSH2 0x931 SWAP1 PUSH2 0x1051 JUMP JUMPDEST SWAP2 POP POP PUSH2 0x820 JUMP JUMPDEST POP SWAP3 SWAP2 POP POP JUMP JUMPDEST PUSH1 0x60 DUP2 MLOAD PUSH1 0x0 SUB PUSH2 0x95F JUMPI POP POP PUSH1 0x40 DUP1 MLOAD PUSH1 0x20 DUP2 ADD SWAP1 SWAP2 MSTORE PUSH1 0x0 DUP2 MSTORE SWAP1 JUMP JUMPDEST PUSH1 0x0 PUSH1 0x40 MLOAD DUP1 PUSH1 0x60 ADD PUSH1 0x40 MSTORE DUP1 PUSH1 0x40 DUP2 MSTORE PUSH1 0x20 ADD PUSH2 0x12CD PUSH1 0x40 SWAP2 CODECOPY SWAP1 POP PUSH1 0x0 PUSH1 0x3 DUP5 MLOAD PUSH1 0x2 PUSH2 0x98E SWAP2 SWAP1 PUSH2 0x10BB JUMP JUMPDEST PUSH2 0x998 SWAP2 SWAP1 PUSH2 0x1080 JUMP JUMPDEST PUSH2 0x9A3 SWAP1 PUSH1 0x4 PUSH2 0x1155 JUMP JUMPDEST SWAP1 POP PUSH1 0x0 PUSH2 0x9B2 DUP3 PUSH1 0x20 PUSH2 0x10BB JUMP JUMPDEST PUSH8 0xFFFFFFFFFFFFFFFF DUP2 GT ISZERO PUSH2 0x9CA JUMPI PUSH2 0x9CA PUSH2 0xAE2 JUMP JUMPDEST PUSH1 0x40 MLOAD SWAP1 DUP1 DUP3 MSTORE DUP1 PUSH1 0x1F ADD PUSH1 0x1F NOT AND PUSH1 0x20 ADD DUP3 ADD PUSH1 0x40 MSTORE DUP1 ISZERO PUSH2 0x9F4 JUMPI PUSH1 0x20 DUP3 ADD DUP2 DUP1 CALLDATASIZE DUP4 CALLDATACOPY ADD SWAP1 POP JUMPDEST POP SWAP1 POP DUP2 DUP2 MSTORE PUSH1 0x1 DUP4 ADD DUP6 DUP7 MLOAD DUP2 ADD PUSH1 0x20 DUP5 ADD JUMPDEST DUP2 DUP4 LT ISZERO PUSH2 0xA62 JUMPI PUSH1 0x3 SWAP3 DUP4 ADD DUP1 MLOAD PUSH1 0x3F PUSH1 0x12 DUP3 SWAP1 SHR DUP2 AND DUP8 ADD MLOAD PUSH1 0xF8 SWAP1 DUP2 SHL DUP6 MSTORE PUSH1 0xC DUP4 SWAP1 SHR DUP3 AND DUP9 ADD MLOAD DUP2 SHL PUSH1 0x1 DUP7 ADD MSTORE PUSH1 0x6 DUP4 SWAP1 SHR DUP3 AND DUP9 ADD MLOAD DUP2 SHL PUSH1 0x2 DUP7 ADD MSTORE SWAP2 AND DUP7 ADD MLOAD SWAP1 SHL SWAP4 DUP3 ADD SWAP4 SWAP1 SWAP4 MSTORE PUSH1 0x4 ADD PUSH2 0xA08 JUMP JUMPDEST PUSH1 0x3 DUP10 MLOAD MOD PUSH1 0x1 DUP2 EQ PUSH2 0xA7C JUMPI PUSH1 0x2 DUP2 EQ PUSH2 0xA8D JUMPI PUSH2 0xA99 JUMP JUMPDEST PUSH2 0x3D3D PUSH1 0xF0 SHL PUSH1 0x1 NOT DUP4 ADD MSTORE PUSH2 0xA99 JUMP JUMPDEST PUSH1 0x3D PUSH1 0xF8 SHL PUSH1 0x0 NOT DUP4 ADD MSTORE JUMPDEST POP SWAP4 SWAP9 SWAP8 POP POP POP POP POP POP POP POP JUMP JUMPDEST PUSH1 0x0 PUSH1 0xA PUSH1 0xF8 DUP4 SWAP1 SHR LT ISZERO PUSH2 0xACE JUMPI PUSH2 0xAC5 PUSH1 0xF8 DUP4 SWAP1 SHR PUSH1 0x30 PUSH2 0x12B3 JUMP JUMPDEST PUSH1 0xF8 SHL SWAP3 SWAP2 POP POP JUMP JUMPDEST PUSH2 0xAC5 PUSH1 0xF8 DUP4 SWAP1 SHR PUSH1 0x57 PUSH2 0x12B3 JUMP JUMPDEST SWAP2 SWAP1 POP JUMP JUMPDEST PUSH4 0x4E487B71 PUSH1 0xE0 SHL PUSH1 0x0 MSTORE PUSH1 0x41 PUSH1 0x4 MSTORE PUSH1 0x24 PUSH1 0x0 REVERT JUMPDEST PUSH1 0x0 PUSH1 0x20 DUP3 DUP5 SUB SLT ISZERO PUSH2 0xB0A JUMPI PUSH1 0x0 DUP1 REVERT JUMPDEST DUP2 CALLDATALOAD PUSH8 0xFFFFFFFFFFFFFFFF DUP1 DUP3 GT ISZERO PUSH2 0xB22 JUMPI PUSH1 0x0 DUP1 REVERT JUMPDEST DUP2 DUP5 ADD SWAP2 POP DUP5 PUSH1 0x1F DUP4 ADD SLT PUSH2 0xB36 JUMPI PUSH1 0x0 DUP1 REVERT JUMPDEST DUP2 CALLDATALOAD DUP2 DUP2 GT ISZERO PUSH2 0xB48 JUMPI PUSH2 0xB48 PUSH2 0xAE2 JUMP JUMPDEST PUSH1 0x40 MLOAD PUSH1 0x1F DUP3 ADD PUSH1 0x1F NOT SWAP1 DUP2 AND PUSH1 0x3F ADD AND DUP2 ADD SWAP1 DUP4 DUP3 GT DUP2 DUP4 LT OR ISZERO PUSH2 0xB70 JUMPI PUSH2 0xB70 PUSH2 0xAE2 JUMP JUMPDEST DUP2 PUSH1 0x40 MSTORE DUP3 DUP2 MSTORE DUP8 PUSH1 0x20 DUP5 DUP8 ADD ADD GT ISZERO PUSH2 0xB89 JUMPI PUSH1 0x0 DUP1 REVERT JUMPDEST DUP3 PUSH1 0x20 DUP7 ADD PUSH1 0x20 DUP4 ADD CALLDATACOPY PUSH1 0x0 SWAP3 DUP2 ADD PUSH1 0x20 ADD SWAP3 SWAP1 SWAP3 MSTORE POP SWAP6 SWAP5 POP POP POP POP POP JUMP JUMPDEST PUSH1 0x0 PUSH1 0x20 DUP3 DUP5 SUB SLT ISZERO PUSH2 0xBBB JUMPI PUSH1 0x0 DUP1 REVERT JUMPDEST POP CALLDATALOAD SWAP2 SWAP1 POP JUMP JUMPDEST DUP1 CALLDATALOAD PUSH1 0x1 PUSH1 0x1 PUSH1 0xA0 SHL SUB DUP2 AND DUP2 EQ PUSH2 0xADD JUMPI PUSH1 0x0 DUP1 REVERT JUMPDEST PUSH1 0x0 PUSH1 0x20 DUP3 DUP5 SUB SLT ISZERO PUSH2 0xBEB JUMPI PUSH1 0x0 DUP1 REVERT JUMPDEST PUSH2 0xBF4 DUP3 PUSH2 0xBC2 JUMP JUMPDEST SWAP4 SWAP3 POP POP POP JUMP JUMPDEST PUSH1 0x0 DUP1 PUSH1 0x40 DUP4 DUP6 SUB SLT ISZERO PUSH2 0xC0E JUMPI PUSH1 0x0 DUP1 REVERT JUMPDEST PUSH2 0xC17 DUP4 PUSH2 0xBC2 JUMP JUMPDEST SWAP2 POP PUSH1 0x20 DUP4 ADD CALLDATALOAD DUP1 ISZERO ISZERO DUP2 EQ PUSH2 0xC2C JUMPI PUSH1 0x0 DUP1 REVERT JUMPDEST DUP1 SWAP2 POP POP SWAP3 POP SWAP3 SWAP1 POP JUMP JUMPDEST PUSH1 0x0 JUMPDEST DUP4 DUP2 LT ISZERO PUSH2 0xC52 JUMPI DUP2 DUP2 ADD MLOAD DUP4 DUP3 ADD MSTORE PUSH1 0x20 ADD PUSH2 0xC3A JUMP JUMPDEST POP POP PUSH1 0x0 SWAP2 ADD MSTORE JUMP JUMPDEST PUSH1 0x20 DUP2 MSTORE PUSH1 0x0 DUP3 MLOAD DUP1 PUSH1 0x20 DUP5 ADD MSTORE PUSH2 0xC7A DUP2 PUSH1 0x40 DUP6 ADD PUSH1 0x20 DUP8 ADD PUSH2 0xC37 JUMP JUMPDEST PUSH1 0x1F ADD PUSH1 0x1F NOT AND SWAP2 SWAP1 SWAP2 ADD PUSH1 0x40 ADD SWAP3 SWAP2 POP POP JUMP JUMPDEST PUSH1 0x0 DUP1 PUSH1 0x40 DUP4 DUP6 SUB SLT ISZERO PUSH2 0xCA1 JUMPI PUSH1 0x0 DUP1 REVERT JUMPDEST DUP3 CALLDATALOAD SWAP2 POP PUSH2 0xCB1 PUSH1 0x20 DUP5 ADD PUSH2 0xBC2 JUMP JUMPDEST SWAP1 POP SWAP3 POP SWAP3 SWAP1 POP JUMP JUMPDEST PUSH1 0x1 DUP2 DUP2 SHR SWAP1 DUP3 AND DUP1 PUSH2 0xCCE JUMPI PUSH1 0x7F DUP3 AND SWAP2 POP JUMPDEST PUSH1 0x20 DUP3 LT DUP2 SUB PUSH2 0xCEE JUMPI PUSH4 0x4E487B71 PUSH1 0xE0 SHL PUSH1 0x0 MSTORE PUSH1 0x22 PUSH1 0x4 MSTORE PUSH1 0x24 PUSH1 0x0 REVERT JUMPDEST POP SWAP2 SWAP1 POP JUMP JUMPDEST PUSH1 0x1F DUP3 GT ISZERO PUSH2 0xD3E JUMPI PUSH1 0x0 DUP2 DUP2 MSTORE PUSH1 0x20 DUP2 KECCAK256 PUSH1 0x1F DUP6 ADD PUSH1 0x5 SHR DUP2 ADD PUSH1 0x20 DUP7 LT ISZERO PUSH2 0xD1B JUMPI POP DUP1 JUMPDEST PUSH1 0x1F DUP6 ADD PUSH1 0x5 SHR DUP3 ADD SWAP2 POP JUMPDEST DUP2 DUP2 LT ISZERO PUSH2 0xD3A JUMPI DUP3 DUP2 SSTORE PUSH1 0x1 ADD PUSH2 0xD27 JUMP JUMPDEST POP POP POP JUMPDEST POP POP POP JUMP JUMPDEST DUP2 MLOAD PUSH8 0xFFFFFFFFFFFFFFFF DUP2 GT ISZERO PUSH2 0xD5D JUMPI PUSH2 0xD5D PUSH2 0xAE2 JUMP JUMPDEST PUSH2 0xD71 DUP2 PUSH2 0xD6B DUP5 SLOAD PUSH2 0xCBA JUMP JUMPDEST DUP5 PUSH2 0xCF4 JUMP JUMPDEST PUSH1 0x20 DUP1 PUSH1 0x1F DUP4 GT PUSH1 0x1 DUP2 EQ PUSH2 0xDA6 JUMPI PUSH1 0x0 DUP5 ISZERO PUSH2 0xD8E JUMPI POP DUP6 DUP4 ADD MLOAD JUMPDEST PUSH1 0x0 NOT PUSH1 0x3 DUP7 SWAP1 SHL SHR NOT AND PUSH1 0x1 DUP6 SWAP1 SHL OR DUP6 SSTORE PUSH2 0xD3A JUMP JUMPDEST PUSH1 0x0 DUP6 DUP2 MSTORE PUSH1 0x20 DUP2 KECCAK256 PUSH1 0x1F NOT DUP7 AND SWAP2 JUMPDEST DUP3 DUP2 LT ISZERO PUSH2 0xDD5 JUMPI DUP9 DUP7 ADD MLOAD DUP3 SSTORE SWAP5 DUP5 ADD SWAP5 PUSH1 0x1 SWAP1 SWAP2 ADD SWAP1 DUP5 ADD PUSH2 0xDB6 JUMP JUMPDEST POP DUP6 DUP3 LT ISZERO PUSH2 0xDF3 JUMPI DUP8 DUP6 ADD MLOAD PUSH1 0x0 NOT PUSH1 0x3 DUP9 SWAP1 SHL PUSH1 0xF8 AND SHR NOT AND DUP2 SSTORE JUMPDEST POP POP POP POP POP PUSH1 0x1 SWAP1 DUP2 SHL ADD SWAP1 SSTORE POP JUMP JUMPDEST PUSH1 0x0 DUP3 MLOAD PUSH2 0xE15 DUP2 DUP5 PUSH1 0x20 DUP8 ADD PUSH2 0xC37 JUMP JUMPDEST SWAP2 SWAP1 SWAP2 ADD SWAP3 SWAP2 POP POP JUMP JUMPDEST PUSH1 0x5B PUSH1 0xF8 SHL DUP2 MSTORE PUSH1 0x0 DUP3 MLOAD PUSH2 0xE3B DUP2 PUSH1 0x1 DUP6 ADD PUSH1 0x20 DUP8 ADD PUSH2 0xC37 JUMP JUMPDEST PUSH1 0x5D PUSH1 0xF8 SHL PUSH1 0x1 SWAP4 SWAP1 SWAP2 ADD SWAP3 DUP4 ADD MSTORE POP PUSH1 0x2 ADD SWAP2 SWAP1 POP JUMP JUMPDEST PUSH1 0x0 PUSH1 0x20 DUP3 DUP5 SUB SLT ISZERO PUSH2 0xE65 JUMPI PUSH1 0x0 DUP1 REVERT JUMPDEST POP MLOAD SWAP2 SWAP1 POP JUMP JUMPDEST PUSH1 0x0 DUP2 SLOAD PUSH2 0xE79 DUP2 PUSH2 0xCBA JUMP JUMPDEST PUSH1 0x1 DUP3 DUP2 AND DUP1 ISZERO PUSH2 0xE91 JUMPI PUSH1 0x1 DUP2 EQ PUSH2 0xEA6 JUMPI PUSH2 0xED5 JUMP JUMPDEST PUSH1 0xFF NOT DUP5 AND DUP8 MSTORE DUP3 ISZERO ISZERO DUP4 MUL DUP8 ADD SWAP5 POP PUSH2 0xED5 JUMP JUMPDEST DUP6 PUSH1 0x0 MSTORE PUSH1 0x20 DUP1 PUSH1 0x0 KECCAK256 PUSH1 0x0 JUMPDEST DUP6 DUP2 LT ISZERO PUSH2 0xECC JUMPI DUP2 SLOAD DUP11 DUP3 ADD MSTORE SWAP1 DUP5 ADD SWAP1 DUP3 ADD PUSH2 0xEB3 JUMP JUMPDEST POP POP POP DUP3 DUP8 ADD SWAP5 POP JUMPDEST POP POP POP POP SWAP3 SWAP2 POP POP JUMP JUMPDEST PUSH10 0x3D913730B6B2911D1011 PUSH1 0xB1 SHL DUP2 MSTORE PUSH1 0x0 PUSH2 0xEFE PUSH1 0xA DUP4 ADD DUP11 PUSH2 0xE6C JUMP JUMPDEST PUSH2 0x2023 PUSH1 0xF0 SHL DUP2 MSTORE DUP9 MLOAD PUSH2 0xF19 DUP2 PUSH1 0x2 DUP5 ADD PUSH1 0x20 DUP14 ADD PUSH2 0xC37 JUMP JUMPDEST PUSH32 0x222C20226465736372697074696F6E223A20224261736963204E465420436F6E PUSH1 0x2 SWAP3 SWAP1 SWAP2 ADD SWAP2 DUP3 ADD MSTORE PUSH19 0x3A3930B1BA171116101134B6B0B3B2911D1011 PUSH1 0x69 SHL PUSH1 0x22 DUP3 ADD MSTORE PUSH2 0xF6D PUSH1 0x35 DUP3 ADD DUP10 PUSH2 0xE6C JUMP JUMPDEST SWAP1 POP DUP7 MLOAD PUSH2 0xF7F DUP2 DUP4 PUSH1 0x20 DUP12 ADD PUSH2 0xC37 JUMP JUMPDEST DUP7 MLOAD SWAP2 ADD SWAP1 PUSH2 0xF92 DUP2 DUP4 PUSH1 0x20 DUP11 ADD PUSH2 0xC37 JUMP JUMPDEST DUP6 MLOAD SWAP2 ADD SWAP1 PUSH2 0xFA5 DUP2 DUP4 PUSH1 0x20 DUP10 ADD PUSH2 0xC37 JUMP JUMPDEST PUSH16 0x1116101130BA3A3934B13ABA32B9911D PUSH1 0x81 SHL SWAP2 ADD SWAP1 DUP2 MSTORE DUP4 MLOAD PUSH2 0xFD1 DUP2 PUSH1 0x10 DUP5 ADD PUSH1 0x20 DUP9 ADD PUSH2 0xC37 JUMP JUMPDEST PUSH2 0xFE7 PUSH1 0x10 DUP3 DUP5 ADD ADD PUSH1 0x7D PUSH1 0xF8 SHL DUP2 MSTORE PUSH1 0x1 ADD SWAP1 JUMP JUMPDEST SWAP12 SWAP11 POP POP POP POP POP POP POP POP POP POP POP JUMP JUMPDEST PUSH32 0x646174613A6170706C69636174696F6E2F6A736F6E3B6261736536342C000000 DUP2 MSTORE PUSH1 0x0 DUP3 MLOAD PUSH2 0x102E DUP2 PUSH1 0x1D DUP6 ADD PUSH1 0x20 DUP8 ADD PUSH2 0xC37 JUMP JUMPDEST SWAP2 SWAP1 SWAP2 ADD PUSH1 0x1D ADD SWAP3 SWAP2 POP POP JUMP JUMPDEST PUSH4 0x4E487B71 PUSH1 0xE0 SHL PUSH1 0x0 MSTORE PUSH1 0x11 PUSH1 0x4 MSTORE PUSH1 0x24 PUSH1 0x0 REVERT JUMPDEST PUSH1 0x0 PUSH1 0x1 DUP3 ADD PUSH2 0x1063 JUMPI PUSH2 0x1063 PUSH2 0x103B JUMP JUMPDEST POP PUSH1 0x1 ADD SWAP1 JUMP JUMPDEST PUSH4 0x4E487B71 PUSH1 0xE0 SHL PUSH1 0x0 MSTORE PUSH1 0x12 PUSH1 0x4 MSTORE PUSH1 0x24 PUSH1 0x0 REVERT JUMPDEST PUSH1 0x0 DUP3 PUSH2 0x108F JUMPI PUSH2 0x108F PUSH2 0x106A JUMP JUMPDEST POP DIV SWAP1 JUMP JUMPDEST DUP2 DUP2 SUB DUP2 DUP2 GT ISZERO PUSH2 0x7A3 JUMPI PUSH2 0x7A3 PUSH2 0x103B JUMP JUMPDEST PUSH1 0x0 DUP3 PUSH2 0x10B6 JUMPI PUSH2 0x10B6 PUSH2 0x106A JUMP JUMPDEST POP MOD SWAP1 JUMP JUMPDEST DUP1 DUP3 ADD DUP1 DUP3 GT ISZERO PUSH2 0x7A3 JUMPI PUSH2 0x7A3 PUSH2 0x103B JUMP JUMPDEST PUSH4 0x4E487B71 PUSH1 0xE0 SHL PUSH1 0x0 MSTORE PUSH1 0x32 PUSH1 0x4 MSTORE PUSH1 0x24 PUSH1 0x0 REVERT JUMPDEST PUSH15 0x3D913A3930B4BA2FBA3CB832911D11 PUSH1 0x89 SHL DUP2 MSTORE DUP3 MLOAD PUSH1 0x0 SWAP1 PUSH2 0x110F DUP2 PUSH1 0xF DUP6 ADD PUSH1 0x20 DUP9 ADD PUSH2 0xC37 JUMP JUMPDEST PUSH11 0x1116113B30B63AB2911D11 PUSH1 0xA9 SHL PUSH1 0xF SWAP2 DUP5 ADD SWAP2 DUP3 ADD MSTORE DUP4 MLOAD PUSH2 0x113A DUP2 PUSH1 0x1A DUP5 ADD PUSH1 0x20 DUP9 ADD PUSH2 0xC37 JUMP JUMPDEST PUSH2 0x227D PUSH1 0xF0 SHL PUSH1 0x1A SWAP3 SWAP1 SWAP2 ADD SWAP2 DUP3 ADD MSTORE PUSH1 0x1C ADD SWAP5 SWAP4 POP POP POP POP JUMP JUMPDEST DUP1 DUP3 MUL DUP2 ISZERO DUP3 DUP3 DIV DUP5 EQ OR PUSH2 0x7A3 JUMPI PUSH2 0x7A3 PUSH2 0x103B JUMP JUMPDEST PUSH1 0x1 DUP2 DUP2 JUMPDEST DUP1 DUP6 GT ISZERO PUSH2 0x11A7 JUMPI DUP2 PUSH1 0x0 NOT DIV DUP3 GT ISZERO PUSH2 0x118D JUMPI PUSH2 0x118D PUSH2 0x103B JUMP JUMPDEST DUP1 DUP6 AND ISZERO PUSH2 0x119A JUMPI SWAP2 DUP2 MUL SWAP2 JUMPDEST SWAP4 DUP5 SHR SWAP4 SWAP1 DUP1 MUL SWAP1 PUSH2 0x1171 JUMP JUMPDEST POP SWAP3 POP SWAP3 SWAP1 POP JUMP JUMPDEST PUSH1 0x0 DUP3 PUSH2 0x11BE JUMPI POP PUSH1 0x1 PUSH2 0x7A3 JUMP JUMPDEST DUP2 PUSH2 0x11CB JUMPI POP PUSH1 0x0 PUSH2 0x7A3 JUMP JUMPDEST DUP2 PUSH1 0x1 DUP2 EQ PUSH2 0x11E1 JUMPI PUSH1 0x2 DUP2 EQ PUSH2 0x11EB JUMPI PUSH2 0x1207 JUMP JUMPDEST PUSH1 0x1 SWAP2 POP POP PUSH2 0x7A3 JUMP JUMPDEST PUSH1 0xFF DUP5 GT ISZERO PUSH2 0x11FC JUMPI PUSH2 0x11FC PUSH2 0x103B JUMP JUMPDEST POP POP PUSH1 0x1 DUP3 SHL PUSH2 0x7A3 JUMP JUMPDEST POP PUSH1 0x20 DUP4 LT PUSH2 0x133 DUP4 LT AND PUSH1 0x4E DUP5 LT PUSH1 0xB DUP5 LT AND OR ISZERO PUSH2 0x122A JUMPI POP DUP2 DUP2 EXP PUSH2 0x7A3 JUMP JUMPDEST PUSH2 0x1234 DUP4 DUP4 PUSH2 0x116C JUMP JUMPDEST DUP1 PUSH1 0x0 NOT DIV DUP3 GT ISZERO PUSH2 0x1248 JUMPI PUSH2 0x1248 PUSH2 0x103B JUMP JUMPDEST MUL SWAP4 SWAP3 POP POP POP JUMP JUMPDEST PUSH1 0x0 PUSH2 0xBF4 DUP4 DUP4 PUSH2 0x11AF JUMP JUMPDEST PUSH1 0x0 PUSH1 0xFF DUP4 AND DUP1 PUSH2 0x126F JUMPI PUSH2 0x126F PUSH2 0x106A JUMP JUMPDEST DUP1 PUSH1 0xFF DUP5 AND DIV SWAP2 POP POP SWAP3 SWAP2 POP POP JUMP JUMPDEST PUSH1 0xFF DUP2 DUP2 AND DUP4 DUP3 AND MUL SWAP1 DUP2 AND SWAP1 DUP2 DUP2 EQ PUSH2 0x939 JUMPI PUSH2 0x939 PUSH2 0x103B JUMP JUMPDEST PUSH1 0xFF DUP3 DUP2 AND DUP3 DUP3 AND SUB SWAP1 DUP2 GT ISZERO PUSH2 0x7A3 JUMPI PUSH2 0x7A3 PUSH2 0x103B JUMP JUMPDEST PUSH1 0xFF DUP2 DUP2 AND DUP4 DUP3 AND ADD SWAP1 DUP2 GT ISZERO PUSH2 0x7A3 JUMPI PUSH2 0x7A3 PUSH2 0x103B JUMP INVALID COINBASE TIMESTAMP NUMBER DIFFICULTY GASLIMIT CHAINID SELFBALANCE BASEFEE 0x49 0x4A 0x4B 0x4C 0x4D 0x4E 0x4F POP MLOAD MSTORE MSTORE8 SLOAD SSTORE JUMP JUMPI PC MSIZE GAS PUSH2 0x6263 PUSH5 0x6566676869 PUSH11 0x6B6C6D6E6F707172737475 PUSH23 0x7778797A303132333435363738392B2FA2646970667358 0x22 SLT KECCAK256 0xBF 0x2D MSIZE PUSH25 0x256D137D1B578D03504CE1235B79F891EDF918ED9EEA29D1BD 0xCF 0xDC MLOAD PUSH5 0x736F6C6343 STOP ADDMOD GT STOP CALLER "
		},
		"gasEstimates": {
			"creation": {
				"codeDepositCost": "986000",
				"executionCost": "infinite",
				"totalCost": "infinite"
			},
			"external": {
				"addTrait(uint256,address)": "infinite",
				"admins(address)": "2576",
				"baseTokenURI()": "infinite",
				"compileAttributes(uint256)": "infinite",
				"getMetadata(uint256)": "2538",
				"owner()": "2301",
				"renounceOwnership()": "infinite",
				"setAdmin(address,bool)": "29097",
				"setURI(string)": "infinite",
				"tokenURI(uint256)": "infinite",
				"traits(uint256)": "2450",
				"transferOwnership(address)": "28443"
			},
			"internal": {
				"attributeForTypeAndValue(string memory,string memory)": "infinite"
			}
		},
		"methodIdentifiers": {
			"addTrait(uint256,address)": "c333f045",
			"admins(address)": "429b62e5",
			"baseTokenURI()": "d547cfb7",
			"compileAttributes(uint256)": "68dba5e5",
			"getMetadata(uint256)": "a574cea4",
			"owner()": "8da5cb5b",
			"renounceOwnership()": "715018a6",
			"setAdmin(address,bool)": "4b0bddd2",
			"setURI(string)": "02fe5305",
			"tokenURI(uint256)": "c87b56dd",
			"traits(uint256)": "2d72225b",
			"transferOwnership(address)": "f2fde38b"
		}
	},
	"abi": [
		{
			"inputs": [
				{
					"internalType": "contract Random",
					"name": "_randomContract",
					"type": "address"
				},
				{
					"internalType": "contract Collectible",
					"name": "_collectible",
					"type": "address"
				}
			],
			"stateMutability": "nonpayable",
			"type": "constructor"
		},
		{
			"anonymous": false,
			"inputs": [
				{
					"indexed": true,
					"internalType": "address",
					"name": "previousOwner",
					"type": "address"
				},
				{
					"indexed": true,
					"internalType": "address",
					"name": "newOwner",
					"type": "address"
				}
			],
			"name": "OwnershipTransferred",
			"type": "event"
		},
		{
			"inputs": [
				{
					"internalType": "uint256",
					"name": "_tokenId",
					"type": "uint256"
				},
				{
					"internalType": "address",
					"name": "_minter",
					"type": "address"
				}
			],
			"name": "addTrait",
			"outputs": [],
			"stateMutability": "nonpayable",
			"type": "function"
		},
		{
			"inputs": [
				{
					"internalType": "address",
					"name": "",
					"type": "address"
				}
			],
			"name": "admins",
			"outputs": [
				{
					"internalType": "bool",
					"name": "",
					"type": "bool"
				}
			],
			"stateMutability": "view",
			"type": "function"
		},
		{
			"inputs": [],
			"name": "baseTokenURI",
			"outputs": [
				{
					"internalType": "string",
					"name": "",
					"type": "string"
				}
			],
			"stateMutability": "view",
			"type": "function"
		},
		{
			"inputs": [
				{
					"internalType": "uint256",
					"name": "_tokenId",
					"type": "uint256"
				}
			],
			"name": "compileAttributes",
			"outputs": [
				{
					"internalType": "string",
					"name": "",
					"type": "string"
				}
			],
			"stateMutability": "view",
			"type": "function"
		},
		{
			"inputs": [
				{
					"internalType": "uint256",
					"name": "_tokenId",
					"type": "uint256"
				}
			],
			"name": "getMetadata",
			"outputs": [
				{
					"components": [
						{
							"internalType": "uint256",
							"name": "mintPrice",
							"type": "uint256"
						}
					],
					"internalType": "struct TraitCollectible.Trait",
					"name": "",
					"type": "tuple"
				}
			],
			"stateMutability": "view",
			"type": "function"
		},
		{
			"inputs": [],
			"name": "owner",
			"outputs": [
				{
					"internalType": "address",
					"name": "",
					"type": "address"
				}
			],
			"stateMutability": "view",
			"type": "function"
		},
		{
			"inputs": [],
			"name": "renounceOwnership",
			"outputs": [],
			"stateMutability": "nonpayable",
			"type": "function"
		},
		{
			"inputs": [
				{
					"internalType": "address",
					"name": "_account",
					"type": "address"
				},
				{
					"internalType": "bool",
					"name": "_value",
					"type": "bool"
				}
			],
			"name": "setAdmin",
			"outputs": [],
			"stateMutability": "nonpayable",
			"type": "function"
		},
		{
			"inputs": [
				{
					"internalType": "string",
					"name": "_baseTokenURI",
					"type": "string"
				}
			],
			"name": "setURI",
			"outputs": [],
			"stateMutability": "nonpayable",
			"type": "function"
		},
		{
			"inputs": [
				{
					"internalType": "uint256",
					"name": "_tokenId",
					"type": "uint256"
				}
			],
			"name": "tokenURI",
			"outputs": [
				{
					"internalType": "string",
					"name": "",
					"type": "string"
				}
			],
			"stateMutability": "view",
			"type": "function"
		},
		{
			"inputs": [
				{
					"internalType": "uint256",
					"name": "",
					"type": "uint256"
				}
			],
			"name": "traits",
			"outputs": [
				{
					"internalType": "uint256",
					"name": "mintPrice",
					"type": "uint256"
				}
			],
			"stateMutability": "view",
			"type": "function"
		},
		{
			"inputs": [
				{
					"internalType": "address",
					"name": "newOwner",
					"type": "address"
				}
			],
			"name": "transferOwnership",
			"outputs": [],
			"stateMutability": "nonpayable",
			"type": "function"
		}
	]
}