{
  "_format": "hh-sol-artifact-1",
  "contractName": "Random",
  "sourceName": "contracts/utils/Random.sol",
  "abi": [
    {
      "inputs": [],
      "stateMutability": "nonpayable",
      "type": "constructor"
    },
    {
      "inputs": [],
      "name": "InvalidPrice",
      "type": "error"
    },
    {
      "inputs": [],
      "name": "NotUpdated",
      "type": "error"
    },
    {
      "inputs": [
        {
          "internalType": "address",
          "name": "_account",
          "type": "address"
        },
        {
          "internalType": "uint256",
          "name": "_tokenId",
          "type": "uint256"
        }
      ],
      "name": "generateHash",
      "outputs": [
        {
          "internalType": "bytes32",
          "name": "",
          "type": "bytes32"
        }
      ],
      "stateMutability": "view",
      "type": "function"
    },
    {
      "inputs": [
        {
          "internalType": "address",
          "name": "_account",
          "type": "address"
        },
        {
          "internalType": "uint256",
          "name": "_tokenId",
          "type": "uint256"
        }
      ],
      "name": "generateNumber",
      "outputs": [
        {
          "internalType": "uint256",
          "name": "",
          "type": "uint256"
        }
      ],
      "stateMutability": "view",
      "type": "function"
    },
    {
      "inputs": [],
      "name": "priceFeed",
      "outputs": [
        {
          "internalType": "address",
          "name": "",
          "type": "address"
        }
      ],
      "stateMutability": "view",
      "type": "function"
    }
  ],
  "bytecode": "0x608060405234801561001057600080fd5b5073779877a7b0d9e8603169ddbd7836e478b46247896000806101000a81548173ffffffffffffffffffffffffffffffffffffffff021916908373ffffffffffffffffffffffffffffffffffffffff1602179055506104c1806100746000396000f3fe608060405234801561001057600080fd5b50600436106100415760003560e01c806360750a4f1461004657806368a0a80414610076578063741bef1a146100a6575b600080fd5b610060600480360381019061005b9190610218565b6100c4565b60405161006d9190610271565b60405180910390f35b610090600480360381019061008b9190610218565b6100f9565b60405161009d919061029b565b60405180910390f35b6100ae61015b565b6040516100bb91906102c5565b60405180910390f35b60004283836040516020016100db93929190610349565b60405160208183030381529060405280519060200120905092915050565b600066038d7ea4c680006001606442868660405160200161011c93929190610349565b6040516020818303038152906040528051906020012060001c61013f91906103b5565b6101499190610415565b6101539190610449565b905092915050565b60008054906101000a900473ffffffffffffffffffffffffffffffffffffffff1681565b600080fd5b600073ffffffffffffffffffffffffffffffffffffffff82169050919050565b60006101af82610184565b9050919050565b6101bf816101a4565b81146101ca57600080fd5b50565b6000813590506101dc816101b6565b92915050565b6000819050919050565b6101f5816101e2565b811461020057600080fd5b50565b600081359050610212816101ec565b92915050565b6000806040838503121561022f5761022e61017f565b5b600061023d858286016101cd565b925050602061024e85828601610203565b9150509250929050565b6000819050919050565b61026b81610258565b82525050565b60006020820190506102866000830184610262565b92915050565b610295816101e2565b82525050565b60006020820190506102b0600083018461028c565b92915050565b6102bf816101a4565b82525050565b60006020820190506102da60008301846102b6565b92915050565b6000819050919050565b6102fb6102f6826101e2565b6102e0565b82525050565b60008160601b9050919050565b600061031982610301565b9050919050565b600061032b8261030e565b9050919050565b61034361033e826101a4565b610320565b82525050565b600061035582866102ea565b6020820191506103658285610332565b60148201915061037582846102ea565b602082019150819050949350505050565b7f4e487b7100000000000000000000000000000000000000000000000000000000600052601260045260246000fd5b60006103c0826101e2565b91506103cb836101e2565b9250826103db576103da610386565b5b828206905092915050565b7f4e487b7100000000000000000000000000000000000000000000000000000000600052601160045260246000fd5b6000610420826101e2565b915061042b836101e2565b9250828201905080821115610443576104426103e6565b5b92915050565b6000610454826101e2565b915061045f836101e2565b925082820261046d816101e2565b91508282048414831517610484576104836103e6565b5b509291505056fea26469706673582212205950d080222a21000c48f6779801be49062546c8f877be34765c809927b6abf764736f6c63430008110033",
  "linkReferences": {},
  "deployedLinkReferences": {}
}